{"contracts/Mockcontract.sol":{"Mockcontract":{"abi":[{"inputs":[],"name":"peek","outputs":[{"internalType":"bytes32","name":"","type":"bytes32"},{"internalType":"bool","name":"","type":"bool"}],"stateMutability":"view","type":"function"},{"inputs":[],"name":"void","outputs":[],"stateMutability":"nonpayable","type":"function"}],"evm":{"bytecode":{"linkReferences":{},"object":"6080604052348015600f57600080fd5b5060ad8061001e6000396000f3fe6080604052348015600f57600080fd5b506004361060325760003560e01c806359e02dd7146037578063ac4c25b2146056575b600080fd5b603d605e565b6040805192835290151560208301528051918290030190f35b605c606b565b005b60015460005460ff169091565b6000805460ff1916905556fea26469706673582212206bdada6f20af2d3a96301a349dcce97c9e0fea3ba4459e263c2887928285aa8564736f6c634300060c0033","opcodes":"PUSH1 0x80 PUSH1 0x40 MSTORE CALLVALUE DUP1 ISZERO PUSH1 0xF JUMPI PUSH1 0x0 DUP1 REVERT JUMPDEST POP PUSH1 0xAD DUP1 PUSH2 0x1E PUSH1 0x0 CODECOPY PUSH1 0x0 RETURN INVALID PUSH1 0x80 PUSH1 0x40 MSTORE CALLVALUE DUP1 ISZERO PUSH1 0xF JUMPI PUSH1 0x0 DUP1 REVERT JUMPDEST POP PUSH1 0x4 CALLDATASIZE LT PUSH1 0x32 JUMPI PUSH1 0x0 CALLDATALOAD PUSH1 0xE0 SHR DUP1 PUSH4 0x59E02DD7 EQ PUSH1 0x37 JUMPI DUP1 PUSH4 0xAC4C25B2 EQ PUSH1 0x56 JUMPI JUMPDEST PUSH1 0x0 DUP1 REVERT JUMPDEST PUSH1 0x3D PUSH1 0x5E JUMP JUMPDEST PUSH1 0x40 DUP1 MLOAD SWAP3 DUP4 MSTORE SWAP1 ISZERO ISZERO PUSH1 0x20 DUP4 ADD MSTORE DUP1 MLOAD SWAP2 DUP3 SWAP1 SUB ADD SWAP1 RETURN JUMPDEST PUSH1 0x5C PUSH1 0x6B JUMP JUMPDEST STOP JUMPDEST PUSH1 0x1 SLOAD PUSH1 0x0 SLOAD PUSH1 0xFF AND SWAP1 SWAP2 JUMP JUMPDEST PUSH1 0x0 DUP1 SLOAD PUSH1 0xFF NOT AND SWAP1 SSTORE JUMP INVALID LOG2 PUSH5 0x6970667358 0x22 SLT KECCAK256 PUSH12 0xDADA6F20AF2D3A96301A349D 0xCC 0xE9 PUSH29 0x9E0FEA3BA4459E263C2887928285AA8564736F6C634300060C00330000 "},"methodIdentifiers":{"peek()":"59e02dd7","void()":"ac4c25b2"}}}}}