{
  "_format": "hh-sol-artifact-1",
  "contractName": "ExponentialDecrease",
  "sourceName": "contracts/dss/abaci.sol",
  "abi": [
    {
      "inputs": [],
      "stateMutability": "nonpayable",
      "type": "constructor"
    },
    {
      "anonymous": false,
      "inputs": [
        {
          "indexed": true,
          "internalType": "address",
          "name": "usr",
          "type": "address"
        }
      ],
      "name": "Deny",
      "type": "event"
    },
    {
      "anonymous": false,
      "inputs": [
        {
          "indexed": true,
          "internalType": "bytes32",
          "name": "what",
          "type": "bytes32"
        },
        {
          "indexed": false,
          "internalType": "uint256",
          "name": "data",
          "type": "uint256"
        }
      ],
      "name": "File",
      "type": "event"
    },
    {
      "anonymous": false,
      "inputs": [
        {
          "indexed": true,
          "internalType": "address",
          "name": "usr",
          "type": "address"
        }
      ],
      "name": "Rely",
      "type": "event"
    },
    {
      "inputs": [],
      "name": "cut",
      "outputs": [
        {
          "internalType": "uint256",
          "name": "",
          "type": "uint256"
        }
      ],
      "stateMutability": "view",
      "type": "function"
    },
    {
      "inputs": [
        {
          "internalType": "address",
          "name": "usr",
          "type": "address"
        }
      ],
      "name": "deny",
      "outputs": [],
      "stateMutability": "nonpayable",
      "type": "function"
    },
    {
      "inputs": [
        {
          "internalType": "bytes32",
          "name": "what",
          "type": "bytes32"
        },
        {
          "internalType": "uint256",
          "name": "data",
          "type": "uint256"
        }
      ],
      "name": "file",
      "outputs": [],
      "stateMutability": "nonpayable",
      "type": "function"
    },
    {
      "inputs": [
        {
          "internalType": "uint256",
          "name": "top",
          "type": "uint256"
        },
        {
          "internalType": "uint256",
          "name": "dur",
          "type": "uint256"
        }
      ],
      "name": "price",
      "outputs": [
        {
          "internalType": "uint256",
          "name": "",
          "type": "uint256"
        }
      ],
      "stateMutability": "view",
      "type": "function"
    },
    {
      "inputs": [
        {
          "internalType": "address",
          "name": "usr",
          "type": "address"
        }
      ],
      "name": "rely",
      "outputs": [],
      "stateMutability": "nonpayable",
      "type": "function"
    },
    {
      "inputs": [
        {
          "internalType": "address",
          "name": "",
          "type": "address"
        }
      ],
      "name": "wards",
      "outputs": [
        {
          "internalType": "uint256",
          "name": "",
          "type": "uint256"
        }
      ],
      "stateMutability": "view",
      "type": "function"
    }
  ],
  "bytecode": "0x608060405234801561001057600080fd5b503360008181526020819052604080822060019055517fdd0e34038ac38b2a1ce960229778ac48a8719bc900b6c4f8d0475c6e8b385a609190a2610443806100596000396000f3fe608060405234801561001057600080fd5b50600436106100625760003560e01c806329ae811414610067578063487a23951461008c57806365fae35e146100c15780639c52a7f1146100e7578063bf353dbb1461010d578063e6fd604c14610133575b600080fd5b61008a6004803603604081101561007d57600080fd5b508035906020013561013b565b005b6100af600480360360408110156100a257600080fd5b5080359060200135610224565b60408051918252519081900360200190f35b61008a600480360360208110156100d757600080fd5b50356001600160a01b031661024e565b61008a600480360360208110156100fd57600080fd5b50356001600160a01b0316610293565b6100af6004803603602081101561012357600080fd5b50356001600160a01b03166102d7565b6100af6102e9565b816218dd5d60ea1b14156101b357676765c793fa10079d601b1b81600181905511156101ae576040805162461bcd60e51b815260206004820152601e60248201527f4578706f6e656e7469616c44656372656173652f6375742d67742d5241590000604482015290519081900360640190fd5b6101ea565b60405162461bcd60e51b815260040180806020018281038252602b8152602001806103e3602b913960400191505060405180910390fd5b60408051828152905183917fe986e40cc8c151830d4f61050f4fb2e4add8567caad2d5f5496f9158e91fe4c7919081900360200190a25050565b60006102478361024260015485676765c793fa10079d601b1b6102ef565b6103ad565b9392505050565b6001600160a01b03811660008181526020819052604080822060019055517fdd0e34038ac38b2a1ce960229778ac48a8719bc900b6c4f8d0475c6e8b385a609190a250565b6001600160a01b038116600081815260208190526040808220829055517f184450df2e323acec0ed3b5c7531b81f9b4cdef7914dfd4c0a4317416bb5251b9190a250565b60006020819052908152604090205481565b60015481565b60008280156103a1578480156103965760018516801561031157869350610315565b8493505b50600284046002860495505b8515610390578687028760801c1561033857600080fd5b8181018181101561034857600080fd5b869004975050600186161561038557868402848882041415881515161561036e57600080fd5b8181018181101561037e57600080fd5b8690049450505b600286049550610321565b5061039b565b600092505b506103a5565b8291505b509392505050565b8181028115806103c55750828282816103c257fe5b04145b6103ce57600080fd5b676765c793fa10079d601b1b90049291505056fe4578706f6e656e7469616c44656372656173652f66696c652d756e7265636f676e697a65642d706172616da2646970667358221220e35d412365c7acc5826e9b5ecaa09c74bf9df07711f8780502959c0089c73fab64736f6c634300060c0033",
  "linkReferences": {},
  "deployedLinkReferences": {}
}