{
  "_format": "hh-sol-artifact-1",
  "contractName": "StairstepExponentialDecrease",
  "sourceName": "contracts/dss/abaci.sol",
  "abi": [
    {
      "inputs": [],
      "stateMutability": "nonpayable",
      "type": "constructor"
    },
    {
      "anonymous": false,
      "inputs": [
        {
          "indexed": true,
          "internalType": "address",
          "name": "usr",
          "type": "address"
        }
      ],
      "name": "Deny",
      "type": "event"
    },
    {
      "anonymous": false,
      "inputs": [
        {
          "indexed": true,
          "internalType": "bytes32",
          "name": "what",
          "type": "bytes32"
        },
        {
          "indexed": false,
          "internalType": "uint256",
          "name": "data",
          "type": "uint256"
        }
      ],
      "name": "File",
      "type": "event"
    },
    {
      "anonymous": false,
      "inputs": [
        {
          "indexed": true,
          "internalType": "address",
          "name": "usr",
          "type": "address"
        }
      ],
      "name": "Rely",
      "type": "event"
    },
    {
      "inputs": [],
      "name": "cut",
      "outputs": [
        {
          "internalType": "uint256",
          "name": "",
          "type": "uint256"
        }
      ],
      "stateMutability": "view",
      "type": "function"
    },
    {
      "inputs": [
        {
          "internalType": "address",
          "name": "usr",
          "type": "address"
        }
      ],
      "name": "deny",
      "outputs": [],
      "stateMutability": "nonpayable",
      "type": "function"
    },
    {
      "inputs": [
        {
          "internalType": "bytes32",
          "name": "what",
          "type": "bytes32"
        },
        {
          "internalType": "uint256",
          "name": "data",
          "type": "uint256"
        }
      ],
      "name": "file",
      "outputs": [],
      "stateMutability": "nonpayable",
      "type": "function"
    },
    {
      "inputs": [
        {
          "internalType": "uint256",
          "name": "top",
          "type": "uint256"
        },
        {
          "internalType": "uint256",
          "name": "dur",
          "type": "uint256"
        }
      ],
      "name": "price",
      "outputs": [
        {
          "internalType": "uint256",
          "name": "",
          "type": "uint256"
        }
      ],
      "stateMutability": "view",
      "type": "function"
    },
    {
      "inputs": [
        {
          "internalType": "address",
          "name": "usr",
          "type": "address"
        }
      ],
      "name": "rely",
      "outputs": [],
      "stateMutability": "nonpayable",
      "type": "function"
    },
    {
      "inputs": [],
      "name": "step",
      "outputs": [
        {
          "internalType": "uint256",
          "name": "",
          "type": "uint256"
        }
      ],
      "stateMutability": "view",
      "type": "function"
    },
    {
      "inputs": [
        {
          "internalType": "address",
          "name": "",
          "type": "address"
        }
      ],
      "name": "wards",
      "outputs": [
        {
          "internalType": "uint256",
          "name": "",
          "type": "uint256"
        }
      ],
      "stateMutability": "view",
      "type": "function"
    }
  ],
  "bytecode": "0x608060405234801561001057600080fd5b503360008181526020819052604080822060019055517fdd0e34038ac38b2a1ce960229778ac48a8719bc900b6c4f8d0475c6e8b385a609190a261049a806100596000396000f3fe608060405234801561001057600080fd5b506004361061006d5760003560e01c806329ae811414610072578063487a23951461009757806365fae35e146100cc5780639c52a7f1146100f2578063bf353dbb14610118578063e25fe1751461013e578063e6fd604c14610146575b600080fd5b6100956004803603604081101561008857600080fd5b508035906020013561014e565b005b6100ba600480360360408110156100ad57600080fd5b508035906020013561023a565b60408051918252519081900360200190f35b610095600480360360208110156100e257600080fd5b50356001600160a01b031661026f565b6100956004803603602081101561010857600080fd5b50356001600160a01b03166102b4565b6100ba6004803603602081101561012e57600080fd5b50356001600160a01b03166102f8565b6100ba61030a565b6100ba610310565b816218dd5d60ea1b14156101b057676765c793fa10079d601b1b81600281905511156101ab5760405162461bcd60e51b815260040180806020018281038252602781526020018061040a6027913960400191505060405180910390fd5b610200565b81630737465760e41b14156101c9576001819055610200565b60405162461bcd60e51b81526004018080602001828103825260348152602001806104316034913960400191505060405180910390fd5b60408051828152905183917fe986e40cc8c151830d4f61050f4fb2e4add8567caad2d5f5496f9158e91fe4c7919081900360200190a25050565b600061026883610263600254600154868161025157fe5b04676765c793fa10079d601b1b610316565b6103d4565b9392505050565b6001600160a01b03811660008181526020819052604080822060019055517fdd0e34038ac38b2a1ce960229778ac48a8719bc900b6c4f8d0475c6e8b385a609190a250565b6001600160a01b038116600081815260208190526040808220829055517f184450df2e323acec0ed3b5c7531b81f9b4cdef7914dfd4c0a4317416bb5251b9190a250565b60006020819052908152604090205481565b60015481565b60025481565b60008280156103c8578480156103bd576001851680156103385786935061033c565b8493505b50600284046002860495505b85156103b7578687028760801c1561035f57600080fd5b8181018181101561036f57600080fd5b86900497505060018616156103ac57868402848882041415881515161561039557600080fd5b818101818110156103a557600080fd5b8690049450505b600286049550610348565b506103c2565b600092505b506103cc565b8291505b509392505050565b8181028115806103ec5750828282816103e957fe5b04145b6103f557600080fd5b676765c793fa10079d601b1b90049291505056fe5374616972737465704578706f6e656e7469616c44656372656173652f6375742d67742d5241595374616972737465704578706f6e656e7469616c44656372656173652f66696c652d756e7265636f676e697a65642d706172616da264697066735822122070e80876ec66d98c38244d7e845d668efd65a5b77d53822d0e0e24586cb61d1c64736f6c634300060c0033",
  "linkReferences": {},
  "deployedLinkReferences": {}
}