{
  "_format": "hh-sol-artifact-1",
  "contractName": "DSPauseProxy",
  "sourceName": "contracts/ds-pause/pause.sol",
  "abi": [
    {
      "inputs": [],
      "stateMutability": "nonpayable",
      "type": "constructor"
    },
    {
      "inputs": [
        {
          "internalType": "address",
          "name": "usr",
          "type": "address"
        },
        {
          "internalType": "bytes",
          "name": "fax",
          "type": "bytes"
        }
      ],
      "name": "exec",
      "outputs": [
        {
          "internalType": "bytes",
          "name": "out",
          "type": "bytes"
        }
      ],
      "stateMutability": "nonpayable",
      "type": "function"
    },
    {
      "inputs": [],
      "name": "owner",
      "outputs": [
        {
          "internalType": "address",
          "name": "",
          "type": "address"
        }
      ],
      "stateMutability": "view",
      "type": "function"
    }
  ],
  "bytecode": "0x608060405234801561001057600080fd5b50600080546001600160a01b031916331790556102cc806100326000396000f3fe608060405234801561001057600080fd5b50600436106100365760003560e01c80638da5cb5b1461003b578063be6002c21461005f575b600080fd5b610043610188565b604080516001600160a01b039092168252519081900360200190f35b6101136004803603604081101561007557600080fd5b6001600160a01b038235169190810190604081016020820135600160201b81111561009f57600080fd5b8201836020820111156100b157600080fd5b803590602001918460018302840111600160201b831117156100d257600080fd5b91908080601f016020809104026020016040519081016040528093929190818152602001838380828437600092019190915250929550610197945050505050565b6040805160208082528351818301528351919283929083019185019080838360005b8381101561014d578181015183820152602001610135565b50505050905090810190601f16801561017a5780820380516001836020036101000a031916815260200191505b509250505060405180910390f35b6000546001600160a01b031681565b60606000836001600160a01b0316836040518082805190602001908083835b602083106101d55780518252601f1990920191602091820191016101b6565b6001836020036101000a038019825116818451168082178552505050505050905001915050600060405180830381855af49150503d8060008114610235576040519150601f19603f3d011682016040523d82523d6000602084013e61023a565b606091505b50925090508061028f576040805162461bcd60e51b815260206004820152601b60248201527a323996b830bab9b296b232b632b3b0ba32b1b0b63616b2b93937b960291b604482015290519081900360640190fd5b509291505056fea2646970667358221220634a6e965b96371d9d4a4bd5bb7a5d658937748f7548b47d2405530ae294a37d64736f6c634300060c0033",
  "linkReferences": {},
  "deployedLinkReferences": {}
}