{
  "_format": "hh-sol-artifact-1",
  "contractName": "CalcFab",
  "sourceName": "contracts/DssDeploy.sol",
  "abi": [
    {
      "inputs": [
        {
          "internalType": "address",
          "name": "owner",
          "type": "address"
        }
      ],
      "name": "newExponentialDecrease",
      "outputs": [
        {
          "internalType": "contract ExponentialDecrease",
          "name": "calc",
          "type": "address"
        }
      ],
      "stateMutability": "nonpayable",
      "type": "function"
    },
    {
      "inputs": [
        {
          "internalType": "address",
          "name": "owner",
          "type": "address"
        }
      ],
      "name": "newLinearDecrease",
      "outputs": [
        {
          "internalType": "contract LinearDecrease",
          "name": "calc",
          "type": "address"
        }
      ],
      "stateMutability": "nonpayable",
      "type": "function"
    },
    {
      "inputs": [
        {
          "internalType": "address",
          "name": "owner",
          "type": "address"
        }
      ],
      "name": "newStairstepExponentialDecrease",
      "outputs": [
        {
          "internalType": "contract StairstepExponentialDecrease",
          "name": "calc",
          "type": "address"
        }
      ],
      "stateMutability": "nonpayable",
      "type": "function"
    }
  ],
  "bytecode": "0x608060405234801561001057600080fd5b50610f31806100206000396000f3fe608060405234801561001057600080fd5b50600436106100415760003560e01c80631888b91414610046578063db4d627114610088578063f9c2a759146100ae575b600080fd5b61006c6004803603602081101561005c57600080fd5b50356001600160a01b03166100d4565b604080516001600160a01b039092168252519081900360200190f35b61006c6004803603602081101561009e57600080fd5b50356001600160a01b031661016d565b61006c600480360360208110156100c457600080fd5b50356001600160a01b031661017b565b60006040516100e290610189565b604051809103906000f0801580156100fe573d6000803e3d6000fd5b509050806001600160a01b03166365fae35e836040518263ffffffff1660e01b815260040180826001600160a01b03168152602001915050600060405180830381600087803b15801561015057600080fd5b505af1158015610164573d6000803e3d6000fd5b50505050919050565b60006040516100e290610196565b60006040516100e2906101a3565b61049c806101b183390190565b6103bc8061064d83390190565b6104f380610a098339019056fe608060405234801561001057600080fd5b503360008181526020819052604080822060019055517fdd0e34038ac38b2a1ce960229778ac48a8719bc900b6c4f8d0475c6e8b385a609190a2610443806100596000396000f3fe608060405234801561001057600080fd5b50600436106100625760003560e01c806329ae811414610067578063487a23951461008c57806365fae35e146100c15780639c52a7f1146100e7578063bf353dbb1461010d578063e6fd604c14610133575b600080fd5b61008a6004803603604081101561007d57600080fd5b508035906020013561013b565b005b6100af600480360360408110156100a257600080fd5b5080359060200135610224565b60408051918252519081900360200190f35b61008a600480360360208110156100d757600080fd5b50356001600160a01b031661024e565b61008a600480360360208110156100fd57600080fd5b50356001600160a01b0316610293565b6100af6004803603602081101561012357600080fd5b50356001600160a01b03166102d7565b6100af6102e9565b816218dd5d60ea1b14156101b357676765c793fa10079d601b1b81600181905511156101ae576040805162461bcd60e51b815260206004820152601e60248201527f4578706f6e656e7469616c44656372656173652f6375742d67742d5241590000604482015290519081900360640190fd5b6101ea565b60405162461bcd60e51b815260040180806020018281038252602b8152602001806103e3602b913960400191505060405180910390fd5b60408051828152905183917fe986e40cc8c151830d4f61050f4fb2e4add8567caad2d5f5496f9158e91fe4c7919081900360200190a25050565b60006102478361024260015485676765c793fa10079d601b1b6102ef565b6103ad565b9392505050565b6001600160a01b03811660008181526020819052604080822060019055517fdd0e34038ac38b2a1ce960229778ac48a8719bc900b6c4f8d0475c6e8b385a609190a250565b6001600160a01b038116600081815260208190526040808220829055517f184450df2e323acec0ed3b5c7531b81f9b4cdef7914dfd4c0a4317416bb5251b9190a250565b60006020819052908152604090205481565b60015481565b60008280156103a1578480156103965760018516801561031157869350610315565b8493505b50600284046002860495505b8515610390578687028760801c1561033857600080fd5b8181018181101561034857600080fd5b869004975050600186161561038557868402848882041415881515161561036e57600080fd5b8181018181101561037e57600080fd5b8690049450505b600286049550610321565b5061039b565b600092505b506103a5565b8291505b509392505050565b8181028115806103c55750828282816103c257fe5b04145b6103ce57600080fd5b676765c793fa10079d601b1b90049291505056fe4578706f6e656e7469616c44656372656173652f66696c652d756e7265636f676e697a65642d706172616da2646970667358221220e35d412365c7acc5826e9b5ecaa09c74bf9df07711f8780502959c0089c73fab64736f6c634300060c0033608060405234801561001057600080fd5b503360008181526020819052604080822060019055517fdd0e34038ac38b2a1ce960229778ac48a8719bc900b6c4f8d0475c6e8b385a609190a2610363806100596000396000f3fe608060405234801561001057600080fd5b50600436106100625760003560e01c806329ae811414610067578063487a23951461008c57806365fae35e146100c15780639c52a7f1146100e7578063bf353dbb1461010d578063cfc4af5514610133575b600080fd5b61008a6004803603604081101561007d57600080fd5b508035906020013561013b565b005b6100af600480360360408110156100a257600080fd5b50803590602001356101c4565b60408051918252519081900360200190f35b61008a600480360360208110156100d757600080fd5b50356001600160a01b031661020d565b61008a600480360360208110156100fd57600080fd5b50356001600160a01b0316610252565b6100af6004803603602081101561012357600080fd5b50356001600160a01b0316610296565b6100af6102a8565b816274617560e81b141561015357600181905561018a565b60405162461bcd60e51b81526004018080602001828103825260268152602001806103086026913960400191505060405180910390fd5b60408051828152905183917fe986e40cc8c151830d4f61050f4fb2e4add8567caad2d5f5496f9158e91fe4c7919081900360200190a25050565b600060015482106101d757506000610207565b610204836001546101f78560015403676765c793fa10079d601b1b6102ae565b816101fe57fe5b046102d2565b90505b92915050565b6001600160a01b03811660008181526020819052604080822060019055517fdd0e34038ac38b2a1ce960229778ac48a8719bc900b6c4f8d0475c6e8b385a609190a250565b6001600160a01b038116600081815260208190526040808220829055517f184450df2e323acec0ed3b5c7531b81f9b4cdef7914dfd4c0a4317416bb5251b9190a250565b60006020819052908152604090205481565b60015481565b60008115806102c9575050808202828282816102c657fe5b04145b61020757600080fd5b8181028115806102ea5750828282816102e757fe5b04145b6102f357600080fd5b676765c793fa10079d601b1b90049291505056fe4c696e65617244656372656173652f66696c652d756e7265636f676e697a65642d706172616da264697066735822122079aec37f129e2f7a5452a5413d58ba4d248aa6b41724c776a796c9305de97c2664736f6c634300060c0033608060405234801561001057600080fd5b503360008181526020819052604080822060019055517fdd0e34038ac38b2a1ce960229778ac48a8719bc900b6c4f8d0475c6e8b385a609190a261049a806100596000396000f3fe608060405234801561001057600080fd5b506004361061006d5760003560e01c806329ae811414610072578063487a23951461009757806365fae35e146100cc5780639c52a7f1146100f2578063bf353dbb14610118578063e25fe1751461013e578063e6fd604c14610146575b600080fd5b6100956004803603604081101561008857600080fd5b508035906020013561014e565b005b6100ba600480360360408110156100ad57600080fd5b508035906020013561023a565b60408051918252519081900360200190f35b610095600480360360208110156100e257600080fd5b50356001600160a01b031661026f565b6100956004803603602081101561010857600080fd5b50356001600160a01b03166102b4565b6100ba6004803603602081101561012e57600080fd5b50356001600160a01b03166102f8565b6100ba61030a565b6100ba610310565b816218dd5d60ea1b14156101b057676765c793fa10079d601b1b81600281905511156101ab5760405162461bcd60e51b815260040180806020018281038252602781526020018061040a6027913960400191505060405180910390fd5b610200565b81630737465760e41b14156101c9576001819055610200565b60405162461bcd60e51b81526004018080602001828103825260348152602001806104316034913960400191505060405180910390fd5b60408051828152905183917fe986e40cc8c151830d4f61050f4fb2e4add8567caad2d5f5496f9158e91fe4c7919081900360200190a25050565b600061026883610263600254600154868161025157fe5b04676765c793fa10079d601b1b610316565b6103d4565b9392505050565b6001600160a01b03811660008181526020819052604080822060019055517fdd0e34038ac38b2a1ce960229778ac48a8719bc900b6c4f8d0475c6e8b385a609190a250565b6001600160a01b038116600081815260208190526040808220829055517f184450df2e323acec0ed3b5c7531b81f9b4cdef7914dfd4c0a4317416bb5251b9190a250565b60006020819052908152604090205481565b60015481565b60025481565b60008280156103c8578480156103bd576001851680156103385786935061033c565b8493505b50600284046002860495505b85156103b7578687028760801c1561035f57600080fd5b8181018181101561036f57600080fd5b86900497505060018616156103ac57868402848882041415881515161561039557600080fd5b818101818110156103a557600080fd5b8690049450505b600286049550610348565b506103c2565b600092505b506103cc565b8291505b509392505050565b8181028115806103ec5750828282816103e957fe5b04145b6103f557600080fd5b676765c793fa10079d601b1b90049291505056fe5374616972737465704578706f6e656e7469616c44656372656173652f6375742d67742d5241595374616972737465704578706f6e656e7469616c44656372656173652f66696c652d756e7265636f676e697a65642d706172616da264697066735822122070e80876ec66d98c38244d7e845d668efd65a5b77d53822d0e0e24586cb61d1c64736f6c634300060c0033a2646970667358221220f80f4c07861f743175c7d6475646f20798109d1d053ccb15a1875baf535974cc64736f6c634300060c0033",
  "linkReferences": {},
  "deployedLinkReferences": {}
}