{
  "_format": "hh-sol-artifact-1",
  "contractName": "CatFab",
  "sourceName": "contracts/DssDeploy.sol",
  "abi": [
    {
      "inputs": [
        {
          "internalType": "address",
          "name": "owner",
          "type": "address"
        },
        {
          "internalType": "address",
          "name": "vat",
          "type": "address"
        }
      ],
      "name": "newCat",
      "outputs": [
        {
          "internalType": "contract Cat",
          "name": "cat",
          "type": "address"
        }
      ],
      "stateMutability": "nonpayable",
      "type": "function"
    }
  ],
  "bytecode": "0x608060405234801561001057600080fd5b50610f79806100206000396000f3fe608060405234801561001057600080fd5b506004361061002b5760003560e01c8063a5ff725a14610030575b600080fd5b61005e6004803603604081101561004657600080fd5b506001600160a01b038135811691602001351661007a565b604080516001600160a01b039092168252519081900360200190f35b60008160405161008990610126565b6001600160a01b03909116815260405190819003602001906000f0801580156100b6573d6000803e3d6000fd5b509050806001600160a01b03166365fae35e846040518263ffffffff1660e01b815260040180826001600160a01b03168152602001915050600060405180830381600087803b15801561010857600080fd5b505af115801561011c573d6000803e3d6000fd5b5050505092915050565b610e10806101348339019056fe608060405234801561001057600080fd5b50604051610e10380380610e108339818101604052602081101561003357600080fd5b5051336000908152602081905260409020600190819055600380546001600160a01b039093166001600160a01b031990931692909217909155600255610d928061007e6000396000f3fe608060405234801561001057600080fd5b50600436106100d05760003560e01c80631a0b287e146100d557806329ae81141461010057806336569e771461012357806345cf223014610147578063626cb3c51461018557806365fae35e1461018d57806369245009146101b3578063754215a1146101bb578063957aa58c146101c35780639c52a7f1146101cb578063a4fe8caf146101f1578063bf353dbb146101f9578063d4e8be831461021f578063d9638d361461024b578063e66d279b14610290578063ebecb39d146102ad575b600080fd5b6100fe600480360360608110156100eb57600080fd5b50803590602081013590604001356102df565b005b6100fe6004803603604081101561011657600080fd5b50803590602001356103b7565b61012b610404565b604080516001600160a01b039092168252519081900360200190f35b6101736004803603604081101561015d57600080fd5b50803590602001356001600160a01b0316610413565b60408051918252519081900360200190f35b61012b610a10565b6100fe600480360360208110156101a357600080fd5b50356001600160a01b0316610a1f565b6100fe610a3c565b610173610a6c565b610173610a72565b6100fe600480360360208110156101e157600080fd5b50356001600160a01b0316610a78565b610173610a92565b6101736004803603602081101561020f57600080fd5b50356001600160a01b0316610a98565b6100fe6004803603604081101561023557600080fd5b50803590602001356001600160a01b0316610aaa565b6102686004803603602081101561026157600080fd5b5035610b16565b604080516001600160a01b039094168452602084019290925282820152519081900360600190f35b6100fe600480360360208110156102a657600080fd5b5035610b42565b6100fe600480360360608110156102c357600080fd5b50803590602081013590604001356001600160a01b0316610b87565b8163063686f760e41b14156103085760008381526001602081905260409091200181905561037b565b816364756e6b60e01b141561033057600083815260016020526040902060020181905561037b565b6040805162461bcd60e51b815260206004820152601b60248201527a4361742f66696c652d756e7265636f676e697a65642d706172616d60281b604482015290519081900360640190fd5b604080518281529051839185917f851aa1caf4888170ad8875449d18f0f512fd6deb2a6571ea1a41fb9f95acbcd19181900360200190a3505050565b81620c4def60eb1b141561033057600581905560408051828152905183917fe986e40cc8c151830d4f61050f4fb2e4add8567caad2d5f5496f9158e91fe4c7919081900360200190a25050565b6003546001600160a01b031681565b60035460408051636cb1c69b60e11b81526004810185905290516000928392839283926001600160a01b03169163d9638d369160248083019260a0929190829003018186803b15801561046557600080fd5b505afa158015610479573d6000803e3d6000fd5b505050506040513d60a081101561048f57600080fd5b50602081015160408083015160809093015160035482516309092f9760e21b8152600481018c90526001600160a01b038b8116602483015284519599509597509195506000948594911692632424be5c9260448082019391829003018186803b1580156104fb57600080fd5b505afa15801561050f573d6000803e3d6000fd5b505050506040513d604081101561052557600080fd5b5080516020909101516002549193509150600114610579576040805162461bcd60e51b815260206004820152600c60248201526b4361742f6e6f742d6c69766560a01b604482015290519081900360640190fd5b60008411801561059a575061058e8186610cd0565b6105988386610cd0565b105b6105dc576040805162461bcd60e51b815260206004820152600e60248201526d4361742f6e6f742d756e7361666560901b604482015290519081900360640190fd5b6105e4610d32565b506000888152600160208181526040808420815160608101835281546001600160a01b03168152938101549284019290925260029091015490820152600554600654919291829161063491610cfa565b90506005546006541080156106495750858110155b610696576040805162461bcd60e51b815260206004820152601960248201527810d85d0bdb1a5c5d5a59185d1a5bdb8b5b1a5b5a5d0b5a1a5d603a1b604482015290519081900360640190fd5b6106d48484602001518a6106bf6106b1886040015187610d0a565b670de0b6b3a7640000610cd0565b816106c657fe5b04816106ce57fe5b04610d0a565b91505060006106ef85856106e88886610cd0565b816106ce57fe5b90506000821180156107015750600081115b610745576040805162461bcd60e51b815260206004820152601060248201526f21b0ba17b73ab63616b0bab1ba34b7b760811b604482015290519081900360640190fd5b600160ff1b821115801561075d5750600160ff1b8111155b61079d576040805162461bcd60e51b815260206004820152600c60248201526b4361742f6f766572666c6f7760a01b604482015290519081900360640190fd5b60035460048054604080516301eeacfd60e61b81529283018f90526001600160a01b038e8116602485015230604485015291821660648401526000858103608485015286810360a485015290519190931692637bab3f409260c4808201939182900301818387803b15801561081157600080fd5b505af1158015610825573d6000803e3d6000fd5b50506004546001600160a01b0316915063697efb789050610846848b610cd0565b6040518263ffffffff1660e01b815260040180828152602001915050600060405180830381600087803b15801561087c57600080fd5b505af1158015610890573d6000803e3d6000fd5b505050506000670de0b6b3a76400006108b66108ac858c610cd0565b8660200151610cd0565b816108bd57fe5b0490506108cc60065482610d22565b60068190555083600001516001600160a01b031663351de6008c600460009054906101000a90046001600160a01b0316848660006040518663ffffffff1660e01b815260040180866001600160a01b03168152602001856001600160a01b0316815260200184815260200183815260200182815260200195505050505050602060405180830381600087803b15801561096457600080fd5b505af1158015610978573d6000803e3d6000fd5b505050506040513d602081101561098e57600080fd5b50519950506001600160a01b038a168b7fa716da86bc1fb6d43d1493373f34d7a418b619681cd7b90f7ea667ba1489be2883856109cb818e610cd0565b8851604080519485526020850193909352838301919091526001600160a01b03166060830152608082018e9052519081900360a00190a3505050505050505092915050565b6004546001600160a01b031681565b6001600160a01b0316600090815260208190526040902060019055565b600060028190556040517f2308ed18a14e800c39b86eb6ea43270105955ca385b603b64eca89f98ae8fbda9190a1565b60055481565b60025481565b6001600160a01b0316600090815260208190526040812055565b60065481565b60006020819052908152604090205481565b8162766f7760e81b141561033057600480546001600160a01b0319166001600160a01b038316179055604080516001600160a01b0383168152905183917f8fef588b5fc1afbf5b2f06c1a435d513f208da2e6704c3d8f0e0ec91167066ba919081900360200190a25050565b60016020819052600091825260409091208054918101546002909101546001600160a01b039092169183565b610b4e60065482610cfa565b6006556040805182815290517f3f7ee901efb580c5bfcf319e7aa61eef2a2d0d95238580cbfff8657af6a0f5da9181900360200190a150565b81630666c69760e41b141561033057600354600084815260016020526040808220548151636e26907d60e11b81526001600160a01b039182166004820152915193169263dc4d20fa9260248084019391929182900301818387803b158015610bee57600080fd5b505af1158015610c02573d6000803e3d6000fd5b50505060008481526001602052604080822080546001600160a01b0319166001600160a01b0386811691821790925560035483516328ec8bf160e21b81526004810192909252925192909116935063a3b22fc492602480830193919282900301818387803b158015610c7357600080fd5b505af1158015610c87573d6000803e3d6000fd5b50505050604080516001600160a01b03831681529051839185917f4ff2caaa972a7c6629ea01fae9c93d73cc307d13ea4c369f9bbbb7f9b7e9461d9181900360200190a3505050565b6000811580610ceb57505080820282828281610ce857fe5b04145b610cf457600080fd5b92915050565b80820382811115610cf457600080fd5b600081831115610d1b575080610cf4565b5090919050565b80820182811015610cf457600080fd5b604051806060016040528060006001600160a01b031681526020016000815260200160008152509056fea2646970667358221220d3241ee49b975a993141d028cf4642113798a7d5719a1cde1f9934c2f67f94d664736f6c634300060c0033a26469706673582212205f1050728f3191fbf2bbba19ce8c6a1353ba86ca8c93c00621ad7aab692cf36264736f6c634300060c0033",
  "linkReferences": {},
  "deployedLinkReferences": {}
}