{
  "_format": "hh-sol-artifact-1",
  "contractName": "CureFab",
  "sourceName": "contracts/DssDeploy.sol",
  "abi": [
    {
      "inputs": [
        {
          "internalType": "address",
          "name": "owner",
          "type": "address"
        }
      ],
      "name": "newCure",
      "outputs": [
        {
          "internalType": "contract Cure",
          "name": "cure",
          "type": "address"
        }
      ],
      "stateMutability": "nonpayable",
      "type": "function"
    }
  ],
  "bytecode": "0x608060405234801561001057600080fd5b50610eac806100206000396000f3fe608060405234801561001057600080fd5b506004361061002b5760003560e01c806304298db614610030575b600080fd5b6100566004803603602081101561004657600080fd5b50356001600160a01b0316610072565b604080516001600160a01b039092168252519081900360200190f35b60006040516100809061010b565b604051809103906000f08015801561009c573d6000803e3d6000fd5b509050806001600160a01b03166365fae35e836040518263ffffffff1660e01b815260040180826001600160a01b03168152602001915050600060405180830381600087803b1580156100ee57600080fd5b505af1158015610102573d6000803e3d6000fd5b50505050919050565b610d5e806101198339019056fe608060405234801561001057600080fd5b5060018080553360008181526020819052604080822093909355915190917fdd0e34038ac38b2a1ce960229778ac48a8719bc900b6c4f8d0475c6e8b385a6091a2610cfe806100606000396000f3fe608060405234801561001057600080fd5b50600436106100fc5760003560e01c806309615662146101015780630f560cd71461013957806329ae8114146101915780632f40e734146101b65780633c278bd5146101dc578063493aa4c71461020257806353d700e51461020a57806353f9a8731461021257806364bd70131461021a57806365fae35e14610222578063692450091461024857806391f2700a1461025057806393d0281c14610276578063954ab4b21461029c578063957aa58c146102a45780639c52a7f1146102ac578063bf353dbb146102d2578063e2b0caef146102f8578063f381273f14610300578063ffa9ca9f14610339575b600080fd5b6101276004803603602081101561011757600080fd5b50356001600160a01b031661035f565b60408051918252519081900360200190f35b610141610371565b60408051602080825283518183015283519192839290830191858101910280838360005b8381101561017d578181015183820152602001610165565b505050509050019250505060405180910390f35b6101b4600480360360408110156101a757600080fd5b50803590602001356103d3565b005b6101b4600480360360208110156101cc57600080fd5b50356001600160a01b03166104b9565b6101b4600480360360208110156101f257600080fd5b50356001600160a01b0316610695565b6101276107cc565b6101276107d2565b610127610837565b61012761083d565b6101b46004803603602081101561023857600080fd5b50356001600160a01b0316610843565b6101b46108cf565b6101b46004803603602081101561026657600080fd5b50356001600160a01b0316610957565b6101276004803603602081101561028c57600080fd5b50356001600160a01b0316610b0a565b610127610b1c565b610127610b22565b6101b4600480360360208110156102c257600080fd5b50356001600160a01b0316610b28565b610127600480360360208110156102e857600080fd5b50356001600160a01b0316610bb3565b610127610bc5565b61031d6004803603602081101561031657600080fd5b5035610bcb565b604080516001600160a01b039092168252519081900360200190f35b6101276004803603602081101561034f57600080fd5b50356001600160a01b0316610bf2565b60066020526000908152604090205481565b606060028054806020026020016040519081016040528092919081815260200182805480156103c957602002820191906000526020600020905b81546001600160a01b031681526001909101906020018083116103ab575b5050505050905090565b60015460011461041a576040805162461bcd60e51b815260206004820152600d60248201526c437572652f6e6f742d6c69766560981b604482015290519081900360640190fd5b81631dd85a5d60e21b141561043357600381905561047f565b6040805162461bcd60e51b815260206004820152601c60248201527b437572652f66696c652d756e7265636f676e697a65642d706172616d60201b604482015290519081900360640190fd5b60408051828152905183917fe986e40cc8c151830d4f61050f4fb2e4add8567caad2d5f5496f9158e91fe4c7919081900360200190a25050565b60015415610500576040805162461bcd60e51b815260206004820152600f60248201526e437572652f7374696c6c2d6c69766560881b604482015290519081900360640190fd5b6001600160a01b038116600090815260056020526040902054610565576040805162461bcd60e51b8152602060048201526018602482015277437572652f6e6f6e2d6578697374696e672d736f7572636560401b604482015290519081900360640190fd5b6001600160a01b038116600081815260066020908152604080832054815163840782ed60e01b8152915190949263840782ed9260048082019391829003018186803b1580156105b357600080fd5b505afa1580156105c7573d6000803e3d6000fd5b505050506040513d60208110156105dd57600080fd5b50516001600160a01b03841660009081526006602052604090208190556009549091506106149061060e9084610c04565b82610c57565b6009556001600160a01b03831660009081526007602052604090205461065c576001600160a01b03831660009081526007602052604090206001908190556008805490910190555b6040516001600160a01b038416907fe90dfdfab1f4f73aeba2ef47b366c3c4118d3c38cab46bb993f7ed257a61c8c090600090a2505050565b6001546001146106dc576040805162461bcd60e51b815260206004820152600d60248201526c437572652f6e6f742d6c69766560981b604482015290519081900360640190fd5b6001600160a01b03811660009081526005602052604090205415610746576040805162461bcd60e51b815260206004820152601c60248201527b437572652f616c72656164792d6578697374696e672d736f7572636560201b604482015290519081900360640190fd5b600280546001810182557f405787fa12a823e0f2b7631cc41b3ba8828b3321ca811111fa75cd3aa3bb5ace0180546001600160a01b0319166001600160a01b03841690811790915590546000828152600560205260408082209290925590517f2b07094bdf192088dc9d18c2c3a2b11b7f1df5d6f3460343964c059221e3f0489190a250565b60085481565b600060015460001480156107f5575060025460085414806107f557506004544210155b6108305760405162461bcd60e51b8152600401808060200182810382526025815260200180610ca46025913960400191505060405180910390fd5b5060095490565b60025490565b60035481565b60015460011461088a576040805162461bcd60e51b815260206004820152600d60248201526c437572652f6e6f742d6c69766560981b604482015290519081900360640190fd5b6001600160a01b03811660008181526020819052604080822060019055517fdd0e34038ac38b2a1ce960229778ac48a8719bc900b6c4f8d0475c6e8b385a609190a250565b600154600114610916576040805162461bcd60e51b815260206004820152600d60248201526c437572652f6e6f742d6c69766560981b604482015290519081900360640190fd5b6000600155600354610929904290610c57565b6004556040517f2308ed18a14e800c39b86eb6ea43270105955ca385b603b64eca89f98ae8fbda90600090a1565b60015460011461099e576040805162461bcd60e51b815260206004820152600d60248201526c437572652f6e6f742d6c69766560981b604482015290519081900360640190fd5b6001600160a01b03811660009081526005602052604090205480610a04576040805162461bcd60e51b8152602060048201526018602482015277437572652f6e6f6e2d6578697374696e672d736f7572636560401b604482015290519081900360640190fd5b60025480821015610a8957600060026001830381548110610a2157fe5b600091825260209091200154600280546001600160a01b03909216925082916000198601908110610a4e57fe5b600091825260208083209190910180546001600160a01b0319166001600160a01b039485161790559290911681526005909152604090208290555b6002805480610a9457fe5b60008281526020808220830160001990810180546001600160a01b03191690559092019092556001600160a01b0385168083526005825260408084208490556006909252818320839055905190917fdbc628f334a9c7bf46419d864ca89e17415703fa12263f2284d94cc9b75b659e91a2505050565b60056020526000908152604090205481565b60095481565b60015481565b600154600114610b6f576040805162461bcd60e51b815260206004820152600d60248201526c437572652f6e6f742d6c69766560981b604482015290519081900360640190fd5b6001600160a01b038116600081815260208190526040808220829055517f184450df2e323acec0ed3b5c7531b81f9b4cdef7914dfd4c0a4317416bb5251b9190a250565b60006020819052908152604090205481565b60045481565b60028181548110610bd857fe5b6000918252602090912001546001600160a01b0316905081565b60076020526000908152604090205481565b80820382811115610c51576040805162461bcd60e51b8152602060048201526012602482015271437572652f7375622d756e646572666c6f7760701b604482015290519081900360640190fd5b92915050565b80820182811015610c51576040805162461bcd60e51b8152602060048201526011602482015270437572652f6164642d6f766572666c6f7760781b604482015290519081900360640190fdfe437572652f6d697373696e672d6c6f61642d616e642d74696d652d6e6f742d706173736564a2646970667358221220abb35ea46ad16599f27c6b9c1577d9922db5dbe102deb1ebe330f1e67caa697264736f6c634300060c0033a2646970667358221220cd64bb0d7a316b86ac4292cd084f18883d7a3dd134fcdf5a4505052bb1f7491164736f6c634300060c0033",
  "linkReferences": {},
  "deployedLinkReferences": {}
}