{
  "_format": "hh-sol-artifact-1",
  "contractName": "DogFab",
  "sourceName": "contracts/DssDeploy.sol",
  "abi": [
    {
      "inputs": [
        {
          "internalType": "address",
          "name": "owner",
          "type": "address"
        },
        {
          "internalType": "address",
          "name": "vat",
          "type": "address"
        }
      ],
      "name": "newDog",
      "outputs": [
        {
          "internalType": "contract Dog",
          "name": "dog",
          "type": "address"
        }
      ],
      "stateMutability": "nonpayable",
      "type": "function"
    }
  ],
  "bytecode": "0x608060405234801561001057600080fd5b506111cf806100206000396000f3fe608060405234801561001057600080fd5b506004361061002b5760003560e01c806312147c0f14610030575b600080fd5b61005e6004803603604081101561004657600080fd5b506001600160a01b038135811691602001351661007a565b604080516001600160a01b039092168252519081900360200190f35b60008160405161008990610126565b6001600160a01b03909116815260405190819003602001906000f0801580156100b6573d6000803e3d6000fd5b509050806001600160a01b03166365fae35e846040518263ffffffff1660e01b815260040180826001600160a01b03168152602001915050600060405180830381600087803b15801561010857600080fd5b505af115801561011c573d6000803e3d6000fd5b5050505092915050565b611066806101348339019056fe60a060405234801561001057600080fd5b506040516110663803806110668339818101604052602081101561003357600080fd5b50516001600160601b0319606082901b16608052600160038190553360008181526020819052604080822093909355915190917fdd0e34038ac38b2a1ce960229778ac48a8719bc900b6c4f8d0475c6e8b385a6091a25060805160601c610fb06100b660003980610499528061084c52806109645280610c7b5250610fb06000f3fe608060405234801561001057600080fd5b50600436106100db5760003560e01c80631a0b287e146100e057806329ae81141461010b57806336569e771461012e578063626cb3c51461015257806365fae35e1461015a5780636924500914610180578063957aa58c146101885780639c52a7f1146101a2578063af7cfeb1146101c8578063bf353dbb146101d0578063c87193f4146101f6578063d4e8be8314610219578063d792653814610245578063d9638d3614610262578063ebecb39d146102af578063ed998908146102e1578063eda6e12114610315575b600080fd5b610109600480360360608110156100f657600080fd5b508035906020810135906040013561031d565b005b6101096004803603604081101561012157600080fd5b5080359060200135610449565b610136610497565b604080516001600160a01b039092168252519081900360200190f35b6101366104bb565b6101096004803603602081101561017057600080fd5b50356001600160a01b03166104ca565b61010961050f565b61019061053f565b60408051918252519081900360200190f35b610109600480360360208110156101b857600080fd5b50356001600160a01b0316610545565b610190610589565b610190600480360360208110156101e657600080fd5b50356001600160a01b031661058f565b6101096004803603604081101561020c57600080fd5b50803590602001356105a1565b6101096004803603604081101561022f57600080fd5b50803590602001356001600160a01b031661061a565b6101906004803603602081101561025b57600080fd5b5035610686565b61027f6004803603602081101561027857600080fd5b503561069c565b604080516001600160a01b0390951685526020850193909352838301919091526060830152519081900360800190f35b610109600480360360608110156102c557600080fd5b50803590602081013590604001356001600160a01b03166106d0565b610190600480360360608110156102f757600080fd5b508035906001600160a01b03602082013581169160400135166107ff565b610190610eb6565b8163063686f760e41b141561039a57670de0b6b3a7640000811015610380576040805162461bcd60e51b8152602060048201526014602482015273111bd9cbd99a5b194b58da1bdc0b5b1d0b55d05160621b604482015290519081900360640190fd5b60008381526001602081905260409091200181905561040d565b8163686f6c6560e01b14156103c257600083815260016020526040902060020181905561040d565b6040805162461bcd60e51b815260206004820152601b60248201527a446f672f66696c652d756e7265636f676e697a65642d706172616d60281b604482015290519081900360640190fd5b604080518281529051839185917f851aa1caf4888170ad8875449d18f0f512fd6deb2a6571ea1a41fb9f95acbcd19181900360200190a3505050565b8163486f6c6560e01b14156103c257600481905560408051828152905183917fe986e40cc8c151830d4f61050f4fb2e4add8567caad2d5f5496f9158e91fe4c7919081900360200190a25050565b7f000000000000000000000000000000000000000000000000000000000000000081565b6002546001600160a01b031681565b6001600160a01b03811660008181526020819052604080822060019055517fdd0e34038ac38b2a1ce960229778ac48a8719bc900b6c4f8d0475c6e8b385a609190a250565b600060038190556040517f2308ed18a14e800c39b86eb6ea43270105955ca385b603b64eca89f98ae8fbda9190a1565b60035481565b6001600160a01b038116600081815260208190526040808220829055517f184450df2e323acec0ed3b5c7531b81f9b4cdef7914dfd4c0a4317416bb5251b9190a250565b60045481565b60006020819052908152604090205481565b6105ad60055482610ebc565b6005556000828152600160205260409020600301546105cc9082610ebc565b600083815260016020908152604091829020600301929092558051838152905184927f54f095dc7308776bf01e8580e4dd40fd959ea4bf50b069975768320ef8d77d8a928290030190a25050565b8162766f7760e81b14156103c257600280546001600160a01b0319166001600160a01b038316179055604080516001600160a01b0383168152905183917f8fef588b5fc1afbf5b2f06c1a435d513f208da2e6704c3d8f0e0ec91167066ba919081900360200190a25050565b6000908152600160208190526040909120015490565b600160208190526000918252604090912080549181015460028201546003909201546001600160a01b039093169290919084565b81630636c69760e41b14156103c257806001600160a01b031663c5ce281e6040518163ffffffff1660e01b815260040160206040518083038186803b15801561071857600080fd5b505afa15801561072c573d6000803e3d6000fd5b505050506040513d602081101561074257600080fd5b50518314610793576040805162461bcd60e51b8152602060048201526019602482015278446f672f66696c652d696c6b2d6e65712d636c69702e696c6b60381b604482015290519081900360640190fd5b600083815260016020526040902080546001600160a01b0319166001600160a01b038316179055604080516001600160a01b03831681529051839185917f4ff2caaa972a7c6629ea01fae9c93d73cc307d13ea4c369f9bbbb7f9b7e9461d9181900360200190a3505050565b6000600354600114610847576040805162461bcd60e51b815260206004820152600c60248201526b446f672f6e6f742d6c69766560a01b604482015290519081900360640190fd5b6000807f00000000000000000000000000000000000000000000000000000000000000006001600160a01b0316632424be5c87876040518363ffffffff1660e01b815260040180838152602001826001600160a01b0316815260200192505050604080518083038186803b1580156108be57600080fd5b505afa1580156108d2573d6000803e3d6000fd5b505050506040513d60408110156108e857600080fd5b50805160209091015190925090506108fe610f1f565b506000868152600160208181526040808420815160808101835281546001600160a01b03908116825294820154938101939093526002810154838301526003015460608301528051636cb1c69b60e11b8152600481018b905290519193928392839283927f0000000000000000000000000000000000000000000000000000000000000000169163d9638d369160248082019260a092909190829003018186803b1580156109ab57600080fd5b505afa1580156109bf573d6000803e3d6000fd5b505050506040513d60a08110156109d557600080fd5b5060208101516040820151608090920151909450925090508015801590610a0d5750610a018684610ed2565b610a0b8883610ed2565b105b610a4f576040805162461bcd60e51b815260206004820152600e60248201526d446f672f6e6f742d756e7361666560901b604482015290519081900360640190fd5b600554600454118015610a69575084606001518560400151115b610ab6576040805162461bcd60e51b8152602060048201526019602482015278111bd9cbdb1a5c5d5a59185d1a5bdb8b5b1a5b5a5d0b5a1a5d603a1b604482015290519081900360640190fd5b6000610ad2600554600454038760600151886040015103610ef6565b9050610b0587876020015186610af085670de0b6b3a7640000610ed2565b81610af757fe5b0481610aff57fe5b04610ef6565b945084871115610b725782610b1c86890386610ed2565b1015610b2a57869450610b72565b82610b358686610ed2565b1015610b725760405162461bcd60e51b815260040180806020018281038252602a815260200180610f51602a913960400191505060405180910390fd5b5050600085610b818886610ed2565b81610b8857fe5b04905060008111610bd3576040805162461bcd60e51b815260206004820152601060248201526f2237b397b73ab63616b0bab1ba34b7b760811b604482015290519081900360640190fd5b600160ff1b8411158015610beb5750600160ff1b8111155b610c2b576040805162461bcd60e51b815260206004820152600c60248201526b446f672f6f766572666c6f7760a01b604482015290519081900360640190fd5b8451600254604080516301eeacfd60e61b8152600481018f90526001600160a01b038e81166024830152938416604482015291831660648301526000848103608484015287810360a484015290517f000000000000000000000000000000000000000000000000000000000000000090931692637bab3f409260c480820193929182900301818387803b158015610cc157600080fd5b505af1158015610cd5573d6000803e3d6000fd5b505050506000610ce58585610ed2565b60025460408051630d2fdf6f60e31b81526004810184905290519293506001600160a01b039091169163697efb789160248082019260009290919082900301818387803b158015610d3557600080fd5b505af1158015610d49573d6000803e3d6000fd5b505050506000670de0b6b3a7640000610d66838960200151610ed2565b81610d6d57fe5b049050610d7c60055482610f0f565b6005556060870151610d8e9082610f0f565b600160008f81526020019081526020016000206003018190555086600001516001600160a01b031663898eb26782858f8f6040518563ffffffff1660e01b815260040180858152602001848152602001836001600160a01b03168152602001826001600160a01b03168152602001945050505050602060405180830381600087803b158015610e1c57600080fd5b505af1158015610e30573d6000803e3d6000fd5b505050506040513d6020811015610e4657600080fd5b5051875160408051868152602081018a90528082018690526001600160a01b0392831660608201529051929c508c9350908e16918f917f85258d09e1e4ef299ff3fc11e74af99563f022d21f3f940db982229dc2a3358c919081900360800190a450505050505050509392505050565b60055481565b80820382811115610ecc57600080fd5b92915050565b6000811580610eed57505080820282828281610eea57fe5b04145b610ecc57600080fd5b600081831115610f065781610f08565b825b9392505050565b80820182811015610ecc57600080fd5b604051806080016040528060006001600160a01b03168152602001600081526020016000815260200160008152509056fe446f672f64757374792d61756374696f6e2d66726f6d2d7061727469616c2d6c69717569646174696f6ea2646970667358221220b6c7edf6aaffc25cdcbb0a253b10523f93ac18dfe7d93db4340d00a1fd5e968664736f6c634300060c0033a26469706673582212209db78a00b78d5e662d30e783b5a54e78da6c9ddbfbac4cfa5c255c3fdd5ddd8964736f6c634300060c0033",
  "linkReferences": {},
  "deployedLinkReferences": {}
}