{
  "_format": "hh-sol-artifact-1",
  "contractName": "DssDeploy",
  "sourceName": "contracts/DssDeploy.sol",
  "abi": [
    {
      "inputs": [
        {
          "internalType": "contract VatFab",
          "name": "vatFab_",
          "type": "address"
        },
        {
          "internalType": "contract JugFab",
          "name": "jugFab_",
          "type": "address"
        }
      ],
      "name": "addFabsA",
      "outputs": [],
      "stateMutability": "nonpayable",
      "type": "function"
    },
    {
      "inputs": [
        {
          "internalType": "contract VowFab",
          "name": "vowFab_",
          "type": "address"
        },
        {
          "internalType": "contract CatFab",
          "name": "catFab_",
          "type": "address"
        }
      ],
      "name": "addFabsB",
      "outputs": [],
      "stateMutability": "nonpayable",
      "type": "function"
    },
    {
      "inputs": [
        {
          "internalType": "contract DogFab",
          "name": "dogFab_",
          "type": "address"
        },
        {
          "internalType": "contract IRDTFab",
          "name": "irdtFab_",
          "type": "address"
        },
        {
          "internalType": "contract IRDTJoinFab",
          "name": "irdtJoinFab_",
          "type": "address"
        }
      ],
      "name": "addFabsC",
      "outputs": [],
      "stateMutability": "nonpayable",
      "type": "function"
    },
    {
      "inputs": [
        {
          "internalType": "contract FlapFab",
          "name": "flapFab_",
          "type": "address"
        },
        {
          "internalType": "contract FlopFab",
          "name": "flopFab_",
          "type": "address"
        },
        {
          "internalType": "contract FlipFab",
          "name": "flipFab_",
          "type": "address"
        }
      ],
      "name": "addFabsD",
      "outputs": [],
      "stateMutability": "nonpayable",
      "type": "function"
    },
    {
      "inputs": [
        {
          "internalType": "contract ClipFab",
          "name": "clipFab_",
          "type": "address"
        },
        {
          "internalType": "contract CalcFab",
          "name": "calcFab_",
          "type": "address"
        },
        {
          "internalType": "contract SpotFab",
          "name": "spotFab_",
          "type": "address"
        },
        {
          "internalType": "contract PotFab",
          "name": "potFab_",
          "type": "address"
        }
      ],
      "name": "addFabsE",
      "outputs": [],
      "stateMutability": "nonpayable",
      "type": "function"
    },
    {
      "inputs": [
        {
          "internalType": "contract CureFab",
          "name": "cureFab_",
          "type": "address"
        },
        {
          "internalType": "contract EndFab",
          "name": "endFab_",
          "type": "address"
        },
        {
          "internalType": "contract ESMFab",
          "name": "esmFab_",
          "type": "address"
        },
        {
          "internalType": "contract PauseFab",
          "name": "pauseFab_",
          "type": "address"
        }
      ],
      "name": "addFabsF",
      "outputs": [],
      "stateMutability": "nonpayable",
      "type": "function"
    },
    {
      "inputs": [],
      "name": "calcFab",
      "outputs": [
        {
          "internalType": "contract CalcFab",
          "name": "",
          "type": "address"
        }
      ],
      "stateMutability": "view",
      "type": "function"
    },
    {
      "inputs": [],
      "name": "cat",
      "outputs": [
        {
          "internalType": "contract Cat",
          "name": "",
          "type": "address"
        }
      ],
      "stateMutability": "view",
      "type": "function"
    },
    {
      "inputs": [],
      "name": "catFab",
      "outputs": [
        {
          "internalType": "contract CatFab",
          "name": "",
          "type": "address"
        }
      ],
      "stateMutability": "view",
      "type": "function"
    },
    {
      "inputs": [],
      "name": "clipFab",
      "outputs": [
        {
          "internalType": "contract ClipFab",
          "name": "",
          "type": "address"
        }
      ],
      "stateMutability": "view",
      "type": "function"
    },
    {
      "inputs": [],
      "name": "cure",
      "outputs": [
        {
          "internalType": "contract Cure",
          "name": "",
          "type": "address"
        }
      ],
      "stateMutability": "view",
      "type": "function"
    },
    {
      "inputs": [],
      "name": "cureFab",
      "outputs": [
        {
          "internalType": "contract CureFab",
          "name": "",
          "type": "address"
        }
      ],
      "stateMutability": "view",
      "type": "function"
    },
    {
      "inputs": [
        {
          "internalType": "address",
          "name": "gov",
          "type": "address"
        }
      ],
      "name": "deployAuctions",
      "outputs": [],
      "stateMutability": "nonpayable",
      "type": "function"
    },
    {
      "inputs": [
        {
          "internalType": "bytes32",
          "name": "ilk",
          "type": "bytes32"
        },
        {
          "internalType": "address",
          "name": "join",
          "type": "address"
        },
        {
          "internalType": "address",
          "name": "pip",
          "type": "address"
        },
        {
          "internalType": "address",
          "name": "calc",
          "type": "address"
        }
      ],
      "name": "deployCollateralClip",
      "outputs": [],
      "stateMutability": "nonpayable",
      "type": "function"
    },
    {
      "inputs": [
        {
          "internalType": "bytes32",
          "name": "ilk",
          "type": "bytes32"
        },
        {
          "internalType": "address",
          "name": "join",
          "type": "address"
        },
        {
          "internalType": "address",
          "name": "pip",
          "type": "address"
        }
      ],
      "name": "deployCollateralFlip",
      "outputs": [],
      "stateMutability": "nonpayable",
      "type": "function"
    },
    {
      "inputs": [
        {
          "internalType": "address",
          "name": "gov",
          "type": "address"
        },
        {
          "internalType": "uint256",
          "name": "min",
          "type": "uint256"
        }
      ],
      "name": "deployESM",
      "outputs": [],
      "stateMutability": "nonpayable",
      "type": "function"
    },
    {
      "inputs": [],
      "name": "deployEnd",
      "outputs": [],
      "stateMutability": "nonpayable",
      "type": "function"
    },
    {
      "inputs": [
        {
          "internalType": "uint256",
          "name": "chainId",
          "type": "uint256"
        }
      ],
      "name": "deployIRDT",
      "outputs": [],
      "stateMutability": "nonpayable",
      "type": "function"
    },
    {
      "inputs": [],
      "name": "deployLiquidator",
      "outputs": [],
      "stateMutability": "nonpayable",
      "type": "function"
    },
    {
      "inputs": [
        {
          "internalType": "uint256",
          "name": "delay",
          "type": "uint256"
        },
        {
          "internalType": "address",
          "name": "authority",
          "type": "address"
        }
      ],
      "name": "deployPause",
      "outputs": [],
      "stateMutability": "nonpayable",
      "type": "function"
    },
    {
      "inputs": [],
      "name": "deployTaxation",
      "outputs": [],
      "stateMutability": "nonpayable",
      "type": "function"
    },
    {
      "inputs": [],
      "name": "deployVat",
      "outputs": [],
      "stateMutability": "nonpayable",
      "type": "function"
    },
    {
      "inputs": [],
      "name": "dog",
      "outputs": [
        {
          "internalType": "contract Dog",
          "name": "",
          "type": "address"
        }
      ],
      "stateMutability": "view",
      "type": "function"
    },
    {
      "inputs": [],
      "name": "dogFab",
      "outputs": [
        {
          "internalType": "contract DogFab",
          "name": "",
          "type": "address"
        }
      ],
      "stateMutability": "view",
      "type": "function"
    },
    {
      "inputs": [],
      "name": "end",
      "outputs": [
        {
          "internalType": "contract End",
          "name": "",
          "type": "address"
        }
      ],
      "stateMutability": "view",
      "type": "function"
    },
    {
      "inputs": [],
      "name": "endFab",
      "outputs": [
        {
          "internalType": "contract EndFab",
          "name": "",
          "type": "address"
        }
      ],
      "stateMutability": "view",
      "type": "function"
    },
    {
      "inputs": [],
      "name": "esm",
      "outputs": [
        {
          "internalType": "contract ESM",
          "name": "",
          "type": "address"
        }
      ],
      "stateMutability": "view",
      "type": "function"
    },
    {
      "inputs": [],
      "name": "esmFab",
      "outputs": [
        {
          "internalType": "contract ESMFab",
          "name": "",
          "type": "address"
        }
      ],
      "stateMutability": "view",
      "type": "function"
    },
    {
      "inputs": [],
      "name": "flap",
      "outputs": [
        {
          "internalType": "contract Flapper",
          "name": "",
          "type": "address"
        }
      ],
      "stateMutability": "view",
      "type": "function"
    },
    {
      "inputs": [],
      "name": "flapFab",
      "outputs": [
        {
          "internalType": "contract FlapFab",
          "name": "",
          "type": "address"
        }
      ],
      "stateMutability": "view",
      "type": "function"
    },
    {
      "inputs": [],
      "name": "flipFab",
      "outputs": [
        {
          "internalType": "contract FlipFab",
          "name": "",
          "type": "address"
        }
      ],
      "stateMutability": "view",
      "type": "function"
    },
    {
      "inputs": [],
      "name": "flop",
      "outputs": [
        {
          "internalType": "contract Flopper",
          "name": "",
          "type": "address"
        }
      ],
      "stateMutability": "view",
      "type": "function"
    },
    {
      "inputs": [],
      "name": "flopFab",
      "outputs": [
        {
          "internalType": "contract FlopFab",
          "name": "",
          "type": "address"
        }
      ],
      "stateMutability": "view",
      "type": "function"
    },
    {
      "inputs": [
        {
          "internalType": "bytes32",
          "name": "",
          "type": "bytes32"
        }
      ],
      "name": "ilks",
      "outputs": [
        {
          "internalType": "contract Flipper",
          "name": "flip",
          "type": "address"
        },
        {
          "internalType": "contract Clipper",
          "name": "clip",
          "type": "address"
        },
        {
          "internalType": "address",
          "name": "join",
          "type": "address"
        }
      ],
      "stateMutability": "view",
      "type": "function"
    },
    {
      "inputs": [],
      "name": "irdt",
      "outputs": [
        {
          "internalType": "contract IRDT",
          "name": "",
          "type": "address"
        }
      ],
      "stateMutability": "view",
      "type": "function"
    },
    {
      "inputs": [],
      "name": "irdtFab",
      "outputs": [
        {
          "internalType": "contract IRDTFab",
          "name": "",
          "type": "address"
        }
      ],
      "stateMutability": "view",
      "type": "function"
    },
    {
      "inputs": [],
      "name": "irdtJoin",
      "outputs": [
        {
          "internalType": "contract IRDTJoin",
          "name": "",
          "type": "address"
        }
      ],
      "stateMutability": "view",
      "type": "function"
    },
    {
      "inputs": [],
      "name": "irdtJoinFab",
      "outputs": [
        {
          "internalType": "contract IRDTJoinFab",
          "name": "",
          "type": "address"
        }
      ],
      "stateMutability": "view",
      "type": "function"
    },
    {
      "inputs": [],
      "name": "jug",
      "outputs": [
        {
          "internalType": "contract Jug",
          "name": "",
          "type": "address"
        }
      ],
      "stateMutability": "view",
      "type": "function"
    },
    {
      "inputs": [],
      "name": "jugFab",
      "outputs": [
        {
          "internalType": "contract JugFab",
          "name": "",
          "type": "address"
        }
      ],
      "stateMutability": "view",
      "type": "function"
    },
    {
      "inputs": [],
      "name": "pause",
      "outputs": [
        {
          "internalType": "contract DSPause",
          "name": "",
          "type": "address"
        }
      ],
      "stateMutability": "view",
      "type": "function"
    },
    {
      "inputs": [],
      "name": "pauseFab",
      "outputs": [
        {
          "internalType": "contract PauseFab",
          "name": "",
          "type": "address"
        }
      ],
      "stateMutability": "view",
      "type": "function"
    },
    {
      "inputs": [],
      "name": "pot",
      "outputs": [
        {
          "internalType": "contract Pot",
          "name": "",
          "type": "address"
        }
      ],
      "stateMutability": "view",
      "type": "function"
    },
    {
      "inputs": [],
      "name": "potFab",
      "outputs": [
        {
          "internalType": "contract PotFab",
          "name": "",
          "type": "address"
        }
      ],
      "stateMutability": "view",
      "type": "function"
    },
    {
      "inputs": [],
      "name": "spotFab",
      "outputs": [
        {
          "internalType": "contract SpotFab",
          "name": "",
          "type": "address"
        }
      ],
      "stateMutability": "view",
      "type": "function"
    },
    {
      "inputs": [],
      "name": "spotter",
      "outputs": [
        {
          "internalType": "contract Spotter",
          "name": "",
          "type": "address"
        }
      ],
      "stateMutability": "view",
      "type": "function"
    },
    {
      "inputs": [],
      "name": "step",
      "outputs": [
        {
          "internalType": "uint8",
          "name": "",
          "type": "uint8"
        }
      ],
      "stateMutability": "view",
      "type": "function"
    },
    {
      "inputs": [],
      "name": "vat",
      "outputs": [
        {
          "internalType": "contract Vat",
          "name": "",
          "type": "address"
        }
      ],
      "stateMutability": "view",
      "type": "function"
    },
    {
      "inputs": [],
      "name": "vatFab",
      "outputs": [
        {
          "internalType": "contract VatFab",
          "name": "",
          "type": "address"
        }
      ],
      "stateMutability": "view",
      "type": "function"
    },
    {
      "inputs": [],
      "name": "vow",
      "outputs": [
        {
          "internalType": "contract Vow",
          "name": "",
          "type": "address"
        }
      ],
      "stateMutability": "view",
      "type": "function"
    },
    {
      "inputs": [],
      "name": "vowFab",
      "outputs": [
        {
          "internalType": "contract VowFab",
          "name": "",
          "type": "address"
        }
      ],
      "stateMutability": "view",
      "type": "function"
    }
  ],
  "bytecode": "0x60806040526022805460ff1916905534801561001a57600080fd5b50613d898061002a6000396000f3fe608060405234801561001057600080fd5b50600436106102515760003560e01c806302cd2571146102565780630dfe28111461027a5780630e01198b14610282578063199bead41461028a5780632800a568146102925780632e77468d1461029c5780632ffcd955146102a457806336569e77146102ac57806339c98420146102b457806340a464cf146102bc5780634a847390146102fa5780634ba2363a14610302578063595ddc851461030a57806359f1cb8a146103425780635f35a49d1461034a5780636119160814610352578063626cb3c51461039057806364336cd0146103985780636ff94806146103a057806375e233f2146103a8578063783e10fc146103d45780637a29f5ae146103dc5780637c91e1771461041457806380e7cd891461041c57806382febc4314610424578063840782ed1461042c5780638456cb591461043457806384718d891461043c57806389b5030c146104445780638ad5437e1461046157806392ed546014610469578063a52e38d814610471578063af41b24814610479578063b94fdb8e14610481578063bbbb0d7b14610489578063c3b3ad7f14610491578063c8e334a914610499578063cc3f5ec1146104a1578063ce96193b146104c7578063d9638d36146104f3578063dcc91c9b1461053b578063e25fe17514610543578063e488181314610561578063eae131a914610569578063ec587fae14610571578063ef0add5b146105af578063efbe1c1c146105b7578063f019798b146105bf578063f63f07d2146105c7578063f774792d146105fb578063fbb4b3f414610629575b600080fd5b61025e610657565b604080516001600160a01b039092168252519081900360200190f35b61025e610666565b61025e610675565b61025e610684565b61029a610693565b005b61025e610912565b61025e610921565b61025e610930565b61025e61093f565b61029a600480360360808110156102d257600080fd5b506001600160a01b03813581169160208101358216916040820135811691606001351661094e565b61025e61099e565b61025e6109ad565b61029a6004803603606081101561032057600080fd5b506001600160a01b0381358116916020810135821691604090910135166109bc565b61029a6109fb565b61025e61115a565b61029a6004803603608081101561036857600080fd5b508035906001600160a01b036020820135811691604081013582169160609091013516611169565b61025e611ab8565b61025e611ac7565b61025e611ad6565b61029a600480360360408110156103be57600080fd5b506001600160a01b038135169060200135611ae5565b61025e611d24565b61029a600480360360608110156103f257600080fd5b506001600160a01b038135811691602081013582169160409091013516611d33565b61025e611d72565b61029a611d81565b61025e611fb4565b61025e611fc3565b61025e611fd2565b61025e611fe1565b61029a6004803603602081101561045a57600080fd5b5035611ff0565b61025e6121d3565b61025e6121e2565b61025e6121f1565b61025e612200565b61025e61220f565b61025e61221e565b61025e61222d565b61025e61223c565b61029a600480360360208110156104b757600080fd5b50356001600160a01b031661224b565b61029a600480360360408110156104dd57600080fd5b50803590602001356001600160a01b03166126dc565b6105106004803603602081101561050957600080fd5b503561314d565b604080516001600160a01b039485168152928416602084015292168183015290519081900360600190f35b61029a61317b565b61054b61356c565b6040805160ff9092168252519081900360200190f35b61025e613575565b61025e613584565b61029a6004803603608081101561058757600080fd5b506001600160a01b038135811691602081013582169160408201358116916060013516613593565b61025e6135e3565b61025e6135f2565b61025e613601565b61029a600480360360608110156105dd57600080fd5b508035906001600160a01b0360208201358116916040013516613610565b61029a6004803603604081101561061157600080fd5b506001600160a01b0381358116916020013516613cd7565b61029a6004803603604081101561063f57600080fd5b506001600160a01b0381358116916020013516613d05565b6017546001600160a01b031681565b6004546001600160a01b031681565b6019546001600160a01b031681565b6003546001600160a01b031681565b6000546001600160a01b03166106e1576040805162461bcd60e51b815260206004820152600e60248201526d4d697373696e672046616273203160901b604482015290519081900360640190fd5b6007546001600160a01b031661072f576040805162461bcd60e51b815260206004820152600e60248201526d26b4b9b9b4b733902330b139901960911b604482015290519081900360640190fd5b6012546001600160a01b031615610784576040805162461bcd60e51b815260206004820152601460248201527315905508185b1c9958591e4819195c1b1bde595960621b604482015290519081900360640190fd5b60008054604080516001622660eb60e11b0319815230600482015290516001600160a01b039092169263ffb33e2a926024808401936020939083900390910190829087803b1580156107d557600080fd5b505af11580156107e9573d6000803e3d6000fd5b505050506040513d60208110156107ff57600080fd5b5051601280546001600160a01b0319166001600160a01b039283161790819055600c54604080516323820f6960e11b81523060048201529284166024840152519216916347041ed2916044808201926020929091908290030181600087803b15801561086a57600080fd5b505af115801561087e573d6000803e3d6000fd5b505050506040513d602081101561089457600080fd5b5051601b80546001600160a01b0319166001600160a01b039283161790819055601254604080516332fd71af60e11b81529284166004840152519216916365fae35e9160248082019260009290919082900301818387803b1580156108f857600080fd5b505af115801561090c573d6000803e3d6000fd5b50505050565b601b546001600160a01b031681565b600a546001600160a01b031681565b6012546001600160a01b031681565b6007546001600160a01b031681565b600e80546001600160a01b039586166001600160a01b031991821617909155600f805494861694821694909417909355601080549285169284169290921790915560118054919093169116179055565b6000546001600160a01b031681565b601c546001600160a01b031681565b600480546001600160a01b039485166001600160a01b031991821617909155600580549385169382169390931790925560068054919093169116179055565b6015546001600160a01b0316610a46576040805162461bcd60e51b81526020600482015260156024820152600080516020613d34833981519152604482015290519081900360640190fd5b600e5460408051630214c6db60e11b815230600482015290516001600160a01b03909216916304298db6916024808201926020929091908290030181600087803b158015610a9357600080fd5b505af1158015610aa7573d6000803e3d6000fd5b505050506040513d6020811015610abd57600080fd5b5051601d80546001600160a01b0319166001600160a01b03928316179055600f5460408051631a0489cd60e21b81523060048201529051919092169163681227349160248083019260209291908290030181600087803b158015610b2057600080fd5b505af1158015610b34573d6000803e3d6000fd5b505050506040513d6020811015610b4a57600080fd5b5051601e80546001600160a01b0319166001600160a01b0392831617908190556012546040805163d4e8be8360e01b8152621d985d60ea1b6004820152918416602483015251919092169163d4e8be8391604480830192600092919082900301818387803b158015610bbb57600080fd5b505af1158015610bcf573d6000803e3d6000fd5b5050601e546015546040805163d4e8be8360e01b81526218d85d60ea1b60048201526001600160a01b039283166024820152905191909216935063d4e8be839250604480830192600092919082900301818387803b158015610c3057600080fd5b505af1158015610c44573d6000803e3d6000fd5b5050601e546016546040805163d4e8be8360e01b815262646f6760e81b60048201526001600160a01b039283166024820152905191909216935063d4e8be839250604480830192600092919082900301818387803b158015610ca557600080fd5b505af1158015610cb9573d6000803e3d6000fd5b5050601e546014546040805163d4e8be8360e01b815262766f7760e81b60048201526001600160a01b039283166024820152905191909216935063d4e8be839250604480830192600092919082900301818387803b158015610d1a57600080fd5b505af1158015610d2e573d6000803e3d6000fd5b5050601e54601c546040805163d4e8be8360e01b8152621c1bdd60ea1b60048201526001600160a01b039283166024820152905191909216935063d4e8be839250604480830192600092919082900301818387803b158015610d8f57600080fd5b505af1158015610da3573d6000803e3d6000fd5b5050601e54601b546040805163d4e8be8360e01b8152631cdc1bdd60e21b60048201526001600160a01b039283166024820152905191909216935063d4e8be839250604480830192600092919082900301818387803b158015610e0557600080fd5b505af1158015610e19573d6000803e3d6000fd5b5050601e54601d546040805163d4e8be8360e01b8152636375726560e01b60048201526001600160a01b039283166024820152905191909216935063d4e8be839250604480830192600092919082900301818387803b158015610e7b57600080fd5b505af1158015610e8f573d6000803e3d6000fd5b5050601254601e54604080516332fd71af60e11b81526001600160a01b03928316600482015290519190921693506365fae35e9250602480830192600092919082900301818387803b158015610ee457600080fd5b505af1158015610ef8573d6000803e3d6000fd5b5050601554601e54604080516332fd71af60e11b81526001600160a01b03928316600482015290519190921693506365fae35e9250602480830192600092919082900301818387803b158015610f4d57600080fd5b505af1158015610f61573d6000803e3d6000fd5b5050601654601e54604080516332fd71af60e11b81526001600160a01b03928316600482015290519190921693506365fae35e9250602480830192600092919082900301818387803b158015610fb657600080fd5b505af1158015610fca573d6000803e3d6000fd5b5050601454601e54604080516332fd71af60e11b81526001600160a01b03928316600482015290519190921693506365fae35e9250602480830192600092919082900301818387803b15801561101f57600080fd5b505af1158015611033573d6000803e3d6000fd5b5050601c54601e54604080516332fd71af60e11b81526001600160a01b03928316600482015290519190921693506365fae35e9250602480830192600092919082900301818387803b15801561108857600080fd5b505af115801561109c573d6000803e3d6000fd5b5050601b54601e54604080516332fd71af60e11b81526001600160a01b03928316600482015290519190921693506365fae35e9250602480830192600092919082900301818387803b1580156110f157600080fd5b505af1158015611105573d6000803e3d6000fd5b5050601d54601e54604080516332fd71af60e11b81526001600160a01b03928316600482015290519190921693506365fae35e9250602480830192600092919082900301818387803b1580156108f857600080fd5b6001546001600160a01b031681565b836111ae576040805162461bcd60e51b815260206004820152601060248201526f4d697373696e6720696c6b206e616d6560801b604482015290519081900360640190fd5b6001600160a01b038316611200576040805162461bcd60e51b81526020600482015260146024820152734d697373696e67206a6f696e206164647265737360601b604482015290519081900360640190fd5b6001600160a01b038216611251576040805162461bcd60e51b81526020600482015260136024820152724d697373696e6720706970206164647265737360681b604482015290519081900360640190fd5b6020546001600160a01b031661129c576040805162461bcd60e51b81526020600482015260156024820152600080516020613d34833981519152604482015290519081900360640190fd5b600a54601254601b5460165460408051635fafc02760e11b81523060048201526001600160a01b039485166024820152928416604484015290831660648301526084820188905251919092169163bf5f804e9160a48083019260209291908290030181600087803b15801561131057600080fd5b505af1158015611324573d6000803e3d6000fd5b505050506040513d602081101561133a57600080fd5b50516000858152602160205260408082206001810180546001600160a01b03199081166001600160a01b039687161790915560029091018054909116878516179055601b54815163ebecb39d60e01b8152600481018990526207069760ec1b60248201528685166044820152915193169263ebecb39d9260648084019391929182900301818387803b1580156113cf57600080fd5b505af11580156113e3573d6000803e3d6000fd5b505060165460008781526021602052604080822060010154815163ebecb39d60e01b8152600481018b9052630636c69760e41b60248201526001600160a01b03918216604482015291519316945063ebecb39d93506064808201939182900301818387803b15801561145457600080fd5b505af1158015611468573d6000803e3d6000fd5b50505060008581526021602052604080822060010154601454825163d4e8be8360e01b815262766f7760e81b60048201526001600160a01b03918216602482015292519116935063d4e8be839260448084019391929182900301818387803b1580156114d357600080fd5b505af11580156114e7573d6000803e3d6000fd5b505050506001600160a01b0381166115e457600b546040805163db4d627160e01b815230600482015290516001600160a01b039092169163db4d6271916024808201926020929091908290030181600087803b15801561154657600080fd5b505af115801561155a573d6000803e3d6000fd5b505050506040513d602081101561157057600080fd5b505160408051630a6ba04560e21b81526274617560e81b6004820152610e10602482015290519192506001600160a01b038316916329ae81149160448082019260009290919082900301818387803b1580156115cb57600080fd5b505af11580156115df573d6000803e3d6000fd5b505050505b60008481526021602052604080822060010154815163d4e8be8360e01b81526363616c6360e01b60048201526001600160a01b0385811660248301529251929091169263d4e8be839260448084019382900301818387803b15801561164857600080fd5b505af115801561165c573d6000803e3d6000fd5b505060125460408051633b66319560e01b81526004810189905290516001600160a01b039092169350633b663195925060248082019260009290919082900301818387803b1580156116ad57600080fd5b505af11580156116c1573d6000803e3d6000fd5b505060135460408051633b66319560e01b81526004810189905290516001600160a01b039092169350633b663195925060248082019260009290919082900301818387803b15801561171257600080fd5b505af1158015611726573d6000803e3d6000fd5b5050601254604080516332fd71af60e11b81526001600160a01b03888116600483015291519190921693506365fae35e9250602480830192600092919082900301818387803b15801561177857600080fd5b505af115801561178c573d6000803e3d6000fd5b50506012546000878152602160205260408082206001015481516332fd71af60e11b81526001600160a01b0391821660048201529151931694506365fae35e93506024808201939182900301818387803b1580156117e957600080fd5b505af11580156117fd573d6000803e3d6000fd5b50506016546000878152602160205260408082206001015481516332fd71af60e11b81526001600160a01b0391821660048201529151931694506365fae35e93506024808201939182900301818387803b15801561185a57600080fd5b505af115801561186e573d6000803e3d6000fd5b5050506000858152602160205260408082206001015460165482516332fd71af60e11b81526001600160a01b0391821660048201529251911693506365fae35e9260248084019391929182900301818387803b1580156118cd57600080fd5b505af11580156118e1573d6000803e3d6000fd5b50505060008581526021602052604080822060010154601e5482516332fd71af60e11b81526001600160a01b0391821660048201529251911693506365fae35e9260248084019391929182900301818387803b15801561194057600080fd5b505af1158015611954573d6000803e3d6000fd5b50505060008581526021602052604080822060010154601f5482516332fd71af60e11b81526001600160a01b0391821660048201529251911693506365fae35e9260248084019391929182900301818387803b1580156119b357600080fd5b505af11580156119c7573d6000803e3d6000fd5b505050600085815260216020908152604091829020600101548154835163ec55688960e01b815293516001600160a01b0392831695506365fae35e94919092169263ec55688992600480840193829003018186803b158015611a2857600080fd5b505afa158015611a3c573d6000803e3d6000fd5b505050506040513d6020811015611a5257600080fd5b5051604080516001600160e01b031960e085901b1681526001600160a01b03909216600483015251602480830192600092919082900301818387803b158015611a9a57600080fd5b505af1158015611aae573d6000803e3d6000fd5b5050505050505050565b6014546001600160a01b031681565b6010546001600160a01b031681565b6018546001600160a01b031681565b6020546001600160a01b0316611b30576040805162461bcd60e51b81526020600482015260156024820152600080516020613d34833981519152604482015290519081900360640190fd5b601054601e54602080546040805163ec55688960e01b815290516001600160a01b039586169563429baf68958995908216949091169263ec5568899260048083019392829003018186803b158015611b8757600080fd5b505afa158015611b9b573d6000803e3d6000fd5b505050506040513d6020811015611bb157600080fd5b5051604080516001600160e01b031960e087901b1681526001600160a01b03948516600482015292841660248401529216604482015260648101859052905160848083019260209291908290030181600087803b158015611c1157600080fd5b505af1158015611c25573d6000803e3d6000fd5b505050506040513d6020811015611c3b57600080fd5b5051601f80546001600160a01b0319166001600160a01b039283161790819055601e54604080516332fd71af60e11b81529284166004840152519216916365fae35e9160248082019260009290919082900301818387803b158015611c9f57600080fd5b505af1158015611cb3573d6000803e3d6000fd5b5050601254601f54604080516332fd71af60e11b81526001600160a01b03928316600482015290519190921693506365fae35e9250602480830192600092919082900301818387803b158015611d0857600080fd5b505af1158015611d1c573d6000803e3d6000fd5b505050505050565b6008546001600160a01b031681565b600780546001600160a01b039485166001600160a01b031991821617909155600880549385169382169390931790925560098054919093169116179055565b6009546001600160a01b031681565b6012546001600160a01b0316611dcc576040805162461bcd60e51b81526020600482015260156024820152600080516020613d34833981519152604482015290519081900360640190fd5b6001546012546040805163ab965ed160e01b81523060048201526001600160a01b0392831660248201529051919092169163ab965ed19160448083019260209291908290030181600087803b158015611e2457600080fd5b505af1158015611e38573d6000803e3d6000fd5b505050506040513d6020811015611e4e57600080fd5b5051601380546001600160a01b0319166001600160a01b03928316179055600d546012546040805163154a456760e11b81523060048201529184166024830152519190921691632a948ace9160448083019260209291908290030181600087803b158015611ebb57600080fd5b505af1158015611ecf573d6000803e3d6000fd5b505050506040513d6020811015611ee557600080fd5b5051601c80546001600160a01b0319166001600160a01b03928316179055601254601354604080516332fd71af60e11b815291841660048301525191909216916365fae35e91602480830192600092919082900301818387803b158015611f4b57600080fd5b505af1158015611f5f573d6000803e3d6000fd5b5050601254601c54604080516332fd71af60e11b81526001600160a01b03928316600482015290519190921693506365fae35e9250602480830192600092919082900301818387803b1580156108f857600080fd5b600b546001600160a01b031681565b601d546001600160a01b031681565b6020546001600160a01b031681565b6013546001600160a01b031681565b6012546001600160a01b031661203b576040805162461bcd60e51b81526020600482015260156024820152600080516020613d34833981519152604482015290519081900360640190fd5b60055460408051631484fb9b60e21b81523060048201526024810184905290516001600160a01b0390921691635213ee6c916044808201926020929091908290030181600087803b15801561208f57600080fd5b505af11580156120a3573d6000803e3d6000fd5b505050506040513d60208110156120b957600080fd5b5051601780546001600160a01b0319166001600160a01b0392831617908190556006546012546040805163f82bb84b60e01b815291851660048301529284166024820152915192169163f82bb84b916044808201926020929091908290030181600087803b15801561212a57600080fd5b505af115801561213e573d6000803e3d6000fd5b505050506040513d602081101561215457600080fd5b5051601880546001600160a01b0319166001600160a01b039283161790819055601754604080516332fd71af60e11b81529284166004840152519216916365fae35e9160248082019260009290919082900301818387803b1580156121b857600080fd5b505af11580156121cc573d6000803e3d6000fd5b5050505050565b6006546001600160a01b031681565b600c546001600160a01b031681565b600e546001600160a01b031681565b601f546001600160a01b031681565b6002546001600160a01b031681565b601a546001600160a01b031681565b6016546001600160a01b031681565b6011546001600160a01b031681565b6001600160a01b03811661229c576040805162461bcd60e51b81526020600482015260136024820152724d697373696e6720474f56206164647265737360681b604482015290519081900360640190fd5b6013546001600160a01b03166122e7576040805162461bcd60e51b81526020600482015260156024820152600080516020613d34833981519152604482015290519081900360640190fd5b60075460125460408051634804e4c960e11b81523060048201526001600160a01b039283166024820152848316604482015290519190921691639009c9929160648083019260209291908290030181600087803b15801561234757600080fd5b505af115801561235b573d6000803e3d6000fd5b505050506040513d602081101561237157600080fd5b5051601980546001600160a01b0319166001600160a01b03928316179055600854601254604080516363028f3160e01b8152306004820152918416602483015284841660448301525191909216916363028f319160648083019260209291908290030181600087803b1580156123e657600080fd5b505af11580156123fa573d6000803e3d6000fd5b505050506040513d602081101561241057600080fd5b5051601a80546001600160a01b0319166001600160a01b0392831617908190556002546012546019546040805163f82fe87960e01b8152306004820152928616602484015290851660448301529284166064820152915192169163f82fe879916084808201926020929091908290030181600087803b15801561249257600080fd5b505af11580156124a6573d6000803e3d6000fd5b505050506040513d60208110156124bc57600080fd5b5051601480546001600160a01b0319166001600160a01b0392831617908190556013546040805163d4e8be8360e01b815262766f7760e81b600482015292841660248401525192169163d4e8be839160448082019260009290919082900301818387803b15801561252c57600080fd5b505af1158015612540573d6000803e3d6000fd5b5050601c546014546040805163d4e8be8360e01b815262766f7760e81b60048201526001600160a01b039283166024820152905191909216935063d4e8be839250604480830192600092919082900301818387803b1580156125a157600080fd5b505af11580156125b5573d6000803e3d6000fd5b5050601254601a54604080516332fd71af60e11b81526001600160a01b03928316600482015290519190921693506365fae35e9250602480830192600092919082900301818387803b15801561260a57600080fd5b505af115801561261e573d6000803e3d6000fd5b5050601954601454604080516332fd71af60e11b81526001600160a01b03928316600482015290519190921693506365fae35e9250602480830192600092919082900301818387803b15801561267357600080fd5b505af1158015612687573d6000803e3d6000fd5b5050601a54601454604080516332fd71af60e11b81526001600160a01b03928316600482015290519190921693506365fae35e9250602480830192600092919082900301818387803b1580156121b857600080fd5b6017546001600160a01b0316612727576040805162461bcd60e51b81526020600482015260156024820152600080516020613d34833981519152604482015290519081900360640190fd5b601e546001600160a01b0316612772576040805162461bcd60e51b81526020600482015260156024820152600080516020613d34833981519152604482015290519081900360640190fd5b60115460408051632797fa5360e11b8152600481018590523360248201526001600160a01b03848116604483015291519190921691634f2ff4a69160648083019260209291908290030181600087803b1580156127ce57600080fd5b505af11580156127e2573d6000803e3d6000fd5b505050506040513d60208110156127f857600080fd5b5051602080546001600160a01b0319166001600160a01b03928316178082556012546040805163ec55688960e01b81529051918516946365fae35e9493169263ec55688992600480840193829003018186803b15801561285757600080fd5b505afa15801561286b573d6000803e3d6000fd5b505050506040513d602081101561288157600080fd5b5051604080516001600160e01b031960e085901b1681526001600160a01b03909216600483015251602480830192600092919082900301818387803b1580156128c957600080fd5b505af11580156128dd573d6000803e3d6000fd5b5050601554602080546040805163ec55688960e01b815290516001600160a01b0394851696506365fae35e9550919093169263ec556889926004808301939192829003018186803b15801561293157600080fd5b505afa158015612945573d6000803e3d6000fd5b505050506040513d602081101561295b57600080fd5b5051604080516001600160e01b031960e085901b1681526001600160a01b03909216600483015251602480830192600092919082900301818387803b1580156129a357600080fd5b505af11580156129b7573d6000803e3d6000fd5b5050601654602080546040805163ec55688960e01b815290516001600160a01b0394851696506365fae35e9550919093169263ec556889926004808301939192829003018186803b158015612a0b57600080fd5b505afa158015612a1f573d6000803e3d6000fd5b505050506040513d6020811015612a3557600080fd5b5051604080516001600160e01b031960e085901b1681526001600160a01b03909216600483015251602480830192600092919082900301818387803b158015612a7d57600080fd5b505af1158015612a91573d6000803e3d6000fd5b5050601454602080546040805163ec55688960e01b815290516001600160a01b0394851696506365fae35e9550919093169263ec556889926004808301939192829003018186803b158015612ae557600080fd5b505afa158015612af9573d6000803e3d6000fd5b505050506040513d6020811015612b0f57600080fd5b5051604080516001600160e01b031960e085901b1681526001600160a01b03909216600483015251602480830192600092919082900301818387803b158015612b5757600080fd5b505af1158015612b6b573d6000803e3d6000fd5b5050601354602080546040805163ec55688960e01b815290516001600160a01b0394851696506365fae35e9550919093169263ec556889926004808301939192829003018186803b158015612bbf57600080fd5b505afa158015612bd3573d6000803e3d6000fd5b505050506040513d6020811015612be957600080fd5b5051604080516001600160e01b031960e085901b1681526001600160a01b03909216600483015251602480830192600092919082900301818387803b158015612c3157600080fd5b505af1158015612c45573d6000803e3d6000fd5b5050601c54602080546040805163ec55688960e01b815290516001600160a01b0394851696506365fae35e9550919093169263ec556889926004808301939192829003018186803b158015612c9957600080fd5b505afa158015612cad573d6000803e3d6000fd5b505050506040513d6020811015612cc357600080fd5b5051604080516001600160e01b031960e085901b1681526001600160a01b03909216600483015251602480830192600092919082900301818387803b158015612d0b57600080fd5b505af1158015612d1f573d6000803e3d6000fd5b5050601b54602080546040805163ec55688960e01b815290516001600160a01b0394851696506365fae35e9550919093169263ec556889926004808301939192829003018186803b158015612d7357600080fd5b505afa158015612d87573d6000803e3d6000fd5b505050506040513d6020811015612d9d57600080fd5b5051604080516001600160e01b031960e085901b1681526001600160a01b03909216600483015251602480830192600092919082900301818387803b158015612de557600080fd5b505af1158015612df9573d6000803e3d6000fd5b5050601954602080546040805163ec55688960e01b815290516001600160a01b0394851696506365fae35e9550919093169263ec556889926004808301939192829003018186803b158015612e4d57600080fd5b505afa158015612e61573d6000803e3d6000fd5b505050506040513d6020811015612e7757600080fd5b5051604080516001600160e01b031960e085901b1681526001600160a01b03909216600483015251602480830192600092919082900301818387803b158015612ebf57600080fd5b505af1158015612ed3573d6000803e3d6000fd5b5050601a54602080546040805163ec55688960e01b815290516001600160a01b0394851696506365fae35e9550919093169263ec556889926004808301939192829003018186803b158015612f2757600080fd5b505afa158015612f3b573d6000803e3d6000fd5b505050506040513d6020811015612f5157600080fd5b5051604080516001600160e01b031960e085901b1681526001600160a01b03909216600483015251602480830192600092919082900301818387803b158015612f9957600080fd5b505af1158015612fad573d6000803e3d6000fd5b5050601d54602080546040805163ec55688960e01b815290516001600160a01b0394851696506365fae35e9550919093169263ec556889926004808301939192829003018186803b15801561300157600080fd5b505afa158015613015573d6000803e3d6000fd5b505050506040513d602081101561302b57600080fd5b5051604080516001600160e01b031960e085901b1681526001600160a01b03909216600483015251602480830192600092919082900301818387803b15801561307357600080fd5b505af1158015613087573d6000803e3d6000fd5b5050601e54602080546040805163ec55688960e01b815290516001600160a01b0394851696506365fae35e9550919093169263ec556889926004808301939192829003018186803b1580156130db57600080fd5b505afa1580156130ef573d6000803e3d6000fd5b505050506040513d602081101561310557600080fd5b5051604080516001600160e01b031960e085901b1681526001600160a01b03909216600483015251602480830192600092919082900301818387803b158015611d0857600080fd5b6021602052600090815260409020805460018201546002909201546001600160a01b03918216928216911683565b6014546001600160a01b03166131c6576040805162461bcd60e51b81526020600482015260156024820152600080516020613d34833981519152604482015290519081900360640190fd5b600354601254604080516352ffb92d60e11b81523060048201526001600160a01b0392831660248201529051919092169163a5ff725a9160448083019260209291908290030181600087803b15801561321e57600080fd5b505af1158015613232573d6000803e3d6000fd5b505050506040513d602081101561324857600080fd5b5051601580546001600160a01b0319166001600160a01b0392831617905560048054601254604080516312147c0f60e01b815230948101949094529084166024840152519216916312147c0f916044808201926020929091908290030181600087803b1580156132b757600080fd5b505af11580156132cb573d6000803e3d6000fd5b505050506040513d60208110156132e157600080fd5b5051601680546001600160a01b0319166001600160a01b039283161790556015546014546040805163d4e8be8360e01b815262766f7760e81b6004820152918416602483015251919092169163d4e8be8391604480830192600092919082900301818387803b15801561335357600080fd5b505af1158015613367573d6000803e3d6000fd5b50506016546014546040805163d4e8be8360e01b815262766f7760e81b60048201526001600160a01b039283166024820152905191909216935063d4e8be839250604480830192600092919082900301818387803b1580156133c857600080fd5b505af11580156133dc573d6000803e3d6000fd5b5050601254601554604080516332fd71af60e11b81526001600160a01b03928316600482015290519190921693506365fae35e9250602480830192600092919082900301818387803b15801561343157600080fd5b505af1158015613445573d6000803e3d6000fd5b5050601254601654604080516332fd71af60e11b81526001600160a01b03928316600482015290519190921693506365fae35e9250602480830192600092919082900301818387803b15801561349a57600080fd5b505af11580156134ae573d6000803e3d6000fd5b5050601454601554604080516332fd71af60e11b81526001600160a01b03928316600482015290519190921693506365fae35e9250602480830192600092919082900301818387803b15801561350357600080fd5b505af1158015613517573d6000803e3d6000fd5b5050601454601654604080516332fd71af60e11b81526001600160a01b03928316600482015290519190921693506365fae35e9250602480830192600092919082900301818387803b1580156108f857600080fd5b60225460ff1681565b6015546001600160a01b031681565b600d546001600160a01b031681565b600a80546001600160a01b039586166001600160a01b031991821617909155600b805494861694821694909417909355600c805492851692841692909217909155600d8054919093169116179055565b600f546001600160a01b031681565b601e546001600160a01b031681565b6005546001600160a01b031681565b82613655576040805162461bcd60e51b815260206004820152601060248201526f4d697373696e6720696c6b206e616d6560801b604482015290519081900360640190fd5b6001600160a01b0382166136a7576040805162461bcd60e51b81526020600482015260146024820152734d697373696e67206a6f696e206164647265737360601b604482015290519081900360640190fd5b6001600160a01b0381166136f8576040805162461bcd60e51b81526020600482015260136024820152724d697373696e6720706970206164647265737360681b604482015290519081900360640190fd5b6020546001600160a01b0316613743576040805162461bcd60e51b81526020600482015260156024820152600080516020613d34833981519152604482015290519081900360640190fd5b60095460125460155460408051637505139960e01b81523060048201526001600160a01b03938416602482015291831660448301526064820187905251919092169163750513999160848083019260209291908290030181600087803b1580156137ac57600080fd5b505af11580156137c0573d6000803e3d6000fd5b505050506040513d60208110156137d657600080fd5b505160008481526021602052604080822080546001600160a01b03199081166001600160a01b0395861617825560029091018054909116868516179055601b54815163ebecb39d60e01b8152600481018890526207069760ec1b60248201528585166044820152915193169263ebecb39d9260648084019391929182900301818387803b15801561386657600080fd5b505af115801561387a573d6000803e3d6000fd5b505060155460008681526021602052604080822054815163ebecb39d60e01b8152600481018a9052630666c69760e41b60248201526001600160a01b03918216604482015291519316945063ebecb39d93506064808201939182900301818387803b1580156138e857600080fd5b505af11580156138fc573d6000803e3d6000fd5b505060125460408051633b66319560e01b81526004810188905290516001600160a01b039092169350633b663195925060248082019260009290919082900301818387803b15801561394d57600080fd5b505af1158015613961573d6000803e3d6000fd5b505060135460408051633b66319560e01b81526004810188905290516001600160a01b039092169350633b663195925060248082019260009290919082900301818387803b1580156139b257600080fd5b505af11580156139c6573d6000803e3d6000fd5b5050601254604080516332fd71af60e11b81526001600160a01b03878116600483015291519190921693506365fae35e9250602480830192600092919082900301818387803b158015613a1857600080fd5b505af1158015613a2c573d6000803e3d6000fd5b50506015546000868152602160205260408082205481516332fd71af60e11b81526001600160a01b0391821660048201529151931694506365fae35e93506024808201939182900301818387803b158015613a8657600080fd5b505af1158015613a9a573d6000803e3d6000fd5b5050506000848152602160205260408082205460155482516332fd71af60e11b81526001600160a01b0391821660048201529251911693506365fae35e9260248084019391929182900301818387803b158015613af657600080fd5b505af1158015613b0a573d6000803e3d6000fd5b50505060008481526021602052604080822054601e5482516332fd71af60e11b81526001600160a01b0391821660048201529251911693506365fae35e9260248084019391929182900301818387803b158015613b6657600080fd5b505af1158015613b7a573d6000803e3d6000fd5b50505060008481526021602052604080822054601f5482516332fd71af60e11b81526001600160a01b0391821660048201529251911693506365fae35e9260248084019391929182900301818387803b158015613bd657600080fd5b505af1158015613bea573d6000803e3d6000fd5b505050600084815260216020908152604091829020548154835163ec55688960e01b815293516001600160a01b0392831695506365fae35e94919092169263ec55688992600480840193829003018186803b158015613c4857600080fd5b505afa158015613c5c573d6000803e3d6000fd5b505050506040513d6020811015613c7257600080fd5b5051604080516001600160e01b031960e085901b1681526001600160a01b03909216600483015251602480830192600092919082900301818387803b158015613cba57600080fd5b505af1158015613cce573d6000803e3d6000fd5b50505050505050565b600080546001600160a01b039384166001600160a01b03199182161790915560018054929093169116179055565b600280546001600160a01b039384166001600160a01b0319918216179091556003805492909316911617905556fe4d697373696e672070726576696f757320737465700000000000000000000000a264697066735822122046e1ae131bfc35ebe73de6824a607292d17c0effd5d118890eeecb7130ea9c3c64736f6c634300060c0033",
  "linkReferences": {},
  "deployedLinkReferences": {}
}