{
  "_format": "hh-sol-artifact-1",
  "contractName": "FlipFab",
  "sourceName": "contracts/DssDeploy.sol",
  "abi": [
    {
      "inputs": [
        {
          "internalType": "address",
          "name": "owner",
          "type": "address"
        },
        {
          "internalType": "address",
          "name": "vat",
          "type": "address"
        },
        {
          "internalType": "address",
          "name": "cat",
          "type": "address"
        },
        {
          "internalType": "bytes32",
          "name": "ilk",
          "type": "bytes32"
        }
      ],
      "name": "newFlip",
      "outputs": [
        {
          "internalType": "contract Flipper",
          "name": "flip",
          "type": "address"
        }
      ],
      "stateMutability": "nonpayable",
      "type": "function"
    }
  ],
  "bytecode": "0x608060405234801561001057600080fd5b50611b4d806100206000396000f3fe608060405234801561001057600080fd5b506004361061002b5760003560e01c80637505139914610030575b600080fd5b61006c6004803603608081101561004657600080fd5b506001600160a01b03813581169160208101358216916040820135169060600135610088565b604080516001600160a01b039092168252519081900360200190f35b600083838360405161009990610151565b80846001600160a01b03168152602001836001600160a01b031681526020018281526020019350505050604051809103906000f0801580156100df573d6000803e3d6000fd5b509050806001600160a01b03166365fae35e866040518263ffffffff1660e01b815260040180826001600160a01b03168152602001915050600060405180830381600087803b15801561013157600080fd5b505af1158015610145573d6000803e3d6000fd5b50505050949350505050565b6119b98061015f8339019056fe6080604052670e92596fd629000060045560058054612a3065ffffffffffff199091161765ffffffffffff60301b19166802a300000000000000179055600060065534801561004d57600080fd5b506040516119b93803806119b98339818101604052606081101561007057600080fd5b508051602080830151604093840151600280546001600160a01b039586166001600160a01b031991821617909155600780549590931694169390931790556003919091553360009081529081905220600190556118e7806100d26000396000f3fe608060405234801561001057600080fd5b50600436106100f15760003560e01c806326e027f1146100f657806329ae811414610115578063351de6001461013857806336569e771461018c5780634423c5f1146101b05780634b43ed12146102225780634e8b1dd51461024b5780635ff3a3821461026e57806365fae35e146102975780637d780d82146102bd5780639c52a7f1146102c5578063bf353dbb146102eb578063c5ce281e14610311578063c959c42b14610319578063cfc4af5514610336578063cfdd33021461033e578063d4e8be8314610346578063e488181314610372578063fc7b6aee1461037a575b600080fd5b6101136004803603602081101561010c57600080fd5b5035610397565b005b6101136004803603604081101561012b57600080fd5b5080359060200135610651565b61017a600480360360a081101561014e57600080fd5b506001600160a01b03813581169160208101359091169060408101359060608101359060800135610751565b60408051918252519081900360200190f35b610194610932565b604080516001600160a01b039092168252519081900360200190f35b6101cd600480360360208110156101c657600080fd5b5035610941565b6040805198895260208901979097526001600160a01b039586168888015265ffffffffffff9485166060890152929093166080870152831660a0860152911660c084015260e083015251908190036101000190f35b6101136004803603606081101561023857600080fd5b508035906020810135906040013561099f565b610253610eb9565b6040805165ffffffffffff9092168252519081900360200190f35b6101136004803603606081101561028457600080fd5b5080359060208101359060400135610ec7565b610113600480360360208110156102ad57600080fd5b50356001600160a01b03166113d3565b61017a611418565b610113600480360360208110156102db57600080fd5b50356001600160a01b031661141e565b61017a6004803603602081101561030157600080fd5b50356001600160a01b0316611462565b61017a611474565b6101136004803603602081101561032f57600080fd5b503561147a565b610253611685565b61017a61169a565b6101136004803603604081101561035c57600080fd5b50803590602001356001600160a01b03166116a0565b610194611703565b6101136004803603602081101561039057600080fd5b5035611712565b6000818152600160205260409020600201546001600160a01b03166103f9576040805162461bcd60e51b8152602060048201526013602482015272119b1a5c1c195c8bd9dd5e4b5b9bdd0b5cd95d606a1b604482015290519081900360640190fd5b6000818152600160205260409020600581015490541061045d576040805162461bcd60e51b815260206004820152601a602482015279466c69707065722f616c72656164792d64656e742d706861736560301b604482015290519081900360640190fd5b60075460008281526001602052604080822060050154815163e66d279b60e01b8152600481019190915290516001600160a01b039093169263e66d279b9260248084019391929182900301818387803b1580156104b957600080fd5b505af11580156104cd573d6000803e3d6000fd5b50506002546003546000858152600160208190526040808320909101548151633088df1760e11b815260048101949094523060248501523360448501526064840152516001600160a01b039093169450636111be2e9350608480830193919282900301818387803b15801561054157600080fd5b505af1158015610555573d6000803e3d6000fd5b505060028054600085815260016020526040808220938401549354815163bb35783b60e01b81523360048201526001600160a01b0395861660248201526044810191909152905193909216945063bb35783b9350606480830193919282900301818387803b1580156105c657600080fd5b505af11580156105da573d6000803e3d6000fd5b5050506000828152600160208190526040808320838155918201839055600282018390556003820180546001600160a01b031990811690915560048301805490911690556005909101829055518392507f2c5d2826eb5903b8fc201cf48094b858f42f61c7eaac9aaf43ebed490138144e9190a250565b816262656760e81b1415610669576004819055610717565b81621d1d1b60ea1b1415610695576005805465ffffffffffff191665ffffffffffff8316179055610717565b816274617560e81b14156106ca576005805465ffffffffffff60301b1916600160301b65ffffffffffff841602179055610717565b6040805162461bcd60e51b815260206004820152601f60248201527f466c69707065722f66696c652d756e7265636f676e697a65642d706172616d00604482015290519081900360640190fd5b60408051828152905183917fe986e40cc8c151830d4f61050f4fb2e4add8567caad2d5f5496f9158e91fe4c7919081900360200190a25050565b60006000196006541061079e576040805162461bcd60e51b815260206004820152601060248201526f466c69707065722f6f766572666c6f7760801b604482015290519081900360640190fd5b5060068054600190810191829055600082815260208290526040902083815590810184905560020180546001600160a01b031916331790556005546107f490429065ffffffffffff600160301b9091041661186c565b6000828152600160205260408082206002808201805465ffffffffffff96909616600160d01b026001600160d01b0390961695909517909455600380820180546001600160a01b03808e166001600160a01b031992831617909255600480850180548e851693169290921790915560059093018a9055945490548351633088df1760e11b8152928301523360248301523060448301526064820188905291519190931692636111be2e92608480830193919282900301818387803b1580156108bb57600080fd5b505af11580156108cf573d6000803e3d6000fd5b505060408051848152602081018790528082018690526060810188905290516001600160a01b03808a1694508a1692507fc84ce3a1172f0dec3173f04caaa6005151a4bfe40d4c9f3ea28dba5f719b2a7a9181900360800190a395945050505050565b6002546001600160a01b031681565b600160208190526000918252604090912080549181015460028201546003830154600484015460059094015492936001600160a01b038084169465ffffffffffff600160a01b8604811695600160d01b900416938216929091169088565b6000838152600160205260409020600201546001600160a01b0316610a01576040805162461bcd60e51b8152602060048201526013602482015272119b1a5c1c195c8bd9dd5e4b5b9bdd0b5cd95d606a1b604482015290519081900360640190fd5b60008381526001602052604090206002015442600160a01b90910465ffffffffffff161180610a4e5750600083815260016020526040902060020154600160a01b900465ffffffffffff16155b610a9e576040805162461bcd60e51b815260206004820152601c60248201527b466c69707065722f616c72656164792d66696e69736865642d74696360201b604482015290519081900360640190fd5b60008381526001602052604090206002015442600160d01b90910465ffffffffffff1611610b12576040805162461bcd60e51b815260206004820152601c60248201527b119b1a5c1c195c8bd85b1c9958591e4b599a5b9a5cda19590b595b9960221b604482015290519081900360640190fd5b600083815260016020819052604090912001548214610b73576040805162461bcd60e51b8152602060048201526018602482015277466c69707065722f6c6f742d6e6f742d6d61746368696e6760401b604482015290519081900360640190fd5b600083815260016020526040902060050154811115610bd3576040805162461bcd60e51b8152602060048201526017602482015276233634b83832b917b434b3b432b916ba3430b716ba30b160491b604482015290519081900360640190fd5b6000838152600160205260409020548111610c2e576040805162461bcd60e51b8152602060048201526016602482015275233634b83832b917b134b216b737ba16b434b3b432b960511b604482015290519081900360640190fd5b600454600084815260016020526040902054610c4a919061188d565b610c5c82670de0b6b3a764000061188d565b101580610c79575060008381526001602052604090206005015481145b610cca576040805162461bcd60e51b815260206004820152601d60248201527f466c69707065722f696e73756666696369656e742d696e637265617365000000604482015290519081900360640190fd5b6000838152600160205260409020600201546001600160a01b03163314610d925760028054600085815260016020526040808220938401549354815163bb35783b60e01b81523360048201526001600160a01b03958616602482015260448101919091529051939092169263bb35783b92606480820193929182900301818387803b158015610d5857600080fd5b505af1158015610d6c573d6000803e3d6000fd5b505050600084815260016020526040902060020180546001600160a01b03191633179055505b6002546000848152600160205260408082206004808201549154835163bb35783b60e01b815233928101929092526001600160a01b03928316602483015286036044820152915193169263bb35783b9260648084019391929182900301818387803b158015610e0057600080fd5b505af1158015610e14573d6000803e3d6000fd5b505050600084815260016020526040902082905550600554610e3f90429065ffffffffffff1661186c565b600084815260016020908152604091829020600201805465ffffffffffff94909416600160a01b0265ffffffffffff60a01b19909416939093179092558051848152918201839052805185927fa679d55253c3ee26605ebe5dd2fb3b0194579ef2853099b5102c283a4e667ecd92908290030190a2505050565b60055465ffffffffffff1681565b6000838152600160205260409020600201546001600160a01b0316610f29576040805162461bcd60e51b8152602060048201526013602482015272119b1a5c1c195c8bd9dd5e4b5b9bdd0b5cd95d606a1b604482015290519081900360640190fd5b60008381526001602052604090206002015442600160a01b90910465ffffffffffff161180610f765750600083815260016020526040902060020154600160a01b900465ffffffffffff16155b610fc6576040805162461bcd60e51b815260206004820152601c60248201527b466c69707065722f616c72656164792d66696e69736865642d74696360201b604482015290519081900360640190fd5b60008381526001602052604090206002015442600160d01b90910465ffffffffffff161161103a576040805162461bcd60e51b815260206004820152601c60248201527b119b1a5c1c195c8bd85b1c9958591e4b599a5b9a5cda19590b595b9960221b604482015290519081900360640190fd5b6000838152600160205260409020548114611097576040805162461bcd60e51b8152602060048201526018602482015277119b1a5c1c195c8bdb9bdd0b5b585d18da1a5b99cb589a5960421b604482015290519081900360640190fd5b60008381526001602052604090206005015481146110f8576040805162461bcd60e51b8152602060048201526019602482015278119b1a5c1c195c8bdd195b990b5b9bdd0b599a5b9a5cda1959603a1b604482015290519081900360640190fd5b600083815260016020819052604090912001548210611156576040805162461bcd60e51b8152602060048201526015602482015274233634b83832b917b637ba16b737ba16b637bbb2b960591b604482015290519081900360640190fd5b6000838152600160208190526040909120015461117b90670de0b6b3a764000061188d565b6111876004548461188d565b11156111da576040805162461bcd60e51b815260206004820152601d60248201527f466c69707065722f696e73756666696369656e742d6465637265617365000000604482015290519081900360640190fd5b6000838152600160205260409020600201546001600160a01b0316331461129c576002805460008581526001602052604080822090930154835163bb35783b60e01b81523360048201526001600160a01b03918216602482015260448101869052935192169263bb35783b926064808301939282900301818387803b15801561126257600080fd5b505af1158015611276573d6000803e3d6000fd5b505050600084815260016020526040902060020180546001600160a01b03191633179055505b6002546003805460008681526001602081905260408083209485015494909101548151633088df1760e11b815260048101949094523060248501526001600160a01b0394851660448501528790036064840152519290931692636111be2e9260848084019382900301818387803b15801561131657600080fd5b505af115801561132a573d6000803e3d6000fd5b5050506000848152600160208190526040909120018390555060055461135990429065ffffffffffff1661186c565b600084815260016020908152604091829020600201805465ffffffffffff94909416600160a01b0265ffffffffffff60a01b19909416939093179092558051848152918201839052805185927f1a7c615e2d533f6d4e4ad32750dbd62249b24789379f9ed92f4ce9deab61f2af92908290030190a2505050565b6001600160a01b03811660008181526020819052604080822060019055517fdd0e34038ac38b2a1ce960229778ac48a8719bc900b6c4f8d0475c6e8b385a609190a250565b60045481565b6001600160a01b038116600081815260208190526040808220829055517f184450df2e323acec0ed3b5c7531b81f9b4cdef7914dfd4c0a4317416bb5251b9190a250565b60006020819052908152604090205481565b60035481565b600081815260016020526040902060020154600160a01b900465ffffffffffff16158015906114f3575060008181526001602052604090206002015442600160a01b90910465ffffffffffff1610806114f3575060008181526001602052604090206002015442600160d01b90910465ffffffffffff16105b61153b576040805162461bcd60e51b8152602060048201526014602482015273119b1a5c1c195c8bdb9bdd0b599a5b9a5cda195960621b604482015290519081900360640190fd5b60075460008281526001602052604080822060050154815163e66d279b60e01b8152600481019190915290516001600160a01b039093169263e66d279b9260248084019391929182900301818387803b15801561159757600080fd5b505af11580156115ab573d6000803e3d6000fd5b50506002805460035460008681526001602081905260408083209586015495909101548151633088df1760e11b815260048101949094523060248501526001600160a01b039586166044850152606484015251939092169450636111be2e93506084808201939182900301818387803b15801561162757600080fd5b505af115801561163b573d6000803e3d6000fd5b5050506000918252506001602081905260408220828155908101829055600281018290556003810180546001600160a01b0319908116909155600482018054909116905560050155565b600554600160301b900465ffffffffffff1681565b60065481565b816218d85d60ea1b14156106ca57600780546001600160a01b0319166001600160a01b0383161790556040516001600160a01b0382169083907f8fef588b5fc1afbf5b2f06c1a435d513f208da2e6704c3d8f0e0ec91167066ba90600090a35050565b6007546001600160a01b031681565b60008181526001602052604090206002015442600160d01b90910465ffffffffffff161061177e576040805162461bcd60e51b8152602060048201526014602482015273119b1a5c1c195c8bdb9bdd0b599a5b9a5cda195960621b604482015290519081900360640190fd5b600081815260016020526040902060020154600160a01b900465ffffffffffff16156117ee576040805162461bcd60e51b815260206004820152601a602482015279119b1a5c1c195c8bd89a590b585b1c9958591e4b5c1b1858d95960321b604482015290519081900360640190fd5b60055461180b904290600160301b900465ffffffffffff1661186c565b600082815260016020526040808220600201805465ffffffffffff94909416600160d01b026001600160d01b0390941693909317909255905182917fb8c95b3cea6303a753d912e243354ef08add1085ed07d34191514ef1001ef9d891a250565b80820165ffffffffffff808416908216101561188757600080fd5b92915050565b60008115806118a8575050808202828282816118a557fe5b04145b61188757600080fdfea2646970667358221220431b26c49d2dc038feb8f9b583d1331f544291b5c873a5af3690215456ac956f64736f6c634300060c0033a26469706673582212203a88e217294b8b05cff5d9d26e03f8af4239849f057d7ac87e7171f44cc48cef64736f6c634300060c0033",
  "linkReferences": {},
  "deployedLinkReferences": {}
}