{
  "_format": "hh-sol-artifact-1",
  "contractName": "IRDTJoinFab",
  "sourceName": "contracts/DssDeploy.sol",
  "abi": [
    {
      "inputs": [
        {
          "internalType": "address",
          "name": "vat",
          "type": "address"
        },
        {
          "internalType": "address",
          "name": "irdt",
          "type": "address"
        }
      ],
      "name": "newIRDTJoin",
      "outputs": [
        {
          "internalType": "contract IRDTJoin",
          "name": "irdtJoin",
          "type": "address"
        }
      ],
      "stateMutability": "nonpayable",
      "type": "function"
    }
  ],
  "bytecode": "0x608060405234801561001057600080fd5b5061075d806100206000396000f3fe608060405234801561001057600080fd5b506004361061002b5760003560e01c8063f82bb84b14610030575b600080fd5b61005e6004803603604081101561004657600080fd5b506001600160a01b038135811691602001351661007a565b604080516001600160a01b039092168252519081900360200190f35b6000828260405161008a906100c5565b6001600160a01b03928316815291166020820152604080519182900301906000f0801580156100bd573d6000803e3d6000fd5b509392505050565b610655806100d38339019056fe608060405234801561001057600080fd5b506040516106553803806106558339818101604052604081101561003357600080fd5b508051602091820151336000908152928390526040909220600190819055600381905580546001600160a01b039283166001600160a01b031991821617909155600280549290931691161790556105c68061008f6000396000f3fe608060405234801561001057600080fd5b50600436106100835760003560e01c806302cd25711461008857806336569e77146100ac5780633b4da69f146100b457806365fae35e146100e25780636924500914610108578063957aa58c146101105780639c52a7f11461012a578063bf353dbb14610150578063ef693bed14610176575b600080fd5b6100906101a2565b604080516001600160a01b039092168252519081900360200190f35b6100906101b1565b6100e0600480360360408110156100ca57600080fd5b506001600160a01b0381351690602001356101c0565b005b6100e0600480360360208110156100f857600080fd5b50356001600160a01b0316610304565b6100e0610349565b610118610379565b60408051918252519081900360200190f35b6100e06004803603602081101561014057600080fd5b50356001600160a01b031661037f565b6101186004803603602081101561016657600080fd5b50356001600160a01b03166103c3565b6100e06004803603604081101561018c57600080fd5b506001600160a01b0381351690602001356103d5565b6002546001600160a01b031681565b6001546001600160a01b031681565b6001546001600160a01b031663bb35783b30846101e8676765c793fa10079d601b1b86610566565b6040518463ffffffff1660e01b815260040180846001600160a01b03168152602001836001600160a01b031681526020018281526020019350505050600060405180830381600087803b15801561023e57600080fd5b505af1158015610252573d6000803e3d6000fd5b505060025460408051632770a7eb60e21b81523360048201526024810186905290516001600160a01b039092169350639dc29fac925060448082019260009290919082900301818387803b1580156102a957600080fd5b505af11580156102bd573d6000803e3d6000fd5b50506040805184815290516001600160a01b03861693507fb4e09949657f21548b58afe74e7b86cd2295da5ff1598ae1e5faecb1cf19ca9592509081900360200190a25050565b6001600160a01b03811660008181526020819052604080822060019055517fdd0e34038ac38b2a1ce960229778ac48a8719bc900b6c4f8d0475c6e8b385a609190a250565b600060038190556040517f2308ed18a14e800c39b86eb6ea43270105955ca385b603b64eca89f98ae8fbda9190a1565b60035481565b6001600160a01b038116600081815260208190526040808220829055517f184450df2e323acec0ed3b5c7531b81f9b4cdef7914dfd4c0a4317416bb5251b9190a250565b60006020819052908152604090205481565b600354600114610420576040805162461bcd60e51b8152602060048201526011602482015270495244544a6f696e2f6e6f742d6c69766560781b604482015290519081900360640190fd5b6001546001600160a01b031663bb35783b3330610448676765c793fa10079d601b1b86610566565b6040518463ffffffff1660e01b815260040180846001600160a01b03168152602001836001600160a01b031681526020018281526020019350505050600060405180830381600087803b15801561049e57600080fd5b505af11580156104b2573d6000803e3d6000fd5b5050600254604080516340c10f1960e01b81526001600160a01b0387811660048301526024820187905291519190921693506340c10f199250604480830192600092919082900301818387803b15801561050b57600080fd5b505af115801561051f573d6000803e3d6000fd5b50506040805184815290516001600160a01b03861693507f22d324652c93739755cf4581508b60875ebdd78c20c0cff5cf8e23452b29963192509081900360200190a25050565b60008115806105815750508082028282828161057e57fe5b04145b61058a57600080fd5b9291505056fea26469706673582212202f81225cd7833dd411bfa764144964598308daf2233994471022408d6849b4bf64736f6c634300060c0033a26469706673582212203e60c84dcbd550d386901c550ab21531858c8d999c6ff51826a48c0166cee6db64736f6c634300060c0033",
  "linkReferences": {},
  "deployedLinkReferences": {}
}