{
  "_format": "hh-sol-artifact-1",
  "contractName": "JugFab",
  "sourceName": "contracts/DssDeploy.sol",
  "abi": [
    {
      "inputs": [
        {
          "internalType": "address",
          "name": "owner",
          "type": "address"
        },
        {
          "internalType": "address",
          "name": "vat",
          "type": "address"
        }
      ],
      "name": "newJug",
      "outputs": [
        {
          "internalType": "contract Jug",
          "name": "jug",
          "type": "address"
        }
      ],
      "stateMutability": "nonpayable",
      "type": "function"
    }
  ],
  "bytecode": "0x608060405234801561001057600080fd5b50610a5e806100206000396000f3fe608060405234801561001057600080fd5b506004361061002b5760003560e01c8063ab965ed114610030575b600080fd5b61005e6004803603604081101561004657600080fd5b506001600160a01b038135811691602001351661007a565b604080516001600160a01b039092168252519081900360200190f35b60008160405161008990610126565b6001600160a01b03909116815260405190819003602001906000f0801580156100b6573d6000803e3d6000fd5b509050806001600160a01b03166365fae35e846040518263ffffffff1660e01b815260040180826001600160a01b03168152602001915050600060405180830381600087803b15801561010857600080fd5b505af115801561011c573d6000803e3d6000fd5b5050505092915050565b6108f5806101348339019056fe608060405234801561001057600080fd5b506040516108f53803806108f58339818101604052602081101561003357600080fd5b505133600090815260208190526040902060019055600280546001600160a01b039092166001600160a01b031990921691909117905561087d806100786000396000f3fe608060405234801561001057600080fd5b50600436106100a45760003560e01c80631a0b287e146100a957806329ae8114146100d457806336569e77146100f75780633b6631951461011b57806344e2a5a8146101385780635001f3b514610167578063626cb3c51461016f57806365fae35e146101775780639c52a7f11461019d578063bf353dbb146101c3578063d4e8be83146101e9578063d9638d3614610215575b600080fd5b6100d2600480360360608110156100bf57600080fd5b508035906020810135906040013561024b565b005b6100d2600480360360408110156100ea57600080fd5b508035906020013561034b565b6100ff610399565b604080516001600160a01b039092168252519081900360200190f35b6100d26004803603602081101561013157600080fd5b50356103a8565b6101556004803603602081101561014e57600080fd5b5035610444565b60408051918252519081900360200190f35b61015561063d565b6100ff610643565b6100d26004803603602081101561018d57600080fd5b50356001600160a01b0316610652565b6100d2600480360360208110156101b357600080fd5b50356001600160a01b031661066f565b610155600480360360208110156101d957600080fd5b50356001600160a01b0316610689565b6100d2600480360360408110156101ff57600080fd5b50803590602001356001600160a01b031661069b565b6102326004803603602081101561022b57600080fd5b5035610707565b6040805192835260208301919091528051918290030190f35b6000838152600160208190526040909120015442146102a7576040805162461bcd60e51b8152602060048201526013602482015272129d59cbdc9a1bcb5b9bdd0b5d5c19185d1959606a1b604482015290519081900360640190fd5b81636475747960e01b14156102cc576000838152600160205260409020819055610317565b6040805162461bcd60e51b815260206004820152601b60248201527a4a75672f66696c652d756e7265636f676e697a65642d706172616d60281b604482015290519081900360640190fd5b8082847f851aa1caf4888170ad8875449d18f0f512fd6deb2a6571ea1a41fb9f95acbcd160405160405180910390a4505050565b81636261736560e01b14156102cc57600481905560408051828152905183917fe986e40cc8c151830d4f61050f4fb2e4add8567caad2d5f5496f9158e91fe4c7919081900360200190a25050565b6002546001600160a01b031681565b6000818152600160205260409020805415610401576040805162461bcd60e51b8152602060048201526014602482015273129d59cbda5b1acb585b1c9958591e4b5a5b9a5d60621b604482015290519081900360640190fd5b676765c793fa10079d601b1b815542600182015560405182907feeb45f27c5b399a603237b10d4803743d494bfc24c3a004cadb716c41033a55590600090a25050565b60008181526001602081905260408220015442101561049c576040805162461bcd60e51b815260206004820152600f60248201526e4a75672f696e76616c69642d6e6f7760881b604482015290519081900360640190fd5b60025460408051636cb1c69b60e11b81526004810185905281516000936001600160a01b03169263d9638d36926024808201939182900301818787803b1580156104e557600080fd5b505af11580156104f9573d6000803e3d6000fd5b505050506040513d604081101561050f57600080fd5b506020908101516004546000868152600190935260409092205490925061056a916105649161053e9190610720565b600086815260016020819052604090912001544203676765c793fa10079d601b1b610736565b826107f4565b6002546003549193506001600160a01b039081169163b65337df918691166105928686610829565b6040518463ffffffff1660e01b815260040180848152602001836001600160a01b031681526020018281526020019350505050600060405180830381600087803b1580156105df57600080fd5b505af11580156105f3573d6000803e3d6000fd5b5050506000848152600160208190526040808320429201919091555184925085917f2fbd8559330c6faf38d4ee435b8463427bd58cd6bc7edd1a4e6f3ab6b57de71e91a350919050565b60045481565b6003546001600160a01b031681565b6001600160a01b0316600090815260208190526040902060019055565b6001600160a01b0316600090815260208190526040812055565b60006020819052908152604090205481565b8162766f7760e81b14156102cc57600380546001600160a01b0319166001600160a01b038316179055604080516001600160a01b0383168152905183917f8fef588b5fc1afbf5b2f06c1a435d513f208da2e6704c3d8f0e0ec91167066ba919081900360200190a25050565b6001602081905260009182526040909120805491015482565b8181018281101561073057600080fd5b92915050565b60008380156107d65760018416801561075157859250610755565b8392505b50600283046002850494505b84156107d057858602868782041461077857600080fd5b8181018181101561078857600080fd5b85900496505060018516156107c55785830283878204141587151516156107ae57600080fd5b818101818110156107be57600080fd5b8590049350505b600285049450610761565b506107ec565b8380156107e657600092506107ea565b8392505b505b509392505050565b81810281158061080c57508282828161080957fe5b04145b61081557600080fd5b676765c793fa10079d601b1b900492915050565b8082036000831280159061083e575060008212155b61073057600080fdfea2646970667358221220535707d982cbd9ae42211ee1f6c7118289133261852aa0bb344fe6cc9a66ba1a64736f6c634300060c0033a2646970667358221220424d0f7067a44f73afc99cd8b422fd304e3818781a24fd19d77c22783dcb16a664736f6c634300060c0033",
  "linkReferences": {},
  "deployedLinkReferences": {}
}