{
  "_format": "hh-sol-artifact-1",
  "contractName": "PauseFab",
  "sourceName": "contracts/DssDeploy.sol",
  "abi": [
    {
      "inputs": [
        {
          "internalType": "uint256",
          "name": "delay",
          "type": "uint256"
        },
        {
          "internalType": "address",
          "name": "owner",
          "type": "address"
        },
        {
          "internalType": "address",
          "name": "authority",
          "type": "address"
        }
      ],
      "name": "newPause",
      "outputs": [
        {
          "internalType": "contract DSPause",
          "name": "pause",
          "type": "address"
        }
      ],
      "stateMutability": "nonpayable",
      "type": "function"
    }
  ],
  "bytecode": "0x608060405234801561001057600080fd5b506110e8806100206000396000f3fe608060405234801561001057600080fd5b506004361061002b5760003560e01c80634f2ff4a614610030575b600080fd5b6100646004803603606081101561004657600080fd5b508035906001600160a01b0360208201358116916040013516610080565b604080516001600160a01b039092168252519081900360200190f35b6000838383604051610091906100d5565b9283526001600160a01b039182166020840152166040808301919091525190819003606001906000f0801580156100cc573d6000803e3d6000fd5b50949350505050565b610fd0806100e38339019056fe608060405234801561001057600080fd5b50604051610fd0380380610fd08339818101604052606081101561003357600080fd5b50805160208201516040928301516004839055600180546001600160a01b038085166001600160a01b0319928316179092556000805492841692909116919091179055925191929091610085906100cb565b604051809103906000f0801580156100a1573d6000803e3d6000fd5b50600380546001600160a01b0319166001600160a01b0392909216919091179055506100d8915050565b6102fe80610cd283390190565b610beb806100e76000396000f3fe608060405234801561001057600080fd5b50600436106100995760003560e01c806313af40351461009e578063162c7de3146100c6578063168ccd671461018157806346d2fbbb146102b15780636a42b8f81461036c5780637a9e5e4b146103865780638da5cb5b146103ac578063aa4f2653146103d0578063bf7e214f14610401578063e177246e14610409578063ec55688914610426575b600080fd5b6100c4600480360360208110156100b457600080fd5b50356001600160a01b031661042e565b005b6100c4600480360360808110156100dc57600080fd5b6001600160a01b0382351691602081013591810190606081016040820135600160201b81111561010b57600080fd5b82018360208201111561011d57600080fd5b803590602001918460018302840111600160201b8311171561013e57600080fd5b91908080601f01602080910402602001604051908101604052809392919081815260200183838082843760009201919091525092955050913592506104cb915050565b61023c6004803603608081101561019757600080fd5b6001600160a01b0382351691602081013591810190606081016040820135600160201b8111156101c657600080fd5b8201836020820111156101d857600080fd5b803590602001918460018302840111600160201b831117156101f957600080fd5b91908080601f0160208091040260200160405190810160405280939291908181526020018383808284376000920191909152509295505091359250610502915050565b6040805160208082528351818301528351919283929083019185019080838360005b8381101561027657818101518382015260200161025e565b50505050905090810190601f1680156102a35780820380516001836020036101000a031916815260200191505b509250505060405180910390f35b6100c4600480360360808110156102c757600080fd5b6001600160a01b0382351691602081013591810190606081016040820135600160201b8111156102f657600080fd5b82018360208201111561030857600080fd5b803590602001918460018302840111600160201b8311171561032957600080fd5b91908080601f01602080910402602001604051908101604052809392919081815260200183838082843760009201919091525092955050913592506108dc915050565b61037461094d565b60408051918252519081900360200190f35b6100c46004803603602081101561039c57600080fd5b50356001600160a01b0316610953565b6103b46109ec565b604080516001600160a01b039092168252519081900360200190f35b6103ed600480360360208110156103e657600080fd5b50356109fb565b604080519115158252519081900360200190f35b6103b4610a10565b6100c46004803603602081101561041f57600080fd5b5035610a1f565b6103b4610a71565b6003546001600160a01b0316331461047b576040805162461bcd60e51b81526020600482015260176024820152600080516020610b96833981519152604482015290519081900360640190fd5b600180546001600160a01b0319166001600160a01b0383811691909117918290556040519116907fce241d7ca1f669fee44b6fc00b8eba2df3bb514eed0f6f668f8f89096e81ed9490600090a250565b6000600260006104dd87878787610a80565b81526020810191909152604001600020805460ff191691151591909117905550505050565b60606002600061051487878787610a80565b815260208101919091526040016000205460ff16610573576040805162461bcd60e51b8152602060048201526017602482015276323996b830bab9b296bab7383637ba3a32b216b83630b760491b604482015290519081900360640190fd5b8361057d86610b36565b146105c9576040805162461bcd60e51b81526020600482015260176024820152760c8e65ae0c2eae6ca5aeee4dedcce5ac6dec8cad0c2e6d604b1b604482015290519081900360640190fd5b81421015610618576040805162461bcd60e51b815260206004820152601760248201527664732d70617573652d7072656d61747572652d6578656360481b604482015290519081900360640190fd5b60006002600061062a88888888610a80565b815260200190815260200160002060006101000a81548160ff021916908315150217905550600360009054906101000a90046001600160a01b03166001600160a01b031663be6002c286856040518363ffffffff1660e01b815260040180836001600160a01b0316815260200180602001828103825283818151815260200191508051906020019080838360005b838110156106d05781810151838201526020016106b8565b50505050905090810190601f1680156106fd5780820380516001836020036101000a031916815260200191505b509350505050600060405180830381600087803b15801561071d57600080fd5b505af1158015610731573d6000803e3d6000fd5b505050506040513d6000823e601f3d908101601f19168201604052602081101561075a57600080fd5b8101908080516040519392919084600160201b82111561077957600080fd5b90830190602082018581111561078e57600080fd5b8251600160201b8111828201881017156107a757600080fd5b82525081516020918201929091019080838360005b838110156107d45781810151838201526020016107bc565b50505050905090810190601f1680156108015780820380516001836020036101000a031916815260200191505b506040818152600354638da5cb5b60e01b8352905195965030956001600160a01b039091169450638da5cb5b935060048083019350602092829003018186803b15801561084d57600080fd5b505afa158015610861573d6000803e3d6000fd5b505050506040513d602081101561087757600080fd5b50516001600160a01b0316146108d4576040805162461bcd60e51b815260206004820152601f60248201527f64732d70617573652d696c6c6567616c2d73746f726167652d6368616e676500604482015290519081900360640190fd5b949350505050565b6108e842600454610b3a565b81101561093b576040805162461bcd60e51b815260206004820152601c60248201527b191ccb5c185d5cd94b59195b185e4b5b9bdd0b5c995cdc1958dd195960221b604482015290519081900360640190fd5b6001600260006104dd87878787610a80565b60045481565b6003546001600160a01b031633146109a0576040805162461bcd60e51b81526020600482015260176024820152600080516020610b96833981519152604482015290519081900360640190fd5b600080546001600160a01b0319166001600160a01b03838116919091178083556040519116917f1abebea81bfa2637f28358c371278fb15ede7ea8dd28d2e03b112ff6d936ada491a250565b6001546001600160a01b031681565b60026020526000908152604090205460ff1681565b6000546001600160a01b031681565b6003546001600160a01b03163314610a6c576040805162461bcd60e51b81526020600482015260176024820152600080516020610b96833981519152604482015290519081900360640190fd5b600455565b6003546001600160a01b031681565b60008484848460405160200180856001600160a01b0316815260200184815260200180602001838152602001828103825284818151815260200191508051906020019080838360005b83811015610ae1578181015183820152602001610ac9565b50505050905090810190601f168015610b0e5780820380516001836020036101000a031916815260200191505b5095505050505050604051602081830303815290604052805190602001209050949350505050565b3f90565b81810182811015610b8f576040805162461bcd60e51b815260206004820152601a60248201527964732d70617573652d6164646974696f6e2d6f766572666c6f7760301b604482015290519081900360640190fd5b9291505056fe64732d70617573652d756e64656c617965642d63616c6c000000000000000000a2646970667358221220bdae96785f27c2672c7fe8125dc7d5b5a126b50ca579b700c09928d7d2b2babe64736f6c634300060c0033608060405234801561001057600080fd5b50600080546001600160a01b031916331790556102cc806100326000396000f3fe608060405234801561001057600080fd5b50600436106100365760003560e01c80638da5cb5b1461003b578063be6002c21461005f575b600080fd5b610043610188565b604080516001600160a01b039092168252519081900360200190f35b6101136004803603604081101561007557600080fd5b6001600160a01b038235169190810190604081016020820135600160201b81111561009f57600080fd5b8201836020820111156100b157600080fd5b803590602001918460018302840111600160201b831117156100d257600080fd5b91908080601f016020809104026020016040519081016040528093929190818152602001838380828437600092019190915250929550610197945050505050565b6040805160208082528351818301528351919283929083019185019080838360005b8381101561014d578181015183820152602001610135565b50505050905090810190601f16801561017a5780820380516001836020036101000a031916815260200191505b509250505060405180910390f35b6000546001600160a01b031681565b60606000836001600160a01b0316836040518082805190602001908083835b602083106101d55780518252601f1990920191602091820191016101b6565b6001836020036101000a038019825116818451168082178552505050505050905001915050600060405180830381855af49150503d8060008114610235576040519150601f19603f3d011682016040523d82523d6000602084013e61023a565b606091505b50925090508061028f576040805162461bcd60e51b815260206004820152601b60248201527a323996b830bab9b296b232b632b3b0ba32b1b0b63616b2b93937b960291b604482015290519081900360640190fd5b509291505056fea2646970667358221220634a6e965b96371d9d4a4bd5bb7a5d658937748f7548b47d2405530ae294a37d64736f6c634300060c0033a2646970667358221220815b8a2bd4098e6aa3fef26109456cc0d4f5d197176d55fd82c95dee88dd2d3b64736f6c634300060c0033",
  "linkReferences": {},
  "deployedLinkReferences": {}
}