{
  "_format": "hh-sol-artifact-1",
  "contractName": "SpotFab",
  "sourceName": "contracts/DssDeploy.sol",
  "abi": [
    {
      "inputs": [
        {
          "internalType": "address",
          "name": "owner",
          "type": "address"
        },
        {
          "internalType": "address",
          "name": "vat",
          "type": "address"
        }
      ],
      "name": "newSpotter",
      "outputs": [
        {
          "internalType": "contract Spotter",
          "name": "spotter",
          "type": "address"
        }
      ],
      "stateMutability": "nonpayable",
      "type": "function"
    }
  ],
  "bytecode": "0x608060405234801561001057600080fd5b5061093a806100206000396000f3fe608060405234801561001057600080fd5b506004361061002b5760003560e01c806347041ed214610030575b600080fd5b61005e6004803603604081101561004657600080fd5b506001600160a01b038135811691602001351661007a565b604080516001600160a01b039092168252519081900360200190f35b60008160405161008990610126565b6001600160a01b03909116815260405190819003602001906000f0801580156100b6573d6000803e3d6000fd5b509050806001600160a01b03166365fae35e846040518263ffffffff1660e01b815260040180826001600160a01b03168152602001915050600060405180830381600087803b15801561010857600080fd5b505af115801561011c573d6000803e3d6000fd5b5050505092915050565b6107d1806101348339019056fe608060405234801561001057600080fd5b506040516107d13803806107d18339818101604052602081101561003357600080fd5b5051336000908152602081905260409020600190819055600280546001600160a01b039093166001600160a01b0319909316929092179091556b033b2e3c9fd0803ce80000006003556004556107438061008e6000396000f3fe608060405234801561001057600080fd5b50600436106100a45760003560e01c80631504460f146100a95780631a0b287e146100c857806329ae8114146100f157806336569e7714610114578063495d32cb1461013857806365fae35e146101525780636924500914610178578063957aa58c146101805780639c52a7f114610188578063bf353dbb146101ae578063d9638d36146101d4578063ebecb39d14610214575b600080fd5b6100c6600480360360208110156100bf57600080fd5b5035610246565b005b6100c6600480360360608110156100de57600080fd5b50803590602081013590604001356103d1565b6100c66004803603604081101561010757600080fd5b50803590602001356104cc565b61011c610568565b604080516001600160a01b039092168252519081900360200190f35b610140610577565b60408051918252519081900360200190f35b6100c66004803603602081101561016857600080fd5b50356001600160a01b031661057d565b6100c661059a565b6101406105a1565b6100c66004803603602081101561019e57600080fd5b50356001600160a01b03166105a7565b610140600480360360208110156101c457600080fd5b50356001600160a01b03166105c1565b6101f1600480360360208110156101ea57600080fd5b50356105d3565b604080516001600160a01b03909316835260208301919091528051918290030190f35b6100c66004803603606081101561022a57600080fd5b50803590602081013590604001356001600160a01b03166105f8565b6000818152600160205260408082205481516359e02dd760e01b8152825184936001600160a01b03909316926359e02dd7926004808201939182900301818787803b15801561029457600080fd5b505af11580156102a8573d6000803e3d6000fd5b505050506040513d60408110156102be57600080fd5b50805160209091015190925090506000816102da57600061030e565b61030e6102f66102ee85633b9aca006106bc565b6003546106e6565b600086815260016020819052604090912001546106e6565b60025460408051630d05943f60e11b815260048101889052631cdc1bdd60e21b60248201526044810184905290519293506001600160a01b0390911691631a0b287e9160648082019260009290919082900301818387803b15801561037257600080fd5b505af1158015610386573d6000803e3d6000fd5b5050604080518781526020810187905280820185905290517fdfd7467e425a8107cfd368d159957692c25085aacbcf5228ce08f10f2146486e9350908190036060019150a150505050565b60045460011461041b576040805162461bcd60e51b815260206004820152601060248201526f53706f747465722f6e6f742d6c69766560801b604482015290519081900360640190fd5b81621b585d60ea1b141561044357600083815260016020819052604090912001819055610490565b6040805162461bcd60e51b815260206004820152601f60248201527f53706f747465722f66696c652d756e7265636f676e697a65642d706172616d00604482015290519081900360640190fd5b604080518281529051839185917f851aa1caf4888170ad8875449d18f0f512fd6deb2a6571ea1a41fb9f95acbcd19181900360200190a3505050565b600454600114610516576040805162461bcd60e51b815260206004820152601060248201526f53706f747465722f6e6f742d6c69766560801b604482015290519081900360640190fd5b81623830b960e91b1415610443576003819055604080518381526020810183905281517fe986e40cc8c151830d4f61050f4fb2e4add8567caad2d5f5496f9158e91fe4c7929181900390910190a15050565b6002546001600160a01b031681565b60035481565b6001600160a01b0316600090815260208190526040902060019055565b6000600455565b60045481565b6001600160a01b0316600090815260208190526040812055565b60006020819052908152604090205481565b600160208190526000918252604090912080549101546001600160a01b039091169082565b600454600114610642576040805162461bcd60e51b815260206004820152601060248201526f53706f747465722f6e6f742d6c69766560801b604482015290519081900360640190fd5b816207069760ec1b141561044357600083815260016020526040902080546001600160a01b0319166001600160a01b038316179055604080516001600160a01b03831681529051839185917f4ff2caaa972a7c6629ea01fae9c93d73cc307d13ea4c369f9bbbb7f9b7e9461d9181900360200190a3505050565b60008115806106d7575050808202828282816106d457fe5b04145b6106e057600080fd5b92915050565b6000816106fe84676765c793fa10079d601b1b6106bc565b8161070557fe5b04939250505056fea2646970667358221220046e1785b3be3b7adb91f333bbddf4dfe2390ad5822a325eb6de907434d032ef64736f6c634300060c0033a26469706673582212203993705b196bd68ff8b3a5fe437f063157d632a1900e5f499a65bb404c6e22e464736f6c634300060c0033",
  "linkReferences": {},
  "deployedLinkReferences": {}
}