{
  "_format": "hh-sol-artifact-1",
  "contractName": "VatFab",
  "sourceName": "contracts/DssDeploy.sol",
  "abi": [
    {
      "inputs": [
        {
          "internalType": "address",
          "name": "owner",
          "type": "address"
        }
      ],
      "name": "newVat",
      "outputs": [
        {
          "internalType": "contract Vat",
          "name": "vat",
          "type": "address"
        }
      ],
      "stateMutability": "nonpayable",
      "type": "function"
    }
  ],
  "bytecode": "0x608060405234801561001057600080fd5b50611c7f806100206000396000f3fe608060405234801561001057600080fd5b506004361061002b5760003560e01c8063ffb33e2a14610030575b600080fd5b6100566004803603602081101561004657600080fd5b50356001600160a01b0316610072565b604080516001600160a01b039092168252519081900360200190f35b60006040516100809061010b565b604051809103906000f08015801561009c573d6000803e3d6000fd5b509050806001600160a01b03166365fae35e836040518263ffffffff1660e01b815260040180826001600160a01b03168152602001915050600060405180830381600087803b1580156100ee57600080fd5b505af1158015610102573d6000803e3d6000fd5b50505050919050565b611b31806101198339019056fe608060405234801561001057600080fd5b50336000908152602081905260409020600190819055600a55611af9806100386000396000f3fe608060405234801561001057600080fd5b50600436106101545760003560e01c80630dca59c1146101595780631a0b287e146101735780631f22ae0d1461019e578063214414d5146101c45780632424be5c146101f057806329ae8114146102355780632d61a355146102585780633b663195146102605780634538c4eb1461027d5780636111be2e146102ab57806365fae35e146102e7578063692450091461030d57806376088703146103155780637bab3f401461035d5780637cdd3fde146103a5578063870c616d146103d7578063957aa58c146104195780639c52a7f114610421578063a3b22fc414610447578063b65337df1461046d578063babe8a3f1461049f578063bb35783b146104a7578063bf353dbb146104dd578063d9638d3614610503578063dc4d20fa1461054b578063f059212a14610571578063f24e23eb14610597578063f37ac61c146105cd575b600080fd5b6101616105ea565b60408051918252519081900360200190f35b61019c6004803603606081101561018957600080fd5b50803590602081013590604001356105f0565b005b610161600480360360208110156101b457600080fd5b50356001600160a01b03166106ff565b610161600480360360408110156101da57600080fd5b50803590602001356001600160a01b0316610711565b61021c6004803603604081101561020657600080fd5b50803590602001356001600160a01b031661072e565b6040805192835260208301919091528051918290030190f35b61019c6004803603604081101561024b57600080fd5b5080359060200135610752565b6101616107ad565b61019c6004803603602081101561027657600080fd5b50356107b3565b6101616004803603604081101561029357600080fd5b506001600160a01b0381358116916020013516610830565b61019c600480360360808110156102c157600080fd5b508035906001600160a01b0360208201358116916040810135909116906060013561084d565b61019c600480360360208110156102fd57600080fd5b50356001600160a01b0316610964565b61019c6109ef565b61019c600480360360c081101561032b57600080fd5b508035906001600160a01b03602082013581169160408101358216916060820135169060808101359060a00135610a1f565b61019c600480360360c081101561037357600080fd5b508035906001600160a01b03602082013581169160408101358216916060820135169060808101359060a00135610f96565b61019c600480360360608110156103bb57600080fd5b508035906001600160a01b0360208201351690604001356110fa565b61019c600480360360a08110156103ed57600080fd5b508035906001600160a01b0360208201358116916040810135909116906060810135906080013561117e565b610161611449565b61019c6004803603602081101561043757600080fd5b50356001600160a01b031661144f565b61019c6004803603602081101561045d57600080fd5b50356001600160a01b03166114d9565b61019c6004803603606081101561048357600080fd5b508035906001600160a01b03602082013516906040013561152b565b610161611630565b61019c600480360360608110156104bd57600080fd5b506001600160a01b03813581169160208101359091169060400135611636565b610161600480360360208110156104f357600080fd5b50356001600160a01b0316611732565b6105206004803603602081101561051957600080fd5b5035611744565b6040805195865260208601949094528484019290925260608401526080830152519081900360a00190f35b61019c6004803603602081101561056157600080fd5b50356001600160a01b0316611773565b6101616004803603602081101561058757600080fd5b50356001600160a01b03166117c3565b61019c600480360360608110156105ad57600080fd5b506001600160a01b038135811691602081013590911690604001356117d5565b61019c600480360360208110156105e357600080fd5b50356118a7565b60075481565b600a54600114610636576040805162461bcd60e51b815260206004820152600c60248201526b5661742f6e6f742d6c69766560a01b604482015290519081900360640190fd5b81631cdc1bdd60e21b141561065f576000838152600260208190526040909120018190556106fa565b81636c696e6560e01b14156106875760008381526002602052604090206003018190556106fa565b8163191d5cdd60e21b14156106af5760008381526002602052604090206004018190556106fa565b6040805162461bcd60e51b815260206004820152601b60248201527a5661742f66696c652d756e7265636f676e697a65642d706172616d60281b604482015290519081900360640190fd5b505050565b60056020526000908152604090205481565b600460209081526000928352604080842090915290825290205481565b60036020908152600092835260408084209091529082529020805460019091015482565b600a54600114610798576040805162461bcd60e51b815260206004820152600c60248201526b5661742f6e6f742d6c69766560a01b604482015290519081900360640190fd5b81634c696e6560e01b14156106af5760095550565b60085481565b6000818152600260205260409020600101541561080e576040805162461bcd60e51b815260206004820152601460248201527315985d0bda5b1acb585b1c9958591e4b5a5b9a5d60621b604482015290519081900360640190fd5b6000908152600260205260409020676765c793fa10079d601b1b600190910155565b600160209081526000928352604080842090915290825290205481565b6108578333611958565b61089b576040805162461bcd60e51b815260206004820152601060248201526f5661742f6e6f742d616c6c6f7765643160801b604482015290519081900360640190fd5b60008481526004602090815260408083206001600160a01b03871684529091529020546108c89082611998565b60008581526004602090815260408083206001600160a01b0388811685529252808320939093558416815220546108ff90826119a8565b60008581526004602090815260408083206001600160a01b038088168086529184529382902094909455805185815290519287169288927f5718eae79ffb8b6c98c497e5029a903705cf6a33a17aaab32de7fe198d8d8a0d928290030190a450505050565b600a546001146109aa576040805162461bcd60e51b815260206004820152600c60248201526b5661742f6e6f742d6c69766560a01b604482015290519081900360640190fd5b6001600160a01b03811660008181526020819052604080822060019055517fdd0e34038ac38b2a1ce960229778ac48a8719bc900b6c4f8d0475c6e8b385a609190a250565b6000600a8190556040517f2308ed18a14e800c39b86eb6ea43270105955ca385b603b64eca89f98ae8fbda9190a1565b600a54600114610a65576040805162461bcd60e51b815260206004820152600c60248201526b5661742f6e6f742d6c69766560a01b604482015290519081900360640190fd5b610a6d611a7a565b5060008681526003602090815260408083206001600160a01b03891684528252918290208251808401909352805483526001015490820152610aad611a94565b50600087815260026020818152604092839020835160a081018552815481526001820154928101839052928101549383019390935260038301546060830152600490920154608082015290610b3c576040805162461bcd60e51b815260206004820152601060248201526f15985d0bda5b1acb5b9bdd0b5a5b9a5d60821b604482015290519081900360640190fd5b8151610b4890856119b8565b82526020820151610b5990846119b8565b60208301528051610b6a90846119b8565b81526020810151600090610b7e90856119ed565b90506000610b9483602001518560200151611a1b565b9050610ba2600754836119b8565b600781905550610bde6000861315610bd98560600151610bca87600001518860200151611a1b565b11156009546007541115611a3e565b611a42565b610c26576040805162461bcd60e51b815260206004820152601460248201527315985d0bd8d95a5b1a5b99cb595e18d95959195960621b604482015290519081900360640190fd5b610c55610c3b60008713156000891215611a3e565b610c4d86600001518660400151611a1b565b831115611a42565b610c95576040805162461bcd60e51b815260206004820152600c60248201526b5661742f6e6f742d7361666560a01b604482015290519081900360640190fd5b610cb4610caa60008713156000891215611a3e565b610bd98b33611958565b610cf9576040805162461bcd60e51b81526020600482015260116024820152705661742f6e6f742d616c6c6f7765642d7560781b604482015290519081900360640190fd5b610d0b6000871315610bd98a33611958565b610d50576040805162461bcd60e51b81526020600482015260116024820152702b30ba17b737ba16b0b63637bbb2b216bb60791b604482015290519081900360640190fd5b610d626000861215610bd98933611958565b610da7576040805162461bcd60e51b81526020600482015260116024820152705661742f6e6f742d616c6c6f7765642d7760781b604482015290519081900360640190fd5b610dbf84602001516000148460800151831015611a42565b610dfb576040805162461bcd60e51b815260206004820152600860248201526715985d0bd91d5cdd60c21b604482015290519081900360640190fd5b60008a81526004602090815260408083206001600160a01b038c168452909152902054610e289087611a46565b60008b81526004602090815260408083206001600160a01b03808e16855290835281842094909455928a168252600590522054610e6590836119b8565b60056000896001600160a01b03166001600160a01b031681526020019081526020016000208190555083600360008c815260200190815260200160002060008b6001600160a01b03166001600160a01b03168152602001908152602001600020600082015181600001556020820151816001015590505082600260008c81526020019081526020016000206000820151816000015560208201518160010155604082015181600201556060820151816003015560808201518160040155905050866001600160a01b0316886001600160a01b03168a6001600160a01b03167fe37707842c8387f7c3c357f1d6c5bf57084e681573bdda024fae70cf0ecde80e8d8a8a60405180848152602001838152602001828152602001935050505060405180910390a450505050505050505050565b60008681526003602090815260408083206001600160a01b0389168452825280832089845260029092529091208154610fcf90856119b8565b82556001820154610fe090846119b8565b60018301558054610ff190846119b8565b8155600181015460009061100590856119ed565b60008a81526004602090815260408083206001600160a01b038c1684529091529020549091506110359086611a46565b60008a81526004602090815260408083206001600160a01b03808d1685529083528184209490945592891682526006905220546110729082611a46565b6001600160a01b0387166000908152600660205260409020556008546110989082611a46565b600855604080518a81526020810187905280820186905290516001600160a01b03808916928a821692918c16917f1b2837fd40844c96cf39e52acaae7902fb74257fe20b1b7df5458b97d896c6369181900360600190a4505050505050505050565b60008381526004602090815260408083206001600160a01b038616845290915290205461112790826119b8565b60008481526004602090815260408083206001600160a01b038716808552925280832093909355915183929186917f0d5f62756a04d37a9bb68fd20b97c7c6a03e96ab87385a99f99c2463157dba4e9190a4505050565b60008581526003602090815260408083206001600160a01b03888116855290835281842090871684528184208985526002909352922082546111c09086611a46565b835560018301546111d19085611a46565b600184015581546111e290866119b8565b825560018201546111f390856119b8565b8260010181905550600061120f84600101548360010154611a1b565b9050600061122584600101548460010154611a1b565b90506112436112348a33611958565b61123e8a33611958565b611a3e565b611287576040805162461bcd60e51b815260206004820152601060248201526f5661742f6e6f742d616c6c6f7765643360801b604482015290519081900360640190fd5b61129985600001548460020154611a1b565b8211156112e0576040805162461bcd60e51b815260206004820152601060248201526f5661742f6e6f742d736166652d73726360801b604482015290519081900360640190fd5b6112f284600001548460020154611a1b565b811115611339576040805162461bcd60e51b815260206004820152601060248201526f15985d0bdb9bdd0b5cd859994b591cdd60821b604482015290519081900360640190fd5b61135183600401548310158660010154600014611a42565b611391576040805162461bcd60e51b815260206004820152600c60248201526b5661742f647573742d73726360a01b604482015290519081900360640190fd5b6113a983600401548210158560010154600014611a42565b6113e9576040805162461bcd60e51b815260206004820152600c60248201526b15985d0bd91d5cdd0b591cdd60a21b604482015290519081900360640190fd5b876001600160a01b0316896001600160a01b03168b7f4b67161d2a4293b296b2f023c52ea4214353fa4f03e58973572faa00097dbd1e8a8a604051808381526020018281526020019250505060405180910390a450505050505050505050565b600a5481565b600a54600114611495576040805162461bcd60e51b815260206004820152600c60248201526b5661742f6e6f742d6c69766560a01b604482015290519081900360640190fd5b6001600160a01b038116600081815260208190526040808220829055517f184450df2e323acec0ed3b5c7531b81f9b4cdef7914dfd4c0a4317416bb5251b9190a250565b3360009081526001602081815260408084206001600160a01b038616808652925280842092909255905190917f3a21b662999d3fc0ceca48751a22bf61a806dcf3631e136271f02f7cb981fd4391a250565b600a54600114611571576040805162461bcd60e51b815260206004820152600c60248201526b5661742f6e6f742d6c69766560a01b604482015290519081900360640190fd5b6000838152600260205260409020600181015461158e90836119b8565b600182015580546000906115a290846119ed565b6001600160a01b0385166000908152600560205260409020549091506115c890826119b8565b6001600160a01b0385166000908152600560205260409020556007546115ee90826119b8565b60075560405183906001600160a01b0386169087907f8e03d1ac49b6d4e90dd1c4e641ecc5ca76b7c07a487690b6897c0e5e374b19d290600090a45050505050565b60095481565b6116408333611958565b611684576040805162461bcd60e51b815260206004820152601060248201526f2b30ba17b737ba16b0b63637bbb2b21960811b604482015290519081900360640190fd5b6001600160a01b0383166000908152600560205260409020546116a79082611998565b6001600160a01b0380851660009081526005602052604080822093909355908416815220546116d690826119a8565b6001600160a01b0380841660008181526005602090815260409182902094909455805185815290519193928716927fdeb3a6837278f6e9914a507e4d73f08e841d8fca434fb97d4307b3b0d3d6b10592918290030190a3505050565b60006020819052908152604090205481565b600260208190526000918252604090912080546001820154928201546003830154600490930154919392909185565b3360009081526001602090815260408083206001600160a01b03851680855292528083208390555190917f9cd85b2ca76a06c46be663a514e012af1aea8954b0e53f42146cd9b1ebb21ebc91a250565b60066020526000908152604090205481565b6001600160a01b0383166000908152600660205260409020546117f890826119a8565b6001600160a01b0380851660009081526006602090815260408083209490945591851681526005909152205461182e90826119a8565b6001600160a01b03831660009081526005602052604090205560085461185490826119a8565b60085560075461186490826119a8565b60075560405181906001600160a01b0380851691908616907f02d16dda43fd89f02e33ce23ecf0251cdc426807cc72ae74d37e8d3681dae7e590600090a4505050565b336000818152600660205260409020546118c19083611998565b6001600160a01b0382166000908152600660209081526040808320939093556005905220546118f09083611998565b6001600160a01b0382166000908152600560205260409020556008546119169083611998565b6008556007546119269083611998565b60075560405182907f917d6982889419f491488c036c2e6abe788b07222064ab462158ec64ca2c4db790600090a25050565b6001600160a01b03828116600081815260016020818152604080842095871680855295909152822054919361198f93149114611a42565b90505b92915050565b8082038281111561199257600080fd5b8082018281101561199257600080fd5b8181016000821215806119cb5750828111155b6119d457600080fd5b6000821315806119e45750828110155b61199257600080fd5b81810260008312156119fe57600080fd5b8115806119e4575082828281611a1057fe5b051461199257600080fd5b60008115806119e457505080820282828281611a3357fe5b041461199257600080fd5b1690565b1790565b808203600082131580611a595750828111155b611a6257600080fd5b6000821215806119e457508281101561199257600080fd5b604051806040016040528060008152602001600081525090565b6040518060a001604052806000815260200160008152602001600081526020016000815260200160008152509056fea264697066735822122035b3d6c57754a9ca37bca0965fc47d60f0683d18f2e4eddf195906be87401b4e64736f6c634300060c0033a26469706673582212204f9e9ff6e958d7f761354c844e0125b0a1baf58d688989b6870150589f729e9e64736f6c634300060c0033",
  "linkReferences": {},
  "deployedLinkReferences": {}
}