{
  "_format": "hh-sol-artifact-1",
  "contractName": "DSToken",
  "sourceName": "contracts/ds-token/token.sol",
  "abi": [
    {
      "inputs": [
        {
          "internalType": "string",
          "name": "symbol_",
          "type": "string"
        }
      ],
      "stateMutability": "nonpayable",
      "type": "constructor"
    },
    {
      "anonymous": false,
      "inputs": [
        {
          "indexed": true,
          "internalType": "address",
          "name": "src",
          "type": "address"
        },
        {
          "indexed": true,
          "internalType": "address",
          "name": "guy",
          "type": "address"
        },
        {
          "indexed": false,
          "internalType": "uint256",
          "name": "wad",
          "type": "uint256"
        }
      ],
      "name": "Approval",
      "type": "event"
    },
    {
      "anonymous": false,
      "inputs": [
        {
          "indexed": true,
          "internalType": "address",
          "name": "guy",
          "type": "address"
        },
        {
          "indexed": false,
          "internalType": "uint256",
          "name": "wad",
          "type": "uint256"
        }
      ],
      "name": "Burn",
      "type": "event"
    },
    {
      "anonymous": false,
      "inputs": [
        {
          "indexed": true,
          "internalType": "address",
          "name": "guy",
          "type": "address"
        },
        {
          "indexed": false,
          "internalType": "uint256",
          "name": "wad",
          "type": "uint256"
        }
      ],
      "name": "Mint",
      "type": "event"
    },
    {
      "anonymous": false,
      "inputs": [
        {
          "indexed": true,
          "internalType": "address",
          "name": "src",
          "type": "address"
        },
        {
          "indexed": true,
          "internalType": "address",
          "name": "dst",
          "type": "address"
        },
        {
          "indexed": false,
          "internalType": "uint256",
          "name": "wad",
          "type": "uint256"
        }
      ],
      "name": "Transfer",
      "type": "event"
    },
    {
      "inputs": [
        {
          "internalType": "address",
          "name": "",
          "type": "address"
        },
        {
          "internalType": "address",
          "name": "",
          "type": "address"
        }
      ],
      "name": "allowance",
      "outputs": [
        {
          "internalType": "uint256",
          "name": "",
          "type": "uint256"
        }
      ],
      "stateMutability": "view",
      "type": "function"
    },
    {
      "inputs": [
        {
          "internalType": "address",
          "name": "guy",
          "type": "address"
        },
        {
          "internalType": "uint256",
          "name": "wad",
          "type": "uint256"
        }
      ],
      "name": "approve",
      "outputs": [
        {
          "internalType": "bool",
          "name": "",
          "type": "bool"
        }
      ],
      "stateMutability": "nonpayable",
      "type": "function"
    },
    {
      "inputs": [
        {
          "internalType": "address",
          "name": "guy",
          "type": "address"
        }
      ],
      "name": "approve",
      "outputs": [
        {
          "internalType": "bool",
          "name": "",
          "type": "bool"
        }
      ],
      "stateMutability": "nonpayable",
      "type": "function"
    },
    {
      "inputs": [
        {
          "internalType": "address",
          "name": "",
          "type": "address"
        }
      ],
      "name": "balanceOf",
      "outputs": [
        {
          "internalType": "uint256",
          "name": "",
          "type": "uint256"
        }
      ],
      "stateMutability": "view",
      "type": "function"
    },
    {
      "inputs": [
        {
          "internalType": "uint256",
          "name": "wad",
          "type": "uint256"
        }
      ],
      "name": "burn",
      "outputs": [],
      "stateMutability": "nonpayable",
      "type": "function"
    },
    {
      "inputs": [
        {
          "internalType": "address",
          "name": "guy",
          "type": "address"
        },
        {
          "internalType": "uint256",
          "name": "wad",
          "type": "uint256"
        }
      ],
      "name": "burn",
      "outputs": [],
      "stateMutability": "nonpayable",
      "type": "function"
    },
    {
      "inputs": [],
      "name": "decimals",
      "outputs": [
        {
          "internalType": "uint8",
          "name": "",
          "type": "uint8"
        }
      ],
      "stateMutability": "view",
      "type": "function"
    },
    {
      "inputs": [
        {
          "internalType": "address",
          "name": "guy",
          "type": "address"
        },
        {
          "internalType": "uint256",
          "name": "wad",
          "type": "uint256"
        }
      ],
      "name": "mint",
      "outputs": [],
      "stateMutability": "nonpayable",
      "type": "function"
    },
    {
      "inputs": [
        {
          "internalType": "uint256",
          "name": "wad",
          "type": "uint256"
        }
      ],
      "name": "mint",
      "outputs": [],
      "stateMutability": "nonpayable",
      "type": "function"
    },
    {
      "inputs": [],
      "name": "name",
      "outputs": [
        {
          "internalType": "string",
          "name": "",
          "type": "string"
        }
      ],
      "stateMutability": "view",
      "type": "function"
    },
    {
      "inputs": [
        {
          "internalType": "string",
          "name": "name_",
          "type": "string"
        }
      ],
      "name": "setName",
      "outputs": [],
      "stateMutability": "nonpayable",
      "type": "function"
    },
    {
      "inputs": [],
      "name": "symbol",
      "outputs": [
        {
          "internalType": "string",
          "name": "",
          "type": "string"
        }
      ],
      "stateMutability": "view",
      "type": "function"
    },
    {
      "inputs": [],
      "name": "totalSupply",
      "outputs": [
        {
          "internalType": "uint256",
          "name": "",
          "type": "uint256"
        }
      ],
      "stateMutability": "view",
      "type": "function"
    },
    {
      "inputs": [
        {
          "internalType": "address",
          "name": "dst",
          "type": "address"
        },
        {
          "internalType": "uint256",
          "name": "wad",
          "type": "uint256"
        }
      ],
      "name": "transfer",
      "outputs": [
        {
          "internalType": "bool",
          "name": "",
          "type": "bool"
        }
      ],
      "stateMutability": "nonpayable",
      "type": "function"
    },
    {
      "inputs": [
        {
          "internalType": "address",
          "name": "src",
          "type": "address"
        },
        {
          "internalType": "address",
          "name": "dst",
          "type": "address"
        },
        {
          "internalType": "uint256",
          "name": "wad",
          "type": "uint256"
        }
      ],
      "name": "transferFrom",
      "outputs": [
        {
          "internalType": "bool",
          "name": "",
          "type": "bool"
        }
      ],
      "stateMutability": "nonpayable",
      "type": "function"
    }
  ],
  "bytecode": "0x6004805460ff1916601217905560c0604052600760808190526615195cc810dbdb60ca1b60a09081526200003791600591906200013e565b503480156200004557600080fd5b5060405162000dce38038062000dce833981810160405260208110156200006b57600080fd5b81019080805160405193929190846401000000008211156200008c57600080fd5b908301906020820185811115620000a257600080fd5b8251640100000000811182820188101715620000bd57600080fd5b82525081516020918201929091019080838360005b83811015620000ec578181015183820152602001620000d2565b50505050905090810190601f1680156200011a5780820380516001836020036101000a031916815260200191505b506040525050815162000136915060039060208401906200013e565b5050620001da565b828054600181600116156101000203166002900490600052602060002090601f016020900481019282601f106200018157805160ff1916838001178555620001b1565b82800160010185558215620001b1579182015b82811115620001b157825182559160200191906001019062000194565b50620001bf929150620001c3565b5090565b5b80821115620001bf5760008155600101620001c4565b610be480620001ea6000396000f3fe608060405234801561001057600080fd5b50600436106100c55760003560e01c806306fdde03146100ca578063095ea7b31461014757806318160ddd1461018757806323b872dd146101a1578063313ce567146101d757806340c10f19146101f557806342966c681461022357806370a082311461024057806395d89b41146102665780639dc29fac1461026e578063a0712d681461029a578063a9059cbb146102b7578063c47f0027146102e3578063daea85c514610387578063dd62ed3e146103ad575b600080fd5b6100d26103db565b6040805160208082528351818301528351919283929083019185019080838360005b8381101561010c5781810151838201526020016100f4565b50505050905090810190601f1680156101395780820380516001836020036101000a031916815260200191505b509250505060405180910390f35b6101736004803603604081101561015d57600080fd5b506001600160a01b038135169060200135610469565b604080519115158252519081900360200190f35b61018f6104d0565b60408051918252519081900360200190f35b610173600480360360608110156101b757600080fd5b506001600160a01b038135811691602081013590911690604001356104d6565b6101df6106e2565b6040805160ff9092168252519081900360200190f35b6102216004803603604081101561020b57600080fd5b506001600160a01b0381351690602001356106eb565b005b6102216004803603602081101561023957600080fd5b503561077b565b61018f6004803603602081101561025657600080fd5b50356001600160a01b0316610788565b6100d261079a565b6102216004803603604081101561028457600080fd5b506001600160a01b0381351690602001356107f5565b610221600480360360208110156102b057600080fd5b50356109dc565b610173600480360360408110156102cd57600080fd5b506001600160a01b0381351690602001356109e6565b610221600480360360208110156102f957600080fd5b810190602081018135600160201b81111561031357600080fd5b82018360208201111561032557600080fd5b803590602001918460018302840111600160201b8311171561034657600080fd5b91908080601f0160208091040260200160405190810160405280939291908181526020018383808284376000920191909152509295506109fa945050505050565b6101736004803603602081101561039d57600080fd5b50356001600160a01b0316610a11565b61018f600480360360408110156103c357600080fd5b506001600160a01b0381358116916020013516610a1f565b6005805460408051602060026001851615610100026000190190941693909304601f810184900484028201840190925281815292918301828280156104615780601f1061043657610100808354040283529160200191610461565b820191906000526020600020905b81548152906001019060200180831161044457829003601f168201915b505050505081565b3360008181526002602090815260408083206001600160a01b038716808552908352818420869055815186815291519394909390927f8c5be1e5ebec7d5bd14f71427d1e84f3dd0314c0f7b2291e5b200ac8c7c3b925928290030190a35060015b92915050565b60005481565b60006001600160a01b038416331480159061051657506001600160a01b038416600090815260026020908152604080832033845290915290205460001914155b156105d4576001600160a01b0384166000908152600260209081526040808320338452909152902054821115610581576040805162461bcd60e51b815260206004820152601e6024820152600080516020610b6f833981519152604482015290519081900360640190fd5b6001600160a01b03841660009081526002602090815260408083203384529091529020546105af9083610a3c565b6001600160a01b03851660009081526002602090815260408083203384529091529020555b6001600160a01b03841660009081526001602052604090205482111561062f576040805162461bcd60e51b815260206004820152601d6024820152600080516020610b8f833981519152604482015290519081900360640190fd5b6001600160a01b0384166000908152600160205260409020546106529083610a3c565b6001600160a01b0380861660009081526001602052604080822093909355908516815220546106819083610a8c565b6001600160a01b0380851660008181526001602090815260409182902094909455805186815290519193928816927fddf252ad1be2c89b69c2b068fc378daa952ba7f163c4a11628f55a4df523b3ef92918290030190a35060019392505050565b60045460ff1681565b6001600160a01b03821660009081526001602052604090205461070e9082610a8c565b6001600160a01b038316600090815260016020526040812091909155546107359082610a8c565b6000556040805182815290516001600160a01b038416917f0f6798a560793a54c3bcfe86a93cde1e73087d944c0ea20544137d4121396885919081900360200190a25050565b61078533826107f5565b50565b60016020526000908152604090205481565b6003805460408051602060026001851615610100026000190190941693909304601f810184900484028201840190925281815292918301828280156104615780601f1061043657610100808354040283529160200191610461565b6001600160a01b038216331480159061083357506001600160a01b038216600090815260026020908152604080832033845290915290205460001914155b156108f1576001600160a01b038216600090815260026020908152604080832033845290915290205481111561089e576040805162461bcd60e51b815260206004820152601e6024820152600080516020610b6f833981519152604482015290519081900360640190fd5b6001600160a01b03821660009081526002602090815260408083203384529091529020546108cc9082610a3c565b6001600160a01b03831660009081526002602090815260408083203384529091529020555b6001600160a01b03821660009081526001602052604090205481111561094c576040805162461bcd60e51b815260206004820152601d6024820152600080516020610b8f833981519152604482015290519081900360640190fd5b6001600160a01b03821660009081526001602052604090205461096f9082610a3c565b6001600160a01b038316600090815260016020526040812091909155546109969082610a3c565b6000556040805182815290516001600160a01b038416917fcc16f5dbb4873280815c1ee09dbd06736cffcc184412cf7a71a0fdb75d397ca5919081900360200190a25050565b61078533826106eb565b60006109f33384846104d6565b9392505050565b8051610a0d906005906020840190610adb565b5050565b60006104ca82600019610469565b600260209081526000928352604080842090915290825290205481565b808203828111156104ca576040805162461bcd60e51b815260206004820152601560248201527464732d6d6174682d7375622d756e646572666c6f7760581b604482015290519081900360640190fd5b808201828110156104ca576040805162461bcd60e51b815260206004820152601460248201527364732d6d6174682d6164642d6f766572666c6f7760601b604482015290519081900360640190fd5b828054600181600116156101000203166002900490600052602060002090601f016020900481019282601f10610b1c57805160ff1916838001178555610b49565b82800160010185558215610b49579182015b82811115610b49578251825591602001919060010190610b2e565b50610b55929150610b59565b5090565b5b80821115610b555760008155600101610b5a56fe64732d746f6b656e2d696e73756666696369656e742d617070726f76616c000064732d746f6b656e2d696e73756666696369656e742d62616c616e6365000000a264697066735822122070c41d1ebadef5b5117c88501805a0b54ea6f4250efb33a272b2d5c91b0bf76564736f6c634300060c0033",
  "linkReferences": {},
  "deployedLinkReferences": {}
}