{
  "_format": "hh-sol-artifact-1",
  "contractName": "Vow",
  "sourceName": "contracts/dss/vow.sol",
  "abi": [
    {
      "inputs": [
        {
          "internalType": "address",
          "name": "vat_",
          "type": "address"
        },
        {
          "internalType": "address",
          "name": "flapper_",
          "type": "address"
        },
        {
          "internalType": "address",
          "name": "flopper_",
          "type": "address"
        }
      ],
      "stateMutability": "nonpayable",
      "type": "constructor"
    },
    {
      "anonymous": false,
      "inputs": [],
      "name": "Cage",
      "type": "event"
    },
    {
      "anonymous": false,
      "inputs": [
        {
          "indexed": true,
          "internalType": "address",
          "name": "usr",
          "type": "address"
        }
      ],
      "name": "Deny",
      "type": "event"
    },
    {
      "anonymous": false,
      "inputs": [
        {
          "indexed": true,
          "internalType": "uint256",
          "name": "tab",
          "type": "uint256"
        }
      ],
      "name": "Fess",
      "type": "event"
    },
    {
      "anonymous": false,
      "inputs": [
        {
          "indexed": true,
          "internalType": "bytes32",
          "name": "what",
          "type": "bytes32"
        },
        {
          "indexed": false,
          "internalType": "uint256",
          "name": "data",
          "type": "uint256"
        }
      ],
      "name": "File",
      "type": "event"
    },
    {
      "anonymous": false,
      "inputs": [
        {
          "indexed": true,
          "internalType": "bytes32",
          "name": "what",
          "type": "bytes32"
        },
        {
          "indexed": false,
          "internalType": "address",
          "name": "data",
          "type": "address"
        }
      ],
      "name": "File",
      "type": "event"
    },
    {
      "anonymous": false,
      "inputs": [
        {
          "indexed": true,
          "internalType": "uint256",
          "name": "id",
          "type": "uint256"
        }
      ],
      "name": "Flap",
      "type": "event"
    },
    {
      "anonymous": false,
      "inputs": [
        {
          "indexed": true,
          "internalType": "uint256",
          "name": "era",
          "type": "uint256"
        }
      ],
      "name": "Flog",
      "type": "event"
    },
    {
      "anonymous": false,
      "inputs": [
        {
          "indexed": true,
          "internalType": "uint256",
          "name": "id",
          "type": "uint256"
        }
      ],
      "name": "Flop",
      "type": "event"
    },
    {
      "anonymous": false,
      "inputs": [
        {
          "indexed": true,
          "internalType": "uint256",
          "name": "rad",
          "type": "uint256"
        }
      ],
      "name": "Heal",
      "type": "event"
    },
    {
      "anonymous": false,
      "inputs": [
        {
          "indexed": true,
          "internalType": "uint256",
          "name": "rad",
          "type": "uint256"
        }
      ],
      "name": "Kiss",
      "type": "event"
    },
    {
      "anonymous": false,
      "inputs": [
        {
          "indexed": true,
          "internalType": "address",
          "name": "usr",
          "type": "address"
        }
      ],
      "name": "Rely",
      "type": "event"
    },
    {
      "inputs": [],
      "name": "Ash",
      "outputs": [
        {
          "internalType": "uint256",
          "name": "",
          "type": "uint256"
        }
      ],
      "stateMutability": "view",
      "type": "function"
    },
    {
      "inputs": [],
      "name": "Sin",
      "outputs": [
        {
          "internalType": "uint256",
          "name": "",
          "type": "uint256"
        }
      ],
      "stateMutability": "view",
      "type": "function"
    },
    {
      "inputs": [],
      "name": "bump",
      "outputs": [
        {
          "internalType": "uint256",
          "name": "",
          "type": "uint256"
        }
      ],
      "stateMutability": "view",
      "type": "function"
    },
    {
      "inputs": [],
      "name": "cage",
      "outputs": [],
      "stateMutability": "nonpayable",
      "type": "function"
    },
    {
      "inputs": [
        {
          "internalType": "address",
          "name": "usr",
          "type": "address"
        }
      ],
      "name": "deny",
      "outputs": [],
      "stateMutability": "nonpayable",
      "type": "function"
    },
    {
      "inputs": [],
      "name": "dump",
      "outputs": [
        {
          "internalType": "uint256",
          "name": "",
          "type": "uint256"
        }
      ],
      "stateMutability": "view",
      "type": "function"
    },
    {
      "inputs": [
        {
          "internalType": "uint256",
          "name": "tab",
          "type": "uint256"
        }
      ],
      "name": "fess",
      "outputs": [],
      "stateMutability": "nonpayable",
      "type": "function"
    },
    {
      "inputs": [
        {
          "internalType": "bytes32",
          "name": "what",
          "type": "bytes32"
        },
        {
          "internalType": "uint256",
          "name": "data",
          "type": "uint256"
        }
      ],
      "name": "file",
      "outputs": [],
      "stateMutability": "nonpayable",
      "type": "function"
    },
    {
      "inputs": [
        {
          "internalType": "bytes32",
          "name": "what",
          "type": "bytes32"
        },
        {
          "internalType": "address",
          "name": "data",
          "type": "address"
        }
      ],
      "name": "file",
      "outputs": [],
      "stateMutability": "nonpayable",
      "type": "function"
    },
    {
      "inputs": [],
      "name": "flap",
      "outputs": [
        {
          "internalType": "uint256",
          "name": "id",
          "type": "uint256"
        }
      ],
      "stateMutability": "nonpayable",
      "type": "function"
    },
    {
      "inputs": [],
      "name": "flapper",
      "outputs": [
        {
          "internalType": "contract FlapLike",
          "name": "",
          "type": "address"
        }
      ],
      "stateMutability": "view",
      "type": "function"
    },
    {
      "inputs": [
        {
          "internalType": "uint256",
          "name": "era",
          "type": "uint256"
        }
      ],
      "name": "flog",
      "outputs": [],
      "stateMutability": "nonpayable",
      "type": "function"
    },
    {
      "inputs": [],
      "name": "flop",
      "outputs": [
        {
          "internalType": "uint256",
          "name": "id",
          "type": "uint256"
        }
      ],
      "stateMutability": "nonpayable",
      "type": "function"
    },
    {
      "inputs": [],
      "name": "flopper",
      "outputs": [
        {
          "internalType": "contract FlopLike",
          "name": "",
          "type": "address"
        }
      ],
      "stateMutability": "view",
      "type": "function"
    },
    {
      "inputs": [
        {
          "internalType": "uint256",
          "name": "rad",
          "type": "uint256"
        }
      ],
      "name": "heal",
      "outputs": [],
      "stateMutability": "nonpayable",
      "type": "function"
    },
    {
      "inputs": [],
      "name": "hump",
      "outputs": [
        {
          "internalType": "uint256",
          "name": "",
          "type": "uint256"
        }
      ],
      "stateMutability": "view",
      "type": "function"
    },
    {
      "inputs": [
        {
          "internalType": "uint256",
          "name": "rad",
          "type": "uint256"
        }
      ],
      "name": "kiss",
      "outputs": [],
      "stateMutability": "nonpayable",
      "type": "function"
    },
    {
      "inputs": [],
      "name": "live",
      "outputs": [
        {
          "internalType": "uint256",
          "name": "",
          "type": "uint256"
        }
      ],
      "stateMutability": "view",
      "type": "function"
    },
    {
      "inputs": [
        {
          "internalType": "address",
          "name": "usr",
          "type": "address"
        }
      ],
      "name": "rely",
      "outputs": [],
      "stateMutability": "nonpayable",
      "type": "function"
    },
    {
      "inputs": [
        {
          "internalType": "uint256",
          "name": "",
          "type": "uint256"
        }
      ],
      "name": "sin",
      "outputs": [
        {
          "internalType": "uint256",
          "name": "",
          "type": "uint256"
        }
      ],
      "stateMutability": "view",
      "type": "function"
    },
    {
      "inputs": [],
      "name": "sump",
      "outputs": [
        {
          "internalType": "uint256",
          "name": "",
          "type": "uint256"
        }
      ],
      "stateMutability": "view",
      "type": "function"
    },
    {
      "inputs": [],
      "name": "vat",
      "outputs": [
        {
          "internalType": "contract VatLike",
          "name": "",
          "type": "address"
        }
      ],
      "stateMutability": "view",
      "type": "function"
    },
    {
      "inputs": [],
      "name": "wait",
      "outputs": [
        {
          "internalType": "uint256",
          "name": "",
          "type": "uint256"
        }
      ],
      "stateMutability": "view",
      "type": "function"
    },
    {
      "inputs": [
        {
          "internalType": "address",
          "name": "",
          "type": "address"
        }
      ],
      "name": "wards",
      "outputs": [
        {
          "internalType": "uint256",
          "name": "",
          "type": "uint256"
        }
      ],
      "stateMutability": "view",
      "type": "function"
    }
  ],
  "bytecode": "0x608060405234801561001057600080fd5b5060405161153b38038061153b8339818101604052606081101561003357600080fd5b5080516020808301516040938401513360009081529283905284832060019081905580546001600160a01b038087166001600160a01b031992831617928390556002805482871690841681179091556003805483871694169390931790925587516328ec8bf160e21b815260048101929092529651959693959294919093169263a3b22fc4926024808301939282900301818387803b1580156100d557600080fd5b505af11580156100e9573d6000803e3d6000fd5b50506001600c555050505050611437806101046000396000f3fe608060405234801561001057600080fd5b50600436106101285760003560e01c80630e01198b1461012d5780631b8e8cfa146101475780632506855a1461014f57806329ae81141461016e5780632a1d2b3c1461019157806336569e77146101995780634081d73a146101bd5780635ca0d723146101c557806364bd7013146101cd57806365fae35e146101d557806368110b2f146101fb5780636924500914610203578063697efb781461020b578063957aa58c146102285780639c52a7f114610230578063bbbb0d7b14610256578063bf353dbb1461025e578063c349d36214610284578063cb5cc1091461028c578063d0adc35f146102a9578063d4e8be83146102b1578063d7ee674b146102dd578063e4330545146102fa578063f37ac61c14610302575b600080fd5b61013561031f565b60408051918252519081900360200190f35b6101356105f6565b61016c6004803603602081101561016557600080fd5b50356105fc565b005b61016c6004803603604081101561018457600080fd5b50803590602001356107a3565b6101356108a5565b6101a16108ab565b604080516001600160a01b039092168252519081900360200190f35b6101a16108ba565b6101a16108c9565b6101356108d8565b61016c600480360360208110156101eb57600080fd5b50356001600160a01b03166108de565b610135610969565b61016c61096f565b61016c6004803603602081101561022157600080fd5b5035610c7d565b610135610ce5565b61016c6004803603602081101561024657600080fd5b50356001600160a01b0316610ceb565b610135610d2f565b6101356004803603602081101561027457600080fd5b50356001600160a01b0316610f63565b610135610f75565b610135600480360360208110156102a257600080fd5b5035610f7b565b610135610f8d565b61016c600480360360408110156102c757600080fd5b50803590602001356001600160a01b0316610f93565b61016c600480360360208110156102f357600080fd5b50356110ff565b6101356111b1565b61016c6004803603602081101561031857600080fd5b50356111b7565b6001546040805163782c909560e11b815230600482015290516000926103b1926103a9926001600160a01b039092169163f059212a91602480820192602092909190829003018186803b15801561037557600080fd5b505afa158015610389573d6000803e3d6000fd5b505050506040513d602081101561039f57600080fd5b5051600a546113a2565b600b546113a2565b60015460408051631f22ae0d60e01b815230600482015290516001600160a01b0390921691631f22ae0d91602480820192602092909190829003018186803b1580156103fc57600080fd5b505afa158015610410573d6000803e3d6000fd5b505050506040513d602081101561042657600080fd5b50511015610469576040805162461bcd60e51b815260206004820152601860248201526000805160206113e2833981519152604482015290519081900360640190fd5b6001546040805163782c909560e11b815230600482015290516104f8926104f0926001600160a01b039091169163f059212a91602480820192602092909190829003018186803b1580156104bc57600080fd5b505afa1580156104d0573d6000803e3d6000fd5b505050506040513d60208110156104e657600080fd5b50516005546113b8565b6006546113b8565b1561053e576040805162461bcd60e51b8152602060048201526011602482015270566f772f646562742d6e6f742d7a65726f60781b604482015290519081900360640190fd5b600254600a546040805163ca40c41960e01b8152600481019290925260006024830181905290516001600160a01b039093169263ca40c419926044808201936020939283900390910190829087803b15801561059957600080fd5b505af11580156105ad573d6000803e3d6000fd5b505050506040513d60208110156105c357600080fd5b505160405190915081907f4c8a914f94eb278fed11934ac386da1b691d8c2e8a30291487140881038d13ce90600090a290565b600b5481565b600654811115610648576040805162461bcd60e51b81526020600482015260126024820152710acdeee5edcdee85acadcdeeaced05ac2e6d60731b604482015290519081900360640190fd5b60015460408051631f22ae0d60e01b815230600482015290516001600160a01b0390921691631f22ae0d91602480820192602092909190829003018186803b15801561069357600080fd5b505afa1580156106a7573d6000803e3d6000fd5b505050506040513d60208110156106bd57600080fd5b5051811115610701576040805162461bcd60e51b815260206004820152601860248201526000805160206113e2833981519152604482015290519081900360640190fd5b61070d600654826113b8565b60065560015460408051633cdeb18760e21b81526004810184905290516001600160a01b039092169163f37ac61c9160248082019260009290919082900301818387803b15801561075d57600080fd5b505af1158015610771573d6000803e3d6000fd5b50506040518392507fdf1d0254f949dd4607095c8a45ed43a96d548776dbb1d6e8347513d07b109e9b9150600090a250565b81631dd85a5d60e21b14156107bc57600781905561086b565b8163062756d760e41b14156107d557600a81905561086b565b8163073756d760e41b14156107ee57600981905561086b565b8163064756d760e41b141561080757600881905561086b565b8163068756d760e41b141561082057600b81905561086b565b6040805162461bcd60e51b815260206004820152601b60248201527a566f772f66696c652d756e7265636f676e697a65642d706172616d60281b604482015290519081900360640190fd5b60408051828152905183917fe986e40cc8c151830d4f61050f4fb2e4add8567caad2d5f5496f9158e91fe4c7919081900360200190a25050565b60065481565b6001546001600160a01b031681565b6003546001600160a01b031681565b6002546001600160a01b031681565b60075481565b600c54600114610924576040805162461bcd60e51b815260206004820152600c60248201526b566f772f6e6f742d6c69766560a01b604482015290519081900360640190fd5b6001600160a01b03811660008181526020819052604080822060019055517fdd0e34038ac38b2a1ce960229778ac48a8719bc900b6c4f8d0475c6e8b385a609190a250565b600a5481565b600c546001146109b5576040805162461bcd60e51b815260206004820152600c60248201526b566f772f6e6f742d6c69766560a01b604482015290519081900360640190fd5b6000600c819055600581905560065560025460015460408051631f22ae0d60e01b81526001600160a01b03938416600482018190529151919363a2f91af2931691631f22ae0d91602480820192602092909190829003018186803b158015610a1c57600080fd5b505afa158015610a30573d6000803e3d6000fd5b505050506040513d6020811015610a4657600080fd5b5051604080516001600160e01b031960e085901b168152600481019290925251602480830192600092919082900301818387803b158015610a8657600080fd5b505af1158015610a9a573d6000803e3d6000fd5b50505050600360009054906101000a90046001600160a01b03166001600160a01b031663692450096040518163ffffffff1660e01b8152600401600060405180830381600087803b158015610aee57600080fd5b505af1158015610b02573d6000803e3d6000fd5b505060015460408051631f22ae0d60e01b815230600482015290516001600160a01b03909216935063f37ac61c9250610c04918491631f22ae0d916024808301926020929190829003018186803b158015610b5c57600080fd5b505afa158015610b70573d6000803e3d6000fd5b505050506040513d6020811015610b8657600080fd5b50516001546040805163782c909560e11b815230600482015290516001600160a01b039092169163f059212a91602480820192602092909190829003018186803b158015610bd357600080fd5b505afa158015610be7573d6000803e3d6000fd5b505050506040513d6020811015610bfd57600080fd5b50516113c8565b6040518263ffffffff1660e01b815260040180828152602001915050600060405180830381600087803b158015610c3a57600080fd5b505af1158015610c4e573d6000803e3d6000fd5b50506040517f2308ed18a14e800c39b86eb6ea43270105955ca385b603b64eca89f98ae8fbda925060009150a1565b42600090815260046020526040902054610c9790826113a2565b42600090815260046020526040902055600554610cb490826113a2565b60055560405181907f7a3f1a1ebf14b193365bc7468b58eb3b80ae1638635424aae4eec386da2f02ba90600090a250565b600c5481565b6001600160a01b038116600081815260208190526040808220829055517f184450df2e323acec0ed3b5c7531b81f9b4cdef7914dfd4c0a4317416bb5251b9190a250565b6001546040805163782c909560e11b81523060048201529051600092610d85926104f0926001600160a01b039092169163f059212a91602480820192602092909190829003018186803b1580156104bc57600080fd5b6009541115610dd3576040805162461bcd60e51b8152602060048201526015602482015274159bddcbda5b9cdd59999a58da595b9d0b5919589d605a1b604482015290519081900360640190fd5b60015460408051631f22ae0d60e01b815230600482015290516001600160a01b0390921691631f22ae0d91602480820192602092909190829003018186803b158015610e1e57600080fd5b505afa158015610e32573d6000803e3d6000fd5b505050506040513d6020811015610e4857600080fd5b505115610e93576040805162461bcd60e51b8152602060048201526014602482015273566f772f737572706c75732d6e6f742d7a65726f60601b604482015290519081900360640190fd5b610ea16006546009546113a2565b60065560035460085460095460408051632dfa734960e21b815230600482015260248101939093526044830191909152516001600160a01b039092169163b7e9cd24916064808201926020929091908290030181600087803b158015610f0657600080fd5b505af1158015610f1a573d6000803e3d6000fd5b505050506040513d6020811015610f3057600080fd5b505160405190915081907ffa3d951cbf852d2a9cc2dfc9fc6b57914afbf57597ecf432c403ed2d74124b2c90600090a290565b60006020819052908152604090205481565b60095481565b60046020526000908152604090205481565b60055481565b8166333630b83832b960c91b141561108e5760015460025460408051636e26907d60e11b81526001600160a01b0392831660048201529051919092169163dc4d20fa91602480830192600092919082900301818387803b158015610ff657600080fd5b505af115801561100a573d6000803e3d6000fd5b5050600280546001600160a01b0319166001600160a01b03858116918217909255600154604080516328ec8bf160e21b81526004810193909352519216935063a3b22fc4925060248082019260009290919082900301818387803b15801561107157600080fd5b505af1158015611085573d6000803e3d6000fd5b505050506110bc565b8166333637b83832b960c91b141561082057600380546001600160a01b0319166001600160a01b0383161790555b604080516001600160a01b0383168152905183917f8fef588b5fc1afbf5b2f06c1a435d513f208da2e6704c3d8f0e0ec91167066ba919081900360200190a25050565b4261110c826007546113a2565b1115611157576040805162461bcd60e51b8152602060048201526015602482015274159bddcbddd85a5d0b5b9bdd0b599a5b9a5cda1959605a1b604482015290519081900360640190fd5b60055460008281526004602052604090205461117391906113b8565b6005556000818152600460205260408082208290555182917f5aa14c9b66239d17e56d0724b7e90d8d82f28fcbdfb0d39e60614bd1d01dc75391a250565b60085481565b60015460408051631f22ae0d60e01b815230600482015290516001600160a01b0390921691631f22ae0d91602480820192602092909190829003018186803b15801561120257600080fd5b505afa158015611216573d6000803e3d6000fd5b505050506040513d602081101561122c57600080fd5b5051811115611270576040805162461bcd60e51b815260206004820152601860248201526000805160206113e2833981519152604482015290519081900360640190fd5b6001546040805163782c909560e11b815230600482015290516112c3926104f0926001600160a01b039091169163f059212a91602480820192602092909190829003018186803b1580156104bc57600080fd5b81111561130f576040805162461bcd60e51b8152602060048201526015602482015274159bddcbda5b9cdd59999a58da595b9d0b5919589d605a1b604482015290519081900360640190fd5b60015460408051633cdeb18760e21b81526004810184905290516001600160a01b039092169163f37ac61c9160248082019260009290919082900301818387803b15801561135c57600080fd5b505af1158015611370573d6000803e3d6000fd5b50506040518392507f917d6982889419f491488c036c2e6abe788b07222064ab462158ec64ca2c4db79150600090a250565b808201828110156113b257600080fd5b92915050565b808203828111156113b257600080fd5b6000818311156113d857816113da565b825b939250505056fe566f772f696e73756666696369656e742d737572706c75730000000000000000a2646970667358221220251d7a52525bc959ac17a62376a7d538da3f2b2e88cbc8cc844d36dc5c43e3b564736f6c634300060c0033",
  "linkReferences": {},
  "deployedLinkReferences": {}
}