{
  "_format": "hh-sol-artifact-1",
  "contractName": "Pot",
  "sourceName": "contracts/dss/pot.sol",
  "abi": [
    {
      "inputs": [
        {
          "internalType": "address",
          "name": "vat_",
          "type": "address"
        }
      ],
      "stateMutability": "nonpayable",
      "type": "constructor"
    },
    {
      "anonymous": false,
      "inputs": [],
      "name": "Cage",
      "type": "event"
    },
    {
      "anonymous": false,
      "inputs": [
        {
          "indexed": true,
          "internalType": "address",
          "name": "guy",
          "type": "address"
        }
      ],
      "name": "Deny",
      "type": "event"
    },
    {
      "anonymous": false,
      "inputs": [
        {
          "indexed": false,
          "internalType": "uint256",
          "name": "tmp",
          "type": "uint256"
        }
      ],
      "name": "Drip",
      "type": "event"
    },
    {
      "anonymous": false,
      "inputs": [
        {
          "indexed": false,
          "internalType": "uint256",
          "name": "wad",
          "type": "uint256"
        }
      ],
      "name": "Exit",
      "type": "event"
    },
    {
      "anonymous": false,
      "inputs": [
        {
          "indexed": false,
          "internalType": "bytes32",
          "name": "what",
          "type": "bytes32"
        },
        {
          "indexed": false,
          "internalType": "address",
          "name": "addr",
          "type": "address"
        }
      ],
      "name": "File",
      "type": "event"
    },
    {
      "anonymous": false,
      "inputs": [
        {
          "indexed": false,
          "internalType": "bytes32",
          "name": "what",
          "type": "bytes32"
        },
        {
          "indexed": false,
          "internalType": "uint256",
          "name": "data",
          "type": "uint256"
        }
      ],
      "name": "File",
      "type": "event"
    },
    {
      "anonymous": false,
      "inputs": [
        {
          "indexed": false,
          "internalType": "uint256",
          "name": "wad",
          "type": "uint256"
        }
      ],
      "name": "Join",
      "type": "event"
    },
    {
      "anonymous": false,
      "inputs": [
        {
          "indexed": true,
          "internalType": "address",
          "name": "guy",
          "type": "address"
        }
      ],
      "name": "Rely",
      "type": "event"
    },
    {
      "inputs": [],
      "name": "Pie",
      "outputs": [
        {
          "internalType": "uint256",
          "name": "",
          "type": "uint256"
        }
      ],
      "stateMutability": "view",
      "type": "function"
    },
    {
      "inputs": [],
      "name": "cage",
      "outputs": [],
      "stateMutability": "nonpayable",
      "type": "function"
    },
    {
      "inputs": [],
      "name": "chi",
      "outputs": [
        {
          "internalType": "uint256",
          "name": "",
          "type": "uint256"
        }
      ],
      "stateMutability": "view",
      "type": "function"
    },
    {
      "inputs": [
        {
          "internalType": "address",
          "name": "guy",
          "type": "address"
        }
      ],
      "name": "deny",
      "outputs": [],
      "stateMutability": "nonpayable",
      "type": "function"
    },
    {
      "inputs": [],
      "name": "drip",
      "outputs": [
        {
          "internalType": "uint256",
          "name": "tmp",
          "type": "uint256"
        }
      ],
      "stateMutability": "nonpayable",
      "type": "function"
    },
    {
      "inputs": [],
      "name": "dsr",
      "outputs": [
        {
          "internalType": "uint256",
          "name": "",
          "type": "uint256"
        }
      ],
      "stateMutability": "view",
      "type": "function"
    },
    {
      "inputs": [
        {
          "internalType": "uint256",
          "name": "wad",
          "type": "uint256"
        }
      ],
      "name": "exit",
      "outputs": [],
      "stateMutability": "nonpayable",
      "type": "function"
    },
    {
      "inputs": [
        {
          "internalType": "bytes32",
          "name": "what",
          "type": "bytes32"
        },
        {
          "internalType": "uint256",
          "name": "data",
          "type": "uint256"
        }
      ],
      "name": "file",
      "outputs": [],
      "stateMutability": "nonpayable",
      "type": "function"
    },
    {
      "inputs": [
        {
          "internalType": "bytes32",
          "name": "what",
          "type": "bytes32"
        },
        {
          "internalType": "address",
          "name": "addr",
          "type": "address"
        }
      ],
      "name": "file",
      "outputs": [],
      "stateMutability": "nonpayable",
      "type": "function"
    },
    {
      "inputs": [
        {
          "internalType": "uint256",
          "name": "wad",
          "type": "uint256"
        }
      ],
      "name": "join",
      "outputs": [],
      "stateMutability": "nonpayable",
      "type": "function"
    },
    {
      "inputs": [],
      "name": "live",
      "outputs": [
        {
          "internalType": "uint256",
          "name": "",
          "type": "uint256"
        }
      ],
      "stateMutability": "view",
      "type": "function"
    },
    {
      "inputs": [
        {
          "internalType": "address",
          "name": "",
          "type": "address"
        }
      ],
      "name": "pie",
      "outputs": [
        {
          "internalType": "uint256",
          "name": "",
          "type": "uint256"
        }
      ],
      "stateMutability": "view",
      "type": "function"
    },
    {
      "inputs": [
        {
          "internalType": "address",
          "name": "guy",
          "type": "address"
        }
      ],
      "name": "rely",
      "outputs": [],
      "stateMutability": "nonpayable",
      "type": "function"
    },
    {
      "inputs": [],
      "name": "rho",
      "outputs": [
        {
          "internalType": "uint256",
          "name": "",
          "type": "uint256"
        }
      ],
      "stateMutability": "view",
      "type": "function"
    },
    {
      "inputs": [],
      "name": "vat",
      "outputs": [
        {
          "internalType": "contract VatLike",
          "name": "",
          "type": "address"
        }
      ],
      "stateMutability": "view",
      "type": "function"
    },
    {
      "inputs": [],
      "name": "vow",
      "outputs": [
        {
          "internalType": "address",
          "name": "",
          "type": "address"
        }
      ],
      "stateMutability": "view",
      "type": "function"
    },
    {
      "inputs": [
        {
          "internalType": "address",
          "name": "",
          "type": "address"
        }
      ],
      "name": "wards",
      "outputs": [
        {
          "internalType": "uint256",
          "name": "",
          "type": "uint256"
        }
      ],
      "stateMutability": "view",
      "type": "function"
    }
  ],
  "bytecode": "0x608060405234801561001057600080fd5b50604051610af6380380610af68339818101604052602081101561003357600080fd5b5051336000908152602081905260409020600190819055600580546001600160a01b039093166001600160a01b0319909316929092179091556b033b2e3c9fd0803ce8000000600381905560045542600755600855610a5f806100976000396000f3fe608060405234801561001057600080fd5b50600436106100db5760003560e01c8063049878f3146100e05780630bebac86146100ff57806320aba08b1461013757806329ae81141461013f5780632c69ed581461016257806336569e771461016a578063487bf0821461018e578063626cb3c51461019657806365fae35e1461019e57806369245009146101c45780637f8661a1146101cc578063957aa58c146101e95780639c52a7f1146101f15780639f678cca14610217578063bf353dbb1461021f578063c92aecc414610245578063d4e8be831461024d575b600080fd5b6100fd600480360360208110156100f657600080fd5b5035610279565b005b6101256004803603602081101561011557600080fd5b50356001600160a01b03166103ca565b60408051918252519081900360200190f35b6101256103dc565b6100fd6004803603604081101561015557600080fd5b50803590602001356103e2565b610125610516565b61017261051c565b604080516001600160a01b039092168252519081900360200190f35b61012561052b565b610172610531565b6100fd600480360360208110156101b457600080fd5b50356001600160a01b0316610540565b6100fd610585565b6100fd600480360360208110156101e257600080fd5b50356105c4565b6101256106c9565b6100fd6004803603602081101561020757600080fd5b50356001600160a01b03166106cf565b610125610713565b6101256004803603602081101561023557600080fd5b50356001600160a01b0316610872565b610125610884565b6100fd6004803603604081101561026357600080fd5b50803590602001356001600160a01b031661088a565b60075442146102c5576040805162461bcd60e51b8152602060048201526013602482015272141bdd0bdc9a1bcb5b9bdd0b5d5c19185d1959606a1b604482015290519081900360640190fd5b336000908152600160205260409020546102df90826108fa565b336000908152600160205260409020556002546102fc90826108fa565b6002556005546004546001600160a01b039091169063bb35783b90339030906103259086610910565b6040518463ffffffff1660e01b815260040180846001600160a01b03168152602001836001600160a01b031681526020018281526020019350505050600060405180830381600087803b15801561037b57600080fd5b505af115801561038f573d6000803e3d6000fd5b50506040805184815290517f858d2e17a8121c939a8c52f6821c748d2592cc8ecd8e6afcda3fc4c84248002f9350908190036020019150a150565b60016020526000908152604090205481565b60075481565b600854600114610428576040805162461bcd60e51b815260206004820152600c60248201526b506f742f6e6f742d6c69766560a01b604482015290519081900360640190fd5b6007544214610474576040805162461bcd60e51b8152602060048201526013602482015272141bdd0bdc9a1bcb5b9bdd0b5d5c19185d1959606a1b604482015290519081900360640190fd5b81623239b960e91b141561048c5760038190556104d7565b6040805162461bcd60e51b815260206004820152601b60248201527a506f742f66696c652d756e7265636f676e697a65642d706172616d60281b604482015290519081900360640190fd5b604080518381526020810183905281517fe986e40cc8c151830d4f61050f4fb2e4add8567caad2d5f5496f9158e91fe4c7929181900390910190a15050565b60025481565b6005546001600160a01b031681565b60035481565b6006546001600160a01b031681565b6001600160a01b03811660008181526020819052604080822060019055517fdd0e34038ac38b2a1ce960229778ac48a8719bc900b6c4f8d0475c6e8b385a609190a250565b60006008819055676765c793fa10079d601b1b6003556040517f2308ed18a14e800c39b86eb6ea43270105955ca385b603b64eca89f98ae8fbda9190a1565b336000908152600160205260409020546105de9082610934565b336000908152600160205260409020556002546105fb9082610934565b6002556005546004546001600160a01b039091169063bb35783b90309033906106249086610910565b6040518463ffffffff1660e01b815260040180846001600160a01b03168152602001836001600160a01b031681526020018281526020019350505050600060405180830381600087803b15801561067a57600080fd5b505af115801561068e573d6000803e3d6000fd5b50506040805184815290517fb20101a10c7cc8d4a9b5accf3d34c34f89d53ec195fce51620af16429526c7559350908190036020019150a150565b60085481565b6001600160a01b038116600081815260208190526040808220829055517f184450df2e323acec0ed3b5c7531b81f9b4cdef7914dfd4c0a4317416bb5251b9190a250565b600060075442101561075e576040805162461bcd60e51b815260206004820152600f60248201526e506f742f696e76616c69642d6e6f7760881b604482015290519081900360640190fd5b61078561077d6003546007544203676765c793fa10079d601b1b610944565b600454610a02565b9050600061079582600454610934565b6004839055426007556005546006546002549293506001600160a01b039182169263f24e23eb929091169030906107cc9086610910565b6040518463ffffffff1660e01b815260040180846001600160a01b03168152602001836001600160a01b031681526020018281526020019350505050600060405180830381600087803b15801561082257600080fd5b505af1158015610836573d6000803e3d6000fd5b50506040805185815290517f8d4562abe433425096ff8e6c5eccbdd894a1d21198d2ef95803c85f31d2ffb139350908190036020019150a15090565b60006020819052908152604090205481565b60045481565b8162766f7760e81b141561048c57600680546001600160a01b0319166001600160a01b038316179055604080518381526001600160a01b038316602082015281517f8fef588b5fc1afbf5b2f06c1a435d513f208da2e6704c3d8f0e0ec91167066ba929181900390910190a15050565b8082018281101561090a57600080fd5b92915050565b600081158061092b5750508082028282828161092857fe5b04145b61090a57600080fd5b8082038281111561090a57600080fd5b60008380156109e45760018416801561095f57859250610963565b8392505b50600283046002850494505b84156109de57858602868782041461098657600080fd5b8181018181101561099657600080fd5b85900496505060018516156109d35785830283878204141587151516156109bc57600080fd5b818101818110156109cc57600080fd5b8590049350505b60028504945061096f565b506109fa565b8380156109f457600092506109f8565b8392505b505b509392505050565b6000676765c793fa10079d601b1b610a1a8484610910565b81610a2157fe5b04939250505056fea2646970667358221220a2a550f27e194fd08ee8bdde10770c64bc64668e26acf28765815fe3cfbb2ec764736f6c634300060c0033",
  "linkReferences": {},
  "deployedLinkReferences": {}
}