{
  "_format": "hh-sol-artifact-1",
  "contractName": "Flopper",
  "sourceName": "contracts/dss/flop.sol",
  "abi": [
    {
      "inputs": [
        {
          "internalType": "address",
          "name": "vat_",
          "type": "address"
        },
        {
          "internalType": "address",
          "name": "gem_",
          "type": "address"
        }
      ],
      "stateMutability": "nonpayable",
      "type": "constructor"
    },
    {
      "anonymous": false,
      "inputs": [],
      "name": "Cage",
      "type": "event"
    },
    {
      "anonymous": false,
      "inputs": [
        {
          "indexed": true,
          "internalType": "uint256",
          "name": "id",
          "type": "uint256"
        }
      ],
      "name": "Deal",
      "type": "event"
    },
    {
      "anonymous": false,
      "inputs": [
        {
          "indexed": true,
          "internalType": "uint256",
          "name": "id",
          "type": "uint256"
        },
        {
          "indexed": false,
          "internalType": "uint256",
          "name": "lot",
          "type": "uint256"
        },
        {
          "indexed": false,
          "internalType": "uint256",
          "name": "bid",
          "type": "uint256"
        }
      ],
      "name": "Dent",
      "type": "event"
    },
    {
      "anonymous": false,
      "inputs": [
        {
          "indexed": true,
          "internalType": "address",
          "name": "usr",
          "type": "address"
        }
      ],
      "name": "Deny",
      "type": "event"
    },
    {
      "anonymous": false,
      "inputs": [
        {
          "indexed": true,
          "internalType": "bytes32",
          "name": "what",
          "type": "bytes32"
        },
        {
          "indexed": false,
          "internalType": "uint256",
          "name": "data",
          "type": "uint256"
        }
      ],
      "name": "File",
      "type": "event"
    },
    {
      "anonymous": false,
      "inputs": [
        {
          "indexed": false,
          "internalType": "uint256",
          "name": "id",
          "type": "uint256"
        },
        {
          "indexed": false,
          "internalType": "uint256",
          "name": "lot",
          "type": "uint256"
        },
        {
          "indexed": false,
          "internalType": "uint256",
          "name": "bid",
          "type": "uint256"
        },
        {
          "indexed": true,
          "internalType": "address",
          "name": "gal",
          "type": "address"
        }
      ],
      "name": "Kick",
      "type": "event"
    },
    {
      "anonymous": false,
      "inputs": [
        {
          "indexed": true,
          "internalType": "address",
          "name": "usr",
          "type": "address"
        }
      ],
      "name": "Rely",
      "type": "event"
    },
    {
      "anonymous": false,
      "inputs": [
        {
          "indexed": true,
          "internalType": "uint256",
          "name": "id",
          "type": "uint256"
        }
      ],
      "name": "Tick",
      "type": "event"
    },
    {
      "anonymous": false,
      "inputs": [
        {
          "indexed": true,
          "internalType": "uint256",
          "name": "id",
          "type": "uint256"
        }
      ],
      "name": "Yank",
      "type": "event"
    },
    {
      "inputs": [],
      "name": "beg",
      "outputs": [
        {
          "internalType": "uint256",
          "name": "",
          "type": "uint256"
        }
      ],
      "stateMutability": "view",
      "type": "function"
    },
    {
      "inputs": [
        {
          "internalType": "uint256",
          "name": "",
          "type": "uint256"
        }
      ],
      "name": "bids",
      "outputs": [
        {
          "internalType": "uint256",
          "name": "bid",
          "type": "uint256"
        },
        {
          "internalType": "uint256",
          "name": "lot",
          "type": "uint256"
        },
        {
          "internalType": "address",
          "name": "guy",
          "type": "address"
        },
        {
          "internalType": "uint48",
          "name": "tic",
          "type": "uint48"
        },
        {
          "internalType": "uint48",
          "name": "end",
          "type": "uint48"
        }
      ],
      "stateMutability": "view",
      "type": "function"
    },
    {
      "inputs": [],
      "name": "cage",
      "outputs": [],
      "stateMutability": "nonpayable",
      "type": "function"
    },
    {
      "inputs": [
        {
          "internalType": "uint256",
          "name": "id",
          "type": "uint256"
        }
      ],
      "name": "deal",
      "outputs": [],
      "stateMutability": "nonpayable",
      "type": "function"
    },
    {
      "inputs": [
        {
          "internalType": "uint256",
          "name": "id",
          "type": "uint256"
        },
        {
          "internalType": "uint256",
          "name": "lot",
          "type": "uint256"
        },
        {
          "internalType": "uint256",
          "name": "bid",
          "type": "uint256"
        }
      ],
      "name": "dent",
      "outputs": [],
      "stateMutability": "nonpayable",
      "type": "function"
    },
    {
      "inputs": [
        {
          "internalType": "address",
          "name": "usr",
          "type": "address"
        }
      ],
      "name": "deny",
      "outputs": [],
      "stateMutability": "nonpayable",
      "type": "function"
    },
    {
      "inputs": [
        {
          "internalType": "bytes32",
          "name": "what",
          "type": "bytes32"
        },
        {
          "internalType": "uint256",
          "name": "data",
          "type": "uint256"
        }
      ],
      "name": "file",
      "outputs": [],
      "stateMutability": "nonpayable",
      "type": "function"
    },
    {
      "inputs": [],
      "name": "gem",
      "outputs": [
        {
          "internalType": "contract GemLike",
          "name": "",
          "type": "address"
        }
      ],
      "stateMutability": "view",
      "type": "function"
    },
    {
      "inputs": [
        {
          "internalType": "address",
          "name": "gal",
          "type": "address"
        },
        {
          "internalType": "uint256",
          "name": "lot",
          "type": "uint256"
        },
        {
          "internalType": "uint256",
          "name": "bid",
          "type": "uint256"
        }
      ],
      "name": "kick",
      "outputs": [
        {
          "internalType": "uint256",
          "name": "id",
          "type": "uint256"
        }
      ],
      "stateMutability": "nonpayable",
      "type": "function"
    },
    {
      "inputs": [],
      "name": "kicks",
      "outputs": [
        {
          "internalType": "uint256",
          "name": "",
          "type": "uint256"
        }
      ],
      "stateMutability": "view",
      "type": "function"
    },
    {
      "inputs": [],
      "name": "live",
      "outputs": [
        {
          "internalType": "uint256",
          "name": "",
          "type": "uint256"
        }
      ],
      "stateMutability": "view",
      "type": "function"
    },
    {
      "inputs": [],
      "name": "pad",
      "outputs": [
        {
          "internalType": "uint256",
          "name": "",
          "type": "uint256"
        }
      ],
      "stateMutability": "view",
      "type": "function"
    },
    {
      "inputs": [
        {
          "internalType": "address",
          "name": "usr",
          "type": "address"
        }
      ],
      "name": "rely",
      "outputs": [],
      "stateMutability": "nonpayable",
      "type": "function"
    },
    {
      "inputs": [],
      "name": "tau",
      "outputs": [
        {
          "internalType": "uint48",
          "name": "",
          "type": "uint48"
        }
      ],
      "stateMutability": "view",
      "type": "function"
    },
    {
      "inputs": [
        {
          "internalType": "uint256",
          "name": "id",
          "type": "uint256"
        }
      ],
      "name": "tick",
      "outputs": [],
      "stateMutability": "nonpayable",
      "type": "function"
    },
    {
      "inputs": [],
      "name": "ttl",
      "outputs": [
        {
          "internalType": "uint48",
          "name": "",
          "type": "uint48"
        }
      ],
      "stateMutability": "view",
      "type": "function"
    },
    {
      "inputs": [],
      "name": "vat",
      "outputs": [
        {
          "internalType": "contract VatLike",
          "name": "",
          "type": "address"
        }
      ],
      "stateMutability": "view",
      "type": "function"
    },
    {
      "inputs": [],
      "name": "vow",
      "outputs": [
        {
          "internalType": "address",
          "name": "",
          "type": "address"
        }
      ],
      "stateMutability": "view",
      "type": "function"
    },
    {
      "inputs": [
        {
          "internalType": "address",
          "name": "",
          "type": "address"
        }
      ],
      "name": "wards",
      "outputs": [
        {
          "internalType": "uint256",
          "name": "",
          "type": "uint256"
        }
      ],
      "stateMutability": "view",
      "type": "function"
    },
    {
      "inputs": [
        {
          "internalType": "uint256",
          "name": "id",
          "type": "uint256"
        }
      ],
      "name": "yank",
      "outputs": [],
      "stateMutability": "nonpayable",
      "type": "function"
    }
  ],
  "bytecode": "0x6080604052670e92596fd62900006004556714d1120d7b16000060055560068054612a3065ffffffffffff199091161765ffffffffffff60301b19166802a300000000000000179055600060075534801561005957600080fd5b5060405161134c38038061134c8339818101604052604081101561007c57600080fd5b508051602091820151336000908152928390526040909220600190819055600280546001600160a01b039384166001600160a01b0319918216179091556003805493909416921691909117909155600855611270806100dc6000396000f3fe608060405234801561001057600080fd5b50600436106100fc5760003560e01c806326e027f11461010157806329ae81141461012057806336569e77146101435780634423c5f1146101675780634e8b1dd5146101c25780635ff3a382146101e5578063626cb3c51461020e57806365fae35e14610216578063692450091461023c5780637bd2bea7146102445780637d780d821461024c5780639361266c14610266578063957aa58c1461026e5780639c52a7f114610276578063b7e9cd241461029c578063bf353dbb146102ce578063c959c42b146102f4578063cfc4af5514610311578063cfdd330214610319578063fc7b6aee14610321575b600080fd5b61011e6004803603602081101561011757600080fd5b503561033e565b005b61011e6004803603604081101561013657600080fd5b50803590602001356104bc565b61014b6105d4565b604080516001600160a01b039092168252519081900360200190f35b6101846004803603602081101561017d57600080fd5b50356105e3565b6040805195865260208601949094526001600160a01b039092168484015265ffffffffffff9081166060850152166080830152519081900360a00190f35b6101ca610627565b6040805165ffffffffffff9092168252519081900360200190f35b61011e600480360360608110156101fb57600080fd5b5080359060208101359060400135610635565b61014b610bba565b61011e6004803603602081101561022c57600080fd5b50356001600160a01b0316610bc9565b61011e610c0e565b61014b610c50565b610254610c5f565b60408051918252519081900360200190f35b610254610c65565b610254610c6b565b61011e6004803603602081101561028c57600080fd5b50356001600160a01b0316610c71565b610254600480360360608110156102b257600080fd5b506001600160a01b038135169060208101359060400135610cb5565b610254600480360360208110156102e457600080fd5b50356001600160a01b0316610e33565b61011e6004803603602081101561030a57600080fd5b5035610e45565b6101ca61101e565b610254611033565b61011e6004803603602081101561033757600080fd5b5035611039565b60085415610388576040805162461bcd60e51b8152602060048201526012602482015271466c6f707065722f7374696c6c2d6c69766560701b604482015290519081900360640190fd5b6000818152600160205260409020600201546001600160a01b03166103ea576040805162461bcd60e51b8152602060048201526013602482015272119b1bdc1c195c8bd9dd5e4b5b9bdd0b5cd95d606a1b604482015290519081900360640190fd5b60028054600954600084815260016020526040808220948501549454815163f24e23eb60e01b81526001600160a01b0394851660048201529584166024870152604486015251919092169263f24e23eb92606480830193919282900301818387803b15801561045857600080fd5b505af115801561046c573d6000803e3d6000fd5b50505060008281526001602081905260408083208381559182018390556002909101829055518392507f2c5d2826eb5903b8fc201cf48094b858f42f61c7eaac9aaf43ebed490138144e9190a250565b816262656760e81b14156104d457600481905561059a565b81621c185960ea1b14156104ec57600581905561059a565b81621d1d1b60ea1b1415610518576006805465ffffffffffff191665ffffffffffff831617905561059a565b816274617560e81b141561054d576006805465ffffffffffff60301b1916600160301b65ffffffffffff84160217905561059a565b6040805162461bcd60e51b815260206004820152601f60248201527f466c6f707065722f66696c652d756e7265636f676e697a65642d706172616d00604482015290519081900360640190fd5b60408051828152905183917fe986e40cc8c151830d4f61050f4fb2e4add8567caad2d5f5496f9158e91fe4c7919081900360200190a25050565b6002546001600160a01b031681565b60016020819052600091825260409091208054918101546002909101546001600160a01b0381169065ffffffffffff600160a01b8204811691600160d01b90041685565b60065465ffffffffffff1681565b60085460011461067f576040805162461bcd60e51b815260206004820152601060248201526f466c6f707065722f6e6f742d6c69766560801b604482015290519081900360640190fd5b6000838152600160205260409020600201546001600160a01b03166106e1576040805162461bcd60e51b8152602060048201526013602482015272119b1bdc1c195c8bd9dd5e4b5b9bdd0b5cd95d606a1b604482015290519081900360640190fd5b60008381526001602052604090206002015442600160a01b90910465ffffffffffff16118061072e5750600083815260016020526040902060020154600160a01b900465ffffffffffff16155b61077e576040805162461bcd60e51b815260206004820152601c60248201527b466c6f707065722f616c72656164792d66696e69736865642d74696360201b604482015290519081900360640190fd5b60008381526001602052604090206002015442600160d01b90910465ffffffffffff16116107f2576040805162461bcd60e51b815260206004820152601c60248201527b119b1bdc1c195c8bd85b1c9958591e4b599a5b9a5cda19590b595b9960221b604482015290519081900360640190fd5b600083815260016020526040902054811461084f576040805162461bcd60e51b8152602060048201526018602482015277119b1bdc1c195c8bdb9bdd0b5b585d18da1a5b99cb589a5960421b604482015290519081900360640190fd5b6000838152600160208190526040909120015482106108ad576040805162461bcd60e51b8152602060048201526015602482015274233637b83832b917b637ba16b737ba16b637bbb2b960591b604482015290519081900360640190fd5b600083815260016020819052604090912001546108d290670de0b6b3a76400006111dd565b6108de600454846111dd565b1115610931576040805162461bcd60e51b815260206004820152601d60248201527f466c6f707065722f696e73756666696369656e742d6465637265617365000000604482015290519081900360640190fd5b6000838152600160205260409020600201546001600160a01b03163314610b15576002805460008581526001602052604080822090930154835163bb35783b60e01b81523360048201526001600160a01b03918216602482015260448101869052935192169263bb35783b926064808301939282900301818387803b1580156109b957600080fd5b505af11580156109cd573d6000803e3d6000fd5b505050600084815260016020526040902060020154600160a01b900465ffffffffffff1615159050610af3576000838152600160209081526040808320600201548151630a874acf60e21b815291516001600160a01b0390911692632a1d2b3c926004808201939182900301818787803b158015610a4a57600080fd5b505af1158015610a5e573d6000803e3d6000fd5b505050506040513d6020811015610a7457600080fd5b50516000858152600160205260409020600201549091506001600160a01b0316632506855a610aa38484611207565b6040518263ffffffff1660e01b815260040180828152602001915050600060405180830381600087803b158015610ad957600080fd5b505af1158015610aed573d6000803e3d6000fd5b50505050505b600083815260016020526040902060020180546001600160a01b031916331790555b600083815260016020819052604090912001829055600654610b4090429065ffffffffffff1661121f565b600084815260016020908152604091829020600201805465ffffffffffff94909416600160a01b0265ffffffffffff60a01b19909416939093179092558051848152918201839052805185927f1a7c615e2d533f6d4e4ad32750dbd62249b24789379f9ed92f4ce9deab61f2af92908290030190a2505050565b6009546001600160a01b031681565b6001600160a01b03811660008181526020819052604080822060019055517fdd0e34038ac38b2a1ce960229778ac48a8719bc900b6c4f8d0475c6e8b385a609190a250565b60006008819055600980546001600160a01b031916331790556040517f2308ed18a14e800c39b86eb6ea43270105955ca385b603b64eca89f98ae8fbda9190a1565b6003546001600160a01b031681565b60045481565b60055481565b60085481565b6001600160a01b038116600081815260208190526040808220829055517f184450df2e323acec0ed3b5c7531b81f9b4cdef7914dfd4c0a4317416bb5251b9190a250565b6000600854600114610d01576040805162461bcd60e51b815260206004820152601060248201526f466c6f707065722f6e6f742d6c69766560801b604482015290519081900360640190fd5b60001960075410610d4c576040805162461bcd60e51b815260206004820152601060248201526f466c6f707065722f6f766572666c6f7760801b604482015290519081900360640190fd5b5060078054600190810191829055600082815260208290526040902083815590810184905560020180546001600160a01b0319166001600160a01b038616179055600654610daa904290600160301b900465ffffffffffff1661121f565b600082815260016020908152604091829020600201805465ffffffffffff94909416600160d01b026001600160d01b03909416939093179092558051838152918201859052818101849052516001600160a01b038616917f7e8881001566f9f89aedb9c5dc3d856a2b81e5235a8196413ed484be91cc0df6919081900360600190a29392505050565b60006020819052908152604090205481565b600854600114610e8f576040805162461bcd60e51b815260206004820152601060248201526f466c6f707065722f6e6f742d6c69766560801b604482015290519081900360640190fd5b600081815260016020526040902060020154600160a01b900465ffffffffffff1615801590610f08575060008181526001602052604090206002015442600160a01b90910465ffffffffffff161080610f08575060008181526001602052604090206002015442600160d01b90910465ffffffffffff16105b610f50576040805162461bcd60e51b8152602060048201526014602482015273119b1bdc1c195c8bdb9bdd0b599a5b9a5cda195960621b604482015290519081900360640190fd5b6003546000828152600160208190526040808320600281015492015481516340c10f1960e01b81526001600160a01b0393841660048201526024810191909152905191909316926340c10f1992604480830193919282900301818387803b158015610fba57600080fd5b505af1158015610fce573d6000803e3d6000fd5b50505060008281526001602081905260408083208381559182018390556002909101829055518392507f71a76872b00dbc7728a966e65795cf08a847d5a061e6f9a666baaf3d601931db9190a250565b600654600160301b900465ffffffffffff1681565b60075481565b60008181526001602052604090206002015442600160d01b90910465ffffffffffff16106110a5576040805162461bcd60e51b8152602060048201526014602482015273119b1bdc1c195c8bdb9bdd0b599a5b9a5cda195960621b604482015290519081900360640190fd5b600081815260016020526040902060020154600160a01b900465ffffffffffff1615611115576040805162461bcd60e51b815260206004820152601a602482015279119b1bdc1c195c8bd89a590b585b1c9958591e4b5c1b1858d95960321b604482015290519081900360640190fd5b670de0b6b3a764000061114060055460016000858152602001908152602001600020600101546111dd565b8161114757fe5b60008381526001602081905260409091209290910491015560065461117c904290600160301b900465ffffffffffff1661121f565b600082815260016020526040808220600201805465ffffffffffff94909416600160d01b026001600160d01b0390941693909317909255905182917fb8c95b3cea6303a753d912e243354ef08add1085ed07d34191514ef1001ef9d891a250565b60008115806111f8575050808202828282816111f557fe5b04145b61120157600080fd5b92915050565b600081831115611218575080611201565b5090919050565b80820165ffffffffffff808416908216101561120157600080fdfea264697066735822122035a04c1f629b8e9095c8925d279c31e80c5cd01cd83b21986ebcacf5b43ae8ca64736f6c634300060c0033",
  "linkReferences": {},
  "deployedLinkReferences": {}
}