{
  "_format": "hh-sol-artifact-1",
  "contractName": "IRDT",
  "sourceName": "contracts/dss/irdt.sol",
  "abi": [
    {
      "inputs": [
        {
          "internalType": "uint256",
          "name": "chainId_",
          "type": "uint256"
        }
      ],
      "stateMutability": "nonpayable",
      "type": "constructor"
    },
    {
      "anonymous": false,
      "inputs": [
        {
          "indexed": true,
          "internalType": "address",
          "name": "src",
          "type": "address"
        },
        {
          "indexed": true,
          "internalType": "address",
          "name": "guy",
          "type": "address"
        },
        {
          "indexed": false,
          "internalType": "uint256",
          "name": "wad",
          "type": "uint256"
        }
      ],
      "name": "Approval",
      "type": "event"
    },
    {
      "anonymous": false,
      "inputs": [
        {
          "indexed": true,
          "internalType": "address",
          "name": "src",
          "type": "address"
        },
        {
          "indexed": true,
          "internalType": "address",
          "name": "dst",
          "type": "address"
        },
        {
          "indexed": false,
          "internalType": "uint256",
          "name": "wad",
          "type": "uint256"
        }
      ],
      "name": "Transfer",
      "type": "event"
    },
    {
      "inputs": [],
      "name": "DOMAIN_SEPARATOR",
      "outputs": [
        {
          "internalType": "bytes32",
          "name": "",
          "type": "bytes32"
        }
      ],
      "stateMutability": "view",
      "type": "function"
    },
    {
      "inputs": [],
      "name": "PERMIT_TYPEHASH",
      "outputs": [
        {
          "internalType": "bytes32",
          "name": "",
          "type": "bytes32"
        }
      ],
      "stateMutability": "view",
      "type": "function"
    },
    {
      "inputs": [
        {
          "internalType": "address",
          "name": "",
          "type": "address"
        },
        {
          "internalType": "address",
          "name": "",
          "type": "address"
        }
      ],
      "name": "allowance",
      "outputs": [
        {
          "internalType": "uint256",
          "name": "",
          "type": "uint256"
        }
      ],
      "stateMutability": "view",
      "type": "function"
    },
    {
      "inputs": [
        {
          "internalType": "address",
          "name": "usr",
          "type": "address"
        },
        {
          "internalType": "uint256",
          "name": "wad",
          "type": "uint256"
        }
      ],
      "name": "approve",
      "outputs": [
        {
          "internalType": "bool",
          "name": "",
          "type": "bool"
        }
      ],
      "stateMutability": "nonpayable",
      "type": "function"
    },
    {
      "inputs": [
        {
          "internalType": "address",
          "name": "",
          "type": "address"
        }
      ],
      "name": "balanceOf",
      "outputs": [
        {
          "internalType": "uint256",
          "name": "",
          "type": "uint256"
        }
      ],
      "stateMutability": "view",
      "type": "function"
    },
    {
      "inputs": [
        {
          "internalType": "address",
          "name": "usr",
          "type": "address"
        },
        {
          "internalType": "uint256",
          "name": "wad",
          "type": "uint256"
        }
      ],
      "name": "burn",
      "outputs": [],
      "stateMutability": "nonpayable",
      "type": "function"
    },
    {
      "inputs": [],
      "name": "decimals",
      "outputs": [
        {
          "internalType": "uint8",
          "name": "",
          "type": "uint8"
        }
      ],
      "stateMutability": "view",
      "type": "function"
    },
    {
      "inputs": [
        {
          "internalType": "address",
          "name": "guy",
          "type": "address"
        }
      ],
      "name": "deny",
      "outputs": [],
      "stateMutability": "nonpayable",
      "type": "function"
    },
    {
      "inputs": [
        {
          "internalType": "address",
          "name": "usr",
          "type": "address"
        },
        {
          "internalType": "uint256",
          "name": "wad",
          "type": "uint256"
        }
      ],
      "name": "mint",
      "outputs": [],
      "stateMutability": "nonpayable",
      "type": "function"
    },
    {
      "inputs": [
        {
          "internalType": "address",
          "name": "src",
          "type": "address"
        },
        {
          "internalType": "address",
          "name": "dst",
          "type": "address"
        },
        {
          "internalType": "uint256",
          "name": "wad",
          "type": "uint256"
        }
      ],
      "name": "move",
      "outputs": [],
      "stateMutability": "nonpayable",
      "type": "function"
    },
    {
      "inputs": [],
      "name": "name",
      "outputs": [
        {
          "internalType": "string",
          "name": "",
          "type": "string"
        }
      ],
      "stateMutability": "view",
      "type": "function"
    },
    {
      "inputs": [
        {
          "internalType": "address",
          "name": "",
          "type": "address"
        }
      ],
      "name": "nonces",
      "outputs": [
        {
          "internalType": "uint256",
          "name": "",
          "type": "uint256"
        }
      ],
      "stateMutability": "view",
      "type": "function"
    },
    {
      "inputs": [
        {
          "internalType": "address",
          "name": "holder",
          "type": "address"
        },
        {
          "internalType": "address",
          "name": "spender",
          "type": "address"
        },
        {
          "internalType": "uint256",
          "name": "nonce",
          "type": "uint256"
        },
        {
          "internalType": "uint256",
          "name": "expiry",
          "type": "uint256"
        },
        {
          "internalType": "bool",
          "name": "allowed",
          "type": "bool"
        },
        {
          "internalType": "uint8",
          "name": "v",
          "type": "uint8"
        },
        {
          "internalType": "bytes32",
          "name": "r",
          "type": "bytes32"
        },
        {
          "internalType": "bytes32",
          "name": "s",
          "type": "bytes32"
        }
      ],
      "name": "permit",
      "outputs": [],
      "stateMutability": "nonpayable",
      "type": "function"
    },
    {
      "inputs": [
        {
          "internalType": "address",
          "name": "usr",
          "type": "address"
        },
        {
          "internalType": "uint256",
          "name": "wad",
          "type": "uint256"
        }
      ],
      "name": "pull",
      "outputs": [],
      "stateMutability": "nonpayable",
      "type": "function"
    },
    {
      "inputs": [
        {
          "internalType": "address",
          "name": "usr",
          "type": "address"
        },
        {
          "internalType": "uint256",
          "name": "wad",
          "type": "uint256"
        }
      ],
      "name": "push",
      "outputs": [],
      "stateMutability": "nonpayable",
      "type": "function"
    },
    {
      "inputs": [
        {
          "internalType": "address",
          "name": "guy",
          "type": "address"
        }
      ],
      "name": "rely",
      "outputs": [],
      "stateMutability": "nonpayable",
      "type": "function"
    },
    {
      "inputs": [],
      "name": "symbol",
      "outputs": [
        {
          "internalType": "string",
          "name": "",
          "type": "string"
        }
      ],
      "stateMutability": "view",
      "type": "function"
    },
    {
      "inputs": [],
      "name": "totalSupply",
      "outputs": [
        {
          "internalType": "uint256",
          "name": "",
          "type": "uint256"
        }
      ],
      "stateMutability": "view",
      "type": "function"
    },
    {
      "inputs": [
        {
          "internalType": "address",
          "name": "dst",
          "type": "address"
        },
        {
          "internalType": "uint256",
          "name": "wad",
          "type": "uint256"
        }
      ],
      "name": "transfer",
      "outputs": [
        {
          "internalType": "bool",
          "name": "",
          "type": "bool"
        }
      ],
      "stateMutability": "nonpayable",
      "type": "function"
    },
    {
      "inputs": [
        {
          "internalType": "address",
          "name": "src",
          "type": "address"
        },
        {
          "internalType": "address",
          "name": "dst",
          "type": "address"
        },
        {
          "internalType": "uint256",
          "name": "wad",
          "type": "uint256"
        }
      ],
      "name": "transferFrom",
      "outputs": [
        {
          "internalType": "bool",
          "name": "",
          "type": "bool"
        }
      ],
      "stateMutability": "nonpayable",
      "type": "function"
    },
    {
      "inputs": [],
      "name": "version",
      "outputs": [
        {
          "internalType": "string",
          "name": "",
          "type": "string"
        }
      ],
      "stateMutability": "view",
      "type": "function"
    },
    {
      "inputs": [
        {
          "internalType": "address",
          "name": "",
          "type": "address"
        }
      ],
      "name": "wards",
      "outputs": [
        {
          "internalType": "uint256",
          "name": "",
          "type": "uint256"
        }
      ],
      "stateMutability": "view",
      "type": "function"
    }
  ],
  "bytecode": "0x608060405234801561001057600080fd5b50604051610fad380380610fad8339818101604052602081101561003357600080fd5b5051336000908152602081815260409182902060019081905582518084018452600f81526e24a9222a1029ba30b13632b1b7b4b760891b9083015282518084018452908152603160f81b9082015281517f8b73c3c69bb8fe3d512ecc4cf759cc79239f7b179b0ffacaa9a75d522b39400f818301527fb26fb75a2a185dea852938915dd213d300bc06001a50ce1e901e8538f81fa370818401527fc89efdaa54c0f20c7adf612882df0950f5a951637e0307cdcb4c672f298b8bc6606082015260808101939093523060a0808501919091528251808503909101815260c09093019091528151910120600555610e7f8061012e6000396000f3fe608060405234801561001057600080fd5b50600436106101125760003560e01c806306fdde0314610117578063095ea7b31461019457806318160ddd146101d457806323b872dd146101ee57806330adf81f14610224578063313ce5671461022c5780633644e5151461024a57806340c10f191461025257806354fd4d501461028057806365fae35e1461028857806370a08231146102ae5780637ecebe00146102d45780638fcbaf0c146102fa57806395d89b41146103545780639c52a7f11461035c5780639dc29fac14610382578063a9059cbb146103ae578063b753a98c146103da578063bb35783b14610406578063bf353dbb1461043c578063dd62ed3e14610462578063f2d5d56b14610490575b600080fd5b61011f6104bc565b6040805160208082528351818301528351919283929083019185019080838360005b83811015610159578181015183820152602001610141565b50505050905090810190601f1680156101865780820380516001836020036101000a031916815260200191505b509250505060405180910390f35b6101c0600480360360408110156101aa57600080fd5b506001600160a01b0381351690602001356104e7565b604080519115158252519081900360200190f35b6101dc61053c565b60408051918252519081900360200190f35b6101c06004803603606081101561020457600080fd5b506001600160a01b03813581169160208101359091169060400135610542565b6101dc610758565b61023461076a565b6040805160ff9092168252519081900360200190f35b6101dc61076f565b61027e6004803603604081101561026857600080fd5b506001600160a01b038135169060200135610775565b005b61011f6107f4565b61027e6004803603602081101561029e57600080fd5b50356001600160a01b0316610811565b6101dc600480360360208110156102c457600080fd5b50356001600160a01b031661082e565b6101dc600480360360208110156102ea57600080fd5b50356001600160a01b0316610840565b61027e600480360361010081101561031157600080fd5b506001600160a01b038135811691602081013590911690604081013590606081013590608081013515159060ff60a0820135169060c08101359060e00135610852565b61011f610b2c565b61027e6004803603602081101561037257600080fd5b50356001600160a01b0316610b4c565b61027e6004803603604081101561039857600080fd5b506001600160a01b038135169060200135610b66565b6101c0600480360360408110156103c457600080fd5b506001600160a01b038135169060200135610d5a565b61027e600480360360408110156103f057600080fd5b506001600160a01b038135169060200135610d6e565b61027e6004803603606081101561041c57600080fd5b506001600160a01b03813581169160208101359091169060400135610d7e565b6101dc6004803603602081101561045257600080fd5b50356001600160a01b0316610d8f565b6101dc6004803603604081101561047857600080fd5b506001600160a01b0381358116916020013516610da1565b61027e600480360360408110156104a657600080fd5b506001600160a01b038135169060200135610dbe565b6040518060400160405280600f81526020016e24a9222a1029ba30b13632b1b7b4b760891b81525081565b3360008181526003602090815260408083206001600160a01b03871680855290835281842086905581518681529151939490939092600080516020610e2a833981519152928290030190a35060015b92915050565b60015481565b6001600160a01b0383166000908152600260205260408120548211156105ab576040805162461bcd60e51b8152602060048201526019602482015278495244542f696e73756666696369656e742d62616c616e636560381b604482015290519081900360640190fd5b6001600160a01b03841633148015906105e957506001600160a01b038416600090815260036020908152604080832033845290915290205460001914155b156106b7576001600160a01b0384166000908152600360209081526040808320338452909152902054821115610664576040805162461bcd60e51b815260206004820152601b60248201527a495244542f696e73756666696369656e742d616c6c6f77616e636560281b604482015290519081900360640190fd5b6001600160a01b03841660009081526003602090815260408083203384529091529020546106929083610dc9565b6001600160a01b03851660009081526003602090815260408083203384529091529020555b6001600160a01b0384166000908152600260205260409020546106da9083610dc9565b6001600160a01b0380861660009081526002602052604080822093909355908516815220546107099083610dd9565b6001600160a01b038085166000818152600260209081526040918290209490945580518681529051919392881692600080516020610e0a83398151915292918290030190a35060019392505050565b600080516020610dea83398151915281565b601281565b60055481565b6001600160a01b0382166000908152600260205260409020546107989082610dd9565b6001600160a01b0383166000908152600260205260409020556001546107be9082610dd9565b6001556040805182815290516001600160a01b03841691600091600080516020610e0a8339815191529181900360200190a35050565b604051806040016040528060018152602001603160f81b81525081565b6001600160a01b0316600090815260208190526040902060019055565b60026020526000908152604090205481565b60046020526000908152604090205481565b60055460408051600080516020610dea8339815191526020808301919091526001600160a01b03808d16838501819052908c166060840152608083018b905260a083018a905288151560c0808501919091528451808503909101815260e08401855280519083012061190160f01b61010085015261010284019590955261012280840195909552835180840390950185526101429092019092528251929091019190912090610941576040805162461bcd60e51b81526020600482015260166024820152750495244542f696e76616c69642d616464726573732d360541b604482015290519081900360640190fd5b60018185858560405160008152602001604052604051808581526020018460ff1681526020018381526020018281526020019450505050506020604051602081039080840390855afa15801561099b573d6000803e3d6000fd5b505050602060405103516001600160a01b0316896001600160a01b031614610a00576040805162461bcd60e51b8152602060048201526013602482015272125491150bda5b9d985b1a590b5c195c9b5a5d606a1b604482015290519081900360640190fd5b851580610a0d5750854211155b610a54576040805162461bcd60e51b8152602060048201526013602482015272125491150bdc195c9b5a5d0b595e1c1a5c9959606a1b604482015290519081900360640190fd5b6001600160a01b03891660009081526004602052604090208054600181019091558714610abd576040805162461bcd60e51b8152602060048201526012602482015271495244542f696e76616c69642d6e6f6e636560701b604482015290519081900360640190fd5b600085610acb576000610acf565b6000195b6001600160a01b03808c166000818152600360209081526040808320948f16808452948252918290208590558151858152915194955092939192600080516020610e2a83398151915292918290030190a350505050505050505050565b604051806040016040528060048152602001631254911560e21b81525081565b6001600160a01b0316600090815260208190526040812055565b6001600160a01b038216600090815260026020526040902054811115610bcf576040805162461bcd60e51b8152602060048201526019602482015278495244542f696e73756666696369656e742d62616c616e636560381b604482015290519081900360640190fd5b6001600160a01b0382163314801590610c0d57506001600160a01b038216600090815260036020908152604080832033845290915290205460001914155b15610cdb576001600160a01b0382166000908152600360209081526040808320338452909152902054811115610c88576040805162461bcd60e51b815260206004820152601b60248201527a495244542f696e73756666696369656e742d616c6c6f77616e636560281b604482015290519081900360640190fd5b6001600160a01b0382166000908152600360209081526040808320338452909152902054610cb69082610dc9565b6001600160a01b03831660009081526003602090815260408083203384529091529020555b6001600160a01b038216600090815260026020526040902054610cfe9082610dc9565b6001600160a01b038316600090815260026020526040902055600154610d249082610dc9565b6001556040805182815290516000916001600160a01b03851691600080516020610e0a8339815191529181900360200190a35050565b6000610d67338484610542565b9392505050565b610d79338383610542565b505050565b610d89838383610542565b50505050565b60006020819052908152604090205481565b600360209081526000928352604080842090915290825290205481565b610d79823383610542565b8082038281111561053657600080fd5b8082018281101561053657600080fdfeea2aa0a1be11a07ed86d755c93467f4f82362b452371d1ba94d1715123511acbddf252ad1be2c89b69c2b068fc378daa952ba7f163c4a11628f55a4df523b3ef8c5be1e5ebec7d5bd14f71427d1e84f3dd0314c0f7b2291e5b200ac8c7c3b925a264697066735822122021f72bf441f3de6da9169d0a35a7df1d3deace2735d25eed606e5aaf878fbf6664736f6c634300060c0033",
  "linkReferences": {},
  "deployedLinkReferences": {}
}