{
  "_format": "hh-sol-artifact-1",
  "contractName": "DssDeployBaseF",
  "sourceName": "contracts/DssDeployBase.sol",
  "abi": [
    {
      "inputs": [
        {
          "internalType": "address",
          "name": "dssdeploy",
          "type": "address"
        }
      ],
      "name": "setUp",
      "outputs": [],
      "stateMutability": "nonpayable",
      "type": "function"
    }
  ],
  "bytecode": "0x608060405234801561001057600080fd5b50615aed806100206000396000f3fe608060405234801561001057600080fd5b506004361061002b5760003560e01c80633f2601ef14610030575b600080fd5b6100566004803603602081101561004657600080fd5b50356001600160a01b0316610058565b005b604051610064906101f5565b604051809103906000f080158015610080573d6000803e3d6000fd5b50600080546001600160a01b0319166001600160a01b03929092169190911790556040516100ad90610202565b604051809103906000f0801580156100c9573d6000803e3d6000fd5b50600180546001600160a01b0319166001600160a01b03929092169190911790556040516100f69061020f565b604051809103906000f080158015610112573d6000803e3d6000fd5b50600280546001600160a01b0319166001600160a01b039290921691909117905560405161013f9061021c565b604051809103906000f08015801561015b573d6000803e3d6000fd5b50600380546001600160a01b0319166001600160a01b03928316179081905560008054600154600254604080516340a464cf60e01b8152938716600485015291861660248401528516604483015292841660648201529151928416926340a464cf92608480820193929182900301818387803b1580156101da57600080fd5b505af11580156101ee573d6000803e3d6000fd5b5050505050565b610ecc8061022a83390190565b6127cc806110f683390190565b6110ee806138c283390190565b611108806149b08339019056fe608060405234801561001057600080fd5b50610eac806100206000396000f3fe608060405234801561001057600080fd5b506004361061002b5760003560e01c806304298db614610030575b600080fd5b6100566004803603602081101561004657600080fd5b50356001600160a01b0316610072565b604080516001600160a01b039092168252519081900360200190f35b60006040516100809061010b565b604051809103906000f08015801561009c573d6000803e3d6000fd5b509050806001600160a01b03166365fae35e836040518263ffffffff1660e01b815260040180826001600160a01b03168152602001915050600060405180830381600087803b1580156100ee57600080fd5b505af1158015610102573d6000803e3d6000fd5b50505050919050565b610d5e806101198339019056fe608060405234801561001057600080fd5b5060018080553360008181526020819052604080822093909355915190917fdd0e34038ac38b2a1ce960229778ac48a8719bc900b6c4f8d0475c6e8b385a6091a2610cfe806100606000396000f3fe608060405234801561001057600080fd5b50600436106100fc5760003560e01c806309615662146101015780630f560cd71461013957806329ae8114146101915780632f40e734146101b65780633c278bd5146101dc578063493aa4c71461020257806353d700e51461020a57806353f9a8731461021257806364bd70131461021a57806365fae35e14610222578063692450091461024857806391f2700a1461025057806393d0281c14610276578063954ab4b21461029c578063957aa58c146102a45780639c52a7f1146102ac578063bf353dbb146102d2578063e2b0caef146102f8578063f381273f14610300578063ffa9ca9f14610339575b600080fd5b6101276004803603602081101561011757600080fd5b50356001600160a01b031661035f565b60408051918252519081900360200190f35b610141610371565b60408051602080825283518183015283519192839290830191858101910280838360005b8381101561017d578181015183820152602001610165565b505050509050019250505060405180910390f35b6101b4600480360360408110156101a757600080fd5b50803590602001356103d3565b005b6101b4600480360360208110156101cc57600080fd5b50356001600160a01b03166104b9565b6101b4600480360360208110156101f257600080fd5b50356001600160a01b0316610695565b6101276107cc565b6101276107d2565b610127610837565b61012761083d565b6101b46004803603602081101561023857600080fd5b50356001600160a01b0316610843565b6101b46108cf565b6101b46004803603602081101561026657600080fd5b50356001600160a01b0316610957565b6101276004803603602081101561028c57600080fd5b50356001600160a01b0316610b0a565b610127610b1c565b610127610b22565b6101b4600480360360208110156102c257600080fd5b50356001600160a01b0316610b28565b610127600480360360208110156102e857600080fd5b50356001600160a01b0316610bb3565b610127610bc5565b61031d6004803603602081101561031657600080fd5b5035610bcb565b604080516001600160a01b039092168252519081900360200190f35b6101276004803603602081101561034f57600080fd5b50356001600160a01b0316610bf2565b60066020526000908152604090205481565b606060028054806020026020016040519081016040528092919081815260200182805480156103c957602002820191906000526020600020905b81546001600160a01b031681526001909101906020018083116103ab575b5050505050905090565b60015460011461041a576040805162461bcd60e51b815260206004820152600d60248201526c437572652f6e6f742d6c69766560981b604482015290519081900360640190fd5b81631dd85a5d60e21b141561043357600381905561047f565b6040805162461bcd60e51b815260206004820152601c60248201527b437572652f66696c652d756e7265636f676e697a65642d706172616d60201b604482015290519081900360640190fd5b60408051828152905183917fe986e40cc8c151830d4f61050f4fb2e4add8567caad2d5f5496f9158e91fe4c7919081900360200190a25050565b60015415610500576040805162461bcd60e51b815260206004820152600f60248201526e437572652f7374696c6c2d6c69766560881b604482015290519081900360640190fd5b6001600160a01b038116600090815260056020526040902054610565576040805162461bcd60e51b8152602060048201526018602482015277437572652f6e6f6e2d6578697374696e672d736f7572636560401b604482015290519081900360640190fd5b6001600160a01b038116600081815260066020908152604080832054815163840782ed60e01b8152915190949263840782ed9260048082019391829003018186803b1580156105b357600080fd5b505afa1580156105c7573d6000803e3d6000fd5b505050506040513d60208110156105dd57600080fd5b50516001600160a01b03841660009081526006602052604090208190556009549091506106149061060e9084610c04565b82610c57565b6009556001600160a01b03831660009081526007602052604090205461065c576001600160a01b03831660009081526007602052604090206001908190556008805490910190555b6040516001600160a01b038416907fe90dfdfab1f4f73aeba2ef47b366c3c4118d3c38cab46bb993f7ed257a61c8c090600090a2505050565b6001546001146106dc576040805162461bcd60e51b815260206004820152600d60248201526c437572652f6e6f742d6c69766560981b604482015290519081900360640190fd5b6001600160a01b03811660009081526005602052604090205415610746576040805162461bcd60e51b815260206004820152601c60248201527b437572652f616c72656164792d6578697374696e672d736f7572636560201b604482015290519081900360640190fd5b600280546001810182557f405787fa12a823e0f2b7631cc41b3ba8828b3321ca811111fa75cd3aa3bb5ace0180546001600160a01b0319166001600160a01b03841690811790915590546000828152600560205260408082209290925590517f2b07094bdf192088dc9d18c2c3a2b11b7f1df5d6f3460343964c059221e3f0489190a250565b60085481565b600060015460001480156107f5575060025460085414806107f557506004544210155b6108305760405162461bcd60e51b8152600401808060200182810382526025815260200180610ca46025913960400191505060405180910390fd5b5060095490565b60025490565b60035481565b60015460011461088a576040805162461bcd60e51b815260206004820152600d60248201526c437572652f6e6f742d6c69766560981b604482015290519081900360640190fd5b6001600160a01b03811660008181526020819052604080822060019055517fdd0e34038ac38b2a1ce960229778ac48a8719bc900b6c4f8d0475c6e8b385a609190a250565b600154600114610916576040805162461bcd60e51b815260206004820152600d60248201526c437572652f6e6f742d6c69766560981b604482015290519081900360640190fd5b6000600155600354610929904290610c57565b6004556040517f2308ed18a14e800c39b86eb6ea43270105955ca385b603b64eca89f98ae8fbda90600090a1565b60015460011461099e576040805162461bcd60e51b815260206004820152600d60248201526c437572652f6e6f742d6c69766560981b604482015290519081900360640190fd5b6001600160a01b03811660009081526005602052604090205480610a04576040805162461bcd60e51b8152602060048201526018602482015277437572652f6e6f6e2d6578697374696e672d736f7572636560401b604482015290519081900360640190fd5b60025480821015610a8957600060026001830381548110610a2157fe5b600091825260209091200154600280546001600160a01b03909216925082916000198601908110610a4e57fe5b600091825260208083209190910180546001600160a01b0319166001600160a01b039485161790559290911681526005909152604090208290555b6002805480610a9457fe5b60008281526020808220830160001990810180546001600160a01b03191690559092019092556001600160a01b0385168083526005825260408084208490556006909252818320839055905190917fdbc628f334a9c7bf46419d864ca89e17415703fa12263f2284d94cc9b75b659e91a2505050565b60056020526000908152604090205481565b60095481565b60015481565b600154600114610b6f576040805162461bcd60e51b815260206004820152600d60248201526c437572652f6e6f742d6c69766560981b604482015290519081900360640190fd5b6001600160a01b038116600081815260208190526040808220829055517f184450df2e323acec0ed3b5c7531b81f9b4cdef7914dfd4c0a4317416bb5251b9190a250565b60006020819052908152604090205481565b60045481565b60028181548110610bd857fe5b6000918252602090912001546001600160a01b0316905081565b60076020526000908152604090205481565b80820382811115610c51576040805162461bcd60e51b8152602060048201526012602482015271437572652f7375622d756e646572666c6f7760701b604482015290519081900360640190fd5b92915050565b80820182811015610c51576040805162461bcd60e51b8152602060048201526011602482015270437572652f6164642d6f766572666c6f7760781b604482015290519081900360640190fdfe437572652f6d697373696e672d6c6f61642d616e642d74696d652d6e6f742d706173736564a2646970667358221220abb35ea46ad16599f27c6b9c1577d9922db5dbe102deb1ebe330f1e67caa697264736f6c634300060c0033a2646970667358221220cd64bb0d7a316b86ac4292cd084f18883d7a3dd134fcdf5a4505052bb1f7491164736f6c634300060c0033608060405234801561001057600080fd5b506127ac806100206000396000f3fe608060405234801561001057600080fd5b506004361061002b5760003560e01c80636812273414610030575b600080fd5b6100566004803603602081101561004657600080fd5b50356001600160a01b0316610072565b604080516001600160a01b039092168252519081900360200190f35b60006040516100809061010b565b604051809103906000f08015801561009c573d6000803e3d6000fd5b509050806001600160a01b03166365fae35e836040518263ffffffff1660e01b815260040180826001600160a01b03168152602001915050600060405180830381600087803b1580156100ee57600080fd5b505af1158015610102573d6000803e3d6000fd5b50505050919050565b61265e806101198339019056fe608060405234801561001057600080fd5b5033600081815260208190526040808220600190819055600855517fdd0e34038ac38b2a1ce960229778ac48a8719bc900b6c4f8d0475c6e8b385a609190a26126008061005e6000396000f3fe608060405234801561001057600080fd5b50600436106101805760003560e01c80630dca59c11461018557806329ae81141461019f57806336569e77146101c457806338c6de40146101e85780634a10eaa61461020b5780634ba2363a14610228578063503ecf06146102305780635920375c14610253578063626cb3c51461025b57806363fad85e1461026357806364bd70131461028057806365fae35e1461028857806369245009146102ae5780636ea42555146102b65780636f265b93146102d3578063840782ed146102db57806389ea45d3146102e35780639255f8091461030f578063957aa58c146103355780639c52a7f11461033d578063bf353dbb14610363578063c3b3ad7f14610389578063c83062c614610391578063c939ebfc146103ae578063d4e8be83146103da578063e1340a3d14610406578063e2702fdc14610423578063e2b0caef14610440578063e488181314610448578063e6ee62aa14610450578063ee6447b51461046d578063fe8507c61461048a575b600080fd5b61018d6104ad565b60408051918252519081900360200190f35b6101c2600480360360408110156101b557600080fd5b50803590602001356104b3565b005b6101cc610597565b604080516001600160a01b039092168252519081900360200190f35b6101c2600480360360408110156101fe57600080fd5b50803590602001356105a6565b6101c26004803603602081101561022157600080fd5b50356109c7565b6101cc610bae565b6101c26004803603604081101561024657600080fd5b5080359060200135610bbd565b6101c26110c6565b6101cc61138d565b61018d6004803603602081101561027957600080fd5b503561139c565b61018d6113ae565b6101c26004803603602081101561029e57600080fd5b50356001600160a01b03166113b4565b6101c26113f9565b6101c2600480360360208110156102cc57600080fd5b5035611730565b6101cc611879565b6101cc611888565b6101c2600480360360408110156102f957600080fd5b50803590602001356001600160a01b0316611897565b61018d6004803603602081101561032557600080fd5b50356001600160a01b0316611b8e565b61018d611ba0565b6101c26004803603602081101561035357600080fd5b50356001600160a01b0316611ba6565b61018d6004803603602081101561037957600080fd5b50356001600160a01b0316611bea565b6101cc611bfc565b6101c2600480360360208110156103a757600080fd5b5035611c0b565b61018d600480360360408110156103c457600080fd5b50803590602001356001600160a01b0316611e30565b6101c2600480360360408110156103f057600080fd5b50803590602001356001600160a01b0316611e4d565b61018d6004803603602081101561041c57600080fd5b5035612016565b6101c26004803603602081101561043957600080fd5b5035612028565b61018d6122f6565b6101cc6122fc565b61018d6004803603602081101561046657600080fd5b503561230b565b61018d6004803603602081101561048357600080fd5b503561231d565b6101c2600480360360408110156104a057600080fd5b508035906020013561232f565b600b5481565b6008546001146104f9576040805162461bcd60e51b815260206004820152600c60248201526b456e642f6e6f742d6c69766560a01b604482015290519081900360640190fd5b81631dd85a5d60e21b141561051257600a81905561055d565b6040805162461bcd60e51b815260206004820152601b60248201527a456e642f66696c652d756e7265636f676e697a65642d706172616d60281b604482015290519081900360640190fd5b60408051828152905183917fe986e40cc8c151830d4f61050f4fb2e4add8567caad2d5f5496f9158e91fe4c7919081900360200190a25050565b6001546001600160a01b031681565b6000828152600c60205260409020546105f4576040805162461bcd60e51b815260206004820152601760248201526000805160206125ab833981519152604482015290519081900360640190fd5b60035460408051636cb1c69b60e11b81526004810185905290516000926001600160a01b03169163d9638d3691602480830192608092919082900301818787803b15801561064157600080fd5b505af1158015610655573d6000803e3d6000fd5b505050506040513d608081101561066b57600080fd5b505160015460408051636cb1c69b60e11b815260048101879052905192935083926000926001600160a01b03169163d9638d369160248083019260a092919082900301818787803b1580156106bf57600080fd5b505af11580156106d3573d6000803e3d6000fd5b505050506040513d60a08110156106e957600080fd5b50602001516040805163b5f522f760e01b8152600481018790529051919250600091829182916001600160a01b0387169163b5f522f79160248083019260c0929190829003018186803b15801561073f57600080fd5b505afa158015610753573d6000803e3d6000fd5b505050506040513d60c081101561076957600080fd5b50602081015160408083015160609093015160015460048054845163f24e23eb60e01b81526001600160a01b039182169281018390526024810192909252604482018690529351949850949650909450169163f24e23eb91606480830192600092919082900301818387803b1580156107e157600080fd5b505af11580156107f5573d6000803e3d6000fd5b50505050846001600160a01b03166326e027f1886040518263ffffffff1660e01b815260040180828152602001915050600060405180830381600087803b15801561083f57600080fd5b505af1158015610853573d6000803e3d6000fd5b50505050600084848161086257fe5b60008b8152600e60205260409020549190049150610880908261250b565b60008a8152600e602052604081209190915583128015906108a2575060008112155b6108e2576040805162461bcd60e51b815260206004820152600c60248201526b456e642f6f766572666c6f7760a01b604482015290519081900360640190fd5b60015460048054604080516301eeacfd60e61b81529283018d90526001600160a01b03868116602485015230604485015291821660648401526084830187905260a4830185905251921691637bab3f409160c48082019260009290919082900301818387803b15801561095457600080fd5b505af1158015610968573d6000803e3d6000fd5b5050604080518781526020810187905280820185905290516001600160a01b03861693508b92508c917ffc67e20caaffa015d51f696df8ea5c273ba269c69bdc2ec31c1334d01286eaa4919081900360600190a4505050505050505050565b600b54610a0b576040805162461bcd60e51b815260206004820152600d60248201526c456e642f646562742d7a65726f60981b604482015290519081900360640190fd5b6000818152600f602052604090205415610a6a576040805162461bcd60e51b815260206004820152601b60248201527a115b990bd99a5e0b5a5b1acb585b1c9958591e4b5919599a5b9959602a1b604482015290519081900360640190fd5b60015460408051636cb1c69b60e11b81526004810184905290516000926001600160a01b03169163d9638d369160248083019260a092919082900301818787803b158015610ab757600080fd5b505af1158015610acb573d6000803e3d6000fd5b505050506040513d60a0811015610ae157600080fd5b506020908101516000848152600e9092526040822054909250610b1c90610b089084612521565b6000858152600c6020526040902054612521565b9050676765c793fa10079d601b1b600b5481610b3457fe5b04610b66610b5583600d600088815260200190815260200160002054612548565b676765c793fa10079d601b1b612558565b81610b6d57fe5b6000858152600f6020526040808220939092049092555184917f8d1d5ae676a6db1f6f14414f8a6c78941bbfb700fe3f3be6d3245f26c2f2d55091a2505050565b6005546001600160a01b031681565b6000828152600c6020526040902054610c0b576040805162461bcd60e51b815260206004820152601760248201526000805160206125ab833981519152604482015290519081900360640190fd5b60025460408051636cb1c69b60e11b81526004810185905290516000926001600160a01b03169163d9638d3691602480830192606092919082900301818787803b158015610c5857600080fd5b505af1158015610c6c573d6000803e3d6000fd5b505050506040513d6060811015610c8257600080fd5b505160015460408051636cb1c69b60e11b815260048101879052905192935083926000926001600160a01b03169163d9638d369160248083019260a092919082900301818787803b158015610cd657600080fd5b505af1158015610cea573d6000803e3d6000fd5b505050506040513d60a0811015610d0057600080fd5b506020015160408051634423c5f160e01b81526004810187905290519192506000918291829182916001600160a01b03881691634423c5f19160248082019261010092909190829003018186803b158015610d5a57600080fd5b505afa158015610d6e573d6000803e3d6000fd5b505050506040513d610100811015610d8557600080fd5b508051602082015160a083015160e090930151600154600480546040805163f24e23eb60e01b81526001600160a01b0392831693810184905260248101939093526044830185905251959a50939850949650909450169163f24e23eb91606480830192600092919082900301818387803b158015610e0257600080fd5b505af1158015610e16573d6000803e3d6000fd5b5050600154600480546040805163f24e23eb60e01b81526001600160a01b0392831693810193909352306024840152604483018a9052519216935063f24e23eb925060648082019260009290919082900301818387803b158015610e7957600080fd5b505af1158015610e8d573d6000803e3d6000fd5b5050600154604080516328ec8bf160e21b81526001600160a01b038b81166004830152915191909216935063a3b22fc49250602480830192600092919082900301818387803b158015610edf57600080fd5b505af1158015610ef3573d6000803e3d6000fd5b50505050856001600160a01b03166326e027f1896040518263ffffffff1660e01b815260040180828152602001915050600060405180830381600087803b158015610f3d57600080fd5b505af1158015610f51573d6000803e3d6000fd5b505050506000858281610f6057fe5b60008c8152600e60205260409020549190049150610f7e908261250b565b60008b8152600e60205260408120919091558412801590610fa0575060008112155b610fe0576040805162461bcd60e51b815260206004820152600c60248201526b456e642f6f766572666c6f7760a01b604482015290519081900360640190fd5b60015460048054604080516301eeacfd60e61b81529283018e90526001600160a01b03878116602485015230604485015291821660648401526084830188905260a4830185905251921691637bab3f409160c48082019260009290919082900301818387803b15801561105257600080fd5b505af1158015611066573d6000803e3d6000fd5b5050604080518581526020810188905280820185905290516001600160a01b03871693508c92508d917fbfa2310a8897203a59922debd0db38279196d8de5050df84608e2bb3e7790f69919081900360600190a450505050505050505050565b6008541561110c576040805162461bcd60e51b815260206004820152600e60248201526d456e642f7374696c6c2d6c69766560901b604482015290519081900360640190fd5b600b5415611155576040805162461bcd60e51b8152602060048201526011602482015270456e642f646562742d6e6f742d7a65726f60781b604482015290519081900360640190fd5b6001546004805460408051631f22ae0d60e01b81526001600160a01b039283169381019390935251921691631f22ae0d91602480820192602092909190829003018186803b1580156111a657600080fd5b505afa1580156111ba573d6000803e3d6000fd5b505050506040513d60208110156111d057600080fd5b50511561121b576040805162461bcd60e51b8152602060048201526014602482015273456e642f737572706c75732d6e6f742d7a65726f60601b604482015290519081900360640190fd5b611229600954600a5461250b565b421015611275576040805162461bcd60e51b8152602060048201526015602482015274115b990bddd85a5d0b5b9bdd0b599a5b9a5cda1959605a1b604482015290519081900360640190fd5b60015460408051630dca59c160e01b8152905161135f926001600160a01b031691630dca59c19160048083019260209291908290030181600087803b1580156112bd57600080fd5b505af11580156112d1573d6000803e3d6000fd5b505050506040513d60208110156112e757600080fd5b5051600754604080516353d700e560e01b815290516001600160a01b03909216916353d700e591600480820192602092909190829003018186803b15801561132e57600080fd5b505afa158015611342573d6000803e3d6000fd5b505050506040513d602081101561135857600080fd5b5051612548565b600b556040517f4df15159e645ba7d02cadde0bc937abef5ad0134623c00de50a31750b85978b990600090a1565b6004546001600160a01b031681565b600f6020526000908152604090205481565b600a5481565b6001600160a01b03811660008181526020819052604080822060019055517fdd0e34038ac38b2a1ce960229778ac48a8719bc900b6c4f8d0475c6e8b385a609190a250565b60085460011461143f576040805162461bcd60e51b815260206004820152600c60248201526b456e642f6e6f742d6c69766560a01b604482015290519081900360640190fd5b600060088190554260095560015460408051636924500960e01b815290516001600160a01b039092169263692450099260048084019382900301818387803b15801561148a57600080fd5b505af115801561149e573d6000803e3d6000fd5b50505050600260009054906101000a90046001600160a01b03166001600160a01b031663692450096040518163ffffffff1660e01b8152600401600060405180830381600087803b1580156114f257600080fd5b505af1158015611506573d6000803e3d6000fd5b50505050600360009054906101000a90046001600160a01b03166001600160a01b031663692450096040518163ffffffff1660e01b8152600401600060405180830381600087803b15801561155a57600080fd5b505af115801561156e573d6000803e3d6000fd5b50506004805460408051636924500960e01b815290516001600160a01b03909216945063692450099350808301926000929182900301818387803b1580156115b557600080fd5b505af11580156115c9573d6000803e3d6000fd5b50505050600660009054906101000a90046001600160a01b03166001600160a01b031663692450096040518163ffffffff1660e01b8152600401600060405180830381600087803b15801561161d57600080fd5b505af1158015611631573d6000803e3d6000fd5b50505050600560009054906101000a90046001600160a01b03166001600160a01b031663692450096040518163ffffffff1660e01b8152600401600060405180830381600087803b15801561168557600080fd5b505af1158015611699573d6000803e3d6000fd5b50505050600760009054906101000a90046001600160a01b03166001600160a01b031663692450096040518163ffffffff1660e01b8152600401600060405180830381600087803b1580156116ed57600080fd5b505af1158015611701573d6000803e3d6000fd5b50506040517f2308ed18a14e800c39b86eb6ea43270105955ca385b603b64eca89f98ae8fbda925060009150a1565b600b54611774576040805162461bcd60e51b815260206004820152600d60248201526c456e642f646562742d7a65726f60981b604482015290519081900360640190fd5b6001546004546001600160a01b039182169163bb35783b913391166117a485676765c793fa10079d601b1b612558565b6040518463ffffffff1660e01b815260040180846001600160a01b03168152602001836001600160a01b031681526020018281526020019350505050600060405180830381600087803b1580156117fa57600080fd5b505af115801561180e573d6000803e3d6000fd5b50503360009081526010602052604090205461182d925090508261250b565b33600081815260106020908152604091829020939093558051848152905191927f47a981d8cbc0f6df64c9be4ce0a423071a088bd46c549bbd11a4d566e031fe0c92918290030190a250565b6006546001600160a01b031681565b6007546001600160a01b031681565b6000828152600c60205260409020546118e5576040805162461bcd60e51b815260206004820152601760248201526000805160206125ab833981519152604482015290519081900360640190fd5b60015460408051636cb1c69b60e11b81526004810185905290516000926001600160a01b03169163d9638d369160248083019260a092919082900301818787803b15801561193257600080fd5b505af1158015611946573d6000803e3d6000fd5b505050506040513d60a081101561195c57600080fd5b5060200151600154604080516309092f9760e21b8152600481018790526001600160a01b038681166024830152825194955060009485949190911692632424be5c926044808201939182900301818787803b1580156119ba57600080fd5b505af11580156119ce573d6000803e3d6000fd5b505050506040513d60408110156119e457600080fd5b50805160209091015190925090506000611a15611a018386612521565b6000888152600c6020526040902054612521565b90506000611a23848361257c565b6000888152600d6020526040902054909150611a4890611a438484612548565b61250b565b6000888152600d6020526040902055600160ff1b8111801590611a6f5750600160ff1b8311155b611aaf576040805162461bcd60e51b815260206004820152600c60248201526b456e642f6f766572666c6f7760a01b604482015290519081900360640190fd5b60015460048054604080516301eeacfd60e61b81529283018b90526001600160a01b038a8116602485015230604485015291821660648401526000858103608485015287810360a485015290519190931692637bab3f409260c4808201939182900301818387803b158015611b2357600080fd5b505af1158015611b37573d6000803e3d6000fd5b50505050856001600160a01b0316877fa05b7b56166c25efbac063da905f9ea6aa1dc5101f95b43c7a838aace979ab598386604051808381526020018281526020019250505060405180910390a350505050505050565b60106020526000908152604090205481565b60085481565b6001600160a01b038116600081815260208190526040808220829055517f184450df2e323acec0ed3b5c7531b81f9b4cdef7914dfd4c0a4317416bb5251b9190a250565b60006020819052908152604090205481565b6003546001600160a01b031681565b60085415611c51576040805162461bcd60e51b815260206004820152600e60248201526d456e642f7374696c6c2d6c69766560901b604482015290519081900360640190fd5b600154604080516309092f9760e21b815260048101849052336024820152815160009384936001600160a01b0390911692632424be5c926044808301939282900301818787803b158015611ca457600080fd5b505af1158015611cb8573d6000803e3d6000fd5b505050506040513d6040811015611cce57600080fd5b50805160209091015190925090508015611d22576040805162461bcd60e51b815260206004820152601060248201526f456e642f6172742d6e6f742d7a65726f60801b604482015290519081900360640190fd5b600160ff1b821115611d6a576040805162461bcd60e51b815260206004820152600c60248201526b456e642f6f766572666c6f7760a01b604482015290519081900360640190fd5b60015460048054604080516301eeacfd60e61b8152928301879052336024840181905260448401526001600160a01b0391821660648401526000868103608485015260a4840181905290519190931692637bab3f409260c4808201939182900301818387803b158015611ddc57600080fd5b505af1158015611df0573d6000803e3d6000fd5b50506040805185815290513393508692507ff26f2b994a5e16f0960958e62541681f9e3e84d4caac2e487d25e0c75243f0d89181900360200190a3505050565b601160209081526000928352604080842090915290825290205481565b600854600114611e93576040805162461bcd60e51b815260206004820152600c60248201526b456e642f6e6f742d6c69766560a01b604482015290519081900360640190fd5b81621d985d60ea1b1415611ec157600180546001600160a01b0319166001600160a01b038316179055611fd3565b816218d85d60ea1b1415611eef57600280546001600160a01b0319166001600160a01b038316179055611fd3565b8162646f6760e81b1415611f1d57600380546001600160a01b0319166001600160a01b038316179055611fd3565b8162766f7760e81b1415611f4b57600480546001600160a01b0319166001600160a01b038316179055611fd3565b81621c1bdd60ea1b1415611f7957600580546001600160a01b0319166001600160a01b038316179055611fd3565b81631cdc1bdd60e21b1415611fa857600680546001600160a01b0319166001600160a01b038316179055611fd3565b81636375726560e01b141561051257600780546001600160a01b0319166001600160a01b0383161790555b604080516001600160a01b0383168152905183917f8fef588b5fc1afbf5b2f06c1a435d513f208da2e6704c3d8f0e0ec91167066ba919081900360200190a25050565b600e6020526000908152604090205481565b6008541561206e576040805162461bcd60e51b815260206004820152600e60248201526d456e642f7374696c6c2d6c69766560901b604482015290519081900360640190fd5b6000818152600c6020526040902054156120cd576040805162461bcd60e51b815260206004820152601b60248201527a115b990bdd1859cb5a5b1acb585b1c9958591e4b5919599a5b9959602a1b604482015290519081900360640190fd5b60015460408051636cb1c69b60e11b81526004810184905290516001600160a01b039092169163d9638d369160248082019260a0929091908290030181600087803b15801561211b57600080fd5b505af115801561212f573d6000803e3d6000fd5b505050506040513d60a081101561214557600080fd5b50516000828152600e6020526040808220929092556006548251636cb1c69b60e11b815260048101859052835192936001600160a01b039092169263d9638d3692602480840193919291829003018186803b1580156121a357600080fd5b505afa1580156121b7573d6000803e3d6000fd5b505050506040513d60408110156121cd57600080fd5b50516006546040805163495d32cb60e01b815290519293506122b8926001600160a01b039092169163495d32cb91600480820192602092909190829003018186803b15801561221b57600080fd5b505afa15801561222f573d6000803e3d6000fd5b505050506040513d602081101561224557600080fd5b5051604080516315f789a960e21b815290516001600160a01b038516916357de26a4916004808301926020929190829003018186803b15801561228757600080fd5b505afa15801561229b573d6000803e3d6000fd5b505050506040513d60208110156122b157600080fd5b5051612595565b6000838152600c602052604080822092909255905183917f4a9efa0a0e3f548761a6924fe06ac5cb94ecdbc08b10d855bbcc04e37c4910db91a25050565b60095481565b6002546001600160a01b031681565b600d6020526000908152604090205481565b600c6020526000908152604090205481565b6000828152600f6020526040902054612389576040805162461bcd60e51b8152602060048201526017602482015276115b990bd99a5e0b5a5b1acb5b9bdd0b5919599a5b9959604a1b604482015290519081900360640190fd5b6001546000838152600f60205260409020546001600160a01b0390911690636111be2e908490309033906123be908790612521565b6040518563ffffffff1660e01b815260040180858152602001846001600160a01b03168152602001836001600160a01b03168152602001828152602001945050505050600060405180830381600087803b15801561241b57600080fd5b505af115801561242f573d6000803e3d6000fd5b505050600083815260116020908152604080832033845290915290205461245791508261250b565b60008381526011602090815260408083203384528083528184208590556010835292205491905210156124d0576040805162461bcd60e51b815260206004820152601c60248201527b456e642f696e73756666696369656e742d6261672d62616c616e636560201b604482015290519081900360640190fd5b604080518281529051339184917f888c7c01b06fd8004523e2bc9a274be1feaa9f03579ae5f568061dac078793c99181900360200190a35050565b8181018281101561251b57600080fd5b92915050565b6000676765c793fa10079d601b1b6125398484612558565b8161254057fe5b049392505050565b8082038281111561251b57600080fd5b60008115806125735750508082028282828161257057fe5b04145b61251b57600080fd5b60008183111561258c578161258e565b825b9392505050565b60008161253984670de0b6b3a764000061255856fe456e642f7461672d696c6b2d6e6f742d646566696e6564000000000000000000a26469706673582212203546b0a65890ef5fca8237e5d92bf131934f261e7f402b97d279a8aecb553cc464736f6c634300060c0033a2646970667358221220c3e6eb6413d2cbad76f917606d752ac09068bf9b8807bca9337cdcdb379143c364736f6c634300060c0033608060405234801561001057600080fd5b506110ce806100206000396000f3fe608060405234801561001057600080fd5b506004361061002b5760003560e01c8063429baf6814610030575b600080fd5b61006c6004803603608081101561004657600080fd5b506001600160a01b03813581169160208101358216916040820135169060600135610088565b604080516001600160a01b039092168252519081900360200190f35b60008484848460405161009a906100fa565b80856001600160a01b03168152602001846001600160a01b03168152602001836001600160a01b03168152602001828152602001945050505050604051809103906000f0801580156100f0573d6000803e3d6000fd5b5095945050505050565b610f91806101088339019056fe60c060405234801561001057600080fd5b50604051610f91380380610f918339818101604052608081101561003357600080fd5b50805160208083015160408085015160609586015185871b6001600160601b0319908116608052600480546001600160a01b0319166001600160a01b0387161790559682901b90961660a052600386905560016005819055336000818152958690528386209190915591519495929490937fdd0e34038ac38b2a1ce960229778ac48a8719bc900b6c4f8d0475c6e8b385a6091a25050505060805160601c60a05160601c610e7a610117600039806105ae528061062f528061068152806109825280610a355280610dd7525080610415528061081a5280610c275250610e7a6000f3fe608060405234801561001057600080fd5b50600436106100e65760003560e01c8063049878f3146100eb5780630715940e1461010a57806314c7bbd51461013057806329ae81141461014c57806337be827d1461016f57806344df8e7014610189578063457094cc1461019157806365fae35e1461019957806369245009146101bf5780637bd2bea7146101c75780637e459c60146101eb578063957aa58c146102115780639c52a7f114610219578063bf353dbb1461023f578063d4e8be8314610265578063ec55688914610291578063efbe1c1c14610299578063f8897945146102a1575b600080fd5b6101086004803603602081101561010157600080fd5b50356102a9565b005b6101086004803603602081101561012057600080fd5b50356001600160a01b0316610509565b61013861067f565b604080519115158252519081900360200190f35b6101086004803603604081101561016257600080fd5b50803590602001356106ae565b6101776107f4565b60408051918252519081900360200190f35b6101086107fa565b6101086108ec565b610108600480360360208110156101af57600080fd5b50356001600160a01b0316610b27565b610108610bc5565b6101cf610c25565b604080516001600160a01b039092168252519081900360200190f35b6101776004803603602081101561020157600080fd5b50356001600160a01b0316610c49565b610177610c5b565b6101086004803603602081101561022f57600080fd5b50356001600160a01b0316610c61565b6101776004803603602081101561025557600080fd5b50356001600160a01b0316610cfe565b6101086004803603604081101561027b57600080fd5b50803590602001356001600160a01b0316610d10565b6101cf610dd5565b6101cf610df9565b610177610e08565b6005546001146102ee576040805162461bcd60e51b81526020600482015260186024820152600080516020610e25833981519152604482015290519081900360640190fd5b600480546040805163255ea96360e21b815290516001600160a01b039092169263957aa58c928282019260209290829003018186803b15801561033057600080fd5b505afa158015610344573d6000803e3d6000fd5b505050506040513d602081101561035a57600080fd5b50516001146103ae576040805162461bcd60e51b815260206004820152601b60248201527a22a9a697b9bcb9ba32b696b0b63932b0b23c96b9b43aba3237bbb760291b604482015290519081900360640190fd5b336000908152600160205260409020546103c89082610e0e565b336000908152600160205260409020556002546103e59082610e0e565b600255604080516323b872dd60e01b81523360048201523060248201526044810183905290516001600160a01b037f000000000000000000000000000000000000000000000000000000000000000016916323b872dd9160648083019260209291908290030181600087803b15801561045d57600080fd5b505af1158015610471573d6000803e3d6000fd5b505050506040513d602081101561048757600080fd5b50516104d0576040805162461bcd60e51b81526020600482015260136024820152721154d34bdd1c985b9cd9995c8b59985a5b1959606a1b604482015290519081900360640190fd5b60408051828152905133917fb4e09949657f21548b58afe74e7b86cd2295da5ff1598ae1e5faecb1cf19ca95919081900360200190a250565b60055460011461054e576040805162461bcd60e51b81526020600482015260186024820152600080516020610e25833981519152604482015290519081900360640190fd5b600354600254101561059d576040805162461bcd60e51b81526020600482015260136024820152721154d34bdb5a5b8b5b9bdd0b5c995858da1959606a1b604482015290519081900360640190fd5b806001600160a01b0316639c52a7f17f00000000000000000000000000000000000000000000000000000000000000006040518263ffffffff1660e01b815260040180826001600160a01b03168152602001915050600060405180830381600087803b15801561060c57600080fd5b505af1158015610620573d6000803e3d6000fd5b50506040516001600160a01b037f000000000000000000000000000000000000000000000000000000000000000081169350841691507f74269424d52f84560e5738dd2769b61b0e04d5c87c87ca043a1e005e0722a67890600090a350565b7f00000000000000000000000000000000000000000000000000000000000000006001600160a01b0316151590565b33600090815260208190526040902054600114610707576040805162461bcd60e51b81526020600482015260126024820152711154d34bdb9bdd0b585d5d1a1bdc9a5e995960721b604482015290519081900360640190fd5b816236b4b760e91b141561076f57670de0b6b3a76400008111610765576040805162461bcd60e51b81526020600482015260116024820152701154d34bdb5a5b8b5d1bdbcb5cdb585b1b607a1b604482015290519081900360640190fd5b60038190556107ba565b6040805162461bcd60e51b815260206004820152601b60248201527a45534d2f66696c652d756e7265636f676e697a65642d706172616d60281b604482015290519081900360640190fd5b60408051828152905183917fe986e40cc8c151830d4f61050f4fb2e4add8567caad2d5f5496f9158e91fe4c7919081900360200190a25050565b60025481565b604080516370a0823160e01b815230600482015290516001600160a01b037f000000000000000000000000000000000000000000000000000000000000000016916342966c689183916370a08231916024808301926020929190829003018186803b15801561086857600080fd5b505afa15801561087c573d6000803e3d6000fd5b505050506040513d602081101561089257600080fd5b5051604080516001600160e01b031960e085901b168152600481019290925251602480830192600092919082900301818387803b1580156108d257600080fd5b505af11580156108e6573d6000803e3d6000fd5b50505050565b600554600114610931576040805162461bcd60e51b81526020600482015260186024820152600080516020610e25833981519152604482015290519081900360640190fd5b6003546002541015610980576040805162461bcd60e51b81526020600482015260136024820152721154d34bdb5a5b8b5b9bdd0b5c995858da1959606a1b604482015290519081900360640190fd5b7f00000000000000000000000000000000000000000000000000000000000000006001600160a01b031615610aa15760048054604080516336569e7760e01b815290516001600160a01b03909216926336569e77928282019260209290829003018186803b1580156109f157600080fd5b505afa158015610a05573d6000803e3d6000fd5b505050506040513d6020811015610a1b57600080fd5b505160408051639c52a7f160e01b81526001600160a01b037f00000000000000000000000000000000000000000000000000000000000000008116600483015291519190921691639c52a7f191602480830192600092919082900301818387803b158015610a8857600080fd5b505af1158015610a9c573d6000803e3d6000fd5b505050505b6004805460408051636924500960e01b815290516001600160a01b0390921692636924500992828201926000929082900301818387803b158015610ae457600080fd5b505af1158015610af8573d6000803e3d6000fd5b50506040517f14c539ef1ff6ef515371448cd46419fd75ebb8698b7f6644c4f66b03b0327085925060009150a1565b33600090815260208190526040902054600114610b80576040805162461bcd60e51b81526020600482015260126024820152711154d34bdb9bdd0b585d5d1a1bdc9a5e995960721b604482015290519081900360640190fd5b6001600160a01b03811660008181526020819052604080822060019055517fdd0e34038ac38b2a1ce960229778ac48a8719bc900b6c4f8d0475c6e8b385a609190a250565b33600090815260208190526040902054600114610c1e576040805162461bcd60e51b81526020600482015260126024820152711154d34bdb9bdd0b585d5d1a1bdc9a5e995960721b604482015290519081900360640190fd5b6000600555565b7f000000000000000000000000000000000000000000000000000000000000000081565b60016020526000908152604090205481565b60055481565b33600090815260208190526040902054600114610cba576040805162461bcd60e51b81526020600482015260126024820152711154d34bdb9bdd0b585d5d1a1bdc9a5e995960721b604482015290519081900360640190fd5b6001600160a01b038116600081815260208190526040808220829055517f184450df2e323acec0ed3b5c7531b81f9b4cdef7914dfd4c0a4317416bb5251b9190a250565b60006020819052908152604090205481565b33600090815260208190526040902054600114610d69576040805162461bcd60e51b81526020600482015260126024820152711154d34bdb9bdd0b585d5d1a1bdc9a5e995960721b604482015290519081900360640190fd5b8162195b9960ea1b141561076f57600480546001600160a01b0319166001600160a01b038316179055604080516001600160a01b0383168152905183917f8fef588b5fc1afbf5b2f06c1a435d513f208da2e6704c3d8f0e0ec91167066ba919081900360200190a25050565b7f000000000000000000000000000000000000000000000000000000000000000081565b6004546001600160a01b031681565b60035481565b81810182811015610e1e57600080fd5b9291505056fe45534d2f7065726d616e656e746c792d64697361626c65640000000000000000a2646970667358221220d5d6a402ea49ec99f354aa455bcf91553a7d2793597680126ae57f07ad2a426f64736f6c634300060c0033a264697066735822122016133350fa8fb961256cf5d7453c4563738318f3c43586d6193f97250df12c4464736f6c634300060c0033608060405234801561001057600080fd5b506110e8806100206000396000f3fe608060405234801561001057600080fd5b506004361061002b5760003560e01c80634f2ff4a614610030575b600080fd5b6100646004803603606081101561004657600080fd5b508035906001600160a01b0360208201358116916040013516610080565b604080516001600160a01b039092168252519081900360200190f35b6000838383604051610091906100d5565b9283526001600160a01b039182166020840152166040808301919091525190819003606001906000f0801580156100cc573d6000803e3d6000fd5b50949350505050565b610fd0806100e38339019056fe608060405234801561001057600080fd5b50604051610fd0380380610fd08339818101604052606081101561003357600080fd5b50805160208201516040928301516004839055600180546001600160a01b038085166001600160a01b0319928316179092556000805492841692909116919091179055925191929091610085906100cb565b604051809103906000f0801580156100a1573d6000803e3d6000fd5b50600380546001600160a01b0319166001600160a01b0392909216919091179055506100d8915050565b6102fe80610cd283390190565b610beb806100e76000396000f3fe608060405234801561001057600080fd5b50600436106100995760003560e01c806313af40351461009e578063162c7de3146100c6578063168ccd671461018157806346d2fbbb146102b15780636a42b8f81461036c5780637a9e5e4b146103865780638da5cb5b146103ac578063aa4f2653146103d0578063bf7e214f14610401578063e177246e14610409578063ec55688914610426575b600080fd5b6100c4600480360360208110156100b457600080fd5b50356001600160a01b031661042e565b005b6100c4600480360360808110156100dc57600080fd5b6001600160a01b0382351691602081013591810190606081016040820135600160201b81111561010b57600080fd5b82018360208201111561011d57600080fd5b803590602001918460018302840111600160201b8311171561013e57600080fd5b91908080601f01602080910402602001604051908101604052809392919081815260200183838082843760009201919091525092955050913592506104cb915050565b61023c6004803603608081101561019757600080fd5b6001600160a01b0382351691602081013591810190606081016040820135600160201b8111156101c657600080fd5b8201836020820111156101d857600080fd5b803590602001918460018302840111600160201b831117156101f957600080fd5b91908080601f0160208091040260200160405190810160405280939291908181526020018383808284376000920191909152509295505091359250610502915050565b6040805160208082528351818301528351919283929083019185019080838360005b8381101561027657818101518382015260200161025e565b50505050905090810190601f1680156102a35780820380516001836020036101000a031916815260200191505b509250505060405180910390f35b6100c4600480360360808110156102c757600080fd5b6001600160a01b0382351691602081013591810190606081016040820135600160201b8111156102f657600080fd5b82018360208201111561030857600080fd5b803590602001918460018302840111600160201b8311171561032957600080fd5b91908080601f01602080910402602001604051908101604052809392919081815260200183838082843760009201919091525092955050913592506108dc915050565b61037461094d565b60408051918252519081900360200190f35b6100c46004803603602081101561039c57600080fd5b50356001600160a01b0316610953565b6103b46109ec565b604080516001600160a01b039092168252519081900360200190f35b6103ed600480360360208110156103e657600080fd5b50356109fb565b604080519115158252519081900360200190f35b6103b4610a10565b6100c46004803603602081101561041f57600080fd5b5035610a1f565b6103b4610a71565b6003546001600160a01b0316331461047b576040805162461bcd60e51b81526020600482015260176024820152600080516020610b96833981519152604482015290519081900360640190fd5b600180546001600160a01b0319166001600160a01b0383811691909117918290556040519116907fce241d7ca1f669fee44b6fc00b8eba2df3bb514eed0f6f668f8f89096e81ed9490600090a250565b6000600260006104dd87878787610a80565b81526020810191909152604001600020805460ff191691151591909117905550505050565b60606002600061051487878787610a80565b815260208101919091526040016000205460ff16610573576040805162461bcd60e51b8152602060048201526017602482015276323996b830bab9b296bab7383637ba3a32b216b83630b760491b604482015290519081900360640190fd5b8361057d86610b36565b146105c9576040805162461bcd60e51b81526020600482015260176024820152760c8e65ae0c2eae6ca5aeee4dedcce5ac6dec8cad0c2e6d604b1b604482015290519081900360640190fd5b81421015610618576040805162461bcd60e51b815260206004820152601760248201527664732d70617573652d7072656d61747572652d6578656360481b604482015290519081900360640190fd5b60006002600061062a88888888610a80565b815260200190815260200160002060006101000a81548160ff021916908315150217905550600360009054906101000a90046001600160a01b03166001600160a01b031663be6002c286856040518363ffffffff1660e01b815260040180836001600160a01b0316815260200180602001828103825283818151815260200191508051906020019080838360005b838110156106d05781810151838201526020016106b8565b50505050905090810190601f1680156106fd5780820380516001836020036101000a031916815260200191505b509350505050600060405180830381600087803b15801561071d57600080fd5b505af1158015610731573d6000803e3d6000fd5b505050506040513d6000823e601f3d908101601f19168201604052602081101561075a57600080fd5b8101908080516040519392919084600160201b82111561077957600080fd5b90830190602082018581111561078e57600080fd5b8251600160201b8111828201881017156107a757600080fd5b82525081516020918201929091019080838360005b838110156107d45781810151838201526020016107bc565b50505050905090810190601f1680156108015780820380516001836020036101000a031916815260200191505b506040818152600354638da5cb5b60e01b8352905195965030956001600160a01b039091169450638da5cb5b935060048083019350602092829003018186803b15801561084d57600080fd5b505afa158015610861573d6000803e3d6000fd5b505050506040513d602081101561087757600080fd5b50516001600160a01b0316146108d4576040805162461bcd60e51b815260206004820152601f60248201527f64732d70617573652d696c6c6567616c2d73746f726167652d6368616e676500604482015290519081900360640190fd5b949350505050565b6108e842600454610b3a565b81101561093b576040805162461bcd60e51b815260206004820152601c60248201527b191ccb5c185d5cd94b59195b185e4b5b9bdd0b5c995cdc1958dd195960221b604482015290519081900360640190fd5b6001600260006104dd87878787610a80565b60045481565b6003546001600160a01b031633146109a0576040805162461bcd60e51b81526020600482015260176024820152600080516020610b96833981519152604482015290519081900360640190fd5b600080546001600160a01b0319166001600160a01b03838116919091178083556040519116917f1abebea81bfa2637f28358c371278fb15ede7ea8dd28d2e03b112ff6d936ada491a250565b6001546001600160a01b031681565b60026020526000908152604090205460ff1681565b6000546001600160a01b031681565b6003546001600160a01b03163314610a6c576040805162461bcd60e51b81526020600482015260176024820152600080516020610b96833981519152604482015290519081900360640190fd5b600455565b6003546001600160a01b031681565b60008484848460405160200180856001600160a01b0316815260200184815260200180602001838152602001828103825284818151815260200191508051906020019080838360005b83811015610ae1578181015183820152602001610ac9565b50505050905090810190601f168015610b0e5780820380516001836020036101000a031916815260200191505b5095505050505050604051602081830303815290604052805190602001209050949350505050565b3f90565b81810182811015610b8f576040805162461bcd60e51b815260206004820152601a60248201527964732d70617573652d6164646974696f6e2d6f766572666c6f7760301b604482015290519081900360640190fd5b9291505056fe64732d70617573652d756e64656c617965642d63616c6c000000000000000000a2646970667358221220bdae96785f27c2672c7fe8125dc7d5b5a126b50ca579b700c09928d7d2b2babe64736f6c634300060c0033608060405234801561001057600080fd5b50600080546001600160a01b031916331790556102cc806100326000396000f3fe608060405234801561001057600080fd5b50600436106100365760003560e01c80638da5cb5b1461003b578063be6002c21461005f575b600080fd5b610043610188565b604080516001600160a01b039092168252519081900360200190f35b6101136004803603604081101561007557600080fd5b6001600160a01b038235169190810190604081016020820135600160201b81111561009f57600080fd5b8201836020820111156100b157600080fd5b803590602001918460018302840111600160201b831117156100d257600080fd5b91908080601f016020809104026020016040519081016040528093929190818152602001838380828437600092019190915250929550610197945050505050565b6040805160208082528351818301528351919283929083019185019080838360005b8381101561014d578181015183820152602001610135565b50505050905090810190601f16801561017a5780820380516001836020036101000a031916815260200191505b509250505060405180910390f35b6000546001600160a01b031681565b60606000836001600160a01b0316836040518082805190602001908083835b602083106101d55780518252601f1990920191602091820191016101b6565b6001836020036101000a038019825116818451168082178552505050505050905001915050600060405180830381855af49150503d8060008114610235576040519150601f19603f3d011682016040523d82523d6000602084013e61023a565b606091505b50925090508061028f576040805162461bcd60e51b815260206004820152601b60248201527a323996b830bab9b296b232b632b3b0ba32b1b0b63616b2b93937b960291b604482015290519081900360640190fd5b509291505056fea2646970667358221220634a6e965b96371d9d4a4bd5bb7a5d658937748f7548b47d2405530ae294a37d64736f6c634300060c0033a2646970667358221220815b8a2bd4098e6aa3fef26109456cc0d4f5d197176d55fd82c95dee88dd2d3b64736f6c634300060c0033a2646970667358221220453b7a1a510fd74a8758a34da858c43827e86a1dd0c0d300949f7af3edaa312664736f6c634300060c0033",
  "linkReferences": {},
  "deployedLinkReferences": {}
}