{
  "_format": "hh-sol-artifact-1",
  "contractName": "DssDeployBaseD",
  "sourceName": "contracts/DssDeployBase.sol",
  "abi": [
    {
      "inputs": [
        {
          "internalType": "address",
          "name": "dssdeploy",
          "type": "address"
        }
      ],
      "name": "setUp",
      "outputs": [],
      "stateMutability": "nonpayable",
      "type": "function"
    }
  ],
  "bytecode": "0x608060405234801561001057600080fd5b50614787806100206000396000f3fe608060405234801561001057600080fd5b506004361061002b5760003560e01c80633f2601ef14610030575b600080fd5b6100566004803603602081101561004657600080fd5b50356001600160a01b0316610058565b005b604051610064906101a2565b604051809103906000f080158015610080573d6000803e3d6000fd5b50600080546001600160a01b0319166001600160a01b03929092169190911790556040516100ad906101af565b604051809103906000f0801580156100c9573d6000803e3d6000fd5b50600180546001600160a01b0319166001600160a01b03929092169190911790556040516100f6906101bc565b604051809103906000f080158015610112573d6000803e3d6000fd5b50600280546001600160a01b0319166001600160a01b0392831617908190556000805460015460408051633d14fad760e11b8152928616600484015290851660248301529284166044820152915192841692637a29f5ae92606480820193929182900301818387803b15801561018757600080fd5b505af115801561019b573d6000803e3d6000fd5b5050505050565b611534806101ca83390190565b6114e7806116fe83390190565b611b6d80612be58339019056fe608060405234801561001057600080fd5b50611514806100206000396000f3fe608060405234801561001057600080fd5b506004361061002b5760003560e01c80639009c99214610030575b600080fd5b6100686004803603606081101561004657600080fd5b506001600160a01b038135811691602081013582169160409091013516610084565b604080516001600160a01b039092168252519081900360200190f35b6000828260405161009490610138565b6001600160a01b03928316815291166020820152604080519182900301906000f0801580156100c7573d6000803e3d6000fd5b509050806001600160a01b03166365fae35e856040518263ffffffff1660e01b815260040180826001600160a01b03168152602001915050600060405180830381600087803b15801561011957600080fd5b505af115801561012d573d6000803e3d6000fd5b505050509392505050565b611399806101468339019056fe6080604052670e92596fd629000060045560058054612a3065ffffffffffff199091161765ffffffffffff60301b19166802a300000000000000179055600060065534801561004d57600080fd5b506040516113993803806113998339818101604052604081101561007057600080fd5b508051602091820151336000908152928390526040909220600190819055600280546001600160a01b039384166001600160a01b03199182161790915560038054939094169216919091179091556007556112c9806100d06000396000f3fe608060405234801561001057600080fd5b50600436106100fc5760003560e01c806326d2addc1461010157806326e027f11461011b57806329ae81141461013a57806336569e771461015d5780634423c5f1146101815780634b43ed12146101dc5780634e8b1dd51461020557806365fae35e146102285780637bd2bea71461024e5780637d780d8214610256578063957aa58c1461025e5780639c52a7f114610266578063a2f91af21461028c578063bf353dbb146102a9578063c959c42b146102cf578063ca40c419146102ec578063cfc4af551461030f578063cfdd330214610317578063d9c55ce11461031f578063fc7b6aee14610327575b600080fd5b610109610344565b60408051918252519081900360200190f35b6101386004803603602081101561013157600080fd5b503561034a565b005b6101386004803603604081101561015057600080fd5b50803590602001356104c6565b6101656105de565b604080516001600160a01b039092168252519081900360200190f35b61019e6004803603602081101561019757600080fd5b50356105ed565b6040805195865260208601949094526001600160a01b039092168484015265ffffffffffff9081166060850152166080830152519081900360a00190f35b610138600480360360608110156101f257600080fd5b5080359060208101359060400135610631565b61020d610b10565b6040805165ffffffffffff9092168252519081900360200190f35b6101386004803603602081101561023e57600080fd5b50356001600160a01b0316610b1e565b610165610b3b565b610109610b4a565b610109610b50565b6101386004803603602081101561027c57600080fd5b50356001600160a01b0316610b56565b610138600480360360208110156102a257600080fd5b5035610b70565b610109600480360360208110156102bf57600080fd5b50356001600160a01b0316610c0e565b610138600480360360208110156102e557600080fd5b5035610c20565b6101096004803603604081101561030257600080fd5b5080359060200135610e82565b61020d6110b3565b6101096110c8565b6101096110ce565b6101386004803603602081101561033d57600080fd5b50356110d4565b60085481565b60075415610394576040805162461bcd60e51b8152602060048201526012602482015271466c61707065722f7374696c6c2d6c69766560701b604482015290519081900360640190fd5b6000818152600160205260409020600201546001600160a01b03166103f6576040805162461bcd60e51b8152602060048201526013602482015272119b185c1c195c8bd9dd5e4b5b9bdd0b5cd95d606a1b604482015290519081900360640190fd5b60035460008281526001602052604080822060028101549054825163bb35783b60e01b81523060048201526001600160a01b0392831660248201526044810191909152915193169263bb35783b9260648084019391929182900301818387803b15801561046257600080fd5b505af1158015610476573d6000803e3d6000fd5b50505060008281526001602081905260408083208381559182018390556002909101829055518392507f2c5d2826eb5903b8fc201cf48094b858f42f61c7eaac9aaf43ebed490138144e9190a250565b816262656760e81b14156104de5760048190556105a4565b81621d1d1b60ea1b141561050a576005805465ffffffffffff191665ffffffffffff83161790556105a4565b816274617560e81b141561053f576005805465ffffffffffff60301b1916600160301b65ffffffffffff8416021790556105a4565b81621b1a5960ea1b14156105575760088190556105a4565b6040805162461bcd60e51b815260206004820152601f60248201527f466c61707065722f66696c652d756e7265636f676e697a65642d706172616d00604482015290519081900360640190fd5b60408051828152905183917fe986e40cc8c151830d4f61050f4fb2e4add8567caad2d5f5496f9158e91fe4c7919081900360200190a25050565b6002546001600160a01b031681565b60016020819052600091825260409091208054918101546002909101546001600160a01b0381169065ffffffffffff600160a01b8204811691600160d01b90041685565b60075460011461067b576040805162461bcd60e51b815260206004820152601060248201526f466c61707065722f6e6f742d6c69766560801b604482015290519081900360640190fd5b6000838152600160205260409020600201546001600160a01b03166106dd576040805162461bcd60e51b8152602060048201526013602482015272119b185c1c195c8bd9dd5e4b5b9bdd0b5cd95d606a1b604482015290519081900360640190fd5b60008381526001602052604090206002015442600160a01b90910465ffffffffffff16118061072a5750600083815260016020526040902060020154600160a01b900465ffffffffffff16155b61077a576040805162461bcd60e51b815260206004820152601c60248201527b466c61707065722f616c72656164792d66696e69736865642d74696360201b604482015290519081900360640190fd5b60008381526001602052604090206002015442600160d01b90910465ffffffffffff16116107ee576040805162461bcd60e51b815260206004820152601c60248201527b119b185c1c195c8bd85b1c9958591e4b599a5b9a5cda19590b595b9960221b604482015290519081900360640190fd5b60008381526001602081905260409091200154821461084f576040805162461bcd60e51b8152602060048201526018602482015277466c61707065722f6c6f742d6e6f742d6d61746368696e6760401b604482015290519081900360640190fd5b60008381526001602052604090205481116108aa576040805162461bcd60e51b8152602060048201526016602482015275233630b83832b917b134b216b737ba16b434b3b432b960511b604482015290519081900360640190fd5b6004546000848152600160205260409020546108c6919061122e565b6108d882670de0b6b3a764000061122e565b101561092b576040805162461bcd60e51b815260206004820152601d60248201527f466c61707065722f696e73756666696369656e742d696e637265617365000000604482015290519081900360640190fd5b6000838152600160205260409020600201546001600160a01b031633146109f25760035460008481526001602052604080822060028101549054825163bb35783b60e01b81523360048201526001600160a01b0392831660248201526044810191909152915193169263bb35783b9260648084019391929182900301818387803b1580156109b857600080fd5b505af11580156109cc573d6000803e3d6000fd5b505050600084815260016020526040902060020180546001600160a01b03191633179055505b60035460008481526001602052604080822054815163bb35783b60e01b8152336004820152306024820152908503604482015290516001600160a01b039093169263bb35783b9260648084019391929182900301818387803b158015610a5757600080fd5b505af1158015610a6b573d6000803e3d6000fd5b505050600084815260016020526040902082905550600554610a9690429065ffffffffffff16611258565b600084815260016020908152604091829020600201805465ffffffffffff94909416600160a01b0265ffffffffffff60a01b19909416939093179092558051848152918201839052805185927fa679d55253c3ee26605ebe5dd2fb3b0194579ef2853099b5102c283a4e667ecd92908290030190a2505050565b60055465ffffffffffff1681565b6001600160a01b0316600090815260208190526040902060019055565b6003546001600160a01b031681565b60045481565b60075481565b6001600160a01b0316600090815260208190526040812055565b600060078190556002546040805163bb35783b60e01b81523060048201523360248201526044810185905290516001600160a01b039092169263bb35783b9260648084019382900301818387803b158015610bca57600080fd5b505af1158015610bde573d6000803e3d6000fd5b50506040517f2308ed18a14e800c39b86eb6ea43270105955ca385b603b64eca89f98ae8fbda925060009150a150565b60006020819052908152604090205481565b600754600114610c6a576040805162461bcd60e51b815260206004820152601060248201526f466c61707065722f6e6f742d6c69766560801b604482015290519081900360640190fd5b600081815260016020526040902060020154600160a01b900465ffffffffffff1615801590610ce3575060008181526001602052604090206002015442600160a01b90910465ffffffffffff161080610ce3575060008181526001602052604090206002015442600160d01b90910465ffffffffffff16105b610d2b576040805162461bcd60e51b8152602060048201526014602482015273119b185c1c195c8bdb9bdd0b599a5b9a5cda195960621b604482015290519081900360640190fd5b60008181526001602081905260408083209182015460028054930154825163bb35783b60e01b81523060048201526001600160a01b039182166024820152604481018390529251919493169263bb35783b926064808201939182900301818387803b158015610d9957600080fd5b505af1158015610dad573d6000803e3d6000fd5b5050600354600085815260016020526040808220548151632770a7eb60e21b8152306004820152602481019190915290516001600160a01b039093169450639dc29fac93506044808201939182900301818387803b158015610e0e57600080fd5b505af1158015610e22573d6000803e3d6000fd5b505050600083815260016020819052604082208281559081018290556002015550600954610e509082611273565b60095560405182907f71a76872b00dbc7728a966e65795cf08a847d5a061e6f9a666baaf3d601931db90600090a25050565b6000600754600114610ece576040805162461bcd60e51b815260206004820152601060248201526f466c61707065722f6e6f742d6c69766560801b604482015290519081900360640190fd5b60001960065410610f19576040805162461bcd60e51b815260206004820152601060248201526f466c61707065722f6f766572666c6f7760801b604482015290519081900360640190fd5b610f2560095484611283565b60098190556008541015610f73576040805162461bcd60e51b815260206004820152601060248201526f119b185c1c195c8bdbdd995c8b5b1a5960821b604482015290519081900360640190fd5b5060068054600190810191829055600082815260208290526040902083815590810184905560020180546001600160a01b03191633179055600554610fc990429065ffffffffffff600160301b90910416611258565b6000828152600160205260408082206002908101805465ffffffffffff95909516600160d01b026001600160d01b03909516949094179093559154825163bb35783b60e01b81523360048201523060248201526044810187905292516001600160a01b039091169263bb35783b92606480830193919282900301818387803b15801561105457600080fd5b505af1158015611068573d6000803e3d6000fd5b5050604080518481526020810187905280820186905290517fe6dde59cbc017becba89714a037778d234a84ce7f0a137487142a007e580d6099350908190036060019150a192915050565b600554600160301b900465ffffffffffff1681565b60065481565b60095481565b60008181526001602052604090206002015442600160d01b90910465ffffffffffff1610611140576040805162461bcd60e51b8152602060048201526014602482015273119b185c1c195c8bdb9bdd0b599a5b9a5cda195960621b604482015290519081900360640190fd5b600081815260016020526040902060020154600160a01b900465ffffffffffff16156111b0576040805162461bcd60e51b815260206004820152601a602482015279119b185c1c195c8bd89a590b585b1c9958591e4b5c1b1858d95960321b604482015290519081900360640190fd5b6005546111cd904290600160301b900465ffffffffffff16611258565b600082815260016020526040808220600201805465ffffffffffff94909416600160d01b026001600160d01b0390941693909317909255905182917fb8c95b3cea6303a753d912e243354ef08add1085ed07d34191514ef1001ef9d891a250565b60008115806112495750508082028282828161124657fe5b04145b61125257600080fd5b92915050565b80820165ffffffffffff808416908216101561125257600080fd5b8082038281111561125257600080fd5b8082018281101561125257600080fdfea2646970667358221220f1cf69ab8dc030f6d3c1b3cfacab98dac8a69b578d521203d00972a382c5248f64736f6c634300060c0033a264697066735822122014e416d27b6778598f93eb155d19834ed6b9c148c51a55aaacfd458a2e877dc764736f6c634300060c0033608060405234801561001057600080fd5b506114c7806100206000396000f3fe608060405234801561001057600080fd5b506004361061002b5760003560e01c806363028f3114610030575b600080fd5b6100686004803603606081101561004657600080fd5b506001600160a01b038135811691602081013582169160409091013516610084565b604080516001600160a01b039092168252519081900360200190f35b6000828260405161009490610138565b6001600160a01b03928316815291166020820152604080519182900301906000f0801580156100c7573d6000803e3d6000fd5b509050806001600160a01b03166365fae35e856040518263ffffffff1660e01b815260040180826001600160a01b03168152602001915050600060405180830381600087803b15801561011957600080fd5b505af115801561012d573d6000803e3d6000fd5b505050509392505050565b61134c806101468339019056fe6080604052670e92596fd62900006004556714d1120d7b16000060055560068054612a3065ffffffffffff199091161765ffffffffffff60301b19166802a300000000000000179055600060075534801561005957600080fd5b5060405161134c38038061134c8339818101604052604081101561007c57600080fd5b508051602091820151336000908152928390526040909220600190819055600280546001600160a01b039384166001600160a01b0319918216179091556003805493909416921691909117909155600855611270806100dc6000396000f3fe608060405234801561001057600080fd5b50600436106100fc5760003560e01c806326e027f11461010157806329ae81141461012057806336569e77146101435780634423c5f1146101675780634e8b1dd5146101c25780635ff3a382146101e5578063626cb3c51461020e57806365fae35e14610216578063692450091461023c5780637bd2bea7146102445780637d780d821461024c5780639361266c14610266578063957aa58c1461026e5780639c52a7f114610276578063b7e9cd241461029c578063bf353dbb146102ce578063c959c42b146102f4578063cfc4af5514610311578063cfdd330214610319578063fc7b6aee14610321575b600080fd5b61011e6004803603602081101561011757600080fd5b503561033e565b005b61011e6004803603604081101561013657600080fd5b50803590602001356104bc565b61014b6105d4565b604080516001600160a01b039092168252519081900360200190f35b6101846004803603602081101561017d57600080fd5b50356105e3565b6040805195865260208601949094526001600160a01b039092168484015265ffffffffffff9081166060850152166080830152519081900360a00190f35b6101ca610627565b6040805165ffffffffffff9092168252519081900360200190f35b61011e600480360360608110156101fb57600080fd5b5080359060208101359060400135610635565b61014b610bba565b61011e6004803603602081101561022c57600080fd5b50356001600160a01b0316610bc9565b61011e610c0e565b61014b610c50565b610254610c5f565b60408051918252519081900360200190f35b610254610c65565b610254610c6b565b61011e6004803603602081101561028c57600080fd5b50356001600160a01b0316610c71565b610254600480360360608110156102b257600080fd5b506001600160a01b038135169060208101359060400135610cb5565b610254600480360360208110156102e457600080fd5b50356001600160a01b0316610e33565b61011e6004803603602081101561030a57600080fd5b5035610e45565b6101ca61101e565b610254611033565b61011e6004803603602081101561033757600080fd5b5035611039565b60085415610388576040805162461bcd60e51b8152602060048201526012602482015271466c6f707065722f7374696c6c2d6c69766560701b604482015290519081900360640190fd5b6000818152600160205260409020600201546001600160a01b03166103ea576040805162461bcd60e51b8152602060048201526013602482015272119b1bdc1c195c8bd9dd5e4b5b9bdd0b5cd95d606a1b604482015290519081900360640190fd5b60028054600954600084815260016020526040808220948501549454815163f24e23eb60e01b81526001600160a01b0394851660048201529584166024870152604486015251919092169263f24e23eb92606480830193919282900301818387803b15801561045857600080fd5b505af115801561046c573d6000803e3d6000fd5b50505060008281526001602081905260408083208381559182018390556002909101829055518392507f2c5d2826eb5903b8fc201cf48094b858f42f61c7eaac9aaf43ebed490138144e9190a250565b816262656760e81b14156104d457600481905561059a565b81621c185960ea1b14156104ec57600581905561059a565b81621d1d1b60ea1b1415610518576006805465ffffffffffff191665ffffffffffff831617905561059a565b816274617560e81b141561054d576006805465ffffffffffff60301b1916600160301b65ffffffffffff84160217905561059a565b6040805162461bcd60e51b815260206004820152601f60248201527f466c6f707065722f66696c652d756e7265636f676e697a65642d706172616d00604482015290519081900360640190fd5b60408051828152905183917fe986e40cc8c151830d4f61050f4fb2e4add8567caad2d5f5496f9158e91fe4c7919081900360200190a25050565b6002546001600160a01b031681565b60016020819052600091825260409091208054918101546002909101546001600160a01b0381169065ffffffffffff600160a01b8204811691600160d01b90041685565b60065465ffffffffffff1681565b60085460011461067f576040805162461bcd60e51b815260206004820152601060248201526f466c6f707065722f6e6f742d6c69766560801b604482015290519081900360640190fd5b6000838152600160205260409020600201546001600160a01b03166106e1576040805162461bcd60e51b8152602060048201526013602482015272119b1bdc1c195c8bd9dd5e4b5b9bdd0b5cd95d606a1b604482015290519081900360640190fd5b60008381526001602052604090206002015442600160a01b90910465ffffffffffff16118061072e5750600083815260016020526040902060020154600160a01b900465ffffffffffff16155b61077e576040805162461bcd60e51b815260206004820152601c60248201527b466c6f707065722f616c72656164792d66696e69736865642d74696360201b604482015290519081900360640190fd5b60008381526001602052604090206002015442600160d01b90910465ffffffffffff16116107f2576040805162461bcd60e51b815260206004820152601c60248201527b119b1bdc1c195c8bd85b1c9958591e4b599a5b9a5cda19590b595b9960221b604482015290519081900360640190fd5b600083815260016020526040902054811461084f576040805162461bcd60e51b8152602060048201526018602482015277119b1bdc1c195c8bdb9bdd0b5b585d18da1a5b99cb589a5960421b604482015290519081900360640190fd5b6000838152600160208190526040909120015482106108ad576040805162461bcd60e51b8152602060048201526015602482015274233637b83832b917b637ba16b737ba16b637bbb2b960591b604482015290519081900360640190fd5b600083815260016020819052604090912001546108d290670de0b6b3a76400006111dd565b6108de600454846111dd565b1115610931576040805162461bcd60e51b815260206004820152601d60248201527f466c6f707065722f696e73756666696369656e742d6465637265617365000000604482015290519081900360640190fd5b6000838152600160205260409020600201546001600160a01b03163314610b15576002805460008581526001602052604080822090930154835163bb35783b60e01b81523360048201526001600160a01b03918216602482015260448101869052935192169263bb35783b926064808301939282900301818387803b1580156109b957600080fd5b505af11580156109cd573d6000803e3d6000fd5b505050600084815260016020526040902060020154600160a01b900465ffffffffffff1615159050610af3576000838152600160209081526040808320600201548151630a874acf60e21b815291516001600160a01b0390911692632a1d2b3c926004808201939182900301818787803b158015610a4a57600080fd5b505af1158015610a5e573d6000803e3d6000fd5b505050506040513d6020811015610a7457600080fd5b50516000858152600160205260409020600201549091506001600160a01b0316632506855a610aa38484611207565b6040518263ffffffff1660e01b815260040180828152602001915050600060405180830381600087803b158015610ad957600080fd5b505af1158015610aed573d6000803e3d6000fd5b50505050505b600083815260016020526040902060020180546001600160a01b031916331790555b600083815260016020819052604090912001829055600654610b4090429065ffffffffffff1661121f565b600084815260016020908152604091829020600201805465ffffffffffff94909416600160a01b0265ffffffffffff60a01b19909416939093179092558051848152918201839052805185927f1a7c615e2d533f6d4e4ad32750dbd62249b24789379f9ed92f4ce9deab61f2af92908290030190a2505050565b6009546001600160a01b031681565b6001600160a01b03811660008181526020819052604080822060019055517fdd0e34038ac38b2a1ce960229778ac48a8719bc900b6c4f8d0475c6e8b385a609190a250565b60006008819055600980546001600160a01b031916331790556040517f2308ed18a14e800c39b86eb6ea43270105955ca385b603b64eca89f98ae8fbda9190a1565b6003546001600160a01b031681565b60045481565b60055481565b60085481565b6001600160a01b038116600081815260208190526040808220829055517f184450df2e323acec0ed3b5c7531b81f9b4cdef7914dfd4c0a4317416bb5251b9190a250565b6000600854600114610d01576040805162461bcd60e51b815260206004820152601060248201526f466c6f707065722f6e6f742d6c69766560801b604482015290519081900360640190fd5b60001960075410610d4c576040805162461bcd60e51b815260206004820152601060248201526f466c6f707065722f6f766572666c6f7760801b604482015290519081900360640190fd5b5060078054600190810191829055600082815260208290526040902083815590810184905560020180546001600160a01b0319166001600160a01b038616179055600654610daa904290600160301b900465ffffffffffff1661121f565b600082815260016020908152604091829020600201805465ffffffffffff94909416600160d01b026001600160d01b03909416939093179092558051838152918201859052818101849052516001600160a01b038616917f7e8881001566f9f89aedb9c5dc3d856a2b81e5235a8196413ed484be91cc0df6919081900360600190a29392505050565b60006020819052908152604090205481565b600854600114610e8f576040805162461bcd60e51b815260206004820152601060248201526f466c6f707065722f6e6f742d6c69766560801b604482015290519081900360640190fd5b600081815260016020526040902060020154600160a01b900465ffffffffffff1615801590610f08575060008181526001602052604090206002015442600160a01b90910465ffffffffffff161080610f08575060008181526001602052604090206002015442600160d01b90910465ffffffffffff16105b610f50576040805162461bcd60e51b8152602060048201526014602482015273119b1bdc1c195c8bdb9bdd0b599a5b9a5cda195960621b604482015290519081900360640190fd5b6003546000828152600160208190526040808320600281015492015481516340c10f1960e01b81526001600160a01b0393841660048201526024810191909152905191909316926340c10f1992604480830193919282900301818387803b158015610fba57600080fd5b505af1158015610fce573d6000803e3d6000fd5b50505060008281526001602081905260408083208381559182018390556002909101829055518392507f71a76872b00dbc7728a966e65795cf08a847d5a061e6f9a666baaf3d601931db9190a250565b600654600160301b900465ffffffffffff1681565b60075481565b60008181526001602052604090206002015442600160d01b90910465ffffffffffff16106110a5576040805162461bcd60e51b8152602060048201526014602482015273119b1bdc1c195c8bdb9bdd0b599a5b9a5cda195960621b604482015290519081900360640190fd5b600081815260016020526040902060020154600160a01b900465ffffffffffff1615611115576040805162461bcd60e51b815260206004820152601a602482015279119b1bdc1c195c8bd89a590b585b1c9958591e4b5c1b1858d95960321b604482015290519081900360640190fd5b670de0b6b3a764000061114060055460016000858152602001908152602001600020600101546111dd565b8161114757fe5b60008381526001602081905260409091209290910491015560065461117c904290600160301b900465ffffffffffff1661121f565b600082815260016020526040808220600201805465ffffffffffff94909416600160d01b026001600160d01b0390941693909317909255905182917fb8c95b3cea6303a753d912e243354ef08add1085ed07d34191514ef1001ef9d891a250565b60008115806111f8575050808202828282816111f557fe5b04145b61120157600080fd5b92915050565b600081831115611218575080611201565b5090919050565b80820165ffffffffffff808416908216101561120157600080fdfea264697066735822122035a04c1f629b8e9095c8925d279c31e80c5cd01cd83b21986ebcacf5b43ae8ca64736f6c634300060c0033a2646970667358221220ddad8b76f2a78004c7b4ef5c9a85af0d36bc766cb7084172e4b3209a1598b80064736f6c634300060c0033608060405234801561001057600080fd5b50611b4d806100206000396000f3fe608060405234801561001057600080fd5b506004361061002b5760003560e01c80637505139914610030575b600080fd5b61006c6004803603608081101561004657600080fd5b506001600160a01b03813581169160208101358216916040820135169060600135610088565b604080516001600160a01b039092168252519081900360200190f35b600083838360405161009990610151565b80846001600160a01b03168152602001836001600160a01b031681526020018281526020019350505050604051809103906000f0801580156100df573d6000803e3d6000fd5b509050806001600160a01b03166365fae35e866040518263ffffffff1660e01b815260040180826001600160a01b03168152602001915050600060405180830381600087803b15801561013157600080fd5b505af1158015610145573d6000803e3d6000fd5b50505050949350505050565b6119b98061015f8339019056fe6080604052670e92596fd629000060045560058054612a3065ffffffffffff199091161765ffffffffffff60301b19166802a300000000000000179055600060065534801561004d57600080fd5b506040516119b93803806119b98339818101604052606081101561007057600080fd5b508051602080830151604093840151600280546001600160a01b039586166001600160a01b031991821617909155600780549590931694169390931790556003919091553360009081529081905220600190556118e7806100d26000396000f3fe608060405234801561001057600080fd5b50600436106100f15760003560e01c806326e027f1146100f657806329ae811414610115578063351de6001461013857806336569e771461018c5780634423c5f1146101b05780634b43ed12146102225780634e8b1dd51461024b5780635ff3a3821461026e57806365fae35e146102975780637d780d82146102bd5780639c52a7f1146102c5578063bf353dbb146102eb578063c5ce281e14610311578063c959c42b14610319578063cfc4af5514610336578063cfdd33021461033e578063d4e8be8314610346578063e488181314610372578063fc7b6aee1461037a575b600080fd5b6101136004803603602081101561010c57600080fd5b5035610397565b005b6101136004803603604081101561012b57600080fd5b5080359060200135610651565b61017a600480360360a081101561014e57600080fd5b506001600160a01b03813581169160208101359091169060408101359060608101359060800135610751565b60408051918252519081900360200190f35b610194610932565b604080516001600160a01b039092168252519081900360200190f35b6101cd600480360360208110156101c657600080fd5b5035610941565b6040805198895260208901979097526001600160a01b039586168888015265ffffffffffff9485166060890152929093166080870152831660a0860152911660c084015260e083015251908190036101000190f35b6101136004803603606081101561023857600080fd5b508035906020810135906040013561099f565b610253610eb9565b6040805165ffffffffffff9092168252519081900360200190f35b6101136004803603606081101561028457600080fd5b5080359060208101359060400135610ec7565b610113600480360360208110156102ad57600080fd5b50356001600160a01b03166113d3565b61017a611418565b610113600480360360208110156102db57600080fd5b50356001600160a01b031661141e565b61017a6004803603602081101561030157600080fd5b50356001600160a01b0316611462565b61017a611474565b6101136004803603602081101561032f57600080fd5b503561147a565b610253611685565b61017a61169a565b6101136004803603604081101561035c57600080fd5b50803590602001356001600160a01b03166116a0565b610194611703565b6101136004803603602081101561039057600080fd5b5035611712565b6000818152600160205260409020600201546001600160a01b03166103f9576040805162461bcd60e51b8152602060048201526013602482015272119b1a5c1c195c8bd9dd5e4b5b9bdd0b5cd95d606a1b604482015290519081900360640190fd5b6000818152600160205260409020600581015490541061045d576040805162461bcd60e51b815260206004820152601a602482015279466c69707065722f616c72656164792d64656e742d706861736560301b604482015290519081900360640190fd5b60075460008281526001602052604080822060050154815163e66d279b60e01b8152600481019190915290516001600160a01b039093169263e66d279b9260248084019391929182900301818387803b1580156104b957600080fd5b505af11580156104cd573d6000803e3d6000fd5b50506002546003546000858152600160208190526040808320909101548151633088df1760e11b815260048101949094523060248501523360448501526064840152516001600160a01b039093169450636111be2e9350608480830193919282900301818387803b15801561054157600080fd5b505af1158015610555573d6000803e3d6000fd5b505060028054600085815260016020526040808220938401549354815163bb35783b60e01b81523360048201526001600160a01b0395861660248201526044810191909152905193909216945063bb35783b9350606480830193919282900301818387803b1580156105c657600080fd5b505af11580156105da573d6000803e3d6000fd5b5050506000828152600160208190526040808320838155918201839055600282018390556003820180546001600160a01b031990811690915560048301805490911690556005909101829055518392507f2c5d2826eb5903b8fc201cf48094b858f42f61c7eaac9aaf43ebed490138144e9190a250565b816262656760e81b1415610669576004819055610717565b81621d1d1b60ea1b1415610695576005805465ffffffffffff191665ffffffffffff8316179055610717565b816274617560e81b14156106ca576005805465ffffffffffff60301b1916600160301b65ffffffffffff841602179055610717565b6040805162461bcd60e51b815260206004820152601f60248201527f466c69707065722f66696c652d756e7265636f676e697a65642d706172616d00604482015290519081900360640190fd5b60408051828152905183917fe986e40cc8c151830d4f61050f4fb2e4add8567caad2d5f5496f9158e91fe4c7919081900360200190a25050565b60006000196006541061079e576040805162461bcd60e51b815260206004820152601060248201526f466c69707065722f6f766572666c6f7760801b604482015290519081900360640190fd5b5060068054600190810191829055600082815260208290526040902083815590810184905560020180546001600160a01b031916331790556005546107f490429065ffffffffffff600160301b9091041661186c565b6000828152600160205260408082206002808201805465ffffffffffff96909616600160d01b026001600160d01b0390961695909517909455600380820180546001600160a01b03808e166001600160a01b031992831617909255600480850180548e851693169290921790915560059093018a9055945490548351633088df1760e11b8152928301523360248301523060448301526064820188905291519190931692636111be2e92608480830193919282900301818387803b1580156108bb57600080fd5b505af11580156108cf573d6000803e3d6000fd5b505060408051848152602081018790528082018690526060810188905290516001600160a01b03808a1694508a1692507fc84ce3a1172f0dec3173f04caaa6005151a4bfe40d4c9f3ea28dba5f719b2a7a9181900360800190a395945050505050565b6002546001600160a01b031681565b600160208190526000918252604090912080549181015460028201546003830154600484015460059094015492936001600160a01b038084169465ffffffffffff600160a01b8604811695600160d01b900416938216929091169088565b6000838152600160205260409020600201546001600160a01b0316610a01576040805162461bcd60e51b8152602060048201526013602482015272119b1a5c1c195c8bd9dd5e4b5b9bdd0b5cd95d606a1b604482015290519081900360640190fd5b60008381526001602052604090206002015442600160a01b90910465ffffffffffff161180610a4e5750600083815260016020526040902060020154600160a01b900465ffffffffffff16155b610a9e576040805162461bcd60e51b815260206004820152601c60248201527b466c69707065722f616c72656164792d66696e69736865642d74696360201b604482015290519081900360640190fd5b60008381526001602052604090206002015442600160d01b90910465ffffffffffff1611610b12576040805162461bcd60e51b815260206004820152601c60248201527b119b1a5c1c195c8bd85b1c9958591e4b599a5b9a5cda19590b595b9960221b604482015290519081900360640190fd5b600083815260016020819052604090912001548214610b73576040805162461bcd60e51b8152602060048201526018602482015277466c69707065722f6c6f742d6e6f742d6d61746368696e6760401b604482015290519081900360640190fd5b600083815260016020526040902060050154811115610bd3576040805162461bcd60e51b8152602060048201526017602482015276233634b83832b917b434b3b432b916ba3430b716ba30b160491b604482015290519081900360640190fd5b6000838152600160205260409020548111610c2e576040805162461bcd60e51b8152602060048201526016602482015275233634b83832b917b134b216b737ba16b434b3b432b960511b604482015290519081900360640190fd5b600454600084815260016020526040902054610c4a919061188d565b610c5c82670de0b6b3a764000061188d565b101580610c79575060008381526001602052604090206005015481145b610cca576040805162461bcd60e51b815260206004820152601d60248201527f466c69707065722f696e73756666696369656e742d696e637265617365000000604482015290519081900360640190fd5b6000838152600160205260409020600201546001600160a01b03163314610d925760028054600085815260016020526040808220938401549354815163bb35783b60e01b81523360048201526001600160a01b03958616602482015260448101919091529051939092169263bb35783b92606480820193929182900301818387803b158015610d5857600080fd5b505af1158015610d6c573d6000803e3d6000fd5b505050600084815260016020526040902060020180546001600160a01b03191633179055505b6002546000848152600160205260408082206004808201549154835163bb35783b60e01b815233928101929092526001600160a01b03928316602483015286036044820152915193169263bb35783b9260648084019391929182900301818387803b158015610e0057600080fd5b505af1158015610e14573d6000803e3d6000fd5b505050600084815260016020526040902082905550600554610e3f90429065ffffffffffff1661186c565b600084815260016020908152604091829020600201805465ffffffffffff94909416600160a01b0265ffffffffffff60a01b19909416939093179092558051848152918201839052805185927fa679d55253c3ee26605ebe5dd2fb3b0194579ef2853099b5102c283a4e667ecd92908290030190a2505050565b60055465ffffffffffff1681565b6000838152600160205260409020600201546001600160a01b0316610f29576040805162461bcd60e51b8152602060048201526013602482015272119b1a5c1c195c8bd9dd5e4b5b9bdd0b5cd95d606a1b604482015290519081900360640190fd5b60008381526001602052604090206002015442600160a01b90910465ffffffffffff161180610f765750600083815260016020526040902060020154600160a01b900465ffffffffffff16155b610fc6576040805162461bcd60e51b815260206004820152601c60248201527b466c69707065722f616c72656164792d66696e69736865642d74696360201b604482015290519081900360640190fd5b60008381526001602052604090206002015442600160d01b90910465ffffffffffff161161103a576040805162461bcd60e51b815260206004820152601c60248201527b119b1a5c1c195c8bd85b1c9958591e4b599a5b9a5cda19590b595b9960221b604482015290519081900360640190fd5b6000838152600160205260409020548114611097576040805162461bcd60e51b8152602060048201526018602482015277119b1a5c1c195c8bdb9bdd0b5b585d18da1a5b99cb589a5960421b604482015290519081900360640190fd5b60008381526001602052604090206005015481146110f8576040805162461bcd60e51b8152602060048201526019602482015278119b1a5c1c195c8bdd195b990b5b9bdd0b599a5b9a5cda1959603a1b604482015290519081900360640190fd5b600083815260016020819052604090912001548210611156576040805162461bcd60e51b8152602060048201526015602482015274233634b83832b917b637ba16b737ba16b637bbb2b960591b604482015290519081900360640190fd5b6000838152600160208190526040909120015461117b90670de0b6b3a764000061188d565b6111876004548461188d565b11156111da576040805162461bcd60e51b815260206004820152601d60248201527f466c69707065722f696e73756666696369656e742d6465637265617365000000604482015290519081900360640190fd5b6000838152600160205260409020600201546001600160a01b0316331461129c576002805460008581526001602052604080822090930154835163bb35783b60e01b81523360048201526001600160a01b03918216602482015260448101869052935192169263bb35783b926064808301939282900301818387803b15801561126257600080fd5b505af1158015611276573d6000803e3d6000fd5b505050600084815260016020526040902060020180546001600160a01b03191633179055505b6002546003805460008681526001602081905260408083209485015494909101548151633088df1760e11b815260048101949094523060248501526001600160a01b0394851660448501528790036064840152519290931692636111be2e9260848084019382900301818387803b15801561131657600080fd5b505af115801561132a573d6000803e3d6000fd5b5050506000848152600160208190526040909120018390555060055461135990429065ffffffffffff1661186c565b600084815260016020908152604091829020600201805465ffffffffffff94909416600160a01b0265ffffffffffff60a01b19909416939093179092558051848152918201839052805185927f1a7c615e2d533f6d4e4ad32750dbd62249b24789379f9ed92f4ce9deab61f2af92908290030190a2505050565b6001600160a01b03811660008181526020819052604080822060019055517fdd0e34038ac38b2a1ce960229778ac48a8719bc900b6c4f8d0475c6e8b385a609190a250565b60045481565b6001600160a01b038116600081815260208190526040808220829055517f184450df2e323acec0ed3b5c7531b81f9b4cdef7914dfd4c0a4317416bb5251b9190a250565b60006020819052908152604090205481565b60035481565b600081815260016020526040902060020154600160a01b900465ffffffffffff16158015906114f3575060008181526001602052604090206002015442600160a01b90910465ffffffffffff1610806114f3575060008181526001602052604090206002015442600160d01b90910465ffffffffffff16105b61153b576040805162461bcd60e51b8152602060048201526014602482015273119b1a5c1c195c8bdb9bdd0b599a5b9a5cda195960621b604482015290519081900360640190fd5b60075460008281526001602052604080822060050154815163e66d279b60e01b8152600481019190915290516001600160a01b039093169263e66d279b9260248084019391929182900301818387803b15801561159757600080fd5b505af11580156115ab573d6000803e3d6000fd5b50506002805460035460008681526001602081905260408083209586015495909101548151633088df1760e11b815260048101949094523060248501526001600160a01b039586166044850152606484015251939092169450636111be2e93506084808201939182900301818387803b15801561162757600080fd5b505af115801561163b573d6000803e3d6000fd5b5050506000918252506001602081905260408220828155908101829055600281018290556003810180546001600160a01b0319908116909155600482018054909116905560050155565b600554600160301b900465ffffffffffff1681565b60065481565b816218d85d60ea1b14156106ca57600780546001600160a01b0319166001600160a01b0383161790556040516001600160a01b0382169083907f8fef588b5fc1afbf5b2f06c1a435d513f208da2e6704c3d8f0e0ec91167066ba90600090a35050565b6007546001600160a01b031681565b60008181526001602052604090206002015442600160d01b90910465ffffffffffff161061177e576040805162461bcd60e51b8152602060048201526014602482015273119b1a5c1c195c8bdb9bdd0b599a5b9a5cda195960621b604482015290519081900360640190fd5b600081815260016020526040902060020154600160a01b900465ffffffffffff16156117ee576040805162461bcd60e51b815260206004820152601a602482015279119b1a5c1c195c8bd89a590b585b1c9958591e4b5c1b1858d95960321b604482015290519081900360640190fd5b60055461180b904290600160301b900465ffffffffffff1661186c565b600082815260016020526040808220600201805465ffffffffffff94909416600160d01b026001600160d01b0390941693909317909255905182917fb8c95b3cea6303a753d912e243354ef08add1085ed07d34191514ef1001ef9d891a250565b80820165ffffffffffff808416908216101561188757600080fd5b92915050565b60008115806118a8575050808202828282816118a557fe5b04145b61188757600080fdfea2646970667358221220431b26c49d2dc038feb8f9b583d1331f544291b5c873a5af3690215456ac956f64736f6c634300060c0033a26469706673582212203a88e217294b8b05cff5d9d26e03f8af4239849f057d7ac87e7171f44cc48cef64736f6c634300060c0033a2646970667358221220202a9c8617d5068cce56c698a70582532dadd76ff5d3a470cf3a733c341d862064736f6c634300060c0033",
  "linkReferences": {},
  "deployedLinkReferences": {}
}