{
  "_format": "hh-sol-artifact-1",
  "contractName": "End",
  "sourceName": "contracts/dss/end.sol",
  "abi": [
    {
      "inputs": [],
      "stateMutability": "nonpayable",
      "type": "constructor"
    },
    {
      "anonymous": false,
      "inputs": [],
      "name": "Cage",
      "type": "event"
    },
    {
      "anonymous": false,
      "inputs": [
        {
          "indexed": true,
          "internalType": "bytes32",
          "name": "ilk",
          "type": "bytes32"
        }
      ],
      "name": "Cage",
      "type": "event"
    },
    {
      "anonymous": false,
      "inputs": [
        {
          "indexed": true,
          "internalType": "bytes32",
          "name": "ilk",
          "type": "bytes32"
        },
        {
          "indexed": true,
          "internalType": "address",
          "name": "usr",
          "type": "address"
        },
        {
          "indexed": false,
          "internalType": "uint256",
          "name": "wad",
          "type": "uint256"
        }
      ],
      "name": "Cash",
      "type": "event"
    },
    {
      "anonymous": false,
      "inputs": [
        {
          "indexed": true,
          "internalType": "address",
          "name": "usr",
          "type": "address"
        }
      ],
      "name": "Deny",
      "type": "event"
    },
    {
      "anonymous": false,
      "inputs": [
        {
          "indexed": true,
          "internalType": "bytes32",
          "name": "what",
          "type": "bytes32"
        },
        {
          "indexed": false,
          "internalType": "uint256",
          "name": "data",
          "type": "uint256"
        }
      ],
      "name": "File",
      "type": "event"
    },
    {
      "anonymous": false,
      "inputs": [
        {
          "indexed": true,
          "internalType": "bytes32",
          "name": "what",
          "type": "bytes32"
        },
        {
          "indexed": false,
          "internalType": "address",
          "name": "data",
          "type": "address"
        }
      ],
      "name": "File",
      "type": "event"
    },
    {
      "anonymous": false,
      "inputs": [
        {
          "indexed": true,
          "internalType": "bytes32",
          "name": "ilk",
          "type": "bytes32"
        }
      ],
      "name": "Flow",
      "type": "event"
    },
    {
      "anonymous": false,
      "inputs": [
        {
          "indexed": true,
          "internalType": "bytes32",
          "name": "ilk",
          "type": "bytes32"
        },
        {
          "indexed": true,
          "internalType": "address",
          "name": "usr",
          "type": "address"
        },
        {
          "indexed": false,
          "internalType": "uint256",
          "name": "ink",
          "type": "uint256"
        }
      ],
      "name": "Free",
      "type": "event"
    },
    {
      "anonymous": false,
      "inputs": [
        {
          "indexed": true,
          "internalType": "address",
          "name": "usr",
          "type": "address"
        },
        {
          "indexed": false,
          "internalType": "uint256",
          "name": "wad",
          "type": "uint256"
        }
      ],
      "name": "Pack",
      "type": "event"
    },
    {
      "anonymous": false,
      "inputs": [
        {
          "indexed": true,
          "internalType": "address",
          "name": "usr",
          "type": "address"
        }
      ],
      "name": "Rely",
      "type": "event"
    },
    {
      "anonymous": false,
      "inputs": [
        {
          "indexed": true,
          "internalType": "bytes32",
          "name": "ilk",
          "type": "bytes32"
        },
        {
          "indexed": true,
          "internalType": "address",
          "name": "urn",
          "type": "address"
        },
        {
          "indexed": false,
          "internalType": "uint256",
          "name": "wad",
          "type": "uint256"
        },
        {
          "indexed": false,
          "internalType": "uint256",
          "name": "art",
          "type": "uint256"
        }
      ],
      "name": "Skim",
      "type": "event"
    },
    {
      "anonymous": false,
      "inputs": [
        {
          "indexed": true,
          "internalType": "bytes32",
          "name": "ilk",
          "type": "bytes32"
        },
        {
          "indexed": true,
          "internalType": "uint256",
          "name": "id",
          "type": "uint256"
        },
        {
          "indexed": true,
          "internalType": "address",
          "name": "usr",
          "type": "address"
        },
        {
          "indexed": false,
          "internalType": "uint256",
          "name": "tab",
          "type": "uint256"
        },
        {
          "indexed": false,
          "internalType": "uint256",
          "name": "lot",
          "type": "uint256"
        },
        {
          "indexed": false,
          "internalType": "uint256",
          "name": "art",
          "type": "uint256"
        }
      ],
      "name": "Skip",
      "type": "event"
    },
    {
      "anonymous": false,
      "inputs": [
        {
          "indexed": true,
          "internalType": "bytes32",
          "name": "ilk",
          "type": "bytes32"
        },
        {
          "indexed": true,
          "internalType": "uint256",
          "name": "id",
          "type": "uint256"
        },
        {
          "indexed": true,
          "internalType": "address",
          "name": "usr",
          "type": "address"
        },
        {
          "indexed": false,
          "internalType": "uint256",
          "name": "tab",
          "type": "uint256"
        },
        {
          "indexed": false,
          "internalType": "uint256",
          "name": "lot",
          "type": "uint256"
        },
        {
          "indexed": false,
          "internalType": "uint256",
          "name": "art",
          "type": "uint256"
        }
      ],
      "name": "Snip",
      "type": "event"
    },
    {
      "anonymous": false,
      "inputs": [],
      "name": "Thaw",
      "type": "event"
    },
    {
      "inputs": [
        {
          "internalType": "bytes32",
          "name": "",
          "type": "bytes32"
        }
      ],
      "name": "Art",
      "outputs": [
        {
          "internalType": "uint256",
          "name": "",
          "type": "uint256"
        }
      ],
      "stateMutability": "view",
      "type": "function"
    },
    {
      "inputs": [
        {
          "internalType": "address",
          "name": "",
          "type": "address"
        }
      ],
      "name": "bag",
      "outputs": [
        {
          "internalType": "uint256",
          "name": "",
          "type": "uint256"
        }
      ],
      "stateMutability": "view",
      "type": "function"
    },
    {
      "inputs": [],
      "name": "cage",
      "outputs": [],
      "stateMutability": "nonpayable",
      "type": "function"
    },
    {
      "inputs": [
        {
          "internalType": "bytes32",
          "name": "ilk",
          "type": "bytes32"
        }
      ],
      "name": "cage",
      "outputs": [],
      "stateMutability": "nonpayable",
      "type": "function"
    },
    {
      "inputs": [
        {
          "internalType": "bytes32",
          "name": "ilk",
          "type": "bytes32"
        },
        {
          "internalType": "uint256",
          "name": "wad",
          "type": "uint256"
        }
      ],
      "name": "cash",
      "outputs": [],
      "stateMutability": "nonpayable",
      "type": "function"
    },
    {
      "inputs": [],
      "name": "cat",
      "outputs": [
        {
          "internalType": "contract CatLike",
          "name": "",
          "type": "address"
        }
      ],
      "stateMutability": "view",
      "type": "function"
    },
    {
      "inputs": [],
      "name": "cure",
      "outputs": [
        {
          "internalType": "contract CureLike",
          "name": "",
          "type": "address"
        }
      ],
      "stateMutability": "view",
      "type": "function"
    },
    {
      "inputs": [],
      "name": "debt",
      "outputs": [
        {
          "internalType": "uint256",
          "name": "",
          "type": "uint256"
        }
      ],
      "stateMutability": "view",
      "type": "function"
    },
    {
      "inputs": [
        {
          "internalType": "address",
          "name": "usr",
          "type": "address"
        }
      ],
      "name": "deny",
      "outputs": [],
      "stateMutability": "nonpayable",
      "type": "function"
    },
    {
      "inputs": [],
      "name": "dog",
      "outputs": [
        {
          "internalType": "contract DogLike",
          "name": "",
          "type": "address"
        }
      ],
      "stateMutability": "view",
      "type": "function"
    },
    {
      "inputs": [
        {
          "internalType": "bytes32",
          "name": "what",
          "type": "bytes32"
        },
        {
          "internalType": "uint256",
          "name": "data",
          "type": "uint256"
        }
      ],
      "name": "file",
      "outputs": [],
      "stateMutability": "nonpayable",
      "type": "function"
    },
    {
      "inputs": [
        {
          "internalType": "bytes32",
          "name": "what",
          "type": "bytes32"
        },
        {
          "internalType": "address",
          "name": "data",
          "type": "address"
        }
      ],
      "name": "file",
      "outputs": [],
      "stateMutability": "nonpayable",
      "type": "function"
    },
    {
      "inputs": [
        {
          "internalType": "bytes32",
          "name": "",
          "type": "bytes32"
        }
      ],
      "name": "fix",
      "outputs": [
        {
          "internalType": "uint256",
          "name": "",
          "type": "uint256"
        }
      ],
      "stateMutability": "view",
      "type": "function"
    },
    {
      "inputs": [
        {
          "internalType": "bytes32",
          "name": "ilk",
          "type": "bytes32"
        }
      ],
      "name": "flow",
      "outputs": [],
      "stateMutability": "nonpayable",
      "type": "function"
    },
    {
      "inputs": [
        {
          "internalType": "bytes32",
          "name": "ilk",
          "type": "bytes32"
        }
      ],
      "name": "free",
      "outputs": [],
      "stateMutability": "nonpayable",
      "type": "function"
    },
    {
      "inputs": [
        {
          "internalType": "bytes32",
          "name": "",
          "type": "bytes32"
        }
      ],
      "name": "gap",
      "outputs": [
        {
          "internalType": "uint256",
          "name": "",
          "type": "uint256"
        }
      ],
      "stateMutability": "view",
      "type": "function"
    },
    {
      "inputs": [],
      "name": "live",
      "outputs": [
        {
          "internalType": "uint256",
          "name": "",
          "type": "uint256"
        }
      ],
      "stateMutability": "view",
      "type": "function"
    },
    {
      "inputs": [
        {
          "internalType": "bytes32",
          "name": "",
          "type": "bytes32"
        },
        {
          "internalType": "address",
          "name": "",
          "type": "address"
        }
      ],
      "name": "out",
      "outputs": [
        {
          "internalType": "uint256",
          "name": "",
          "type": "uint256"
        }
      ],
      "stateMutability": "view",
      "type": "function"
    },
    {
      "inputs": [
        {
          "internalType": "uint256",
          "name": "wad",
          "type": "uint256"
        }
      ],
      "name": "pack",
      "outputs": [],
      "stateMutability": "nonpayable",
      "type": "function"
    },
    {
      "inputs": [],
      "name": "pot",
      "outputs": [
        {
          "internalType": "contract PotLike",
          "name": "",
          "type": "address"
        }
      ],
      "stateMutability": "view",
      "type": "function"
    },
    {
      "inputs": [
        {
          "internalType": "address",
          "name": "usr",
          "type": "address"
        }
      ],
      "name": "rely",
      "outputs": [],
      "stateMutability": "nonpayable",
      "type": "function"
    },
    {
      "inputs": [
        {
          "internalType": "bytes32",
          "name": "ilk",
          "type": "bytes32"
        },
        {
          "internalType": "address",
          "name": "urn",
          "type": "address"
        }
      ],
      "name": "skim",
      "outputs": [],
      "stateMutability": "nonpayable",
      "type": "function"
    },
    {
      "inputs": [
        {
          "internalType": "bytes32",
          "name": "ilk",
          "type": "bytes32"
        },
        {
          "internalType": "uint256",
          "name": "id",
          "type": "uint256"
        }
      ],
      "name": "skip",
      "outputs": [],
      "stateMutability": "nonpayable",
      "type": "function"
    },
    {
      "inputs": [
        {
          "internalType": "bytes32",
          "name": "ilk",
          "type": "bytes32"
        },
        {
          "internalType": "uint256",
          "name": "id",
          "type": "uint256"
        }
      ],
      "name": "snip",
      "outputs": [],
      "stateMutability": "nonpayable",
      "type": "function"
    },
    {
      "inputs": [],
      "name": "spot",
      "outputs": [
        {
          "internalType": "contract SpotLike",
          "name": "",
          "type": "address"
        }
      ],
      "stateMutability": "view",
      "type": "function"
    },
    {
      "inputs": [
        {
          "internalType": "bytes32",
          "name": "",
          "type": "bytes32"
        }
      ],
      "name": "tag",
      "outputs": [
        {
          "internalType": "uint256",
          "name": "",
          "type": "uint256"
        }
      ],
      "stateMutability": "view",
      "type": "function"
    },
    {
      "inputs": [],
      "name": "thaw",
      "outputs": [],
      "stateMutability": "nonpayable",
      "type": "function"
    },
    {
      "inputs": [],
      "name": "vat",
      "outputs": [
        {
          "internalType": "contract VatLike",
          "name": "",
          "type": "address"
        }
      ],
      "stateMutability": "view",
      "type": "function"
    },
    {
      "inputs": [],
      "name": "vow",
      "outputs": [
        {
          "internalType": "contract VowLike",
          "name": "",
          "type": "address"
        }
      ],
      "stateMutability": "view",
      "type": "function"
    },
    {
      "inputs": [],
      "name": "wait",
      "outputs": [
        {
          "internalType": "uint256",
          "name": "",
          "type": "uint256"
        }
      ],
      "stateMutability": "view",
      "type": "function"
    },
    {
      "inputs": [
        {
          "internalType": "address",
          "name": "",
          "type": "address"
        }
      ],
      "name": "wards",
      "outputs": [
        {
          "internalType": "uint256",
          "name": "",
          "type": "uint256"
        }
      ],
      "stateMutability": "view",
      "type": "function"
    },
    {
      "inputs": [],
      "name": "when",
      "outputs": [
        {
          "internalType": "uint256",
          "name": "",
          "type": "uint256"
        }
      ],
      "stateMutability": "view",
      "type": "function"
    }
  ],
  "bytecode": "0x608060405234801561001057600080fd5b5033600081815260208190526040808220600190819055600855517fdd0e34038ac38b2a1ce960229778ac48a8719bc900b6c4f8d0475c6e8b385a609190a26126008061005e6000396000f3fe608060405234801561001057600080fd5b50600436106101805760003560e01c80630dca59c11461018557806329ae81141461019f57806336569e77146101c457806338c6de40146101e85780634a10eaa61461020b5780634ba2363a14610228578063503ecf06146102305780635920375c14610253578063626cb3c51461025b57806363fad85e1461026357806364bd70131461028057806365fae35e1461028857806369245009146102ae5780636ea42555146102b65780636f265b93146102d3578063840782ed146102db57806389ea45d3146102e35780639255f8091461030f578063957aa58c146103355780639c52a7f11461033d578063bf353dbb14610363578063c3b3ad7f14610389578063c83062c614610391578063c939ebfc146103ae578063d4e8be83146103da578063e1340a3d14610406578063e2702fdc14610423578063e2b0caef14610440578063e488181314610448578063e6ee62aa14610450578063ee6447b51461046d578063fe8507c61461048a575b600080fd5b61018d6104ad565b60408051918252519081900360200190f35b6101c2600480360360408110156101b557600080fd5b50803590602001356104b3565b005b6101cc610597565b604080516001600160a01b039092168252519081900360200190f35b6101c2600480360360408110156101fe57600080fd5b50803590602001356105a6565b6101c26004803603602081101561022157600080fd5b50356109c7565b6101cc610bae565b6101c26004803603604081101561024657600080fd5b5080359060200135610bbd565b6101c26110c6565b6101cc61138d565b61018d6004803603602081101561027957600080fd5b503561139c565b61018d6113ae565b6101c26004803603602081101561029e57600080fd5b50356001600160a01b03166113b4565b6101c26113f9565b6101c2600480360360208110156102cc57600080fd5b5035611730565b6101cc611879565b6101cc611888565b6101c2600480360360408110156102f957600080fd5b50803590602001356001600160a01b0316611897565b61018d6004803603602081101561032557600080fd5b50356001600160a01b0316611b8e565b61018d611ba0565b6101c26004803603602081101561035357600080fd5b50356001600160a01b0316611ba6565b61018d6004803603602081101561037957600080fd5b50356001600160a01b0316611bea565b6101cc611bfc565b6101c2600480360360208110156103a757600080fd5b5035611c0b565b61018d600480360360408110156103c457600080fd5b50803590602001356001600160a01b0316611e30565b6101c2600480360360408110156103f057600080fd5b50803590602001356001600160a01b0316611e4d565b61018d6004803603602081101561041c57600080fd5b5035612016565b6101c26004803603602081101561043957600080fd5b5035612028565b61018d6122f6565b6101cc6122fc565b61018d6004803603602081101561046657600080fd5b503561230b565b61018d6004803603602081101561048357600080fd5b503561231d565b6101c2600480360360408110156104a057600080fd5b508035906020013561232f565b600b5481565b6008546001146104f9576040805162461bcd60e51b815260206004820152600c60248201526b456e642f6e6f742d6c69766560a01b604482015290519081900360640190fd5b81631dd85a5d60e21b141561051257600a81905561055d565b6040805162461bcd60e51b815260206004820152601b60248201527a456e642f66696c652d756e7265636f676e697a65642d706172616d60281b604482015290519081900360640190fd5b60408051828152905183917fe986e40cc8c151830d4f61050f4fb2e4add8567caad2d5f5496f9158e91fe4c7919081900360200190a25050565b6001546001600160a01b031681565b6000828152600c60205260409020546105f4576040805162461bcd60e51b815260206004820152601760248201526000805160206125ab833981519152604482015290519081900360640190fd5b60035460408051636cb1c69b60e11b81526004810185905290516000926001600160a01b03169163d9638d3691602480830192608092919082900301818787803b15801561064157600080fd5b505af1158015610655573d6000803e3d6000fd5b505050506040513d608081101561066b57600080fd5b505160015460408051636cb1c69b60e11b815260048101879052905192935083926000926001600160a01b03169163d9638d369160248083019260a092919082900301818787803b1580156106bf57600080fd5b505af11580156106d3573d6000803e3d6000fd5b505050506040513d60a08110156106e957600080fd5b50602001516040805163b5f522f760e01b8152600481018790529051919250600091829182916001600160a01b0387169163b5f522f79160248083019260c0929190829003018186803b15801561073f57600080fd5b505afa158015610753573d6000803e3d6000fd5b505050506040513d60c081101561076957600080fd5b50602081015160408083015160609093015160015460048054845163f24e23eb60e01b81526001600160a01b039182169281018390526024810192909252604482018690529351949850949650909450169163f24e23eb91606480830192600092919082900301818387803b1580156107e157600080fd5b505af11580156107f5573d6000803e3d6000fd5b50505050846001600160a01b03166326e027f1886040518263ffffffff1660e01b815260040180828152602001915050600060405180830381600087803b15801561083f57600080fd5b505af1158015610853573d6000803e3d6000fd5b50505050600084848161086257fe5b60008b8152600e60205260409020549190049150610880908261250b565b60008a8152600e602052604081209190915583128015906108a2575060008112155b6108e2576040805162461bcd60e51b815260206004820152600c60248201526b456e642f6f766572666c6f7760a01b604482015290519081900360640190fd5b60015460048054604080516301eeacfd60e61b81529283018d90526001600160a01b03868116602485015230604485015291821660648401526084830187905260a4830185905251921691637bab3f409160c48082019260009290919082900301818387803b15801561095457600080fd5b505af1158015610968573d6000803e3d6000fd5b5050604080518781526020810187905280820185905290516001600160a01b03861693508b92508c917ffc67e20caaffa015d51f696df8ea5c273ba269c69bdc2ec31c1334d01286eaa4919081900360600190a4505050505050505050565b600b54610a0b576040805162461bcd60e51b815260206004820152600d60248201526c456e642f646562742d7a65726f60981b604482015290519081900360640190fd5b6000818152600f602052604090205415610a6a576040805162461bcd60e51b815260206004820152601b60248201527a115b990bd99a5e0b5a5b1acb585b1c9958591e4b5919599a5b9959602a1b604482015290519081900360640190fd5b60015460408051636cb1c69b60e11b81526004810184905290516000926001600160a01b03169163d9638d369160248083019260a092919082900301818787803b158015610ab757600080fd5b505af1158015610acb573d6000803e3d6000fd5b505050506040513d60a0811015610ae157600080fd5b506020908101516000848152600e9092526040822054909250610b1c90610b089084612521565b6000858152600c6020526040902054612521565b9050676765c793fa10079d601b1b600b5481610b3457fe5b04610b66610b5583600d600088815260200190815260200160002054612548565b676765c793fa10079d601b1b612558565b81610b6d57fe5b6000858152600f6020526040808220939092049092555184917f8d1d5ae676a6db1f6f14414f8a6c78941bbfb700fe3f3be6d3245f26c2f2d55091a2505050565b6005546001600160a01b031681565b6000828152600c6020526040902054610c0b576040805162461bcd60e51b815260206004820152601760248201526000805160206125ab833981519152604482015290519081900360640190fd5b60025460408051636cb1c69b60e11b81526004810185905290516000926001600160a01b03169163d9638d3691602480830192606092919082900301818787803b158015610c5857600080fd5b505af1158015610c6c573d6000803e3d6000fd5b505050506040513d6060811015610c8257600080fd5b505160015460408051636cb1c69b60e11b815260048101879052905192935083926000926001600160a01b03169163d9638d369160248083019260a092919082900301818787803b158015610cd657600080fd5b505af1158015610cea573d6000803e3d6000fd5b505050506040513d60a0811015610d0057600080fd5b506020015160408051634423c5f160e01b81526004810187905290519192506000918291829182916001600160a01b03881691634423c5f19160248082019261010092909190829003018186803b158015610d5a57600080fd5b505afa158015610d6e573d6000803e3d6000fd5b505050506040513d610100811015610d8557600080fd5b508051602082015160a083015160e090930151600154600480546040805163f24e23eb60e01b81526001600160a01b0392831693810184905260248101939093526044830185905251959a50939850949650909450169163f24e23eb91606480830192600092919082900301818387803b158015610e0257600080fd5b505af1158015610e16573d6000803e3d6000fd5b5050600154600480546040805163f24e23eb60e01b81526001600160a01b0392831693810193909352306024840152604483018a9052519216935063f24e23eb925060648082019260009290919082900301818387803b158015610e7957600080fd5b505af1158015610e8d573d6000803e3d6000fd5b5050600154604080516328ec8bf160e21b81526001600160a01b038b81166004830152915191909216935063a3b22fc49250602480830192600092919082900301818387803b158015610edf57600080fd5b505af1158015610ef3573d6000803e3d6000fd5b50505050856001600160a01b03166326e027f1896040518263ffffffff1660e01b815260040180828152602001915050600060405180830381600087803b158015610f3d57600080fd5b505af1158015610f51573d6000803e3d6000fd5b505050506000858281610f6057fe5b60008c8152600e60205260409020549190049150610f7e908261250b565b60008b8152600e60205260408120919091558412801590610fa0575060008112155b610fe0576040805162461bcd60e51b815260206004820152600c60248201526b456e642f6f766572666c6f7760a01b604482015290519081900360640190fd5b60015460048054604080516301eeacfd60e61b81529283018e90526001600160a01b03878116602485015230604485015291821660648401526084830188905260a4830185905251921691637bab3f409160c48082019260009290919082900301818387803b15801561105257600080fd5b505af1158015611066573d6000803e3d6000fd5b5050604080518581526020810188905280820185905290516001600160a01b03871693508c92508d917fbfa2310a8897203a59922debd0db38279196d8de5050df84608e2bb3e7790f69919081900360600190a450505050505050505050565b6008541561110c576040805162461bcd60e51b815260206004820152600e60248201526d456e642f7374696c6c2d6c69766560901b604482015290519081900360640190fd5b600b5415611155576040805162461bcd60e51b8152602060048201526011602482015270456e642f646562742d6e6f742d7a65726f60781b604482015290519081900360640190fd5b6001546004805460408051631f22ae0d60e01b81526001600160a01b039283169381019390935251921691631f22ae0d91602480820192602092909190829003018186803b1580156111a657600080fd5b505afa1580156111ba573d6000803e3d6000fd5b505050506040513d60208110156111d057600080fd5b50511561121b576040805162461bcd60e51b8152602060048201526014602482015273456e642f737572706c75732d6e6f742d7a65726f60601b604482015290519081900360640190fd5b611229600954600a5461250b565b421015611275576040805162461bcd60e51b8152602060048201526015602482015274115b990bddd85a5d0b5b9bdd0b599a5b9a5cda1959605a1b604482015290519081900360640190fd5b60015460408051630dca59c160e01b8152905161135f926001600160a01b031691630dca59c19160048083019260209291908290030181600087803b1580156112bd57600080fd5b505af11580156112d1573d6000803e3d6000fd5b505050506040513d60208110156112e757600080fd5b5051600754604080516353d700e560e01b815290516001600160a01b03909216916353d700e591600480820192602092909190829003018186803b15801561132e57600080fd5b505afa158015611342573d6000803e3d6000fd5b505050506040513d602081101561135857600080fd5b5051612548565b600b556040517f4df15159e645ba7d02cadde0bc937abef5ad0134623c00de50a31750b85978b990600090a1565b6004546001600160a01b031681565b600f6020526000908152604090205481565b600a5481565b6001600160a01b03811660008181526020819052604080822060019055517fdd0e34038ac38b2a1ce960229778ac48a8719bc900b6c4f8d0475c6e8b385a609190a250565b60085460011461143f576040805162461bcd60e51b815260206004820152600c60248201526b456e642f6e6f742d6c69766560a01b604482015290519081900360640190fd5b600060088190554260095560015460408051636924500960e01b815290516001600160a01b039092169263692450099260048084019382900301818387803b15801561148a57600080fd5b505af115801561149e573d6000803e3d6000fd5b50505050600260009054906101000a90046001600160a01b03166001600160a01b031663692450096040518163ffffffff1660e01b8152600401600060405180830381600087803b1580156114f257600080fd5b505af1158015611506573d6000803e3d6000fd5b50505050600360009054906101000a90046001600160a01b03166001600160a01b031663692450096040518163ffffffff1660e01b8152600401600060405180830381600087803b15801561155a57600080fd5b505af115801561156e573d6000803e3d6000fd5b50506004805460408051636924500960e01b815290516001600160a01b03909216945063692450099350808301926000929182900301818387803b1580156115b557600080fd5b505af11580156115c9573d6000803e3d6000fd5b50505050600660009054906101000a90046001600160a01b03166001600160a01b031663692450096040518163ffffffff1660e01b8152600401600060405180830381600087803b15801561161d57600080fd5b505af1158015611631573d6000803e3d6000fd5b50505050600560009054906101000a90046001600160a01b03166001600160a01b031663692450096040518163ffffffff1660e01b8152600401600060405180830381600087803b15801561168557600080fd5b505af1158015611699573d6000803e3d6000fd5b50505050600760009054906101000a90046001600160a01b03166001600160a01b031663692450096040518163ffffffff1660e01b8152600401600060405180830381600087803b1580156116ed57600080fd5b505af1158015611701573d6000803e3d6000fd5b50506040517f2308ed18a14e800c39b86eb6ea43270105955ca385b603b64eca89f98ae8fbda925060009150a1565b600b54611774576040805162461bcd60e51b815260206004820152600d60248201526c456e642f646562742d7a65726f60981b604482015290519081900360640190fd5b6001546004546001600160a01b039182169163bb35783b913391166117a485676765c793fa10079d601b1b612558565b6040518463ffffffff1660e01b815260040180846001600160a01b03168152602001836001600160a01b031681526020018281526020019350505050600060405180830381600087803b1580156117fa57600080fd5b505af115801561180e573d6000803e3d6000fd5b50503360009081526010602052604090205461182d925090508261250b565b33600081815260106020908152604091829020939093558051848152905191927f47a981d8cbc0f6df64c9be4ce0a423071a088bd46c549bbd11a4d566e031fe0c92918290030190a250565b6006546001600160a01b031681565b6007546001600160a01b031681565b6000828152600c60205260409020546118e5576040805162461bcd60e51b815260206004820152601760248201526000805160206125ab833981519152604482015290519081900360640190fd5b60015460408051636cb1c69b60e11b81526004810185905290516000926001600160a01b03169163d9638d369160248083019260a092919082900301818787803b15801561193257600080fd5b505af1158015611946573d6000803e3d6000fd5b505050506040513d60a081101561195c57600080fd5b5060200151600154604080516309092f9760e21b8152600481018790526001600160a01b038681166024830152825194955060009485949190911692632424be5c926044808201939182900301818787803b1580156119ba57600080fd5b505af11580156119ce573d6000803e3d6000fd5b505050506040513d60408110156119e457600080fd5b50805160209091015190925090506000611a15611a018386612521565b6000888152600c6020526040902054612521565b90506000611a23848361257c565b6000888152600d6020526040902054909150611a4890611a438484612548565b61250b565b6000888152600d6020526040902055600160ff1b8111801590611a6f5750600160ff1b8311155b611aaf576040805162461bcd60e51b815260206004820152600c60248201526b456e642f6f766572666c6f7760a01b604482015290519081900360640190fd5b60015460048054604080516301eeacfd60e61b81529283018b90526001600160a01b038a8116602485015230604485015291821660648401526000858103608485015287810360a485015290519190931692637bab3f409260c4808201939182900301818387803b158015611b2357600080fd5b505af1158015611b37573d6000803e3d6000fd5b50505050856001600160a01b0316877fa05b7b56166c25efbac063da905f9ea6aa1dc5101f95b43c7a838aace979ab598386604051808381526020018281526020019250505060405180910390a350505050505050565b60106020526000908152604090205481565b60085481565b6001600160a01b038116600081815260208190526040808220829055517f184450df2e323acec0ed3b5c7531b81f9b4cdef7914dfd4c0a4317416bb5251b9190a250565b60006020819052908152604090205481565b6003546001600160a01b031681565b60085415611c51576040805162461bcd60e51b815260206004820152600e60248201526d456e642f7374696c6c2d6c69766560901b604482015290519081900360640190fd5b600154604080516309092f9760e21b815260048101849052336024820152815160009384936001600160a01b0390911692632424be5c926044808301939282900301818787803b158015611ca457600080fd5b505af1158015611cb8573d6000803e3d6000fd5b505050506040513d6040811015611cce57600080fd5b50805160209091015190925090508015611d22576040805162461bcd60e51b815260206004820152601060248201526f456e642f6172742d6e6f742d7a65726f60801b604482015290519081900360640190fd5b600160ff1b821115611d6a576040805162461bcd60e51b815260206004820152600c60248201526b456e642f6f766572666c6f7760a01b604482015290519081900360640190fd5b60015460048054604080516301eeacfd60e61b8152928301879052336024840181905260448401526001600160a01b0391821660648401526000868103608485015260a4840181905290519190931692637bab3f409260c4808201939182900301818387803b158015611ddc57600080fd5b505af1158015611df0573d6000803e3d6000fd5b50506040805185815290513393508692507ff26f2b994a5e16f0960958e62541681f9e3e84d4caac2e487d25e0c75243f0d89181900360200190a3505050565b601160209081526000928352604080842090915290825290205481565b600854600114611e93576040805162461bcd60e51b815260206004820152600c60248201526b456e642f6e6f742d6c69766560a01b604482015290519081900360640190fd5b81621d985d60ea1b1415611ec157600180546001600160a01b0319166001600160a01b038316179055611fd3565b816218d85d60ea1b1415611eef57600280546001600160a01b0319166001600160a01b038316179055611fd3565b8162646f6760e81b1415611f1d57600380546001600160a01b0319166001600160a01b038316179055611fd3565b8162766f7760e81b1415611f4b57600480546001600160a01b0319166001600160a01b038316179055611fd3565b81621c1bdd60ea1b1415611f7957600580546001600160a01b0319166001600160a01b038316179055611fd3565b81631cdc1bdd60e21b1415611fa857600680546001600160a01b0319166001600160a01b038316179055611fd3565b81636375726560e01b141561051257600780546001600160a01b0319166001600160a01b0383161790555b604080516001600160a01b0383168152905183917f8fef588b5fc1afbf5b2f06c1a435d513f208da2e6704c3d8f0e0ec91167066ba919081900360200190a25050565b600e6020526000908152604090205481565b6008541561206e576040805162461bcd60e51b815260206004820152600e60248201526d456e642f7374696c6c2d6c69766560901b604482015290519081900360640190fd5b6000818152600c6020526040902054156120cd576040805162461bcd60e51b815260206004820152601b60248201527a115b990bdd1859cb5a5b1acb585b1c9958591e4b5919599a5b9959602a1b604482015290519081900360640190fd5b60015460408051636cb1c69b60e11b81526004810184905290516001600160a01b039092169163d9638d369160248082019260a0929091908290030181600087803b15801561211b57600080fd5b505af115801561212f573d6000803e3d6000fd5b505050506040513d60a081101561214557600080fd5b50516000828152600e6020526040808220929092556006548251636cb1c69b60e11b815260048101859052835192936001600160a01b039092169263d9638d3692602480840193919291829003018186803b1580156121a357600080fd5b505afa1580156121b7573d6000803e3d6000fd5b505050506040513d60408110156121cd57600080fd5b50516006546040805163495d32cb60e01b815290519293506122b8926001600160a01b039092169163495d32cb91600480820192602092909190829003018186803b15801561221b57600080fd5b505afa15801561222f573d6000803e3d6000fd5b505050506040513d602081101561224557600080fd5b5051604080516315f789a960e21b815290516001600160a01b038516916357de26a4916004808301926020929190829003018186803b15801561228757600080fd5b505afa15801561229b573d6000803e3d6000fd5b505050506040513d60208110156122b157600080fd5b5051612595565b6000838152600c602052604080822092909255905183917f4a9efa0a0e3f548761a6924fe06ac5cb94ecdbc08b10d855bbcc04e37c4910db91a25050565b60095481565b6002546001600160a01b031681565b600d6020526000908152604090205481565b600c6020526000908152604090205481565b6000828152600f6020526040902054612389576040805162461bcd60e51b8152602060048201526017602482015276115b990bd99a5e0b5a5b1acb5b9bdd0b5919599a5b9959604a1b604482015290519081900360640190fd5b6001546000838152600f60205260409020546001600160a01b0390911690636111be2e908490309033906123be908790612521565b6040518563ffffffff1660e01b815260040180858152602001846001600160a01b03168152602001836001600160a01b03168152602001828152602001945050505050600060405180830381600087803b15801561241b57600080fd5b505af115801561242f573d6000803e3d6000fd5b505050600083815260116020908152604080832033845290915290205461245791508261250b565b60008381526011602090815260408083203384528083528184208590556010835292205491905210156124d0576040805162461bcd60e51b815260206004820152601c60248201527b456e642f696e73756666696369656e742d6261672d62616c616e636560201b604482015290519081900360640190fd5b604080518281529051339184917f888c7c01b06fd8004523e2bc9a274be1feaa9f03579ae5f568061dac078793c99181900360200190a35050565b8181018281101561251b57600080fd5b92915050565b6000676765c793fa10079d601b1b6125398484612558565b8161254057fe5b049392505050565b8082038281111561251b57600080fd5b60008115806125735750508082028282828161257057fe5b04145b61251b57600080fd5b60008183111561258c578161258e565b825b9392505050565b60008161253984670de0b6b3a764000061255856fe456e642f7461672d696c6b2d6e6f742d646566696e6564000000000000000000a26469706673582212203546b0a65890ef5fca8237e5d92bf131934f261e7f402b97d279a8aecb553cc464736f6c634300060c0033",
  "linkReferences": {},
  "deployedLinkReferences": {}
}