{
  "_format": "hh-sol-artifact-1",
  "contractName": "ESM",
  "sourceName": "contracts/esm/ESM.sol",
  "abi": [
    {
      "inputs": [
        {
          "internalType": "address",
          "name": "gem_",
          "type": "address"
        },
        {
          "internalType": "address",
          "name": "end_",
          "type": "address"
        },
        {
          "internalType": "address",
          "name": "proxy_",
          "type": "address"
        },
        {
          "internalType": "uint256",
          "name": "min_",
          "type": "uint256"
        }
      ],
      "stateMutability": "nonpayable",
      "type": "constructor"
    },
    {
      "anonymous": false,
      "inputs": [
        {
          "indexed": true,
          "internalType": "address",
          "name": "usr",
          "type": "address"
        }
      ],
      "name": "Deny",
      "type": "event"
    },
    {
      "anonymous": false,
      "inputs": [
        {
          "indexed": true,
          "internalType": "address",
          "name": "base",
          "type": "address"
        },
        {
          "indexed": true,
          "internalType": "address",
          "name": "pause",
          "type": "address"
        }
      ],
      "name": "DenyProxy",
      "type": "event"
    },
    {
      "anonymous": false,
      "inputs": [
        {
          "indexed": true,
          "internalType": "bytes32",
          "name": "what",
          "type": "bytes32"
        },
        {
          "indexed": false,
          "internalType": "uint256",
          "name": "data",
          "type": "uint256"
        }
      ],
      "name": "File",
      "type": "event"
    },
    {
      "anonymous": false,
      "inputs": [
        {
          "indexed": true,
          "internalType": "bytes32",
          "name": "what",
          "type": "bytes32"
        },
        {
          "indexed": false,
          "internalType": "address",
          "name": "data",
          "type": "address"
        }
      ],
      "name": "File",
      "type": "event"
    },
    {
      "anonymous": false,
      "inputs": [],
      "name": "Fire",
      "type": "event"
    },
    {
      "anonymous": false,
      "inputs": [
        {
          "indexed": true,
          "internalType": "address",
          "name": "usr",
          "type": "address"
        },
        {
          "indexed": false,
          "internalType": "uint256",
          "name": "wad",
          "type": "uint256"
        }
      ],
      "name": "Join",
      "type": "event"
    },
    {
      "anonymous": false,
      "inputs": [
        {
          "indexed": true,
          "internalType": "address",
          "name": "usr",
          "type": "address"
        }
      ],
      "name": "Rely",
      "type": "event"
    },
    {
      "inputs": [],
      "name": "Sum",
      "outputs": [
        {
          "internalType": "uint256",
          "name": "",
          "type": "uint256"
        }
      ],
      "stateMutability": "view",
      "type": "function"
    },
    {
      "inputs": [],
      "name": "burn",
      "outputs": [],
      "stateMutability": "nonpayable",
      "type": "function"
    },
    {
      "inputs": [],
      "name": "cage",
      "outputs": [],
      "stateMutability": "nonpayable",
      "type": "function"
    },
    {
      "inputs": [
        {
          "internalType": "address",
          "name": "usr",
          "type": "address"
        }
      ],
      "name": "deny",
      "outputs": [],
      "stateMutability": "nonpayable",
      "type": "function"
    },
    {
      "inputs": [
        {
          "internalType": "address",
          "name": "target",
          "type": "address"
        }
      ],
      "name": "denyProxy",
      "outputs": [],
      "stateMutability": "nonpayable",
      "type": "function"
    },
    {
      "inputs": [],
      "name": "end",
      "outputs": [
        {
          "internalType": "contract EndLike",
          "name": "",
          "type": "address"
        }
      ],
      "stateMutability": "view",
      "type": "function"
    },
    {
      "inputs": [
        {
          "internalType": "bytes32",
          "name": "what",
          "type": "bytes32"
        },
        {
          "internalType": "uint256",
          "name": "data",
          "type": "uint256"
        }
      ],
      "name": "file",
      "outputs": [],
      "stateMutability": "nonpayable",
      "type": "function"
    },
    {
      "inputs": [
        {
          "internalType": "bytes32",
          "name": "what",
          "type": "bytes32"
        },
        {
          "internalType": "address",
          "name": "data",
          "type": "address"
        }
      ],
      "name": "file",
      "outputs": [],
      "stateMutability": "nonpayable",
      "type": "function"
    },
    {
      "inputs": [],
      "name": "fire",
      "outputs": [],
      "stateMutability": "nonpayable",
      "type": "function"
    },
    {
      "inputs": [],
      "name": "gem",
      "outputs": [
        {
          "internalType": "contract GemLike",
          "name": "",
          "type": "address"
        }
      ],
      "stateMutability": "view",
      "type": "function"
    },
    {
      "inputs": [
        {
          "internalType": "uint256",
          "name": "wad",
          "type": "uint256"
        }
      ],
      "name": "join",
      "outputs": [],
      "stateMutability": "nonpayable",
      "type": "function"
    },
    {
      "inputs": [],
      "name": "live",
      "outputs": [
        {
          "internalType": "uint256",
          "name": "",
          "type": "uint256"
        }
      ],
      "stateMutability": "view",
      "type": "function"
    },
    {
      "inputs": [],
      "name": "min",
      "outputs": [
        {
          "internalType": "uint256",
          "name": "",
          "type": "uint256"
        }
      ],
      "stateMutability": "view",
      "type": "function"
    },
    {
      "inputs": [],
      "name": "proxy",
      "outputs": [
        {
          "internalType": "address",
          "name": "",
          "type": "address"
        }
      ],
      "stateMutability": "view",
      "type": "function"
    },
    {
      "inputs": [
        {
          "internalType": "address",
          "name": "usr",
          "type": "address"
        }
      ],
      "name": "rely",
      "outputs": [],
      "stateMutability": "nonpayable",
      "type": "function"
    },
    {
      "inputs": [],
      "name": "revokesGovernanceAccess",
      "outputs": [
        {
          "internalType": "bool",
          "name": "ret",
          "type": "bool"
        }
      ],
      "stateMutability": "view",
      "type": "function"
    },
    {
      "inputs": [
        {
          "internalType": "address",
          "name": "",
          "type": "address"
        }
      ],
      "name": "sum",
      "outputs": [
        {
          "internalType": "uint256",
          "name": "",
          "type": "uint256"
        }
      ],
      "stateMutability": "view",
      "type": "function"
    },
    {
      "inputs": [
        {
          "internalType": "address",
          "name": "",
          "type": "address"
        }
      ],
      "name": "wards",
      "outputs": [
        {
          "internalType": "uint256",
          "name": "",
          "type": "uint256"
        }
      ],
      "stateMutability": "view",
      "type": "function"
    }
  ],
  "bytecode": "0x60c060405234801561001057600080fd5b50604051610f91380380610f918339818101604052608081101561003357600080fd5b50805160208083015160408085015160609586015185871b6001600160601b0319908116608052600480546001600160a01b0319166001600160a01b0387161790559682901b90961660a052600386905560016005819055336000818152958690528386209190915591519495929490937fdd0e34038ac38b2a1ce960229778ac48a8719bc900b6c4f8d0475c6e8b385a6091a25050505060805160601c60a05160601c610e7a610117600039806105ae528061062f528061068152806109825280610a355280610dd7525080610415528061081a5280610c275250610e7a6000f3fe608060405234801561001057600080fd5b50600436106100e65760003560e01c8063049878f3146100eb5780630715940e1461010a57806314c7bbd51461013057806329ae81141461014c57806337be827d1461016f57806344df8e7014610189578063457094cc1461019157806365fae35e1461019957806369245009146101bf5780637bd2bea7146101c75780637e459c60146101eb578063957aa58c146102115780639c52a7f114610219578063bf353dbb1461023f578063d4e8be8314610265578063ec55688914610291578063efbe1c1c14610299578063f8897945146102a1575b600080fd5b6101086004803603602081101561010157600080fd5b50356102a9565b005b6101086004803603602081101561012057600080fd5b50356001600160a01b0316610509565b61013861067f565b604080519115158252519081900360200190f35b6101086004803603604081101561016257600080fd5b50803590602001356106ae565b6101776107f4565b60408051918252519081900360200190f35b6101086107fa565b6101086108ec565b610108600480360360208110156101af57600080fd5b50356001600160a01b0316610b27565b610108610bc5565b6101cf610c25565b604080516001600160a01b039092168252519081900360200190f35b6101776004803603602081101561020157600080fd5b50356001600160a01b0316610c49565b610177610c5b565b6101086004803603602081101561022f57600080fd5b50356001600160a01b0316610c61565b6101776004803603602081101561025557600080fd5b50356001600160a01b0316610cfe565b6101086004803603604081101561027b57600080fd5b50803590602001356001600160a01b0316610d10565b6101cf610dd5565b6101cf610df9565b610177610e08565b6005546001146102ee576040805162461bcd60e51b81526020600482015260186024820152600080516020610e25833981519152604482015290519081900360640190fd5b600480546040805163255ea96360e21b815290516001600160a01b039092169263957aa58c928282019260209290829003018186803b15801561033057600080fd5b505afa158015610344573d6000803e3d6000fd5b505050506040513d602081101561035a57600080fd5b50516001146103ae576040805162461bcd60e51b815260206004820152601b60248201527a22a9a697b9bcb9ba32b696b0b63932b0b23c96b9b43aba3237bbb760291b604482015290519081900360640190fd5b336000908152600160205260409020546103c89082610e0e565b336000908152600160205260409020556002546103e59082610e0e565b600255604080516323b872dd60e01b81523360048201523060248201526044810183905290516001600160a01b037f000000000000000000000000000000000000000000000000000000000000000016916323b872dd9160648083019260209291908290030181600087803b15801561045d57600080fd5b505af1158015610471573d6000803e3d6000fd5b505050506040513d602081101561048757600080fd5b50516104d0576040805162461bcd60e51b81526020600482015260136024820152721154d34bdd1c985b9cd9995c8b59985a5b1959606a1b604482015290519081900360640190fd5b60408051828152905133917fb4e09949657f21548b58afe74e7b86cd2295da5ff1598ae1e5faecb1cf19ca95919081900360200190a250565b60055460011461054e576040805162461bcd60e51b81526020600482015260186024820152600080516020610e25833981519152604482015290519081900360640190fd5b600354600254101561059d576040805162461bcd60e51b81526020600482015260136024820152721154d34bdb5a5b8b5b9bdd0b5c995858da1959606a1b604482015290519081900360640190fd5b806001600160a01b0316639c52a7f17f00000000000000000000000000000000000000000000000000000000000000006040518263ffffffff1660e01b815260040180826001600160a01b03168152602001915050600060405180830381600087803b15801561060c57600080fd5b505af1158015610620573d6000803e3d6000fd5b50506040516001600160a01b037f000000000000000000000000000000000000000000000000000000000000000081169350841691507f74269424d52f84560e5738dd2769b61b0e04d5c87c87ca043a1e005e0722a67890600090a350565b7f00000000000000000000000000000000000000000000000000000000000000006001600160a01b0316151590565b33600090815260208190526040902054600114610707576040805162461bcd60e51b81526020600482015260126024820152711154d34bdb9bdd0b585d5d1a1bdc9a5e995960721b604482015290519081900360640190fd5b816236b4b760e91b141561076f57670de0b6b3a76400008111610765576040805162461bcd60e51b81526020600482015260116024820152701154d34bdb5a5b8b5d1bdbcb5cdb585b1b607a1b604482015290519081900360640190fd5b60038190556107ba565b6040805162461bcd60e51b815260206004820152601b60248201527a45534d2f66696c652d756e7265636f676e697a65642d706172616d60281b604482015290519081900360640190fd5b60408051828152905183917fe986e40cc8c151830d4f61050f4fb2e4add8567caad2d5f5496f9158e91fe4c7919081900360200190a25050565b60025481565b604080516370a0823160e01b815230600482015290516001600160a01b037f000000000000000000000000000000000000000000000000000000000000000016916342966c689183916370a08231916024808301926020929190829003018186803b15801561086857600080fd5b505afa15801561087c573d6000803e3d6000fd5b505050506040513d602081101561089257600080fd5b5051604080516001600160e01b031960e085901b168152600481019290925251602480830192600092919082900301818387803b1580156108d257600080fd5b505af11580156108e6573d6000803e3d6000fd5b50505050565b600554600114610931576040805162461bcd60e51b81526020600482015260186024820152600080516020610e25833981519152604482015290519081900360640190fd5b6003546002541015610980576040805162461bcd60e51b81526020600482015260136024820152721154d34bdb5a5b8b5b9bdd0b5c995858da1959606a1b604482015290519081900360640190fd5b7f00000000000000000000000000000000000000000000000000000000000000006001600160a01b031615610aa15760048054604080516336569e7760e01b815290516001600160a01b03909216926336569e77928282019260209290829003018186803b1580156109f157600080fd5b505afa158015610a05573d6000803e3d6000fd5b505050506040513d6020811015610a1b57600080fd5b505160408051639c52a7f160e01b81526001600160a01b037f00000000000000000000000000000000000000000000000000000000000000008116600483015291519190921691639c52a7f191602480830192600092919082900301818387803b158015610a8857600080fd5b505af1158015610a9c573d6000803e3d6000fd5b505050505b6004805460408051636924500960e01b815290516001600160a01b0390921692636924500992828201926000929082900301818387803b158015610ae457600080fd5b505af1158015610af8573d6000803e3d6000fd5b50506040517f14c539ef1ff6ef515371448cd46419fd75ebb8698b7f6644c4f66b03b0327085925060009150a1565b33600090815260208190526040902054600114610b80576040805162461bcd60e51b81526020600482015260126024820152711154d34bdb9bdd0b585d5d1a1bdc9a5e995960721b604482015290519081900360640190fd5b6001600160a01b03811660008181526020819052604080822060019055517fdd0e34038ac38b2a1ce960229778ac48a8719bc900b6c4f8d0475c6e8b385a609190a250565b33600090815260208190526040902054600114610c1e576040805162461bcd60e51b81526020600482015260126024820152711154d34bdb9bdd0b585d5d1a1bdc9a5e995960721b604482015290519081900360640190fd5b6000600555565b7f000000000000000000000000000000000000000000000000000000000000000081565b60016020526000908152604090205481565b60055481565b33600090815260208190526040902054600114610cba576040805162461bcd60e51b81526020600482015260126024820152711154d34bdb9bdd0b585d5d1a1bdc9a5e995960721b604482015290519081900360640190fd5b6001600160a01b038116600081815260208190526040808220829055517f184450df2e323acec0ed3b5c7531b81f9b4cdef7914dfd4c0a4317416bb5251b9190a250565b60006020819052908152604090205481565b33600090815260208190526040902054600114610d69576040805162461bcd60e51b81526020600482015260126024820152711154d34bdb9bdd0b585d5d1a1bdc9a5e995960721b604482015290519081900360640190fd5b8162195b9960ea1b141561076f57600480546001600160a01b0319166001600160a01b038316179055604080516001600160a01b0383168152905183917f8fef588b5fc1afbf5b2f06c1a435d513f208da2e6704c3d8f0e0ec91167066ba919081900360200190a25050565b7f000000000000000000000000000000000000000000000000000000000000000081565b6004546001600160a01b031681565b60035481565b81810182811015610e1e57600080fd5b9291505056fe45534d2f7065726d616e656e746c792d64697361626c65640000000000000000a2646970667358221220d5d6a402ea49ec99f354aa455bcf91553a7d2793597680126ae57f07ad2a426f64736f6c634300060c0033",
  "linkReferences": {},
  "deployedLinkReferences": {}
}