{
  "_format": "hh-sol-artifact-1",
  "contractName": "Flapper",
  "sourceName": "contracts/dss/flap.sol",
  "abi": [
    {
      "inputs": [
        {
          "internalType": "address",
          "name": "vat_",
          "type": "address"
        },
        {
          "internalType": "address",
          "name": "gem_",
          "type": "address"
        }
      ],
      "stateMutability": "nonpayable",
      "type": "constructor"
    },
    {
      "anonymous": false,
      "inputs": [],
      "name": "Cage",
      "type": "event"
    },
    {
      "anonymous": false,
      "inputs": [
        {
          "indexed": true,
          "internalType": "uint256",
          "name": "id",
          "type": "uint256"
        }
      ],
      "name": "Deal",
      "type": "event"
    },
    {
      "anonymous": false,
      "inputs": [
        {
          "indexed": true,
          "internalType": "address",
          "name": "usr",
          "type": "address"
        }
      ],
      "name": "Deny",
      "type": "event"
    },
    {
      "anonymous": false,
      "inputs": [
        {
          "indexed": true,
          "internalType": "bytes32",
          "name": "what",
          "type": "bytes32"
        },
        {
          "indexed": false,
          "internalType": "uint256",
          "name": "data",
          "type": "uint256"
        }
      ],
      "name": "File",
      "type": "event"
    },
    {
      "anonymous": false,
      "inputs": [
        {
          "indexed": false,
          "internalType": "uint256",
          "name": "id",
          "type": "uint256"
        },
        {
          "indexed": false,
          "internalType": "uint256",
          "name": "lot",
          "type": "uint256"
        },
        {
          "indexed": false,
          "internalType": "uint256",
          "name": "bid",
          "type": "uint256"
        }
      ],
      "name": "Kick",
      "type": "event"
    },
    {
      "anonymous": false,
      "inputs": [
        {
          "indexed": true,
          "internalType": "address",
          "name": "usr",
          "type": "address"
        }
      ],
      "name": "Rely",
      "type": "event"
    },
    {
      "anonymous": false,
      "inputs": [
        {
          "indexed": true,
          "internalType": "uint256",
          "name": "id",
          "type": "uint256"
        },
        {
          "indexed": false,
          "internalType": "uint256",
          "name": "lot",
          "type": "uint256"
        },
        {
          "indexed": false,
          "internalType": "uint256",
          "name": "bid",
          "type": "uint256"
        }
      ],
      "name": "Tend",
      "type": "event"
    },
    {
      "anonymous": false,
      "inputs": [
        {
          "indexed": true,
          "internalType": "uint256",
          "name": "id",
          "type": "uint256"
        }
      ],
      "name": "Tick",
      "type": "event"
    },
    {
      "anonymous": false,
      "inputs": [
        {
          "indexed": true,
          "internalType": "uint256",
          "name": "id",
          "type": "uint256"
        }
      ],
      "name": "Yank",
      "type": "event"
    },
    {
      "inputs": [],
      "name": "beg",
      "outputs": [
        {
          "internalType": "uint256",
          "name": "",
          "type": "uint256"
        }
      ],
      "stateMutability": "view",
      "type": "function"
    },
    {
      "inputs": [
        {
          "internalType": "uint256",
          "name": "",
          "type": "uint256"
        }
      ],
      "name": "bids",
      "outputs": [
        {
          "internalType": "uint256",
          "name": "bid",
          "type": "uint256"
        },
        {
          "internalType": "uint256",
          "name": "lot",
          "type": "uint256"
        },
        {
          "internalType": "address",
          "name": "guy",
          "type": "address"
        },
        {
          "internalType": "uint48",
          "name": "tic",
          "type": "uint48"
        },
        {
          "internalType": "uint48",
          "name": "end",
          "type": "uint48"
        }
      ],
      "stateMutability": "view",
      "type": "function"
    },
    {
      "inputs": [
        {
          "internalType": "uint256",
          "name": "rad",
          "type": "uint256"
        }
      ],
      "name": "cage",
      "outputs": [],
      "stateMutability": "nonpayable",
      "type": "function"
    },
    {
      "inputs": [
        {
          "internalType": "uint256",
          "name": "id",
          "type": "uint256"
        }
      ],
      "name": "deal",
      "outputs": [],
      "stateMutability": "nonpayable",
      "type": "function"
    },
    {
      "inputs": [
        {
          "internalType": "address",
          "name": "usr",
          "type": "address"
        }
      ],
      "name": "deny",
      "outputs": [],
      "stateMutability": "nonpayable",
      "type": "function"
    },
    {
      "inputs": [
        {
          "internalType": "bytes32",
          "name": "what",
          "type": "bytes32"
        },
        {
          "internalType": "uint256",
          "name": "data",
          "type": "uint256"
        }
      ],
      "name": "file",
      "outputs": [],
      "stateMutability": "nonpayable",
      "type": "function"
    },
    {
      "inputs": [],
      "name": "fill",
      "outputs": [
        {
          "internalType": "uint256",
          "name": "",
          "type": "uint256"
        }
      ],
      "stateMutability": "view",
      "type": "function"
    },
    {
      "inputs": [],
      "name": "gem",
      "outputs": [
        {
          "internalType": "contract GemLike",
          "name": "",
          "type": "address"
        }
      ],
      "stateMutability": "view",
      "type": "function"
    },
    {
      "inputs": [
        {
          "internalType": "uint256",
          "name": "lot",
          "type": "uint256"
        },
        {
          "internalType": "uint256",
          "name": "bid",
          "type": "uint256"
        }
      ],
      "name": "kick",
      "outputs": [
        {
          "internalType": "uint256",
          "name": "id",
          "type": "uint256"
        }
      ],
      "stateMutability": "nonpayable",
      "type": "function"
    },
    {
      "inputs": [],
      "name": "kicks",
      "outputs": [
        {
          "internalType": "uint256",
          "name": "",
          "type": "uint256"
        }
      ],
      "stateMutability": "view",
      "type": "function"
    },
    {
      "inputs": [],
      "name": "lid",
      "outputs": [
        {
          "internalType": "uint256",
          "name": "",
          "type": "uint256"
        }
      ],
      "stateMutability": "view",
      "type": "function"
    },
    {
      "inputs": [],
      "name": "live",
      "outputs": [
        {
          "internalType": "uint256",
          "name": "",
          "type": "uint256"
        }
      ],
      "stateMutability": "view",
      "type": "function"
    },
    {
      "inputs": [
        {
          "internalType": "address",
          "name": "usr",
          "type": "address"
        }
      ],
      "name": "rely",
      "outputs": [],
      "stateMutability": "nonpayable",
      "type": "function"
    },
    {
      "inputs": [],
      "name": "tau",
      "outputs": [
        {
          "internalType": "uint48",
          "name": "",
          "type": "uint48"
        }
      ],
      "stateMutability": "view",
      "type": "function"
    },
    {
      "inputs": [
        {
          "internalType": "uint256",
          "name": "id",
          "type": "uint256"
        },
        {
          "internalType": "uint256",
          "name": "lot",
          "type": "uint256"
        },
        {
          "internalType": "uint256",
          "name": "bid",
          "type": "uint256"
        }
      ],
      "name": "tend",
      "outputs": [],
      "stateMutability": "nonpayable",
      "type": "function"
    },
    {
      "inputs": [
        {
          "internalType": "uint256",
          "name": "id",
          "type": "uint256"
        }
      ],
      "name": "tick",
      "outputs": [],
      "stateMutability": "nonpayable",
      "type": "function"
    },
    {
      "inputs": [],
      "name": "ttl",
      "outputs": [
        {
          "internalType": "uint48",
          "name": "",
          "type": "uint48"
        }
      ],
      "stateMutability": "view",
      "type": "function"
    },
    {
      "inputs": [],
      "name": "vat",
      "outputs": [
        {
          "internalType": "contract VatLike",
          "name": "",
          "type": "address"
        }
      ],
      "stateMutability": "view",
      "type": "function"
    },
    {
      "inputs": [
        {
          "internalType": "address",
          "name": "",
          "type": "address"
        }
      ],
      "name": "wards",
      "outputs": [
        {
          "internalType": "uint256",
          "name": "",
          "type": "uint256"
        }
      ],
      "stateMutability": "view",
      "type": "function"
    },
    {
      "inputs": [
        {
          "internalType": "uint256",
          "name": "id",
          "type": "uint256"
        }
      ],
      "name": "yank",
      "outputs": [],
      "stateMutability": "nonpayable",
      "type": "function"
    }
  ],
  "bytecode": "0x6080604052670e92596fd629000060045560058054612a3065ffffffffffff199091161765ffffffffffff60301b19166802a300000000000000179055600060065534801561004d57600080fd5b506040516113993803806113998339818101604052604081101561007057600080fd5b508051602091820151336000908152928390526040909220600190819055600280546001600160a01b039384166001600160a01b03199182161790915560038054939094169216919091179091556007556112c9806100d06000396000f3fe608060405234801561001057600080fd5b50600436106100fc5760003560e01c806326d2addc1461010157806326e027f11461011b57806329ae81141461013a57806336569e771461015d5780634423c5f1146101815780634b43ed12146101dc5780634e8b1dd51461020557806365fae35e146102285780637bd2bea71461024e5780637d780d8214610256578063957aa58c1461025e5780639c52a7f114610266578063a2f91af21461028c578063bf353dbb146102a9578063c959c42b146102cf578063ca40c419146102ec578063cfc4af551461030f578063cfdd330214610317578063d9c55ce11461031f578063fc7b6aee14610327575b600080fd5b610109610344565b60408051918252519081900360200190f35b6101386004803603602081101561013157600080fd5b503561034a565b005b6101386004803603604081101561015057600080fd5b50803590602001356104c6565b6101656105de565b604080516001600160a01b039092168252519081900360200190f35b61019e6004803603602081101561019757600080fd5b50356105ed565b6040805195865260208601949094526001600160a01b039092168484015265ffffffffffff9081166060850152166080830152519081900360a00190f35b610138600480360360608110156101f257600080fd5b5080359060208101359060400135610631565b61020d610b10565b6040805165ffffffffffff9092168252519081900360200190f35b6101386004803603602081101561023e57600080fd5b50356001600160a01b0316610b1e565b610165610b3b565b610109610b4a565b610109610b50565b6101386004803603602081101561027c57600080fd5b50356001600160a01b0316610b56565b610138600480360360208110156102a257600080fd5b5035610b70565b610109600480360360208110156102bf57600080fd5b50356001600160a01b0316610c0e565b610138600480360360208110156102e557600080fd5b5035610c20565b6101096004803603604081101561030257600080fd5b5080359060200135610e82565b61020d6110b3565b6101096110c8565b6101096110ce565b6101386004803603602081101561033d57600080fd5b50356110d4565b60085481565b60075415610394576040805162461bcd60e51b8152602060048201526012602482015271466c61707065722f7374696c6c2d6c69766560701b604482015290519081900360640190fd5b6000818152600160205260409020600201546001600160a01b03166103f6576040805162461bcd60e51b8152602060048201526013602482015272119b185c1c195c8bd9dd5e4b5b9bdd0b5cd95d606a1b604482015290519081900360640190fd5b60035460008281526001602052604080822060028101549054825163bb35783b60e01b81523060048201526001600160a01b0392831660248201526044810191909152915193169263bb35783b9260648084019391929182900301818387803b15801561046257600080fd5b505af1158015610476573d6000803e3d6000fd5b50505060008281526001602081905260408083208381559182018390556002909101829055518392507f2c5d2826eb5903b8fc201cf48094b858f42f61c7eaac9aaf43ebed490138144e9190a250565b816262656760e81b14156104de5760048190556105a4565b81621d1d1b60ea1b141561050a576005805465ffffffffffff191665ffffffffffff83161790556105a4565b816274617560e81b141561053f576005805465ffffffffffff60301b1916600160301b65ffffffffffff8416021790556105a4565b81621b1a5960ea1b14156105575760088190556105a4565b6040805162461bcd60e51b815260206004820152601f60248201527f466c61707065722f66696c652d756e7265636f676e697a65642d706172616d00604482015290519081900360640190fd5b60408051828152905183917fe986e40cc8c151830d4f61050f4fb2e4add8567caad2d5f5496f9158e91fe4c7919081900360200190a25050565b6002546001600160a01b031681565b60016020819052600091825260409091208054918101546002909101546001600160a01b0381169065ffffffffffff600160a01b8204811691600160d01b90041685565b60075460011461067b576040805162461bcd60e51b815260206004820152601060248201526f466c61707065722f6e6f742d6c69766560801b604482015290519081900360640190fd5b6000838152600160205260409020600201546001600160a01b03166106dd576040805162461bcd60e51b8152602060048201526013602482015272119b185c1c195c8bd9dd5e4b5b9bdd0b5cd95d606a1b604482015290519081900360640190fd5b60008381526001602052604090206002015442600160a01b90910465ffffffffffff16118061072a5750600083815260016020526040902060020154600160a01b900465ffffffffffff16155b61077a576040805162461bcd60e51b815260206004820152601c60248201527b466c61707065722f616c72656164792d66696e69736865642d74696360201b604482015290519081900360640190fd5b60008381526001602052604090206002015442600160d01b90910465ffffffffffff16116107ee576040805162461bcd60e51b815260206004820152601c60248201527b119b185c1c195c8bd85b1c9958591e4b599a5b9a5cda19590b595b9960221b604482015290519081900360640190fd5b60008381526001602081905260409091200154821461084f576040805162461bcd60e51b8152602060048201526018602482015277466c61707065722f6c6f742d6e6f742d6d61746368696e6760401b604482015290519081900360640190fd5b60008381526001602052604090205481116108aa576040805162461bcd60e51b8152602060048201526016602482015275233630b83832b917b134b216b737ba16b434b3b432b960511b604482015290519081900360640190fd5b6004546000848152600160205260409020546108c6919061122e565b6108d882670de0b6b3a764000061122e565b101561092b576040805162461bcd60e51b815260206004820152601d60248201527f466c61707065722f696e73756666696369656e742d696e637265617365000000604482015290519081900360640190fd5b6000838152600160205260409020600201546001600160a01b031633146109f25760035460008481526001602052604080822060028101549054825163bb35783b60e01b81523360048201526001600160a01b0392831660248201526044810191909152915193169263bb35783b9260648084019391929182900301818387803b1580156109b857600080fd5b505af11580156109cc573d6000803e3d6000fd5b505050600084815260016020526040902060020180546001600160a01b03191633179055505b60035460008481526001602052604080822054815163bb35783b60e01b8152336004820152306024820152908503604482015290516001600160a01b039093169263bb35783b9260648084019391929182900301818387803b158015610a5757600080fd5b505af1158015610a6b573d6000803e3d6000fd5b505050600084815260016020526040902082905550600554610a9690429065ffffffffffff16611258565b600084815260016020908152604091829020600201805465ffffffffffff94909416600160a01b0265ffffffffffff60a01b19909416939093179092558051848152918201839052805185927fa679d55253c3ee26605ebe5dd2fb3b0194579ef2853099b5102c283a4e667ecd92908290030190a2505050565b60055465ffffffffffff1681565b6001600160a01b0316600090815260208190526040902060019055565b6003546001600160a01b031681565b60045481565b60075481565b6001600160a01b0316600090815260208190526040812055565b600060078190556002546040805163bb35783b60e01b81523060048201523360248201526044810185905290516001600160a01b039092169263bb35783b9260648084019382900301818387803b158015610bca57600080fd5b505af1158015610bde573d6000803e3d6000fd5b50506040517f2308ed18a14e800c39b86eb6ea43270105955ca385b603b64eca89f98ae8fbda925060009150a150565b60006020819052908152604090205481565b600754600114610c6a576040805162461bcd60e51b815260206004820152601060248201526f466c61707065722f6e6f742d6c69766560801b604482015290519081900360640190fd5b600081815260016020526040902060020154600160a01b900465ffffffffffff1615801590610ce3575060008181526001602052604090206002015442600160a01b90910465ffffffffffff161080610ce3575060008181526001602052604090206002015442600160d01b90910465ffffffffffff16105b610d2b576040805162461bcd60e51b8152602060048201526014602482015273119b185c1c195c8bdb9bdd0b599a5b9a5cda195960621b604482015290519081900360640190fd5b60008181526001602081905260408083209182015460028054930154825163bb35783b60e01b81523060048201526001600160a01b039182166024820152604481018390529251919493169263bb35783b926064808201939182900301818387803b158015610d9957600080fd5b505af1158015610dad573d6000803e3d6000fd5b5050600354600085815260016020526040808220548151632770a7eb60e21b8152306004820152602481019190915290516001600160a01b039093169450639dc29fac93506044808201939182900301818387803b158015610e0e57600080fd5b505af1158015610e22573d6000803e3d6000fd5b505050600083815260016020819052604082208281559081018290556002015550600954610e509082611273565b60095560405182907f71a76872b00dbc7728a966e65795cf08a847d5a061e6f9a666baaf3d601931db90600090a25050565b6000600754600114610ece576040805162461bcd60e51b815260206004820152601060248201526f466c61707065722f6e6f742d6c69766560801b604482015290519081900360640190fd5b60001960065410610f19576040805162461bcd60e51b815260206004820152601060248201526f466c61707065722f6f766572666c6f7760801b604482015290519081900360640190fd5b610f2560095484611283565b60098190556008541015610f73576040805162461bcd60e51b815260206004820152601060248201526f119b185c1c195c8bdbdd995c8b5b1a5960821b604482015290519081900360640190fd5b5060068054600190810191829055600082815260208290526040902083815590810184905560020180546001600160a01b03191633179055600554610fc990429065ffffffffffff600160301b90910416611258565b6000828152600160205260408082206002908101805465ffffffffffff95909516600160d01b026001600160d01b03909516949094179093559154825163bb35783b60e01b81523360048201523060248201526044810187905292516001600160a01b039091169263bb35783b92606480830193919282900301818387803b15801561105457600080fd5b505af1158015611068573d6000803e3d6000fd5b5050604080518481526020810187905280820186905290517fe6dde59cbc017becba89714a037778d234a84ce7f0a137487142a007e580d6099350908190036060019150a192915050565b600554600160301b900465ffffffffffff1681565b60065481565b60095481565b60008181526001602052604090206002015442600160d01b90910465ffffffffffff1610611140576040805162461bcd60e51b8152602060048201526014602482015273119b185c1c195c8bdb9bdd0b599a5b9a5cda195960621b604482015290519081900360640190fd5b600081815260016020526040902060020154600160a01b900465ffffffffffff16156111b0576040805162461bcd60e51b815260206004820152601a602482015279119b185c1c195c8bd89a590b585b1c9958591e4b5c1b1858d95960321b604482015290519081900360640190fd5b6005546111cd904290600160301b900465ffffffffffff16611258565b600082815260016020526040808220600201805465ffffffffffff94909416600160d01b026001600160d01b0390941693909317909255905182917fb8c95b3cea6303a753d912e243354ef08add1085ed07d34191514ef1001ef9d891a250565b60008115806112495750508082028282828161124657fe5b04145b61125257600080fd5b92915050565b80820165ffffffffffff808416908216101561125257600080fd5b8082038281111561125257600080fd5b8082018281101561125257600080fdfea2646970667358221220f1cf69ab8dc030f6d3c1b3cfacab98dac8a69b578d521203d00972a382c5248f64736f6c634300060c0033",
  "linkReferences": {},
  "deployedLinkReferences": {}
}