{
  "_format": "hh-sol-artifact-1",
  "contractName": "DSValue",
  "sourceName": "contracts/ds-value/src/value.sol",
  "abi": [
    {
      "anonymous": false,
      "inputs": [
        {
          "indexed": true,
          "internalType": "address",
          "name": "authority",
          "type": "address"
        }
      ],
      "name": "LogSetAuthority",
      "type": "event"
    },
    {
      "anonymous": false,
      "inputs": [
        {
          "indexed": true,
          "internalType": "address",
          "name": "owner",
          "type": "address"
        }
      ],
      "name": "LogSetOwner",
      "type": "event"
    },
    {
      "inputs": [],
      "name": "authority",
      "outputs": [
        {
          "internalType": "contract DSAuthority",
          "name": "",
          "type": "address"
        }
      ],
      "stateMutability": "view",
      "type": "function"
    },
    {
      "inputs": [],
      "name": "owner",
      "outputs": [
        {
          "internalType": "address",
          "name": "",
          "type": "address"
        }
      ],
      "stateMutability": "view",
      "type": "function"
    },
    {
      "inputs": [],
      "name": "peek",
      "outputs": [
        {
          "internalType": "bytes32",
          "name": "",
          "type": "bytes32"
        },
        {
          "internalType": "bool",
          "name": "",
          "type": "bool"
        }
      ],
      "stateMutability": "view",
      "type": "function"
    },
    {
      "inputs": [
        {
          "internalType": "bytes32",
          "name": "wut",
          "type": "bytes32"
        }
      ],
      "name": "poke",
      "outputs": [],
      "stateMutability": "nonpayable",
      "type": "function"
    },
    {
      "inputs": [],
      "name": "read",
      "outputs": [
        {
          "internalType": "bytes32",
          "name": "",
          "type": "bytes32"
        }
      ],
      "stateMutability": "view",
      "type": "function"
    },
    {
      "inputs": [
        {
          "internalType": "contract DSAuthority",
          "name": "authority_",
          "type": "address"
        }
      ],
      "name": "setAuthority",
      "outputs": [],
      "stateMutability": "nonpayable",
      "type": "function"
    },
    {
      "inputs": [
        {
          "internalType": "address",
          "name": "owner_",
          "type": "address"
        }
      ],
      "name": "setOwner",
      "outputs": [],
      "stateMutability": "nonpayable",
      "type": "function"
    },
    {
      "inputs": [],
      "name": "void",
      "outputs": [],
      "stateMutability": "nonpayable",
      "type": "function"
    }
  ],
  "bytecode": "0x608060405234801561001057600080fd5b50600180546001600160a01b031916339081179091556040517fce241d7ca1f669fee44b6fc00b8eba2df3bb514eed0f6f668f8f89096e81ed9490600090a261047c8061005e6000396000f3fe608060405234801561001057600080fd5b50600436106100785760003560e01c806313af40351461007d5780631504460f146100a557806357de26a4146100c257806359e02dd7146100dc5780637a9e5e4b146100fd5780638da5cb5b14610123578063ac4c25b214610147578063bf7e214f1461014f575b600080fd5b6100a36004803603602081101561009357600080fd5b50356001600160a01b0316610157565b005b6100a3600480360360208110156100bb57600080fd5b5035610205565b6100ca61021d565b60408051918252519081900360200190f35b6100e4610271565b6040805192835290151560208301528051918290030190f35b6100a36004803603602081101561011357600080fd5b50356001600160a01b0316610286565b61012b610330565b604080516001600160a01b039092168252519081900360200190f35b6100a361033f565b61012b61034e565b61016d336000356001600160e01b03191661035d565b6101b5576040805162461bcd60e51b8152602060048201526014602482015273191ccb585d5d1a0b5d5b985d5d1a1bdc9a5e995960621b604482015290519081900360640190fd5b600180546001600160a01b0319166001600160a01b0383811691909117918290556040519116907fce241d7ca1f669fee44b6fc00b8eba2df3bb514eed0f6f668f8f89096e81ed9490600090a250565b6002556001805460ff60a01b1916600160a01b179055565b600080600061022a610271565b90925090508061026b576040805162461bcd60e51b81526020600482015260076024820152661a185e8b5b9bdd60ca1b604482015290519081900360640190fd5b50905090565b60025460015460ff600160a01b909104169091565b61029c336000356001600160e01b03191661035d565b6102e4576040805162461bcd60e51b8152602060048201526014602482015273191ccb585d5d1a0b5d5b985d5d1a1bdc9a5e995960621b604482015290519081900360640190fd5b600080546001600160a01b0319166001600160a01b03838116919091178083556040519116917f1abebea81bfa2637f28358c371278fb15ede7ea8dd28d2e03b112ff6d936ada491a250565b6001546001600160a01b031681565b6001805460ff60a01b19169055565b6000546001600160a01b031681565b60006001600160a01b03831630141561037857506001610440565b6001546001600160a01b038481169116141561039657506001610440565b6000546001600160a01b03166103ae57506000610440565b6000546040805163b700961360e01b81526001600160a01b0386811660048301523060248301526001600160e01b0319861660448301529151919092169163b7009613916064808301926020929190829003018186803b15801561041157600080fd5b505afa158015610425573d6000803e3d6000fd5b505050506040513d602081101561043b57600080fd5b505190505b9291505056fea26469706673582212207bb80e1edd3c3ccd89313db0992587b47196338ad6bbd41d182136f2229ae5a764736f6c634300060c0033",
  "linkReferences": {},
  "deployedLinkReferences": {}
}