{
  "_format": "hh-sol-artifact-1",
  "contractName": "Clipper",
  "sourceName": "contracts/dss/clip.sol",
  "abi": [
    {
      "inputs": [
        {
          "internalType": "address",
          "name": "vat_",
          "type": "address"
        },
        {
          "internalType": "address",
          "name": "spotter_",
          "type": "address"
        },
        {
          "internalType": "address",
          "name": "dog_",
          "type": "address"
        },
        {
          "internalType": "bytes32",
          "name": "ilk_",
          "type": "bytes32"
        }
      ],
      "stateMutability": "nonpayable",
      "type": "constructor"
    },
    {
      "inputs": [
        {
          "internalType": "uint256",
          "name": "",
          "type": "uint256"
        }
      ],
      "name": "active",
      "outputs": [
        {
          "internalType": "uint256",
          "name": "",
          "type": "uint256"
        }
      ],
      "stateMutability": "view",
      "type": "function"
    },
    {
      "inputs": [],
      "name": "buf",
      "outputs": [
        {
          "internalType": "uint256",
          "name": "",
          "type": "uint256"
        }
      ],
      "stateMutability": "view",
      "type": "function"
    },
    {
      "inputs": [],
      "name": "calc",
      "outputs": [
        {
          "internalType": "contract AbacusLike",
          "name": "",
          "type": "address"
        }
      ],
      "stateMutability": "view",
      "type": "function"
    },
    {
      "inputs": [],
      "name": "chip",
      "outputs": [
        {
          "internalType": "uint64",
          "name": "",
          "type": "uint64"
        }
      ],
      "stateMutability": "view",
      "type": "function"
    },
    {
      "inputs": [],
      "name": "chost",
      "outputs": [
        {
          "internalType": "uint256",
          "name": "",
          "type": "uint256"
        }
      ],
      "stateMutability": "view",
      "type": "function"
    },
    {
      "inputs": [],
      "name": "count",
      "outputs": [
        {
          "internalType": "uint256",
          "name": "",
          "type": "uint256"
        }
      ],
      "stateMutability": "view",
      "type": "function"
    },
    {
      "inputs": [],
      "name": "cusp",
      "outputs": [
        {
          "internalType": "uint256",
          "name": "",
          "type": "uint256"
        }
      ],
      "stateMutability": "view",
      "type": "function"
    },
    {
      "inputs": [],
      "name": "dog",
      "outputs": [
        {
          "internalType": "contract DogLike",
          "name": "",
          "type": "address"
        }
      ],
      "stateMutability": "view",
      "type": "function"
    },
    {
      "inputs": [
        {
          "internalType": "bytes32",
          "name": "what",
          "type": "bytes32"
        },
        {
          "internalType": "uint256",
          "name": "data",
          "type": "uint256"
        }
      ],
      "name": "file",
      "outputs": [],
      "stateMutability": "nonpayable",
      "type": "function"
    },
    {
      "inputs": [
        {
          "internalType": "bytes32",
          "name": "what",
          "type": "bytes32"
        },
        {
          "internalType": "address",
          "name": "data",
          "type": "address"
        }
      ],
      "name": "file",
      "outputs": [],
      "stateMutability": "nonpayable",
      "type": "function"
    },
    {
      "inputs": [
        {
          "internalType": "uint256",
          "name": "id",
          "type": "uint256"
        }
      ],
      "name": "getStatus",
      "outputs": [
        {
          "internalType": "bool",
          "name": "needsRedo",
          "type": "bool"
        },
        {
          "internalType": "uint256",
          "name": "price",
          "type": "uint256"
        },
        {
          "internalType": "uint256",
          "name": "lot",
          "type": "uint256"
        },
        {
          "internalType": "uint256",
          "name": "tab",
          "type": "uint256"
        }
      ],
      "stateMutability": "view",
      "type": "function"
    },
    {
      "inputs": [],
      "name": "ilk",
      "outputs": [
        {
          "internalType": "bytes32",
          "name": "",
          "type": "bytes32"
        }
      ],
      "stateMutability": "view",
      "type": "function"
    },
    {
      "inputs": [
        {
          "internalType": "uint256",
          "name": "tab",
          "type": "uint256"
        },
        {
          "internalType": "uint256",
          "name": "lot",
          "type": "uint256"
        },
        {
          "internalType": "address",
          "name": "usr",
          "type": "address"
        },
        {
          "internalType": "address",
          "name": "kpr",
          "type": "address"
        }
      ],
      "name": "kick",
      "outputs": [
        {
          "internalType": "uint256",
          "name": "id",
          "type": "uint256"
        }
      ],
      "stateMutability": "nonpayable",
      "type": "function"
    },
    {
      "inputs": [],
      "name": "kicks",
      "outputs": [
        {
          "internalType": "uint256",
          "name": "",
          "type": "uint256"
        }
      ],
      "stateMutability": "view",
      "type": "function"
    },
    {
      "inputs": [],
      "name": "list",
      "outputs": [
        {
          "internalType": "uint256[]",
          "name": "",
          "type": "uint256[]"
        }
      ],
      "stateMutability": "view",
      "type": "function"
    },
    {
      "inputs": [
        {
          "internalType": "uint256",
          "name": "id",
          "type": "uint256"
        },
        {
          "internalType": "address",
          "name": "kpr",
          "type": "address"
        }
      ],
      "name": "redo",
      "outputs": [],
      "stateMutability": "nonpayable",
      "type": "function"
    },
    {
      "inputs": [
        {
          "internalType": "address",
          "name": "usr",
          "type": "address"
        }
      ],
      "name": "rely",
      "outputs": [],
      "stateMutability": "nonpayable",
      "type": "function"
    },
    {
      "inputs": [
        {
          "internalType": "uint256",
          "name": "",
          "type": "uint256"
        }
      ],
      "name": "sales",
      "outputs": [
        {
          "internalType": "uint256",
          "name": "pos",
          "type": "uint256"
        },
        {
          "internalType": "uint256",
          "name": "tab",
          "type": "uint256"
        },
        {
          "internalType": "uint256",
          "name": "lot",
          "type": "uint256"
        },
        {
          "internalType": "address",
          "name": "usr",
          "type": "address"
        },
        {
          "internalType": "uint96",
          "name": "tic",
          "type": "uint96"
        },
        {
          "internalType": "uint256",
          "name": "top",
          "type": "uint256"
        }
      ],
      "stateMutability": "view",
      "type": "function"
    },
    {
      "inputs": [],
      "name": "spotter",
      "outputs": [
        {
          "internalType": "contract SpotterLike",
          "name": "",
          "type": "address"
        }
      ],
      "stateMutability": "view",
      "type": "function"
    },
    {
      "inputs": [],
      "name": "stopped",
      "outputs": [
        {
          "internalType": "uint256",
          "name": "",
          "type": "uint256"
        }
      ],
      "stateMutability": "view",
      "type": "function"
    },
    {
      "inputs": [],
      "name": "tail",
      "outputs": [
        {
          "internalType": "uint256",
          "name": "",
          "type": "uint256"
        }
      ],
      "stateMutability": "view",
      "type": "function"
    },
    {
      "inputs": [
        {
          "internalType": "uint256",
          "name": "id",
          "type": "uint256"
        },
        {
          "internalType": "uint256",
          "name": "amt",
          "type": "uint256"
        },
        {
          "internalType": "uint256",
          "name": "max",
          "type": "uint256"
        },
        {
          "internalType": "address",
          "name": "who",
          "type": "address"
        },
        {
          "internalType": "bytes",
          "name": "data",
          "type": "bytes"
        }
      ],
      "name": "take",
      "outputs": [],
      "stateMutability": "nonpayable",
      "type": "function"
    },
    {
      "inputs": [],
      "name": "tip",
      "outputs": [
        {
          "internalType": "uint192",
          "name": "",
          "type": "uint192"
        }
      ],
      "stateMutability": "view",
      "type": "function"
    },
    {
      "inputs": [],
      "name": "upchost",
      "outputs": [],
      "stateMutability": "nonpayable",
      "type": "function"
    },
    {
      "inputs": [],
      "name": "vat",
      "outputs": [
        {
          "internalType": "contract VatLike",
          "name": "",
          "type": "address"
        }
      ],
      "stateMutability": "view",
      "type": "function"
    },
    {
      "inputs": [],
      "name": "vow",
      "outputs": [
        {
          "internalType": "address",
          "name": "",
          "type": "address"
        }
      ],
      "stateMutability": "view",
      "type": "function"
    },
    {
      "inputs": [
        {
          "internalType": "address",
          "name": "",
          "type": "address"
        }
      ],
      "name": "wards",
      "outputs": [
        {
          "internalType": "uint256",
          "name": "",
          "type": "uint256"
        }
      ],
      "stateMutability": "view",
      "type": "function"
    },
    {
      "inputs": [
        {
          "internalType": "uint256",
          "name": "id",
          "type": "uint256"
        }
      ],
      "name": "yank",
      "outputs": [],
      "stateMutability": "nonpayable",
      "type": "function"
    }
  ],
  "bytecode": "0x60c06040526000600e5534801561001557600080fd5b506040516120b53803806120b58339818101604052608081101561003857600080fd5b5080516020808301516040808501516060958601519585901b6001600160601b03191660a052600380546001600160a01b03199081166001600160a01b03958616179091556001805490911691841691909117815560808690526b033b2e3c9fd0803ce8000000600555336000908152938490529083205590911690611f949061012190398061051352806108735280610a6f5280610e5e5280610ed9528061100f528061117b52806115555280611a0252508061054252806105d9528061079b528061082f5280610e0f52806110825280611136528061165d5280611cc85250611f946000f3fe608060405234801561001057600080fd5b50600436106101545760003560e01c806306661abd146101595780630cbb5862146101735780630f560cd71461017d57806313d8c840146101d557806315232515146101dd57806326e027f1146101e55780632755cd2d1461020257806329ae8114146102265780632e77468d1461024957806336569e771461026d57806349ed5931146102755780635c622a0e1461027d578063626cb3c5146102c257806365fae35e146102ca57806375f12b21146102f05780638033d581146102f857806381a794cb14610315578063898eb267146103a457806396f1b6be146103de578063b5f522f7146103e6578063b61500e414610447578063ba2cdc751461046b578063bf353dbb14610473578063c3b3ad7f14610499578063c5ce281e146104a1578063cfdd3302146104a9578063d4e8be83146104b1578063d843416d146104dd575b600080fd5b610161610509565b60408051918252519081900360200190f35b61017b61050f565b005b610185610670565b60408051602080825283518183015283519192839290830191858101910280838360005b838110156101c15781810151838201526020016101a9565b505050509050019250505060405180910390f35b6101616106c8565b6101616106ce565b61017b600480360360208110156101fb57600080fd5b50356106d4565b61020a6108e2565b604080516001600160c01b039092168252519081900360200190f35b61017b6004803603604081101561023c57600080fd5b50803590602001356108f8565b610251610a5e565b604080516001600160a01b039092168252519081900360200190f35b610251610a6d565b610161610a91565b61029a6004803603602081101561029357600080fd5b5035610a97565b6040805194151585526020850193909352838301919091526060830152519081900360800190f35b610251610b23565b61017b600480360360208110156102e057600080fd5b50356001600160a01b0316610b32565b610161610b4f565b6101616004803603602081101561030e57600080fd5b5035610b55565b61017b600480360360a081101561032b57600080fd5b8135916020810135916040820135916001600160a01b036060820135169181019060a081016080820135600160201b81111561036657600080fd5b82018360208201111561037857600080fd5b803590602001918460018302840111600160201b8311171561039957600080fd5b509092509050610b73565b610161600480360360808110156103ba57600080fd5b508035906020810135906001600160a01b0360408201358116916060013516611216565b6102516115cb565b610403600480360360208110156103fc57600080fd5b50356115da565b604080519687526020870195909552858501939093526001600160a01b0390911660608501526001600160601b0316608084015260a0830152519081900360c00190f35b61044f611625565b604080516001600160401b039092168252519081900360200190f35b610161611634565b6101616004803603602081101561048957600080fd5b50356001600160a01b031661163a565b61025161164c565b61016161165b565b61016161167f565b61017b600480360360408110156104c757600080fd5b50803590602001356001600160a01b0316611685565b61017b600480360360408110156104f357600080fd5b50803590602001356001600160a01b031661178a565b600b5490565b60007f00000000000000000000000000000000000000000000000000000000000000006001600160a01b031663d9638d367f00000000000000000000000000000000000000000000000000000000000000006040518263ffffffff1660e01b81526004018082815260200191505060a060405180830381600087803b15801561059757600080fd5b505af11580156105ab573d6000803e3d6000fd5b505050506040513d60a08110156105c157600080fd5b506080015160015460408051631af24ca760e31b81527f00000000000000000000000000000000000000000000000000000000000000006004820152905192935061066a9284926001600160a01b03169163d79265389160248083019260209291908290030181600087803b15801561063957600080fd5b505af115801561064d573d6000803e3d6000fd5b505050506040513d602081101561066357600080fd5b5051611acb565b60095550565b6060600b8054806020026020016040519081016040528092919081815260200182805480156106be57602002820191906000526020600020905b8154815260200190600101908083116106aa575b5050505050905090565b60065481565b60055481565b600d5415610717576040805162461bcd60e51b81526020600482015260156024820152600080516020611f3f833981519152604482015290519081900360640190fd5b6001600d556000818152600c60205260409020600301546001600160a01b0316610776576040805162461bcd60e51b815260206004820152601b6024820152600080516020611eff833981519152604482015290519081900360640190fd5b600180546000838152600c602052604080822090930154835163321c64fd60e21b81527f00000000000000000000000000000000000000000000000000000000000000006004820152602481019190915292516001600160a01b039092169263c87193f4926044808301939282900301818387803b1580156107f757600080fd5b505af115801561080b573d6000803e3d6000fd5b5050506000828152600c6020526040808220600201548151633088df1760e11b81527f00000000000000000000000000000000000000000000000000000000000000006004820152306024820152336044820152606481019190915290516001600160a01b037f0000000000000000000000000000000000000000000000000000000000000000169350636111be2e9260848084019391929182900301818387803b1580156108b957600080fd5b505af11580156108cd573d6000803e3d6000fd5b505050506108da81611aef565b506000600d55565b600854600160401b90046001600160c01b031681565b600d541561093b576040805162461bcd60e51b81526020600482015260156024820152600080516020611f3f833981519152604482015290519081900360640190fd5b6001600d5562313ab360e91b821415610958576005819055610a55565b81631d185a5b60e21b1415610971576006819055610a55565b81630637573760e41b141561098a576007819055610a55565b81630636869760e41b14156109b957600880546001600160401b0319166001600160401b038316179055610a55565b816207469760ec1b14156109ec57600880546001600160401b0316600160401b6001600160c01b03841602179055610a55565b81661cdd1bdc1c195960ca1b1415610a0857600e819055610a55565b6040805162461bcd60e51b815260206004820152601f60248201527f436c69707065722f66696c652d756e7265636f676e697a65642d706172616d00604482015290519081900360640190fd5b50506000600d55565b6003546001600160a01b031681565b7f000000000000000000000000000000000000000000000000000000000000000081565b60075481565b6000818152600c6020526040812060038101546004909101548291829182916001600160a01b03811691600160a01b9091046001600160601b0316908390610ae0908390611ba9565b965090506001600160a01b03831615801590610af95750805b6000988952600c602052604090982060028101546001909101549899969890975095945050505050565b6002546001600160a01b031681565b6001600160a01b0316600090815260208190526040902060019055565b600e5481565b600b8181548110610b6257fe5b600091825260209091200154905081565b600d5415610bb6576040805162461bcd60e51b81526020600482015260156024820152600080516020611f3f833981519152604482015290519081900360640190fd5b6001600d55600e546003908111610c02576040805162461bcd60e51b81526020600482015260196024820152600080516020611f1f833981519152604482015290519081900360640190fd5b6000878152600c60205260409020600301546001600160a01b03811690600160a01b90046001600160601b031681610c6f576040805162461bcd60e51b815260206004820152601b6024820152600080516020611eff833981519152604482015290519081900360640190fd5b6000898152600c60205260408120600401548190610c8e908490611ba9565b925090508015610cdb576040805162461bcd60e51b815260206004820152601360248201527210db1a5c1c195c8bdb9959591ccb5c995cd95d606a1b604482015290519081900360640190fd5b5080881015610d29576040805162461bcd60e51b8152602060048201526015602482015274436c69707065722f746f6f2d657870656e7369766560581b604482015290519081900360640190fd5b60008a8152600c602052604081206002810154600190910154909180610d4f848e611c72565b9050610d5b8186611c8b565b915082821115610d7957829150848281610d7157fe5b049050610dff565b8282108015610d8757508381105b15610dff57600954828403811115610dfd57808411610deb576040805162461bcd60e51b815260206004820152601b60248201527a436c69707065722f6e6f2d7061727469616c2d707572636861736560281b604482015290519081900360640190fd5b8084039250858381610df957fe5b0491505b505b60408051633088df1760e11b81527f000000000000000000000000000000000000000000000000000000000000000060048201523060248201526001600160a01b038d81166044830152606482018490529151958390039594849003947f000000000000000000000000000000000000000000000000000000000000000090921691636111be2e9160848082019260009290919082900301818387803b158015610ea857600080fd5b505af1158015610ebc573d6000803e3d6000fd5b50506001546001600160a01b03169150508915801590610f0e57507f00000000000000000000000000000000000000000000000000000000000000006001600160a01b03168c6001600160a01b031614155b8015610f2c5750806001600160a01b03168c6001600160a01b031614155b15610fdd578b6001600160a01b0316638452c10e3385858f8f6040518663ffffffff1660e01b815260040180866001600160a01b03168152602001858152602001848152602001806020018281038252848482818152602001925080828437600081840152601f19601f8201169050808301925050509650505050505050600060405180830381600087803b158015610fc457600080fd5b505af1158015610fd8573d6000803e3d6000fd5b505050505b6002546040805163bb35783b60e01b81523360048201526001600160a01b0392831660248201526044810186905290517f00000000000000000000000000000000000000000000000000000000000000009092169163bb35783b9160648082019260009290919082900301818387803b15801561105957600080fd5b505af115801561106d573d6000803e3d6000fd5b50505050806001600160a01b031663c87193f47f0000000000000000000000000000000000000000000000000000000000000000876000146110af57856110b3565b8587015b6040518363ffffffff1660e01b81526004018083815260200182815260200192505050600060405180830381600087803b1580156110f057600080fd5b505af1158015611104573d6000803e3d6000fd5b50505050505082600014156111215761111c8d611aef565b611202565b816111e65760408051633088df1760e11b81527f000000000000000000000000000000000000000000000000000000000000000060048201523060248201526001600160a01b0388811660448301526064820186905291517f000000000000000000000000000000000000000000000000000000000000000090921691636111be2e9160848082019260009290919082900301818387803b1580156111c557600080fd5b505af11580156111d9573d6000803e3d6000fd5b5050505061111c8d611aef565b60008d8152600c60205260409020600181018390556002018390555b50506000600d555050505050505050505050565b6000600d5460001461125d576040805162461bcd60e51b81526020600482015260156024820152600080516020611f3f833981519152604482015290519081900360640190fd5b6001600d819055600e5481116112a8576040805162461bcd60e51b81526020600482015260196024820152600080516020611f1f833981519152604482015290519081900360640190fd5b600086116112f0576040805162461bcd60e51b815260206004820152601060248201526f21b634b83832b917bd32b93796ba30b160811b604482015290519081900360640190fd5b60008511611338576040805162461bcd60e51b815260206004820152601060248201526f10db1a5c1c195c8bde995c9bcb5b1bdd60821b604482015290519081900360640190fd5b6001600160a01b038416611386576040805162461bcd60e51b815260206004820152601060248201526f21b634b83832b917bd32b93796bab9b960811b604482015290519081900360640190fd5b600a8054600101908190559150816113d8576040805162461bcd60e51b815260206004820152601060248201526f436c69707065722f6f766572666c6f7760801b604482015290519081900360640190fd5b600b8054600180820183557f0175b7a638427703f0dbe7bb9bbf987a2551717b34e79f33b5b1008d1fa01db990910184905590546000848152600c6020526040812060001990920182559181018890556002810187905560030180546001600160a01b0319166001600160a01b038781169190911716600160a01b426001600160601b03160217905561147461146c611cb5565b600554611eae565b9050600081116114c4576040805162461bcd60e51b8152602060048201526016602482015275436c69707065722f7a65726f2d746f702d707269636560501b604482015290519081900360640190fd5b6000838152600c602052604081206004018290556008546001600160c01b03600160401b820416916001600160401b0390911690821515806115065750600082115b156115b85761151e836115198c85611acb565b611ec6565b6002546040805163f24e23eb60e01b81526001600160a01b0392831660048201528a831660248201526044810184905290519293507f00000000000000000000000000000000000000000000000000000000000000009091169163f24e23eb9160648082019260009290919082900301818387803b15801561159f57600080fd5b505af11580156115b3573d6000803e3d6000fd5b505050505b50506000600d5550919695505050505050565b6004546001600160a01b031681565b600c60205260009081526040902080546001820154600283015460038401546004909401549293919290916001600160a01b03811691600160a01b9091046001600160601b03169086565b6008546001600160401b031681565b60095481565b60006020819052908152604090205481565b6001546001600160a01b031681565b7f000000000000000000000000000000000000000000000000000000000000000081565b600a5481565b600d54156116c8576040805162461bcd60e51b81526020600482015260156024820152600080516020611f3f833981519152604482015290519081900360640190fd5b6001600d556639b837ba3a32b960c91b8214156116ff57600380546001600160a01b0319166001600160a01b038316179055610a55565b8162646f6760e81b141561172d57600180546001600160a01b0319166001600160a01b038316179055610a55565b8162766f7760e81b141561175b57600280546001600160a01b0319166001600160a01b038316179055610a55565b816363616c6360e01b1415610a0857600480546001600160a01b0319166001600160a01b038316179055610a55565b600d54156117cd576040805162461bcd60e51b81526020600482015260156024820152600080516020611f3f833981519152604482015290519081900360640190fd5b6001600d55600e546002908111611819576040805162461bcd60e51b81526020600482015260196024820152600080516020611f1f833981519152604482015290519081900360640190fd5b6000838152600c6020526040902060038101546004909101546001600160a01b03821691600160a01b90046001600160601b0316908261188e576040805162461bcd60e51b815260206004820152601b6024820152600080516020611eff833981519152604482015290519081900360640190fd5b600061189a8383611ba9565b509050806118e6576040805162461bcd60e51b815260206004820152601460248201527310db1a5c1c195c8bd8d85b9b9bdd0b5c995cd95d60621b604482015290519081900360640190fd5b6000878152600c6020526040812060018101546002820154600390920180546001600160a01b0316600160a01b426001600160601b0316021790559161192a611cb5565b905061193881600554611eae565b945060008511611988576040805162461bcd60e51b8152602060048201526016602482015275436c69707065722f7a65726f2d746f702d707269636560501b604482015290519081900360640190fd5b60008a8152600c602052604081206004018690556008546001600160c01b03600160401b820416916001600160401b0390911690821515806119ca5750600082115b15611202576009548087108015906119eb5750806119e88787611c8b565b10155b15611ab6576119fe846115198986611acb565b91507f00000000000000000000000000000000000000000000000000000000000000006001600160a01b031663f24e23eb600260009054906101000a90046001600160a01b03168f856040518463ffffffff1660e01b815260040180846001600160a01b03168152602001836001600160a01b031681526020018281526020019350505050600060405180830381600087803b158015611a9d57600080fd5b505af1158015611ab1573d6000803e3d6000fd5b505050505b5050506000600d555050505050505050505050565b6000670de0b6b3a7640000611ae08484611c8b565b81611ae757fe5b049392505050565b600b8054600091906000198101908110611b0557fe5b90600052602060002001549050808214611b58576000828152600c6020526040902054600b805483919083908110611b3957fe5b6000918252602080832090910192909255838152600c90915260409020555b600b805480611b6357fe5b600082815260208082208301600019908101839055909201909255928152600c909252506040812081815560018101829055600281018290556003810182905560040155565b60045460009081906001600160a01b031663487a239584611bd3426001600160601b038916611ed6565b6040518363ffffffff1660e01b8152600401808381526020018281526020019250505060206040518083038186803b158015611c0e57600080fd5b505afa158015611c22573d6000803e3d6000fd5b505050506040513d6020811015611c3857600080fd5b5051600654909150611c53426001600160601b038716611ed6565b1180611c695750600754611c678285611ee6565b105b91509250929050565b600081831115611c825781611c84565b825b9392505050565b6000811580611ca657505080820282828281611ca357fe5b04145b611caf57600080fd5b92915050565b60035460408051636cb1c69b60e11b81527f00000000000000000000000000000000000000000000000000000000000000006004820152815160009384936001600160a01b039091169263d9638d36926024808301939282900301818787803b158015611d2157600080fd5b505af1158015611d35573d6000803e3d6000fd5b505050506040513d6040811015611d4b57600080fd5b5051604080516359e02dd760e01b8152815192935060009283926001600160a01b038616926359e02dd7926004808301939282900301818787803b158015611d9257600080fd5b505af1158015611da6573d6000803e3d6000fd5b505050506040513d6040811015611dbc57600080fd5b508051602090910151909250905080611e14576040805162461bcd60e51b8152602060048201526015602482015274436c69707065722f696e76616c69642d707269636560581b604482015290519081900360640190fd5b611ea6611e2583633b9aca00611c8b565b600360009054906101000a90046001600160a01b03166001600160a01b031663495d32cb6040518163ffffffff1660e01b8152600401602060405180830381600087803b158015611e7557600080fd5b505af1158015611e89573d6000803e3d6000fd5b505050506040513d6020811015611e9f57600080fd5b5051611ee6565b935050505090565b6000676765c793fa10079d601b1b611ae08484611c8b565b80820182811015611caf57600080fd5b80820382811115611caf57600080fd5b600081611ae084676765c793fa10079d601b1b611c8b56fe436c69707065722f6e6f742d72756e6e696e672d61756374696f6e0000000000436c69707065722f73746f707065642d696e636f727265637400000000000000436c69707065722f73797374656d2d6c6f636b65640000000000000000000000a264697066735822122007a0f287dadaae7019cea72f32ab07370351f8ecc4f3d52b0fef5ab3eec3a16c64736f6c634300060c0033",
  "linkReferences": {},
  "deployedLinkReferences": {}
}