{
  "_format": "hh-sol-artifact-1",
  "contractName": "ETHJoin",
  "sourceName": "contracts/dss/ethjoin.sol",
  "abi": [
    {
      "inputs": [
        {
          "internalType": "address",
          "name": "vat_",
          "type": "address"
        },
        {
          "internalType": "bytes32",
          "name": "ilk_",
          "type": "bytes32"
        }
      ],
      "stateMutability": "nonpayable",
      "type": "constructor"
    },
    {
      "inputs": [],
      "name": "cage",
      "outputs": [],
      "stateMutability": "nonpayable",
      "type": "function"
    },
    {
      "inputs": [
        {
          "internalType": "address",
          "name": "usr",
          "type": "address"
        }
      ],
      "name": "deny",
      "outputs": [],
      "stateMutability": "nonpayable",
      "type": "function"
    },
    {
      "inputs": [
        {
          "internalType": "address payable",
          "name": "usr",
          "type": "address"
        },
        {
          "internalType": "uint256",
          "name": "wad",
          "type": "uint256"
        }
      ],
      "name": "exit",
      "outputs": [],
      "stateMutability": "nonpayable",
      "type": "function"
    },
    {
      "inputs": [],
      "name": "ilk",
      "outputs": [
        {
          "internalType": "bytes32",
          "name": "",
          "type": "bytes32"
        }
      ],
      "stateMutability": "view",
      "type": "function"
    },
    {
      "inputs": [
        {
          "internalType": "address",
          "name": "usr",
          "type": "address"
        }
      ],
      "name": "join",
      "outputs": [],
      "stateMutability": "payable",
      "type": "function"
    },
    {
      "inputs": [],
      "name": "live",
      "outputs": [
        {
          "internalType": "uint256",
          "name": "",
          "type": "uint256"
        }
      ],
      "stateMutability": "view",
      "type": "function"
    },
    {
      "inputs": [
        {
          "internalType": "address",
          "name": "usr",
          "type": "address"
        }
      ],
      "name": "rely",
      "outputs": [],
      "stateMutability": "nonpayable",
      "type": "function"
    },
    {
      "inputs": [],
      "name": "vat",
      "outputs": [
        {
          "internalType": "contract VatLike",
          "name": "",
          "type": "address"
        }
      ],
      "stateMutability": "view",
      "type": "function"
    },
    {
      "inputs": [
        {
          "internalType": "address",
          "name": "",
          "type": "address"
        }
      ],
      "name": "wards",
      "outputs": [
        {
          "internalType": "uint256",
          "name": "",
          "type": "uint256"
        }
      ],
      "stateMutability": "view",
      "type": "function"
    }
  ],
  "bytecode": "0x608060405234801561001057600080fd5b506040516105243803806105248339818101604052604081101561003357600080fd5b508051602091820151336000908152928390526040909220600190819055600381905580546001600160a01b039092166001600160a01b031990921691909117905560025561049d806100876000396000f3fe6080604052600436106100765760003560e01c806328ffe6c81461007b57806336569e77146100a357806365fae35e146100d45780636924500914610107578063957aa58c1461011c5780639c52a7f114610143578063bf353dbb14610176578063c5ce281e146101a9578063ef693bed146101be575b600080fd5b6100a16004803603602081101561009157600080fd5b50356001600160a01b03166101f7565b005b3480156100af57600080fd5b506100b8610303565b604080516001600160a01b039092168252519081900360200190f35b3480156100e057600080fd5b506100a1600480360360208110156100f757600080fd5b50356001600160a01b0316610312565b34801561011357600080fd5b506100a161032f565b34801561012857600080fd5b50610131610336565b60408051918252519081900360200190f35b34801561014f57600080fd5b506100a16004803603602081101561016657600080fd5b50356001600160a01b031661033c565b34801561018257600080fd5b506101316004803603602081101561019957600080fd5b50356001600160a01b0316610356565b3480156101b557600080fd5b50610131610368565b3480156101ca57600080fd5b506100a1600480360360408110156101e157600080fd5b506001600160a01b03813516906020013561036e565b600354600114610241576040805162461bcd60e51b815260206004820152601060248201526f4554484a6f696e2f6e6f742d6c69766560801b604482015290519081900360640190fd5b600034121561028a576040805162461bcd60e51b815260206004820152601060248201526f4554484a6f696e2f6f766572666c6f7760801b604482015290519081900360640190fd5b60015460025460408051633e6e9fef60e11b815260048101929092526001600160a01b0384811660248401523460448401529051921691637cdd3fde9160648082019260009290919082900301818387803b1580156102e857600080fd5b505af11580156102fc573d6000803e3d6000fd5b5050505050565b6001546001600160a01b031681565b6001600160a01b0316600090815260208190526040902060019055565b6000600355565b60035481565b6001600160a01b0316600090815260208190526040812055565b60006020819052908152604090205481565b60025481565b60008112156103b7576040805162461bcd60e51b815260206004820152601060248201526f4554484a6f696e2f6f766572666c6f7760801b604482015290519081900360640190fd5b60015460025460408051633e6e9fef60e11b815260048101929092523360248301526000848103604484015290516001600160a01b0390931692637cdd3fde92606480820193929182900301818387803b15801561041457600080fd5b505af1158015610428573d6000803e3d6000fd5b50506040516001600160a01b038516925083156108fc02915083906000818181858888f19350505050158015610462573d6000803e3d6000fd5b50505056fea2646970667358221220bad5608547448486a5f229667c72afd71d613342f6cc92e8ffc81d17a5019b3c64736f6c634300060c0033",
  "linkReferences": {},
  "deployedLinkReferences": {}
}